:020000022000DC
:1070000000000420797302006173020063730200C0
:1070100065730200677302006973020000000000DC
:107020000000000000000000000000006B73020080
:107030006D730200000000006F73020071730200A4
:10704000A9AA02007373020065AF02002DB302000B
:107050003DB3020073730200D9AD020073730200E6
:1070600049B902005DB9020071B9020073730200F0
:107070007373020073730200737302007373020070
:10708000737302007186020073730200737302004F
:1070900073730200737302008111030073730200A3
:1070A000737302007373020085B9020073730200E8
:1070B0007373020073730200000000000000000000
:1070C0007373020073730200737302007373020020
:1070D0007373020073730200737302007373020010
:1070E00073730200737302007373020000000000E8
:1070F00000000000737302000000000073730200C0
:10710000000000000000000000000000000000007F
:10711000000000000000000000000000000000006F
:10712000000000000000000000000000000000005F
:10713000000000000000000000000000000000004F
:10714000000000000000000000000000000000003F
:10715000000000000000000000000000000000002F
:10716000000000000000000000000000000000001F
:10717000000000000000000000000000000000000F
:1071800000000000000000000000000000000000FF
:1071900000000000000000000000000000000000EF
:1071A00000000000000000000000000000000000DF
:1071B00000000000000000000000000000000000CF
:1071C00000000000000000000000000000000000BF
:1071D00000000000000000000000000000000000AF
:1071E000000000000000000000000000000000009F
:1071F000000000000000000000000000000000008F
:10720000364937480A1A02D0072291438D4635493C
:1072100035480A1A06D00722914381F309880222D1
:1072200082F3148831483249324A00F045F8324836
:107230003249334A00F040F832483349334A00F0CB
:107240003BF833483349344A00F036F83348344980
:10725000344A00F031F834483449354A00F02CF80B
:1072600034483549354A00F027F835483549002279
:1072700000F02DF834483549002200F028F8344851
:107280003449091A082903DB002202600430016036
:10729000314A90471F482049884205D0026804308F
:1072A00003B4904703BCF7E700208646EC46002075
:1072B00000212A4A9047FEE7884207D0521A05D09B
:1072C000037801300B700131013AF9D170478842DF
:1072D00002D002700130FAE770470000000004207D
:1072E00000E003200000042000000420CC4803003C
:1072F0008422002044240020D4730200D4730200AE
:1073000014220300CC4803008422002084220020A1
:10731000AC230300AC230300AC230300AC23030025
:10732000AC230300AC230300AC230300AC23030015
:10733000CC4803008C4A030044240020442400204D
:1073400044240020383D0020383D0020383D0020F6
:10735000383D0020385D0020A1730200F1C5020015
:10736000FEE7FEE7FEE7FEE7FEE7FEE7FEE7FEE7F5
:10737000FEE7FEE700F002B8FFF7FCBF0F484FF052
:107380000701884385460E4880470E48016841F44E
:1073900070010160BFF34F8FBFF36F8FFFF730BFF6
:1073A00009480A490A4A884207D0521A05D0037888
:1073B00001300B700131013AF9D17047000004200F
:1073C0003DA5020088ED00E0982303007022002014
:0473D00084220020F3
:1073D4007047000007B5044B0093044A402300F0B3
:1073E40032F803B05DF804FBF57302004524002075
:1073F4002DE9F84389461446E2B10F4B0F4E03259D
:10740400002743F00108224609EB0701002005F09C
:10741400D3FB0744241A48B933785BB14FF47A405C
:10742400C047013D02D13570BDE8F88301233370B4
:10743400002CE8D1BDE8F883B023030044240020E5
:10744400704705F00BBCF0B595B01C4608460D46D8
:10745400164602F075FF1A9B099400240D93082226
:10746400234605A9284608960A948DF82C400C94C6
:1074740002F084FF079B0293BDF81830ADF80C307E
:10748400BDF81A30ADF80E309DF814308DF8114067
:1074940003F00302012A1DD1BDF81440059EC3F375
:1074A400C203C4F383148DF81030A20008230EA97C
:1074B400284602F063FFC6F3952608AB00932246E4
:1074C40002AB0EA9304600F057FB284602F03CFF01
:1074D40015B0F0BD022AF8D1BDF81640C3F3C203BB
:1074E400C4F389148DF810300827082C264628BFC9
:1074F40008263B4632460EA9284602F03FFFA41B4D
:1075040008AB02AA31460EA8374400F099FB002CC0
:10751400EBD1DAE708B5FFF794FF0421034800F044
:107524009BFA034B01225A7108BD00BF8823030054
:1075340084220020037813F0040216D003F003031E
:10754400012B03D0022B09D0012070470A68008860
:107554000232C0F3831002440A60F5E70B684288E4
:10756400023303EB92130B60EEE710467047000002
:107574002DE9F04F87B00546841C06A8002300F8C7
:10758400113D0E46904600F001FF454A53683360B2
:107594009368516803F580735B1A924602F21C46A5
:1075A40002F5836902F21447A3421BD30023B8F106
:1075B400000F6CD0012262F3010343F0040365F36E
:1075C4008913DAF804109DF80700CAB203320C4498
:1075D4004AF82230CAF8044000F0FCFE012007B04B
:1075E400BDE8F08F0121304602F020F9484602F050
:1075F4003AF9384602F037F90DF1180BDAF80800B9
:107604004BF8100DC0B203300AEB80005946FFF767
:1076140091FF029BA0B9DAB20AEB8202991C0133F2
:10762400D2680392DBB20AEB830302F00302DB6845
:107634000291012A049322D0022A03D083460BE04C
:10764400D8B2E0E7BDF80E30BDF812B0C3F3891329
:10765400033301EB93030293384602F007F910B1A8
:10766400029BCAF808305946304602F0DFF8DAF8CF
:107674000830DAF8042003F580739B1A94E7BDF808
:107684000C30BDF812B0C3F383130B44E3E70222BA
:1076940062F3010343F0040365F39F5391E700BFD2
:1076A40058250020064B074810B500221A7002F036
:1076B400FEFD044610B9044802F0AAFE204610BD9F
:1076C4005825002094220300D423030030B50A4C2B
:1076D40071B10A4A0A49121BD20800239A4201D105
:1076E400002030BD31F82350854202D00133F5E744
:1076F400034654F8330030BDA82203008823030056
:1077040084220020094B013903EBC000032909D866
:10771400DFE801F00A02040604207047007970478C
:10772400407970470020704702207047A822030068
:10773400034B98685B68C31A58425841704700BFAE
:10774400582500202DE9F04186B0FFF7F1FF0546EA
:10775400002840F0E580784CC4F81804BFF34F8F3C
:10776400A06806AE46F8100DC0B2033004EB8000EA
:107774003146FFF7DFFE029B18B1D4F81824002A23
:1077840055D0DAB2991C013304EB8202DBB204EB6C
:107794008303D268DB68049302F00303022B039291
:1077A400029154D1BDF80E306448C3F38917502FA9
:1077B400B846A8BF4FF0500868F38F1308F10801CA
:1077C400ADF80E3002F08BFD0546002800F0AA80CB
:1077D40002F0B6FD03A900230822284602F0C3FDE7
:1077E4000299CE43F6B20136B600B045C9B228D9E3
:1077F40003310823324604EB8101A8EB060828462E
:1078040002F0B1FD5FFA88F84D4906F108034246DB
:10781400284602F0A8FD029B033703EB9707029763
:10782400D4F81834002B46D1D4F8106451E06268BF
:107834009A4204D8A260284606B0BDE8F081D8B2C6
:1078440093E703310823424604EB8101E0E7012B6F
:1078540068D1BDF80C303948C3F38311062928BF19
:10786400062161F3891302318900ADF80C3002F06E
:1078740036FD0546002855D002F062FD002308229B
:1078840003A9284602F06FFD0026BDF80C20C2F3C0
:107894008312B31C96424FEA8303C1D202994A1C55
:1078A400C9B20331029204EB81010422284602F09A
:1078B4005AFD0136E9E7284602F046FDFFF738FF96
:1078C40080F00100C5B2B6E7F3685B796BBBF3687F
:1078D4001E68002EF8D1284602F036FD06A800F8EE
:1078E400116D00F053FDD4F818340BB9029BA3605A
:1078F4009DF8070000F06EFDE0E7236820469B68D2
:107904009847E3681C68002CF7D10E4B0E480F49CA
:10791400C01AC008000440F0020000F06BF8CDE784
:10792400002588E7D4F81044EDE7336829461B683E
:1079340030469847CBE700BF582500209422030027
:1079440064250020A8220300E8220300E0230300AA
:107954002DE9F34780460F46924601A901221846B5
:107964009946FFF705FE214D68B3019C0026A21C31
:107974004E4531D100211E4801F00BFF80F3100069
:10798400631CDBB205EB8303000440EA1840D860B3
:10799400E3B20333012115F8232068F3C50205F887
:1079A400232035F8232066F3891225F8232055F87F
:1079B400232067F39F2245F8232061F301026FF32C
:1079C400820205F823202B781BB1FFF7BBFE0028A9
:1079D400FBD102B0BDE8F087D1B205EB81015AF8C2
:1079E4002630CB6001360132C2E700BF58250020A3
:1079F4007429002000231A46FFF7AABF13B502AC6E
:107A0400012344F8042D2246FFF7A2FF02B010BD63
:107A140007B58DE80C0002236A46FFF799FF03B00F
:107A24005DF804FB1FB50293069B0192039301AA20
:107A34000323FFF78DFF05B05DF804FB1FB58DE848
:107A44000C00069B0293079B03936A460423FFF7EB
:107A54007FFF05B05DF804FB30B50F49D1F8102461
:107A6400002314463CB9C468237152B9C1F8100408
:107A74002260184630BDE46825799D4206D024680A
:107A8400F0E7D268116821601060F2E701330A2B35
:107A9400E7D14FF0FF33ECE758250020084A38B50A
:107AA4000123D2F8104413701D4604B938BDE368AD
:107AB4005D71236820465B689847E3681C68F4E7B7
:107AC40058250020C38873B504460D4633B1144AC3
:107AD40000921449144A284601F029FF217A052905
:107AE4001CD0637A4BB1A088FFF70CFE0F4B1049F2
:107AF40053F82020284601F01AFF227A0D4BA08863
:107B040053F822600021FFF7E1FD0B49034632469A
:107B1400284602B0BDE8704001F009BF02B070BD54
:107B24004B240300332403002B240300F823030015
:107B34000F3C03005C24030050240300037A052B4C
:107B440010B50C460FD0437A23B1084A08492046A1
:107B540001F0EDFE0749204601F0E9FE2046BDE8AC
:107B6400104001F0D9BE002AF8D0F3E74B240300FB
:107B74000F3C0300482403002DE9F04385B01F4661
:107B84000C9D002306460C46904695F80C902B73EA
:107B940029463846FFF796FFB8F1060F09D8DFE803
:107BA40008F00412181F283340003146284601F01B
:107BB400BEFE002229463846FFF7C0FF85F80C9028
:107BC40005B0BDE8F08322683146284601F0AFFED7
:107BD400EFE794E80C003146284601F0A8FEE8E7F8
:107BE400A3680093314694E80C00284601F09FFEF8
:107BF400DFE7E3680193A3680093314694E80C003F
:107C0400284601F094FED4E723690293E3680193C4
:107C1400A3680093314694E80C00284601F087FEDF
:107C2400C7E76369039323690293E3680193A36835
:107C34000093314694E80C00284601F078FEB8E73A
:107C440008292DE9F84F80460E4617461C463AD8B7
:107C5400002593F80C901D7319461046FFF732FF68
:107C6400DFF884A0DFF884B0AE422ED918F80520DE
:107C74005946204601F05BFE0135082DF4D1184920
:107C8400DFF86CB0204601F052FE4FF0000A564572
:107C940020D918F80A507E2D03D8284609F022FE70
:107CA40000B92E252A465946204601F040FE0AF125
:107CB400010ABAF1080FEAD1012221463846FFF73A
:107CC4003DFF84F80C90BDE8F88F5146204601F042
:107CD4002EFED1E70349204601F029FEE7E700BF65
:107CE4002624030024240300222403001C2403006C
:107CF40028240300C30710B507D4F0234008054A1D
:107D0400145C23401943115410BD0901C9B20F2357
:107D1400F4E700BF402A002030B5094B1C78094B1A
:107D240019680023A34202DB0022104630BD11F87B
:107D34003350854201EBC302F7D00133F2E700BFB1
:107D4400102A0020602A002070B504460D46FFF773
:107D5400E3FF30B1436823B129462046BDE87040B3
:107D6400184770BD034B044819680022490800F005
:107D740022BA00BF142A0020182A002010B5C0B26D
:107D8400FFF7CAFF0446007803F014F863785A1E1C
:107D940053425341834208D1044BD3E90023134394
:107DA40003D1BDE81040FFF7DDBF10BD382A002025
:107DB40037B543082E4AD35CC2074CBF1B0903F0F6
:107DC4000F0304460D46042B2FD8DFE803F0031EEF
:107DD4002632360049B30121FFF78CFF02A80023A5
:107DE40000F8013D234D00F0D1FA22460120002184
:107DF40009F05AFCD5E9002310431943C5E90001F1
:107E04009DF8070000F0E6FA0FE0002914BF0221F4
:107E140000212046FFF76EFF07E041B10321FFF781
:107E240069FF01212046FFF78FFF03B030BD012118
:107E3400EFE70029F9D10421EBE709B10321E8E7D1
:107E4400FFF758FF29462046FFF77EFF02A800F8F7
:107E5400015D084D00F09AFA22460120002109F044
:107E640023FCD5E9002322EA000023EA0101C5E747
:107E7400402A0020382A00202DE9F041124E134FE9
:107E8400002433789C4208DB114BD3E900231343CD
:107E940018D0BDE8F041FFF765BF3D6805EBC408A5
:107EA40015F8340002F086FF98F801104B1E594271
:107EB40059410A1A514215F834005141FFF778FF2D
:107EC4000134DEE7BDE8F081102A0020602A00209A
:107ED400382A0020092AF7B505460C4616463FD92C
:107EE40002F096FED8B11F4B1F481D601F4B204F58
:107EF4001C70204B002120221E6009F075FD1E4BD2
:107F040000200021C3E90001013CE4B20326FF2C58
:107F14000BD11A4A1A48002100F042F903E002F09A
:107F24003DFE0028DFD003B0F0BD9DF806308DF88B
:107F3400046020B203F0FC0305EBC0026FF382037C
:107F44008DF80630937815F830008DF805303A46F0
:107F540001A902F067FE013CE4B20028D7D0E2E7B1
:107F64000720E0E7602A0020402A0020102A002091
:107F7400817D0200142A0020382A00207D7E020020
:107F8400BC24030070B5084D084E00242B789C4295
:107F940001D3002070BD3368012113F8340002F0CE
:107FA400BFFE0134F2E700BF102A0020602A00203F
:107FB4001FB50021039001AA44F20100019102912E
:107FC40000F004F805B05DF804FB000010B572B6CB
:107FD400FFF764FDFFF7B6FB0028FBD1104B114CF3
:107FE4001149E41AE408240444F00100FFF702FDF7
:107FF4000E4B1B68DB0700D500BE0D4944F00200A0
:10800400FFF7F8FCBFF34F8F0A490B4BCA6802F421
:10801400E0621343CB60BFF34F8F00BFFDE700BFA7
:10802400A8220300E8220300CB240300F0ED00E0C3
:10803400D724030000ED00E00400FA05D0E9022390
:10804400D1E90201994208BF90422CBF01200020CF
:10805400704700002DE900480C4800F0F1FA0C4B81
:10806400D3E9002312EB000B43F1000C094BD3E9D5
:1080740000239C4508BF93455846614603D21BF133
:1080840080704CF10001BDE8008800BF8C22002004
:10809400682A0020E02A002037B505460C460A4825
:1080A40001A901F0A4FA60B10570446001A9064871
:1080B40001F0C7FA18B1054800F0C6FA002003B071
:1080C40030BD0420FBE700BFCC2A00208C22002016
:1080D40038B5184B1B78044613B90025284638BD1B
:1080E4000028FAD0037F03F0FF05002BF5D0FFF73B
:1080F400B1FFD4E90223994208BF904214D3236903
:1081040003B923776369A069984721690029E4D0FA
:10811400237F03F0FF05002BDFD0D4E9022352189C
:1081240043F10003C4E902232146034802F08FF916
:10813400D4E700BF702A0020E824030013B5114BD4
:1081440011491868019008235822104801F01AFABE
:10815400044698B90E4A0F4801A900F05FF9044695
:1081640060B901210B4800F04DFA01230A4A09487D
:10817400194600F0B1F9094B01221A70204602B0E9
:1081840010BD00BFE4240300742A0020CC2A002080
:10819400058202008C220020FFFF7F00702A00204D
:1081A4003AB103685A614A1E514251411961002093
:1081B40070470720704738B5037F04460D4683B9DE
:1081C4008261FFF747FF2369401941F10001C4E9C7
:1081D400020103B1256121460020BDE83840FFF7C4
:1081E4005BBF002038BD0023014603770120FFF761
:1081F40053BF0000014800F023BA00BF8C220020C6
:108204002DE9F74F064600F005FA40B15749D1E988
:10821400002312F1807243F10003C1E9002300211D
:10822400304600F006FA38B1514C236823B1206877
:10823400FFF74EFF002323600121304600F0F9F9D7
:1082440020B1FFF707FF4B4BC3E9000101A94A48DE
:10825400474D4A4C4A4F01F004FA002833D1DFF865
:108264001CA1434CDFF820B1504602F006F9236804
:10827400002871D07BB12368D0E90201D3E902233D
:10828400994208BF90425DD223681B7F1BB12168CD
:10829400504602F0DCF8504602F0E9F8D0E90289D1
:1082A4000746FFF7D7FEB8EB000069EB0101012890
:1082B40071F1000333DA0021584600F0B0F9384672
:1082C400FFF706FF45E00378012B1DD00BD3022BEB
:1082D40011D14FF00008204602F0C9F8002841D01F
:1082E40080F81C80F7E741680B7F23B901230B77E3
:1082F400204602F0ACF801A91F4801F0DDF901A9FC
:108304001D4801F0AEF9A8E741682B68994202D1F3
:1083140000232B60EFE7204602F0B2F8EBE7194D9B
:10832400A84212D9FFF766FF42194FF496030021C1
:10833400584600F0F1F850B9236813B9304600F0FC
:10834400C3F8276003B0BDE8F08FBA68EDE70D28E5
:10835400B5D00023236087E7002BF3D1304600F02B
:10836400B7F8EFE701233B70C5E700BF682A002098
:10837400E82A0020E02A0020CC2A0020E824030078
:10838400702A0020FFFFB4008C22002070B5EFF3A8
:10839400108672B60C4A946801239CB993600B4B07
:1083A4000B4DD3F8801029401160C3F88050D3F8E6
:1083B400841051604FF0FF32C3F88420047006B972
:1083C40062B670BD0370FAE7EC2A002000E100E019
:1083D400FC06FFBD084B9A6810B55AB150B9EFF3CB
:1083E400108172B6054A1C6814605C685460986019
:1083F40001B962B610BD00BFEC2A002000E100E024
:10840400435882B03BB10023435043580193019B2E
:10841400012002B070471846FBE70000F8B5224C73
:108424004379224D44F8232005EBC303204A1B79EA
:10843400204C4BB1101BC00800041F4940F002003F
:10844400FFF7D8FA0820F8BD03680E88C3F808655A
:1084540090F904308978002B4FEA41111DDB174E47
:10846400F718C9B287F8001301215F0903F01F034D
:1084740001FA03F346F82730437945F83300101B1B
:1084840005EBC301C008012600040E7140F003008F
:108494000B49FFF7AFFA0020F8BD03F00F03094EB4
:1084A400C9B2F154E8E700BF002B0020F82A0020ED
:1084B400F8220300A82203000625030000E100E0DF
:1084C4002825030014ED00E0036801221A607047B8
:1084D400036801225A60704773B58D0005F5A075D5
:1084E4000068ADB24FF480348C400026C0F80843D5
:1084F400C0F84843465101F5A8714559019522F049
:108504007F42019D40F82120C0F844430BB1C0F8DC
:10851400044302B070BD00002DE9F74F8E00984669
:108524004FF4803503688D4006F5A079C3F84853AD
:108534001FFA89F9C3F80853074698198A464FF079
:10854400000BD3F8041522F07F44D0F84025C0F87E
:10855400401543F809B053F809300093009B531AAF
:1085640023F07F43012B0CD1254B4FF4806043F063
:10857400010398473B6843F809B053F80930019365
:10858400019B3868D0F80495C0F84453A4EB090360
:1085940023F07F43012B1AD10AF5A87A184B013432
:1085A40040F82A4043F001034FF4806098473B6849
:1085B400D3F80435994508D13B680020C3F84453E7
:1085C400C3F8045303B0BDE8F08F0D20FAE7064466
:1085D400C8F1FF18C6F84045D0F80435E21A013A4C
:1085E40022F07F4208F57F489045EED3002AE3D17C
:1085F4000134C6F84045D0F804259342DBE700BFB8
:108604000025030003680222C3F8442309B1C3F818
:10861400042370474FF482710068FFF7F1BE4FF4F2
:10862400803303FA01F10368C3F84813C3F808134D
:108634007047890001F5A07189B20068FFF7E0BEB8
:108644000368D3F80405704790F90430002B09DB64
:108654005A09012103F01F0301FA03F340320249CE
:1086640041F82230704700BF00E100E0024B034AAA
:108674001B681068184700BF002B0020F82A002050
:1086840070B5064E0546002456F824300BB1284632
:1086940098470134042CF7D170BD00BF102B002083
:1086A400033080B240F2FE33984230B51FD8134BEA
:1086B4001A783AB95C891D892C440444A4B2B4F5EF
:1086C400806F0AD91A7DAAB99A8BDC8B22440244A2
:1086D40092B2B2F5806F0DD801220A80144614229A
:1086E40002FB04335A8910445881002030BD48F2FB
:1086F400086030BD48F2066030BD00BF442B002046
:108704000B4A0C4B5188142000FB0131CB6833B960
:108714000420496810700122074801F095BB052325
:108724000649137002238B80012200230968F3E7B2
:10873400282B0020442B0020702200200C2C002029
:1087440007B5002305490093054A0968054808232D
:1087540001F0E0FA03B05DF804FB00BF0C2C00202C
:10876400482503007022002007B50023009301462A
:108774000823034A034801F0CDFA03B05DF804FB73
:10878400402503007022002013B500230C460093FB
:1087940001460423074A084801F0BCFA38B9074BDC
:1087A400142202FB04340123237402B010BD48F2E6
:1087B4000D60FAE73C25030070220020442B0020C2
:1087C40037B50A480A4B42689C88196853880325C0
:1087D400033305709BB2002000909B0001EB8401E1
:1087E400044801F097FA03B030BD00BF282B0020E5
:1087F4000C2C00207022002010B50146044800F023
:10880400F6FE1C220446002109F0EEF8204610BDB5
:10881400F82B00204388033300EB830399420BD3E6
:1088240082884FF6FF739A4208D0038833B1806878
:10883400431C58425841704702207047012070473A
:108844002DE9F8430223DFF864800B800D461746B8
:1088540000F5805600F108044FF00109B44222D219
:10886400236801331FD031462046FFF7D3FF48B1B8
:108874000FB187F8009002280BD14FF480632B804E
:10888400BDE8F883A368D8F80020934201D9C8F85A
:1088940000302B886288033313442B8063880333AE
:1088A40004EB8304DAE7BDE8F88300BF3C2B002027
:1088B400144A142303FB002070B50B6844680D466A
:1088C40004F5805653B15C88033403EB8404A64258
:1088D40002D9236801330BD1002070BD0834F6E7B8
:1088E4002C60012070BD6388033304EB8304EEE73E
:1088F40031462046FFF78EFF0128F4D0F0D302283A
:10890400EAD0E4E7442B0020436873B505460C46DF
:1089140073B3254AD1688B422AD31269934227D86C
:1089240013F0030224D121490089098988421FD107
:108934002868996888421BD11D494868834203D935
:1089440000F5805083420ED38A6993420DD902F513
:108954008052934209D2012323800020B0FA80F090
:10896400400902B070BD1346F6E748F20960F5E726
:10897400002323801E462388012B01D90020F0E721
:10898400019601A92088FFF793FF18B923880133C2
:108994002380F0E7019B2A6899689142F1D16B60CA
:1089A400024B1B892B81DCE770220020282B00203E
:1089B400442B00202DE9F8431C46214B1B78064626
:1089C4000F461546002B32D0002A34D0002C32D06A
:1089D400DFF874804FF01409A388012B03D948F2FF
:1089E4000960BDE8F88309FB03F318F803302BB9D9
:1089F4002146A088FFF75CFF20B92060A3880133DB
:108A0400A380E9E723681EB1998832889142EFD1A7
:108A140047B99A6885E80C000A4B1B892B81002012
:108A2400BDE8F88319883A889142E1D1F1E748F228
:108A34000160BDE8F88348F20460BDE8F88300BF34
:108A4400202B0020282B0020442B002008B5074BA6
:108A5400191D5888FFF72CFF18B1BDE80840FFF72F
:108A6400AFBEBDE80840FFF74BBE00BF282B002077
:108A74002DE9F04FA34FDFF8B09289B00646B8460F
:108A84003B6823B94946A04800F0EBFD3860D8F8AC
:108A940000502A78531E052B00F2F781DFE813F00B
:108AA4000600720072000601060163012EB1974BA5
:108AB40000225A604FF4064426E02B79032B1ED87B
:108AC400DFE803F016023D4891490B78022B084673
:108AD40033D00B7D022B4FF0010340F01B82142294
:108AE4005343C2180020C8545068FFF73DFE03E00A
:108AF40001232B71FFF724FE002800F0D180834B63
:108B040000225A6048F20D641422002103A808F0E0
:108B14006BFF41F61D539C4208BF0024D8F8003077
:108B240004941A78023A042A00F2CF81DFE812F0A2
:108B3400B001BC01DF01E701EE010023CFE7754975
:108B44007548002302222B718A800122096801F0F2
:108B54007BF9D1E76F4C00262E7120686C4DFFF72E
:108B640003FE6E4BD4F800E05A8814235343EA18EA
:108B7400EE5451682160A188C2F804E011810222F8
:108B8400A280B9E7B5F814A0DFF884B1B6B1AA7D24
:108B9400EB88022A06D9142101FB0AB1DA1C0889E0
:108BA40002440A81142202FB0ABAC3F57F43BAF8CD
:108BB4000A20FD331344AAF80A307BE7142303FB8D
:108BC4000AB319895C68AB7D04EB8104062B05D8D4
:108BD400DFE803F0284F37451D5B690048F20E6457
:108BE400AA7DEB88022A06D9142101FB0AB1DA1CFA
:108BF400088902440A81142202FB0ABAC3F57F439E
:108C0400BAF80A20FD331344AAF80A307CE7444832
:108C1400444900234360AB690360FFF775FE0028F5
:108C240000F030810223AB75002300930423EA187B
:108C34002146394801F06EF8002831D048F20D641D
:108C4400CEE72B69002B14BF03230123AB7500234C
:108C5400009305F10C02042304F10801E9E7012360
:108C6400AB750022EB8800929B002A6904F10C0189
:108C7400DFE7032A0CBF05230623AB75002300930B
:108C8400042305F10802E118D3E70623AB75254B4D
:108C94001988234B5868FFF777FD044600289FD1B5
:108CA40009B0BDE8F08F41F61D5499E7002E7FF41A
:108CB40001AF2B79012B39D007D348F20E6241F66C
:108CC4001D54022B18BF14461EE702232B71039672
:108CD40004960596EB6803930DF10A0103A8FFF7C8
:108CE40013FE002800F0CE800498BDF80A10838893
:108CF400EB8003882B81FFF747FD0446002C7FF4AB
:108D040003AFCDE7402B0020F82B0020202B0020C0
:108D1400442B00200C2C002070220020282B002043
:108D2400042B0020182C0020382B0020DFF808A288
:108D340003AA53463146A81DFFF73CFE044660B91A
:108D4400BAF804100498FFF71FFD044648F20963BB
:108D54009C42D3D141F61D54D6E6082231465046F2
:108D640008F042FEF2E7002E7FF4A4AE6C4B1A7BAF
:108D74005AB11E731A78013A062A00F28680DFE897
:108D840002F04C61696C846F7A001A78072AF1D872
:108D940001A151F822F000BFBD8D0200798D0200BF
:108DA400798D0200E38D0200F78D02001B8E020014
:108DB4001B8E0200DF8D02001A895A4901321A8182
:108DC40000225A801A730A78B2FA82F252099A720D
:108DD4000A7DB2FA82F25209DA72012207E052499C
:108DE40058688A884088033202448A8002221A70B2
:108DF400C0E74C4C5A884C49142505FB02420868CC
:108E0400546850608888108102200C60888000219A
:108E140011740622EBE70722E9E79A7A32B1414955
:108E240000229A72CA680AB9097C51B9DA7A62B125
:108E34000022DA723B4A116A39B992F8242022B12D
:108E440001225A80FFF702FE57E700221A705A8067
:108E54005A607FE7FFF7B4FC4FE7FFF751FC4CE79C
:108E640006221A702F4A5B88142101FB03235868D9
:108E7400FFF77AFC41E707221A7000225A60FFF7D5
:108E84005FFC3AE748F209643EE648F20E643BE6CA
:108E940001228DF80C201A89ADF818209A88ADF8B3
:108EA4001A20DB68059310E002228DF80C201A8941
:108EB400ADF818209A88ADF81A20DA6805929B7DDF
:108EC4009A1F534253418DF81C3003A8FFF7D8FB77
:108ED400002649461548C8F8006000F0EDFB012162
:108EE400134800F0B0FC00287FF4CAADD8E6032292
:108EF4008DF80C20DA88ADF818201A89CFE70422FF
:108F04008DF80C20DB88ADF81830DEE705238DF8EA
:108F14000C30DAE7074A1370002353601AE700BFE6
:108F2400282B0020442B00200C2C0020F82B0020A0
:108F3400082C0020202B00201C2C00204068FFF768
:108F440097BD000008B50121044800F062FC18B97F
:108F5400BDE80840FFF78CBD08BD00BF082C002009
:108F64002DE9F3419846364B1B7806460D46002BF7
:108F74005AD000295BD009884FF6FF73994259D023
:108F84006B88002B56D06B689B0756D14AB92F8942
:108F94000DF102013846FFF783FB30B102B0BDE8A2
:108FA400F08113885788ADF8023001A8FFF724FC3C
:108FB400044660B9BDF80230224A142101FB0323A0
:108FC40058890338C01B588148F20760E6E700233C
:108FD4008375BDF8023083826B68036180F800807A
:108FE4000121194800F022FCE0602B8823816B8862
:108FF400A380B8F1030F04BF0423A375E78004BF63
:109004003368A3610025658101A9104800F019FBAC
:1090140036B17560E36833600D4BB5721B893381DB
:10902400FFF790FF0020B9E748F20160B6E748F285
:109034000460B3E748F20360B0E748F20260ADE7CA
:10904400202B0020442B00203C2B0020F82B002058
:10905400282B002008B5084B1A68042A09D019687F
:10906400064A42F821000121184600F0DFFB0020E7
:1090740008BD48F20B6008BD142C0020102B002002
:109084002DE9F04F89B01422002103A808F0ACFCAC
:10909400814A137803F0FF01009191463BB103A884
:1090A400FFF7EEFA0026304609B0BDE8F08F101D38
:1090B40000F0D6FB05460028F4D140F6F8734FF0D3
:1090C40080521B68DFF8FCA15C1C04BF734B1B6857
:1090D40011695269581C08BF02FB01F3CAF8103029
:1090E4000022A3F540536E49CAF80C30504600F0F4
:1090F400DDFD06460028D6D11C238C2269496A4826
:1091040000F040FA3746B0464FF0030B3446CDF832
:1091140004A0019BDA6818EB020058F8022009D079
:10912400624B9A4206D14168614B994269D001333E
:1091340099427FD0531C03D05C4B9A4240F09D80EF
:1091440000F6FC71024652F8043F013340F095806A
:109154009142F8D1574A116829B9022101231060BC
:10916400918000930EE014226243534B4FF0020CA3
:10917400991803F802C0514A486054800134A1F898
:1091840008C0A4B247F0010708F58058B8F5405F5D
:10919400BFD1BBF1010F88BF3D46EDB2022D02D015
:1091A400062D03D065B948F20A667CE7012389F8E5
:1091B400003003A80023C9F80430FFF761FA72E70E
:1091C40002A8FFF719FBC8B10123013D03700A2D62
:1091D40009D8DFE805F006080608070807080F1194
:1091E4000F000023037102A92F4800F02AFAFFF7A9
:1091F400A9FE58E70323F5E70223F3E748F20766DD
:1092040051E72D494FF0140E0EFB04FE01EB0E0244
:109214004FF0000C01F80EC050600EF110020EF178
:10922400080E0A447144FFF70BFB47F002070134B0
:10923400A4B2A9E7009BDFF87CA083B11E4B1422E3
:10924400624399184FF0020E03F802E0DAF80020A6
:109254004A601A4AA1F808E054800134A4B20022FA
:109264001749CAF80000FFF7EBFABAF80420022AFB
:1092740014BF08220422174386E70F4914226243CD
:1092840001EB020E0BF1FF33CEF8040003201FFAAA
:1092940083FB8854CBE700BF202B00201410001060
:1092A4003C2703006C2B0020F82B0020DEC0ADDE31
:1092B400FE011EF10C2C0020442B0020282B002042
:1092C400102C00207022002073B50D460446C8B14E
:1092D400C1B10DF10601FFF717FBB0B10C4BBDF89E
:1092E40006006668142202FB003001210C3000F0F5
:1092F4009DFA63682E600C336B600123A372002017
:1093040002B070BD48F20460FAE748F20960F7E77A
:10931400442B002013B50446A8B10DF10601FFF754
:10932400F3FA98B10C4ABDF80630142101FB03236B
:10933400DA6872B1A27A62B1DA680020013ADA60BE
:10934400A07202B010BD48F20460FAE748F2096066
:10935400F7E748F20560F4E7442B002002230022DB
:10936400FFF7FEBD18B103230022FFF7F9BD48F251
:1093740004607047114B1B7813B50446ABB14FF62C
:10938400FF73984214D001A8FFF736FA98B1052369
:10939400037001230371C48001A9094800F051F945
:1093A400FFF7D0FD002002B010BD48F20160FAE7DB
:1093B40048F20360F7E748F20760F4E7202B002047
:1093C400F82B00200F4B1B7807B5A3B101A8FFF7BA
:1093D40013FA98B10623037001A90B4800F031F980
:1093E4000A4B1A780AB101221A73FFF7ABFD002069
:1093F40003B05DF804FB48F20160F9E748F2076046
:10940400F6E700BF202B0020F82B0020282B00209B
:1094140007B5ADF8060002A820F8041D01460DF1B9
:109424000600FFF7C7FA03B05DF804FB13B502ACFE
:10943400134624F8020D0A4600202146FFF7BAFA23
:1094440002B010BD13B502AC134624F8020D0A464F
:1094540020460021FFF7AEFA02B010BD20B119B1C9
:1094640003680B600020704748F2046070470000F6
:10947400404B1B782DE9F74F0446002B6FD0002892
:1094840070D01222002108F0AFFA3B4F3B4A03236D
:1094940023803B4B4FF00008BA464FF014094FF0BD
:1094A400010B7E8939897D68314489B2002D5CD0F5
:1094B4002868904259D168681844012855D809FB96
:1094C40008A0B4F802E0C0687044608020890644B3
:1094D4006089268108446081C1F58061A08989B2D0
:1094E400884205F1080638BFA18105F58055B542CB
:1094F40019D93168013116D0294630468DE80C005F
:10950400FFF788F901289DE80C0017D023D302281F
:10951400EDD1E18884F810B00131E180E189AD1B1F
:1095240001EBA505E58108F10108B8F1020F07F187
:109534001407B6D1002003B0BDE8F08FE1880131F3
:10954400E180E189708803310144E181718803314C
:1095540006EB8106CBE7A1880131A180F6E748F24A
:109564000160E8E748F20460E5E7208801382080DC
:10957400A5E700BF202B0020442B0020DEC0ADDE79
:1095840002FEE10E10B561B1B2FBF3F403FB142447
:10959400A4B244B980E8120084608281C381204669
:1095A40010BD0E2010BD092010BD82B050E8022F5E
:1095B400C188B2EB324F4FF0000317BF92B241EAB9
:1095C400014142EA014104E04268B2EB324F08BF74
:1095D400012340E80212002AE8D18DF807309DF8F3
:1095E4000730002B0CBF1120002002B0704737B5A4
:1095F40050E8013F9DB2C48925448489A54228BF0F
:109604002D1B0489A54202BFBFF32F8F002207E060
:10961400C5EA030540E80154002CE9D14FF00102EA
:109624008DF803200193019B9DF803200B6002F049
:10963400FF0322B10B880068184403B030BD1846FC
:10964400FBE70A884B889A4209D150E8012FC2EA05
:10965400024240E80123002BF7D10120704700208B
:10966400704737B550E8023F1FFAA3F5C488A542F6
:1096740002BFBFF32F8F00220DE0C48925448489E3
:10968400A54228BF2D1BC3EA054540E80254002C1F
:10969400E8D14FF001028DF803200193019B9DF85E
:1096A40003200B6002F0FF0322B14B8800681844CA
:1096B40003B030BD1846FBE70A884B889A4209D1AB
:1096C40050E8022FC2EA224240E80223002BF7D1DD
:1096D400012070470020704701F01F024B0901214F
:1096E400914000EB830000F06DB84B0910B501F018
:1096F4001F040121A14000EB830000F056F8E04074
:1097040000F0010010BD01F01F0301229A404B0933
:1097140000EB8300D14300F06FB84B0901F01F0147
:1097240050F82300C84000F0010070472DE9F047CD
:109734004E1E760980460F460136002558F825400E
:1097440008EB8509E44394FAA4F464B1B4FA84F40C
:109754004FEA451A202C08D10135AE42EED83C46DA
:109764002046BDE8F0872024F2E75444A742F3D909
:1097740021464046FFF7B9FF0028F1D0D9F8004050
:10978400E44394FAA4F414B1B4FA84F4E2E7202490
:10979400E0E700B550E8002F0B4640E8003E9EF09D
:1097A400000FF7D110465DF804FB00B550E8002F18
:1097B40042EA010340E8003E9EF0000FF6D1104655
:1097C4005DF804FB00B550E8003F43EA010240E8BD
:1097D400002E9EF0000FF6D110465DF804FB00B594
:1097E40050E8002F02EA010340E8003E9EF0000F1B
:1097F400F6D110465DF804FB00B550E8003F03EADB
:10980400010240E8002E9EF0000FF6D110465DF8EC
:1098140004FB00B550E8002F02EB010340E8003ED2
:109824009EF0000FF6D110465DF804FB00B550E839
:10983400003F03EB010240E8002E9EF0000FF6D13A
:1098440010465DF804FB00B550E8003FA3EB0102AD
:1098540040E8002E9EF0000FF6D110465DF804FBA0
:109864000121FFF7A2BF0121FFF7ACBF0021FFF7E1
:10987400B6BF10B590B14268836801689B1ADBB229
:109884000A60013BDBB2FF2B026802D10020107199
:1098940010BD11684C1C14600B70F2E70E2010BD53
:1098A40037B5054602A8002400F8014DFEF76EFD09
:1098B4002A686B68116899420ED9481E106011F825
:1098C400014CEB68298A01FB0434AB6811791B1A3B
:1098D400DBB2994238BF13719DF80700FEF77AFD99
:1098E400204603B030BD37B5054602A8002300F872
:1098F400013D0C46FEF74AFD2A681368591C1160A5
:10990400E968641A298AB4FBF1F41C709DF8070015
:10991400FEF760FD03B030BD826810B504462AB17D
:1099240043690168006998470023A36010BD0EB421
:1099340003B5039929B102AA04AB42F8043D00F02F
:1099440075F802B05DF804EB03B070470A2938B526
:1099540004460D4602D10D21FFF7F8FFA3682268E3
:10996400591CA160D554A26863689A4204D3204666
:10997400BDE83840FFF7D0BF38BD00002DE9F84FEF
:109984000A9C99460B9B1746824688460A4601263E
:10999400BA420FD24E4538BF4E4613F0010B01D1E7
:1099A40064B900240125B9F1010F1AD909F1FF396D
:1099B4007D43F8E7B2FBF7F20136E9E79B070ED5E2
:1099C400B9F1000F0CBF30252025A642EAD2013C94
:1099D40029465046FFF7BAFF002CF6D1E1E72025CF
:1099E400F3E7B8FBF5F39F42E2D9DFF83C90B8FB0C
:1099F400F5F3504619F8031005FB1388FFF7A6FF8B
:109A0400B5FBF7F5002DF2D1BBF1000F0AD03CB93C
:109A1400BDE8F88F013C20215046FFF797FF0CB1B9
:109A2400A642F7D3BDE8F88F502503002DE9F74F80
:109A3400054617460C46002900F0358114F8011B31
:109A440049B92B7B002B00F02E81284603B0BDE8DA
:109A5400F04FFFF761BF252940F0218123460026FE
:109A6400194611F8012B2D2A24D0302A26D02B2A6E
:109A740027D000242A2A994603F1010124D13B6806
:109A84001A1D1B683A601C44894699F800302E2B35
:109A940025D109F101014FF00008894611F8012B85
:109AA400A2F1300009281CD80A2303FB0823A3F1E0
:109AB4003008F2E746F001060B46D1E746F002060D
:109AC400FAE746F00406F7E71A780B46A2F13001EC
:109AD4000929DAD80A2101FB0424303CCAE74FF0F3
:109AE400000899F8001001F0FB02682A02D119F865
:109AF400011FF8E769290FD04BD8582965D007D83A
:109B040025296ED009F101042378002B96D198E71A
:109B1400632962D06429F5D13A68D2F800A0111DF6
:109B24008AEAEA723960A2EBEA724FF0010B092A61
:109B34005BDCC34538BFC3462CB1BAF1000F01DB6F
:109B4400710700D5013CB20702D5B8F1000F04D06B
:109B5400F30702D4002C4ED10024BAF1000F52DADC
:109B6400CAF1000A2D212846FFF7F0FE06F0030291
:109B7400022A05D1B8F1000F02D1002C47D10024EC
:109B84008DE8500043460A2251462846FFF7F6FE68
:109B9400B8E773294CD014D87029B3D13B681A1D87
:109BA4003A60302128461C68FFF7D0FE7821284609
:109BB400FFF7CCFE002301930823009310222146D3
:109BC400E3E775292BD078299CD139680A1D3A60BE
:109BD40043468DE85000102228E03B681A1D19788E
:109BE4003A602846FFF7B2FE8CE70A230BF1010B1B
:109BF40092FBF3F29BE7A345AFD220212846013C18
:109C0400FFF7A4FEA6E77007B0D52B21ABE7A34569
:109C1400B6D230212846013CFFF798FEADE73968FB
:109C24000A1D3A608DE8500043460A220968ACE7F1
:109C34003B681A1D3A60F107D3F800A012D55646C6
:109C4400A6EB0A0B16F8011B41B95C457FF65AAF27
:109C540020212846013CFFF779FEF6E72846FFF766
:109C640075FEEDE7BAF1000F11D0504607F012FF70
:109C74000646B44200D964B90AF1FF3A1AF8011F42
:109C840000293FF43FAF2846FFF760FEF6E756464B
:109C9400EFE720212846013CFFF758FEE9E7284674
:109CA400FFF754FE30E703B0BDE8F08F07B50B466D
:109CB40088B9124B1248134AC01A0E23C0080093E5
:109CC400114B0004114940F00100FDF7ABFE0E20DA
:109CD40003B05DF804FB4BB9084B09480C4AC01AA1
:109CE400C0080E2300930004074BEBE703601B68D6
:109CF400114603B05DF804EB184700BFA822030027
:109D0400102303000D260300602503001226030020
:109D1400892603002DE9F743DDF828C088B93E4BB6
:109D24003E483F4AC01AC0080E243E4B009400042B
:109D34003D4940F00100FDF775FE204603B0BDE843
:109D4400F0834AB9344B3548384AC01AC0080E2447
:109D540000040094334BEBE7D0F800E0BEF1000FB1
:109D640009D12D4B2D48324AC01AC00808240004DA
:109D740000942C4BDCE74BB9274B28482D4AC01ADA
:109D8400C008092400040094264BD1E74768D7F89B
:109D94000490B3FBF9F709FB17374FB11E4B1F486B
:109DA400254AC01AC0080924000400941D4BBFE7CB
:109DB4008F0709D0184B1948204AC01AC00810242C
:109DC40000040094174BB3E712F0030F09D0124BB1
:109DD40012481B4AC01AC008102400040094114BF6
:109DE400A6E7C768B9420DD34C1E05691C44AC42B2
:109DF40008D8CDF828C0DEF80C40A44603B0BDE86E
:109E0400F0436047044B05480E4AC01AC0081024AA
:109E140000040094034B8BE7A822030010230300E3
:109E24000D26030072250300122603008F2603006B
:109E3400832603004226030095260300BF26030061
:109E4400D7260300FA260300F7B580B92A4B2B481E
:109E54002B4AC01AC0080E242A4B009400042A4935
:109E640040F00100FDF7DEFD204603B0F0BDD0F860
:109E740000E0BEF1000F09D11F4B2048234AC01A4D
:109E8400C0080824000400941E4BE8E74AB91A4BA2
:109E94001A481F4AC01AC008092400040094194B28
:109EA400DDE74768D7F800C00CF1FF370F4209D04F
:109EB400114B1248174AC01AC00810240004009419
:109EC400104BCCE7C768B94205D34C1E05690CFB9F
:109ED4000244AC4209D9084B08480F4AC01AC008CA
:109EE400102400040094074BB9E7DEF81040A446A0
:109EF40003B0BDE8F0406047A8220300102303002C
:109F04000D26030085250300122603008326030083
:109F14004226030098250300BE25030029DF70476D
:109F240028DF704770B503689D6886B004460E4606
:109F34006DB118220021684607F056FDA368059309
:109F4400237901962BB1012B0DD06846A84706B0A2
:109F540070BD01238DF8003023690293E3680393F5
:109F640063690493F1E702238DF80030E3681B036F
:109F74000293F5E70846704700207047024B187AB1
:109F8400003018BF01207047C02C0020034B187A02
:109F94000122B0FA80F05A7440097047C02C0020A6
:109FA40008B510461A4607F0F5FC002008BD00006D
:109FB40008B514220021044807F016FD0348FFF7F2
:109FC400F4FA002008BD00BFC02C0020B02C0020F3
:109FD40010B5094C094B43602046FFF741FC40B9DA
:109FE40007F0B2F81C2320748C2205490548FFF7BA
:109FF400C9FA002010BD00BFC02C00203027030088
:10A00400242C0020B02C002070B5244D244E2B7A33
:10A014002C463BB923492448FFF723FB306008B999
:10A02400686070BD0223237233681A7972B1012A01
:10A0340024D018460321FFF775FF002323726360C1
:10A0440018491948BDE87040FFF736BB98695A694A
:10A05400D9681D69121AB2F5805F28BF4FF4805287
:10A064009208012A014438BF01222844FFF756FF11
:10A0740050B11128DDD10123237270BDD8681A694B
:10A084001044FFF74DFFF3E7237C2BB90146BDE8ED
:10A094007040022000F00AB870BD00BFC02C002040
:10A0A400D82C0020D42C0020B02C002038B5831EDE
:10A0B400012B45D8234C237A002B41D0022B09D104
:10A0C400032830D0204B1B680022E2601A793AB191
:10A0D400012A22D0637C7BBBBDE83840FFF794BFE4
:10A0E4009A6959698D1AB5F5805F94BF521902F5C2
:10A0F40080529A619142EDD102284FF0000308BFCB
:10A1040019462372104B18BF0D211868FFF70AFF78
:10A114000E490F48FFF7D0FADCE71A6901321A61D9
:10A124005B699A42E7E7E3680133082B01D8E360EF
:10A13400D0E70023E360DFE7BDE8384006F0F4BF72
:10A1440038BD00BFC02C0020D82C0020D42C002007
:10A15400B02C002000F0FD03012B08D1044B002299
:10A164005A74421E504250411874FFF74DBF704755
:10A17400C02C002010B5064C201DFFF771FB28B938
:10A18400637C1BB9BDE81040FFF73EBF10BD00BFA4
:10A19400C02C00202DE9F34180460D460F4801A94B
:10A1A40016461F46FFF723FA0446A8B11C220021D5
:10A1B40007F01AFC2D0B0123237101A9C4F80080B8
:10A1C400A760E56066610548FFF73BFAFFF7D2FF39
:10A1D400002002B0BDE8F0810420FAE7B02C002092
:10A1E4002DE9F74381468846104801A917461E46C3
:10A1F400FFF7FDF90446B8B11C22002107F0F4FB77
:10A2040000250A9BA36001A92571C4F80090C4F835
:10A214001080E76066610548FFF713FAFFF7AAFFAD
:10A22400284603B0BDE8F0830420FAE7B02C0020F0
:10A234002DE9F047B0F806804479D2F800909DF8F3
:10A24400207008FB04F4043C03EB090E744538BF8A
:10A25400A4EB03090E46191DC2F80090B1FBF8F5F2
:10A26400044608FB15114DB9A8EB010ACA4528BFDD
:10A27400CA46B9F1000F04D1BDE8F0872468013D56
:10A28400F1E704317019631852466FB11946A9EB0E
:10A294000A0907F07FFBC84555442468C2464FF0BD
:10A2A400000128BFCA46E4E701461846EFE7FFF776
:10A2B400E0BAF8B546790446721E00239342246836
:10A2C40004D301460025B54202D3F8BD0133F5E7B6
:10A2D4000F682046FFF707FB01353946F3E72DE900
:10A2E400F843078ACD1C8046FFF7DAFA043F3D4461
:10A2F4000446B5FBF7F5002650B10123EDB2067113
:10A304004371C780013DC0F800808146AE4202D34C
:10A314002046BDE8F8834046FFF7C2FA074648B135
:10A324006379013363710136C9F80000C0F8008015
:10A334008146EBE72046FFF7BCFF3846BDE8F883CB
:10A3440001210430FFF772BA10B50121044604302C
:10A35400FFF779FA10F0FF0F04D12046BDE8104052
:10A36400FFF7A7BF10BD1FB504AC44F8042D0022AD
:10A3740000922246FFF75CFF04B010BD1FB504AC89
:10A3840044F8042D012200922246FFF751FF04B045
:10A3940010BD41DF70470000064B10B500241C704F
:10A3A400054B1C60BFF35F8F0449054800F039F882
:10A3B400204610BDE42C0020E82C00205C2703007C
:10A3C400DC2C002007B502A8002300F8013DFDF7AE
:10A3D400DDFFF1EE103A23F09F03E1EE103ABFF3F4
:10A3E4005F8F0A4B4022C3F884219DF80700FDF7D4
:10A3F400F1FF06F0A9FE20B1FFF7CBFF03B05DF833
:10A4040004FB20BF40BF20BFF8E700BF00E100E02D
:10A41400836800225A609A601A615A61DA601A608D
:10A4240070470B684A684360934208BF0023016089
:10A4340008BF43607047436843B10268916852683B
:10A444000B449342436004BF00234360704770B5DC
:10A45400446806460D46206818B1B36829469847F3
:10A4640018B923682B60256070BD2468F3E743683E
:10A47400186808B102681A60704743681868704722
:10A484004368186800B97047884203D102681A60AB
:10A494000120704703460068F4E700000D4930B519
:10A4A400A1F594720225914201D8002030BD8B1A87
:10A4B400DB1093FBF5F302EBC30452F83330834211
:10A4C40005D802D204F10802EDE7606830BD2146E8
:10A4D400E9E700BFB828030008B5FFF7DFFF024B28
:10A4E400002808BF184608BD7A270300BFF34F8F22
:10A4F4000549064BCA6802F4E0621343CB60BFF31C
:10A504004F8F00BFFDE700BF00ED00E00400FA0537
:10A51400064B1B68082B06D1054B1B68032B02D87E
:10A52400044AD05C70470020704700BF300100101F
:10A5340034010010722C030008B5754B1A68082A00
:10A5440000F093801B68082B00F09980FFF7E0FF70
:10A5540010B1704B704A1A60FFF7DAFF18B16F4BF5
:10A56400FB22C3F81825FFF7D3FF48B16C496D4BA4
:10A574000A681B6822F00F0203F00F0313430B60F9
:10A58400FFF7C6FF18B1684B4FF400721A60604BB6
:10A594001B68082B09D14FF08043D3F80024D2075D
:10A5A40003D56FF00102C3F80024604AD2F8883062
:10A5B40043F47003C2F88830BFF34F8FBFF36F8F3B
:10A5C4004FF01023D3F80C22D1071ED5584B01228B
:10A5D400C3F80425D3F80024002AFBD04FF010223E
:10A5E400D2F80C3223F00103C2F80C32504B1A4655
:10A5F400D3F800140029FBD00021C3F80415D2F8C5
:10A604000034002BFBD0FFF771FFD3F80022002A9F
:10A6140003DBD3F80432002B23DA454B0122C3F8C1
:10A624000425D3F80024002AFBD04FF01022122175
:10A63400C2F80012D3F80024002AFBD04FF01023F4
:10A644001222C3F804223A4B1A46D3F80014002904
:10A65400FBD00021C3F80415D2F80034002BFBD042
:10A66400D1E7344B344A1A6008BD4FF080420021D0
:10A67400C2F80C11C2F81011C2F8381562E74FF095
:10A6840080522E4BD2F80414C3F82015D2F80814C3
:10A69400C3F82415D2F80C14C3F82815D2F81014F2
:10A6A400C3F82C15D2F81414C3F83015D2F81814C2
:10A6B400C3F83415D2F81C14C3F84015D2F820148A
:10A6C400C3F84415D2F82414C3F84815D2F8281452
:10A6D400C3F84C15D2F82C14C3F85015D2F8301422
:10A6E400C3F85415D2F83414C3F86015D2F83814EA
:10A6F400C3F86415D2F83C14C3F86815D2F84014B2
:10A70400C3F86C15D2F84424C3F870251EE700BFC3
:10A71400300100108C5600404881030000F00040D6
:10A72400E40E0040580200104096024000ED00E0A4
:10A7340000E00140942200200090D00300C00040BB
:10A74400074B1B5C1F2B8ABF064A4FF0A04203F045
:10A754001F03D2F80405D840C04300F0010070473D
:10A764007A2C030000030050074B1B5C1F2B86BF91
:10A7740003F01F0305494FF0A041012202FA03F33D
:10A78400C1F80C35704700BF7A2C03000003005059
:10A79400074B1B5C1F2B86BF03F01F0305494FF0BB
:10A7A400A041012202FA03F3C1F80835704700BF43
:10A7B4007A2C03000003005008B50020FFF7E8FFDF
:10A7C4000120FFF7E5FF0220FFF7E2FF0320BDE8C9
:10A7D4000840FFF7DDBF08B50020FFF7C5FF0120E3
:10A7E400FFF7C2FF0220FFF7BFFF0320BDE80840C8
:10A7F400FFF7BABF0A4B185C1F288ABF094B4FF0FA
:10A80400A04300F01F00D3F804250121814021EA70
:10A8140002000A40C3F80805C3F80C25704700BFBE
:10A824007A2C030000030050074B1B5C1F2B8ABFCC
:10A83400064A4FF0A04203F01F03D2F81005D84097
:10A84400C04300F001007047762C03000003005061
:10A854000B2809D00C2809D0182809D019280CBFB6
:10A8640003204FF0FF3070470020704701207047ED
:10A8740002207047014B185C704700BF762C030020
:10A88400C20770B5044614D5154D164E0022032098
:10A89400535D1F2B86BF03F01F0331464FF0A041C9
:10A8A40003F5E0730132042A41F82300F0D1FFF7E5
:10A8B40083FFA30712D50C4C0A4D00220C20135D14
:10A8C4001F2B86BF03F01F0329464FF0A04103F559
:10A8D400E0730132042A41F82300F0D170BD00BFB7
:10A8E4007A2C030000030050762C030038B5084C82
:10A8F40004F108030546002818BF1C4623682BB141
:10A904001A6822605B6828469847F7E738BD00BF9D
:10A91400F42C002020B9054B01225A70FFF7E6BF42
:10A92400012802D1014A9070F8E77047EC2C00200E
:10A9340020B9034B01225A70FFF7D8BF704700BFFC
:10A94400EC2C002038B50E4C2378B3B90D48636065
:10A95400A3602361E36000F071F8054606F0F4FBA0
:10A9640008B900F079F801232370074BD3F80034B9
:10A974000BB10123A370284638BD8525F5E700BF38
:10A98400EC2C002019A902000000014037B502A8F0
:10A9940000230B4C00F8013DFDF7F8FCE368013B94
:10A9A400E360E36833B9074BD3F8005415B900F0FA
:10A9B40065F8A5709DF80700FDF70CFD03B030BDE8
:10A9C400EC2C002000000140012813B50DD003D366
:10A9D40003281FD002B010BD114B0122C3F8802000
:10A9E400BFF34F8FBFF36F8FF4E702A800230D4C22
:10A9F40000F8013DFDF7CAFC23780BB9FFF7A2FF6D
:10AA0400E3689DF807000133E3600123A370FDF7B9
:10AA1400E1FCDFE700F020F8FFF7B8FFDAE700BF5A
:10AA240000E100E0EC2C002000F1804000230360F2
:10AA340082B003680193019B02B07047054A137901
:10AA44002BB901211060117153711846704785208C
:10AA5400704700BF002D0020074B1A68D20704D4AA
:10AA6400C02283F8002301221A604FF080430122A0
:10AA7400C3F81825704700BF00E100E04FF08042A2
:10AA840008B50223C2F808334FF48270FFF7CCFFF5
:10AA9400034B01211960D2F81834DB03FBD408BD41
:10AAA4000C000040124B1B6810B573B14FF480705A
:10AAB400FFF7BAFF4FF080430122C3F808230D4B80
:10AAC400587910B95A711B6898470B4B1B6873B1BE
:10AAD4004FF48270FFF7A8FF4FF080430222C3F8BF
:10AAE4000823044B01201B68BDE81040184710BD23
:10AAF40000010040002D00200401004000F18040CE
:10AB040000F5C040002382B0036003680193019BF9
:10AB140002B0704703681F2B83BF03F01F03036059
:10AB240001484FF0A04070470003005007B502AB46
:10AB340043F8040D1846FFF7EDFF019B00EB83007B
:10AB4400D0F8003723F44033C0F80037D0F800378A
:10AB540043EA0141C0F8001703B05DF804FB430960
:10AB64000BD0012B4FF6FF7318BF002300F01F001A
:10AB740023FA00F000F0010070474FF0FF33F5E7CF
:10AB8400054B4FF0FF32072843F8202084BF1B18E1
:10AB940083F85820704700BF082D002010B5184CCA
:10ABA40094F86A2052BBFF211046FFF7D8FF10B17A
:10ABB400A31883F830100132302AF5D10021C8B22D
:10ABC400FFF7DEFF01310C29F9D1062200210D48DF
:10ABD40006F00AFF0C4BC02283F8062340221A60B9
:10ABE4004FF4BE70FFF78AFF084B4FF00042C3F8E2
:10ABF4000423012384F86A30002010BD082010BD0E
:10AC0400082D00206C2D002000E100E000600040D1
:10AC1400034B93F86A00003018BF0120704700BF4F
:10AC2400082D0020F7B53C4C2318064693F9303024
:10AC3400002B6FDA8878C0F3400000280BBF08238C
:10AC440000230C250825AB4202D1042003B0F0BD3B
:10AC540054F82370013745D1A7195DB287F83050F5
:10AC640044F8232010B9234483F858608B785A079A
:10AC740018D4D80738D502A840F8086DFFF74AFF62
:10AC8400009B00EB8300D0F8003723F00203C0F8E8
:10AC940000372248F20806F007070123BB40875C0F
:10ACA4003B43835488780A7810F0020029D0AB0023
:10ACB40003F1804303F5C0433602D3F8101521F4A1
:10ACC4004F3121F44071C3F810151204D3F8101554
:10ACD40006F47C5602F4403216430E43C3F8106562
:10ACE4000020B3E70133AEE702A84A7840F8046DC8
:10ACF400FFF710FF019B03F5E073920040F8232057
:10AD0400C7E7083D2C4494F8606046EA821284F850
:10AD140060209BE7082099E7082D00206C2D002077
:10AD240073B5224C2518064695F93020072A1ADDFA
:10AD3400224492F858309B09032B10D102A840F802
:10AD4400046DFFF7E7FE019AD0F81035D340DB0716
:10AD540007D402213046FFF7E9FE02B070BD012B93
:10AD6400F7D00321F6E7D3B2072BF6D8930003F10B
:10AD7400804303F5C043D3F8100540F00100C3F845
:10AD8400100502F14000800080B2FFF7B7FE0029F1
:10AD9400E3D095F9303054F82330002BDDD0012373
:10ADA40003FA02F2024BC3F80423D6E7082D00206D
:10ADB4000060004007B502AB43F8040D1846FFF7E6
:10ADC400A9FE019BD0F81005D84000F0010003B0A3
:10ADD4005DF804FB2DE9FF4700245B4A5B4E5C4DA4
:10ADE400029403940121A2F5C04052F8043B012BC4
:10ADF40080B206D1D6F804330B4202D0FFF77EFEB0
:10AE04000C43AA424FEA4101EDD1524B1B68012B7E
:10AE140011D14FF4BE70FFF771FE4FF0A04344F020
:10AE24000044D3F820250292C3F82025D3F8202823
:10AE34000392C3F8202814F0FF0F63D1002C5EDACC
:10AE4400454D464E2F464FF0000A4FF0010805EBE2
:10AE54000A0393F96020531C3CD0D2B222F0C00400
:10AE640004AB03EBD40313F8081C02F0070308FA3D
:10AE740003F319422ED004A8920940F8104DFFF7AD
:10AE840049FE009B03F5E07350F82330C3F30149F6
:10AE9400B9F1020F0CBF032102212046FFF746FE41
:10AEA40004A840F80C4DFFF735FE019B08FA03F3A4
:10AEB400C0F820353B1993F9303057F823304BB1A3
:10AEC400032A04D0B9F1020F38D1012A02D1114664
:10AED400204698470AF1010ABAF1040FB7D14FF09E
:10AEE400A043D3F820250292C3F82025D6F82035B4
:10AEF4000393C6F82035002AA5D1002BA3D104B0B2
:10AF0400BDE8F087144F01260025344210D0AB0071
:10AF140003F1804303F5C043D3F81005D3F81015AB
:10AF240057F8253023B1C1F30141C0F305209847F8
:10AF34000135082D4FEA4606E7D17FE7B9F1030F43
:10AF4400C8D1022AC2E700BF00610040006000408F
:10AF5400206100407C610040082D00200003005067
:10AF6400014B1B68184700BF742D00200D4B9842FD
:10AF740037B50D4610D102A8002300F8013DFDF7B6
:10AF840005FA094B1C7914B901221D601A719DF848
:10AF94000700FDF71FFA14B9002003B030BD1120DB
:10AFA400FBE700BF00200040742D0020034B1878FD
:10AFB40010B901221A707047852070477C2D00203B
:10AFC4001FB503788DF8003003798DF80430437988
:10AFD4008DF8053083688DF80630C3688DF8073026
:10AFE4000369029343690393054A064B684653F881
:10AFF400213052F82110984705B05DF804FB00BFDA
:10B00400802D0020882D0020024B4FF4807043F0E7
:10B0140001031847A02C03001F2886BF00F01F005F
:10B02400044A4FF0A042012303FA00F0C2F80805D5
:10B03400704700BF000300502DE9F04790460678A2
:10B044003B4A42F826803B4A42F826304B7B07466F
:10B054000C46002B5ED00868DFF8DC904FF0A0416E
:10B0640000F5E07340F20C6241F82320636803F5B5
:10B07400E073002541F82320FFF7CEFF6068FFF757
:10B08400CBFF236803F5E07340F20D6241F82320FF
:10B09400636803F5E0734FF0010A41F82320FFF7DA
:10B0A400B3FF63681F2B8ABF4A464FF0A04203F0E8
:10B0B4001F03D2F8102522FA03F3DB0706D54DB39C
:10B0C40063681F2B19D84FF0A04119E023681F2B88
:10B0D40086BF03F01F034A464FF0A0420AFA03F367
:10B0E400C2F80C35FFF790FF01352068FFF794FF95
:10B0F400FFF78AFF092DD4D1E2E70F4903F01F03BC
:10B10400012202FA03F3C1F80C35FFF77DFF6068F2
:10B11400FFF782FFB8F1000F3346084A214607F1D2
:10B12400040008BF0022BDE8F04700F00DB900BFDD
:10B13400882D0020802D002000030050C5AF0200A0
:10B144000023435082B043580193019B02B07047DF
:10B154000B7B032B13D8DFE803F01C2014028B684D
:10B164005A0304D5D0F84C350A699A4218D18B6831
:10B174005B0304D4D0F84C354A699A4210D10120BB
:10B184007047D0F84C350A699A4209D1D0F83C3559
:10B19400F2E7D0F84C350A69EFE7D0F83C35FAE726
:10B1A40000230622C0F80035C0F800251846704771
:10B1B400F0B5D0F8243187B004460D46EBB14FF416
:10B1C4009271FFF7BDFFD0F80431B3B9AB68C0F892
:10B1D40008330223AB60AB68C0F80433D0F86031A5
:10B1E4001BB1D0F800329B0502D4012323626361B2
:10B1F400012385F82E3007B0F0BDD4F80431002BBC
:10B2040042D04FF482712046FFF79AFF2B6A5F0603
:10B214000AD495F82E303BB929462046FFF798FF0B
:10B2240080F0010085F82E002B6A5E073ED405F1FC
:10B234000C070FCF01AE0FC63B6833604FF4B071FB
:10B244002046FFF77DFF4FF4AE712046FFF778FFED
:10B2540095F8303013B195F82E303BB30023C4F881
:10B264000032220BAB602E4BC4F8083353B2002BD0
:10B274001CDB01215B0902F01F0201FA02F26033B8
:10B28400284941F8232011E04FF4A4712046FFF728
:10B2940057FF2B7B23BB05F10C070FCF01AE0FC665
:10B2A4003B68336095F83030002BD8D0D4F8C434E0
:10B2B400C4F8C434980725D501238DF8003095F8D7
:10B2C40030300BB985F82F302B6A5B0703D595F81E
:10B2D4002E30002B8FD02B686968684698478AE720
:10B2E4004FF40073C4F8003240F20223AB6003F160
:10B2F400CE73C4F80833AB68C4F804330123A360E5
:10B30400236278E7590701D50223D6E7DA0701D586
:10B314000323D2E795F82E30002BCED00423CCE7BC
:10B3240002029C0100E100E001490248FFF740BF2E
:10B33400902D00200030004002494FF04020FFF7DC
:10B3440037BF00BFC42D00202DE9F84F04793C4DD0
:10B354004FF0340A0AFB04FA05EB0A069B4696F8FA
:10B364002D3080460F469146002B62D1354B006844
:10B3740053F82410FFF7FAFD00285DD13A687B7B6F
:10B3840086F832301F2A8CBF02F01F031346B060C8
:10B39400C6F804B086F82F0086F8300003F5E07193
:10B3A40088BF294E45F80A9098BF4FF0A04640F256
:10B3B4000C6346F8213079681F291E468CBF01F0C2
:10B3C4001F030B4603F5E0738CBFDFF87CE04FF0FE
:10B3D400A04E4EF82360D8F80030C3F80825BA68A8
:10B3E400C3F80C15C3F82425B9F1000F13D01B0BB7
:10B3F40059B23A7B00294FEA421214DB134E7718F4
:10B40400D2B287F800230122490903F01F0302FA8C
:10B4140003F346F82130342303FB0454012384F856
:10B424002D30BDE8F88F03F00F030949D2B2CA5496
:10B43400F1E70820BDE8F88F1120BDE8F88F00BFC0
:10B44400902D0020A82C03000003005000E100E030
:10B4540014ED00E0026803790621C2F80015044ADD
:10B46400342101FB0323022283F82D20704700BFFF
:10B47400902D00202DE9F843B34F90F80490046810
:10B48400342606FB0976002386F82E30CB6803F0B9
:10B494006043B3F1005F0D46904603D0102630465A
:10B4A400BDE8F883A94BC4F8083396F82F3023B1CC
:10B4B400B368C4F804331126F1E712F0140F0CBF7B
:10B4C4000123002386F82F308C46BCE80F0006F1D8
:10B4D4000C0EAEE80F00DCF80030CEF80030C8F3F4
:10B4E400001386F83030C6F820806B78C4F88835AD
:10B4F4004FF482712046FFF723FE4FF492712046E9
:10B50400FFF71EFE4FF4B0712046FFF719FE4FF40B
:10B51400A4712046FFF714FE18F0010318BF01239D
:10B52400C4F8503518F0020318BF0123C4F840359D
:10B534002B78032B00F2B580DFE803F084A06902C6
:10B544002B6903F06043B3F1005FA7D14FF480731C
:10B55400C4F80032EA686B68C4F844254FF4A87153
:10B56400C4F848352046FFF7EBFD01232362A360AE
:10B57400D4F85031002BFBD04FF4A8712046FFF7CC
:10B58400DFFDAB682A69C4F84425C4F84835342380
:10B5940003FB09734FF480229A600823002618F0F5
:10B5A400080F04D12A78032A1CBF0122E250342355
:10B5B40003FB09F3FA18FB58002B75D10125D4F8C5
:10B5C4004821D4F80431002B40F08880003218BFA1
:10B5D4000122D4F82431002B00F087804FF49271BB
:10B5E4002046FFF7ADFDD4F86011D4F8003209B15C
:10B5F400980504D4256265610029E0D00022DB05AA
:10B6040073D54FF4A4712046FFF79AFDD7E76B6812
:10B61400EA68C4F84425C4F848352B6903F060424D
:10B62400B2F1005F7FF43AAFAA68C4F834354FF43E
:10B634008453C4F83825C4F80032342303FB097357
:10B64400022212E06B68EA68C4F8442518F0200F5F
:10B65400C4F848354FF034030BD04FF48072C4F86B
:10B66400002203FB09734FF480229A6001232362B2
:10B6740093E74FF40072C4F80022DFE76B68EA68CE
:10B68400C4F83425C4F838354FF48053C4F8003274
:10B69400342303FB097302229A60012323620023EB
:10B6A4007CE7082307267AE718F0040F1CBF002361
:10B6B400936018F0400F06D1342303FB09739A6892
:10B6C40042F002029A60342303FB0977BB6843F417
:10B6D4000073BB60BB68C4F80433E0E64FF48271C6
:10B6E4002046FFF72DFD012273E7002A3FF467AFE0
:10B6F4003421D4F8C434C4F8C43401FB09720020E2
:10B7040082F82F0093B113F0010F14BF4FF40246D7
:10B71400032648F2012213F0020F18BF164613F055
:10B72400040F48F2022318BF1E46B8E618F0400F73
:10B734007FF4B5AE09FB01712046FFF709FD00282F
:10B7440008BF0326ABE600BF902D002002029C0137
:10B7540010B586B0002402939DF820300492A342D1
:10B764008DF8051014BF2022224601A98DF804404B
:10B7740003940594FFF77EFE06B010BD012900680E
:10B7840014BF0823002318447047006800F5827032
:10B7940070472DE9F347002406460F4690464FF4C0
:10B7A400A0754FF48039A246444502D102B0BDE8E9
:10B7B400F0877259731972B1D6F8042309FA04F1A7
:10B7C400114208D0C3F800A01B680193019B79685B
:10B7D4003B68A8B2984701340435E5E7F7B5057925
:10B7E400304C0C266E43A7193B7A002B57D1A2513B
:10B7F4004A687A604279503292004FF4A0761F462C
:10B80400B24203683BD11B0B5EB2CA78002E4FEAEA
:10B8140042123EDB244F07EB060ED2B28EF8002311
:10B824000122760903F01F0302FA03F347F82630D6
:10B8340003684A78D3F8040502F0030220F00300F9
:10B844000243C3F80425D3F808058A7820F00300DE
:10B8540002F003020243C3F80825D3F810050A785E
:10B8640020F00F0102F00F020A43C3F810250C2345
:10B8740003FB054401232372002003B0F0BD1FFA2B
:10B8840086FE043643F80E7053F80E300193019B84
:10B89400B6E703F00F03054ED2B2F254C8E708200E
:10B8A400EBE700BFF82D002000E100E014ED00E01C
:10B8B400036801221A600379034A0C2101FB032364
:10B8C40002221A72704700BFF82D00200368044951
:10B8D40001221A6103790C2000FB03131A727047CA
:10B8E400F82D002037B54FF480348C4000687BB1CC
:10B8F4008B0003F5A0730025C550C3580193019B29
:10B90400C0F8044301F5A87140F8212003B030BD0C
:10B91400C0F80843F6E7F0B404689DF81070D4F852
:10B92400005240F201168E4025EA0605C4F8005282
:10B93400D4F800522B43C4F800323B46F0BCFFF766
:10B94400D1BF0000042202490248FFF722BF00BF12
:10B95400F82D002000800040042202490248FFF72D
:10B9640018BF00BF042E00200090004004220249AA
:10B974000248FFF70EBF00BF102E002000A00040B9
:10B98400062202490248FFF704BF00BF1C2E002014
:10B9940000A001402DE9F74F4FF00009154D164E58
:10B9A40007464FF0040AC8465FFA89FB01240DF1EB
:10B9B400070004FA0BF48DF80780FCF7E7FC2C422F
:10B9C40008D0336814EA030201BF2343336087F8C5
:10B9D40000B092469DF80700FCF7FCFCBAF1000F9A
:10B9E40003D0A54309F10109DED1504603B0BDE8F7
:10B9F400F08F00BFFFFF0100282E002010B5A1B179
:10BA04009AB101238340C3F3100484B10A4C24681F
:10BA140023420ED0C00000F1804000F5F830C0F899
:10BA24001015C0F81425002010BD0E2010BD0720ED
:10BA340010BD082010BD00BF282E0020012303FAEA
:10BA440000F0430C5B044BB918B1064B1B68184259
:10BA540006D0054BC3F80405002070470720704743
:10BA640008207047282E002000F001400220FEF735
:10BA7400C1BE000008B5094B1B7853B10020FEF786
:10BA840087FE0120FEF784FE0320BDE80840FEF790
:10BA94007FBEBDE80840FEF78FBE00BF2D2E0020FC
:10BAA400F8B5784C237805461BB100232370FFF7C3
:10BAB400E1FF172D00F28780DFE805F00C1717432C
:10BAC4005464757F878C878C949898989898C2C68C
:10BAD400CDD4DEDEFFF7CEFF6B48FCF784FB6B4B67
:10BAE400002204461A702046F8BD0020FEF728FE06
:10BAF400F8B10020FEF74CFE022D0CBF4FF4E161BB
:10BB04004FF47A61614B1D704FF400404FF47A7426
:10BB14000025E0FB01454FF4FA6200232046294644
:10BB240005F0EAFD002201465748BDE8F840FCF75D
:10BB340042BBFEF719FE022D0CBFC8214FF4C87199
:10BB4400E0E70020FEF7FCFD40B10020FEF720FEF8
:10BB54004FF4487103224D4B1A70D5E7FEF704FEEB
:10BB6400C821F7E70020FEF7EBFD30B10020FEF717
:10BB74000FFE4FF47A610422EDE7FEF7F5FD4FF472
:10BB8400C871F8E70020FEF7DBFD48B10020FEF79E
:10BB9400FFFD3E4B05221A7040F6CD410022C3E75B
:10BBA400FEF7E2FDF5E70020FEF724FE374B062200
:10BBB4001A70002240F26661B6E70020FEF7D4FD59
:10BBC4000722324B1A7000248DE701202070FEF703
:10BBD40011FEEEE701202070FEF70CFE00224FF468
:10BBE4000051A1E7FEF7F7FD0C22EAE72848294EA9
:10BBF400FCF7F9FAD5F1110504461CD0D8B9012D8A
:10BC040013D0C8235D434FF47A7000214FF40047EA
:10BC14004FF4FA620023C7FB050105F06DFD2246CF
:10BC240001461B48FCF7C7FA04460220FEF79CFDB8
:10BC34000123337057E70220FEF7AAFD0023F8E73B
:10BC4400FFF718FF1222BCE7FFF714FF0020FEF7EE
:10BC54008BFD1322B5E7FFF70DFF0120FEF784FDEE
:10BC64001422AEE7FFF706FF0020FEF77DFD01205A
:10BC7400FEF77AFD1522A4E7FEF7ADFD034B1D7018
:10BC8400A1E700BFA02E0020702E0020A82E0020C7
:10BC9400302E00202D2E00202DE9F04781460D4640
:10BCA400FEF7D6FD0328044631D8012D04D022D353
:10BCB400022D2ED0BDE8F087194D47003A18A91877
:10BCC400AE5C4A7852B1DFF86880164842464FF4B9
:10BCD4008041FCF770FA08B988F800903B192B44AE
:10BCE4009A78114B1A5596B1104B1B687BB13046AC
:10BCF400BDE8F04718470B48FCF775FA084B04EB0E
:10BD0400440213449E78084B1B5DB342EBD0BDE85C
:10BD1400F087034B00EB40041C446678E3E700BF64
:10BD2400902E0020502E0020A92E0020A42E0020AA
:10BD34002C2E002002210078FFF7AEBF044B1B68B5
:10BD4400DB0703D5034B1878FFF7AABE704700BF83
:10BD54009C2E0020A82E0020002910B514BF032417
:10BD64000024FEF787FD1F288ABF0A4B4FF0A0432B
:10BD740000F01F0003EB8000D0F8002722F44032CB
:10BD8400C0F80027D0F8003743EA0443C0F800376E
:10BD9400002010BD00030050032801D8FEF744BD65
:10BDA40000207047044B1B6813F0010301D0FFF718
:10BDB40077BE1846704700BF9C2E002038B51C4B38
:10BDC40018601C4B10F00204054619601AD01A4B77
:10BDD4001A480E221A700F22DA7010229A71112258
:10BDE4005A72042140F23332FCF774F8044648B91D
:10BDF400FCF7C8F8044628B90146114A1148FCF773
:10BE0400CFF90446EB0711D50120FEF739FD6CB9D3
:10BE140021460D4A0D48FCF7C3F9044630B90C4AD3
:10BE24000C480121BDE83840FCF7BAB9204638BDBA
:10BE34009C2E0020A42E0020902E0020C02C030055
:10BE440039BD0200E42C030041BD0200E82C0300CC
:10BE540071BA0200E02C0300032812D8012A0BD186
:10BE6400012908D100F10E02D2B200EB40000C4BC4
:10BE74001A540020704700220129F6D009D3022960
:10BE840001D007207047064B00EB40001844427075
:10BE9400EFE7034B00EB400018448270E9E700BF72
:10BEA400902E0020032802D80121FFF755BF062059
:10BEB400704708B5012202210020FFF7CDFF08B129
:10BEC400072810D1072202210120FFF7C5FF08B17E
:10BED400072808D100210A220846FFF7BDFF10B148
:10BEE400072808BF002008BD0388102B10B502D016
:10BEF400112B1ED010BD194C2168B1B9012208467E
:10BF0400FFF7AAFF08B1072821D107220221012047
:10BF1400FFF7A2FF08B1072819D10422022100204B
:10BF2400FFF79AFF08B1072811D123680133236072
:10BF340010BD0A4A1368013B136073B9FFF7B9FFD8
:10BF440058B1074B1B6843B1BDE810401847044B78
:10BF54001B68002BE9D09847E7E710BDB42E0020FA
:10BF6400B02E002008B50020FFF79CFF08B106287A
:10BF740006D10120FFF796FF10B1062808BF002064
:10BF840008BD00000D4B10B518600C4629B1012006
:10BF9400FFF702FF40B102232370094B1B6853B91A
:10BFA400BDE81040FFF785BFFFF7F6FE08B10B238D
:10BFB400F2E72070F1E7002010BD00BFB02E002092
:10BFC400B42E002076DF704778DF70477ADF704741
:10BFD4007CDF70478FDF704733DF7047037813B916
:10BFE400014B01221A707047BA340020037813B948
:10BFF400014B01221A707047BB3400207047FBF7D5
:10C00400D7BF08B50020FFF7CDFE08B1FBF7D0FF7E
:10C01400FFF7A8FF08B1FBF7CBFFFFF7DDFF18B16F
:10C02400BDE80840FBF7C4BF08BD000008B50378AD
:10C034004BB9054B3B211888FFF7C4FF18B1BDE885
:10C044000840FBF7B5BF08BD9E220020072808B5AD
:10C0540013D00A280DD0042819D10D4B13211888A8
:10C06400FFF7B0FF30F0080311D0BDE80840FBF73C
:10C074009FBFBDE80840FFF7C4BF054B1A884FF6C1
:10C08400FF739A4203D1034801F052FAEAE708BD6C
:10C094009E2200206030002008B598B1032815D1F5
:10C0A4000B4B0C480C49C01AC008000440F00300B4
:10C0B400FBF7A0FC0220FFF775FE38B1BDE808408D
:10C0C400FBF776BFBDE80840FFF79BBF08BD00BF84
:10C0D400A8220300E8220300972D030008B50321DA
:10C0E400044801F0DBF818B1BDE80840FBF760BF75
:10C0F40008BD00BF6030002010B5044604F068F8A5
:10C10400204603F04BFE23780C2B03D1BDE81040EE
:10C11400FFF7E4BF10BD7FB50B788DF804304B7882
:10C124008DF805308B780293CB7803934B68049396
:10C134001E228B68059301A90430FFF79BF907B011
:10C144005DF804FB7FB51C4B1C4D01221A701C4A80
:10C154000024282C02F1060210D11A4B01221A7075
:10C16400194A07CA01AB83E8070019461748FFF7C5
:10C17400D2FF08B1FBF71CFF04B070BD12F8063CF7
:10C1840012F9050C12F9031C12F9016C03F0F00307
:10C1940043EA002312F8040C00F0F00040EA012006
:10C1A40012F8021C01F0F001034441EA06210B4499
:10C1B40045F824300134CCE7BB340020742F002030
:10C1C400B4350020B9340020EC2C0300502D0300BA
:10C1D4007FB51C4B1C4D01221A701C4A0024282CCC
:10C1E40002F1060210D11A4B01221A70194A07CA29
:10C1F40001AB83E8070019461748FFF78CFF08B125
:10C20400FBF7D6FE04B070BD12F8063C12F9050C1B
:10C2140012F9031C12F9016C03F0F00343EA002342
:10C2240012F8040C00F0F00040EA012012F8021C9D
:10C2340001F0F001034441EA06210B4445F824309F
:10C244000134CCE7BA340020D42E0020C4340020BA
:10C25400B8340020F82C0300402D0300FBF7A8BEDF
:10C264000B4A002313600B4A13600B4A13600B4AFA
:10C2740013600B4B4FF07E521A600A4B0A4A1A6045
:10C284000A4B0B4A1A600B4B0B4A1A60704700BFEB
:10C294001C30002020300020BC340020C03400209A
:10C2A400B82E0020BC2E0020D7347FBF14300020CD
:10C2B40024977F3F1830002024977FBF1FB5202389
:10C2C4008DF8083097238DF8093023238DF80C302E
:10C2D400224C234838238DF80D300023237002AA02
:10C2E400009318210223FFF733FA08B1FBF760FE2D
:10C2F4002378002BFCD00023237003AA0093182179
:10C3040002231748FFF724FA08B1FBF751FE2378FC
:10C31400002BFCD000232370124C1348237002AA74
:10C32400009318210223FFF713FA08B1FBF740FE2C
:10C334002378002BFCD00023237003AA0093182138
:10C3440002230948FFF704FA08B1FBF731FE23780A
:10C35400002BFCD00023237004B010BDBA3400209D
:10C36400442D0300BB340020542D030000B589B0D4
:10C3740010220021684605F037FB1D210A224FF0E8
:10C3840080638DE80E0006238DF80C3001238DF8B0
:10C394000D30174A174800236946FEF74DFE08B1D1
:10C3A400FBF706FE102200210DEB020005F01CFB3A
:10C3B40009230493022305934FF080630693062315
:10C3C4008DF81C3001238DF81D300B4A0B480023D7
:10C3D40004A9FEF731FE08B1FBF7EAFD0848FFF7B0
:10C3E40039F80848FFF736F809B05DF804FB00BFD8
:10C3F400E1BF0200402D0300F1BF0200502D0300F5
:10C40400442D0300542D030008B50548FFF750FAE6
:10C414000448FFF74DFA0448BDE80840FFF748BA5E
:10C42400302D0300382D0300282D030008B50548DE
:10C43400FFF74CFA0448FFF749FA0448BDE80840FE
:10C44400FFF744BA302D0300382D0300282D0300D4
:10C454000388212B13B5044645D005D8102B20D0D2
:10C46400112B0AD002B010BD3B2B01D0562BF9D1B1
:10C474001321A088FFF7A6FD0EE0204B2048214998
:10C48400C01AC008000440F00300FBF7B3FAFFF73A
:10C49400CDFF1D48FBF7A7FE0028E3D0FBF788FD7E
:10C4A400E0E7164B16481949C01AC008000440F0CA
:10C4B4000300FBF79FFA0720FFF774FC08B1FBF7B2
:10C4C40077FD134BA1881348198002F04FFB08B184
:10C4D400FBF76EFDFFF798FF002240F28F210A4818
:10C4E400FBF769FED8E7002301A980888DF80430A2
:10C4F4008DF80530FFF76EFDCEE700BFA8220300DC
:10C50400E8220300082D030028300020162D030024
:10C514009E220020AC340020024B00221A805A6074
:10C52400704700BFA43600202DE9F843144FDFF80C
:10C534005C80DFF85C900024282C25B201D1BDE892
:10C54400F88357F8246058F8240006441CB931468F
:10C55400484600F085FB14F0010F30B209490A4E39
:10C564004FEA650507D02DB205F05AF8735D1843FC
:10C5740070550134E0E705F053F80001F8E700BF17
:10C58400D42E0020A4360020C02E0020742F0020BA
:10C59400042D03000F4908B50B78CBB10E4B1A7864
:10C5A400B2B100220A701A70FFF7BEFF0B4A0C49A1
:10C5B4000C4805F011F830F0080209D0132807D010
:10C5C40043F20142904203D0BDE80840FBF7F0BCBF
:10C5D40008BD00BFB8340020B934002098220020E0
:10C5E400C02E002048300020FFF7D4BF80B54FF4A0
:10C5F4008041B0B00020FBF755F808B1FBF7D8FC38
:10C60400FAF788FFFBF79AFD08B1FBF7D1FCC04AA3
:10C61400C0480121FBF7C4FD08B1FBF7C9FCBE49C2
:10C624000320FFF7CBFB08B1FBF7C2FC05AC2146A6
:10C634000020FFF7A7FC08B1FBF7BAFC9DF81470C3
:10C64400FDF7AAFE08B1FBF7B3FC04F001FD08B145
:10C65400FBF7AEFC002321460120059304F0BEFD48
:10C6640008B1FBF7A5FC204604F06AFE08B1FBF70D
:10C674009FFC9DF80830A948012262F3030330AE01
:10C6840062F3071306F8B83D05F004FAA34982B231
:10C694003046FFF79DFC08B1FBF78AFC0020FFF74A
:10C6A40093FC08B1FBF784FC08220021204605F026
:10C6B4009BF92023ADF81430ADF816300023ADF803
:10C6C400183020464FF4C873ADF81A30FFF77EFCDB
:10C6D40008B1FBF76DFC0021914802F037F908B16D
:10C6E400FBF766FC8F4B90480293314602F02CFA1C
:10C6F40008B1FBF75DFC00210822204605F074F91F
:10C70400002305932146012388488DF8183004F04E
:10C71400B3FE08B1FBF74CFCAC220021204605F027
:10C7240063F902238DF8143000238DF816300523A5
:10C734008DF817300123ADF860308DF890304FF448
:10C744009673279344F25063794A28932146794B90
:10C75400794819922E9300F02CFD08B1FBF728FCC0
:10C764000121754800F022FD1C220021204605F01D
:10C774003BF900234FF4A03205930692ADF8223022
:10C784004FF4F0228DF824306C4B07920A93032265
:10C794006B4B8DF8202020460B9300F0E7FF08B187
:10C7A400FBF706FC02F0BEFF08B1FBF701FC052213
:10C7B4000021204605F018F99DF8143043F00103D8
:10C7C400032203F0F10362F306136FF3C7138DF82A
:10C7D400143007238DF8153010238DF816309DF88A
:10C7E400173013438DF817309DF818302046134343
:10C7F4008DF8183003F030F808B1FBF7D9FB514835
:10C8040003F012F808B1FBF7D3FB4F4B4F4D5049DF
:10C81400ED1AED082D0445F003052846FBF7EAF868
:10C82400FFF71EFDFFF778FE022F40F022814949F1
:10C834002846FBF7DFF803F03BF808B1FBF7B8FB39
:10C84400FAF780FF0028FBD1FFF790FDFFF736FDD4
:10C85400FEF7ACFB08B1FBF7ABFB002306228DF817
:10C8640015308DF816308DF8172006933A4A3B4858
:10C87400092321468DF81430FEF7B0FF08B1FBF709
:10C8840097FB374BD3F810254FF47A50D2B20021DE
:10C8940004F01EFF00250246012329462F48009577
:10C8A400FFF739F806238DF817302E4A2E488DF8F5
:10C8B4001450022321468DF8165006958DF8153034
:10C8C400FEF78CFF08B1FBF773FB01252B462822EA
:10C8D400002125480095FFF71EF8002306228DF855
:10C8E40014308DF816308DF8172006931F4A20480F
:10C8F400022321468DF81530FEF770FF08B1FBF7CF
:10C9040057FB0095012328220021194832E000BF7B
:10C91400EDC50200242D030051C00200602D030068
:10C924009434002061C20200AC340020483000205E
:10C934009A2200209DC002006030002031C0020015
:10C9440003C00200FDC00200A8220300E822030085
:10C95400702D03008A2D030001C00200282D03005E
:10C9640000900040D5C10200302D030049C10200EF
:10C97400382D0300404D414FFEF7CDFF404B93E867
:10C98400070086E8070031463E48FFF7C4FB10BBAA
:10C994009DF808103C48FEF7F1FE06462846FEF7CF
:10C9A400F9FF08B1FBF704FB324638492878FFF752
:10C9B40025F808B1FBF7FCFA3348FEF7E6FE064615
:10C9C4002E48FEF7E7FF08B1FBF7F2FA304A387851
:10C9D4003146FFF713F82F4B2F4E93E8070084E8F6
:10C9E400070021462D482E4CFFF795FB10BB9DF800
:10C9F40014102C48FEF7C2FE80462046FEF7CAFFFC
:10CA040008B1FBF7D5FA424620492078FEF7F6FF35
:10CA140008B1FBF7CDFA2348FEF7B7FE80461E485F
:10CA2400FEF7B8FF08B1FBF7C3FA1F4A3078414656
:10CA3400FEF7E4FF2878FFF701F808B1FBF7B8FA2E
:10CA44003878FEF7FBFF08B1FBF7B2FA2078FEF75F
:10CA5400F5FF08B1FBF7ACFA3078FEF7EFFF08B149
:10CA6400FBF7A6FAFAF76EFE0028FBD1FDF7AAFC45
:10CA7400F8E7FFF733FBE3E6A8340020A9340020ED
:10CA8400F82C0300402D0300442D03004091004086
:10CA940008A00040EC2C0300AB340020502D030010
:10CAA400AA340020542D030008A001400369C16882
:10CAB4008B429DBF8268D21802F1FF3203F1FF332B
:10CAC40094BF501A581A70472DE9F041C768866818
