:020000022000DC
:106000000000012079630200616302006363020003
:10601000656302006763020069630200000000001C
:106020000000000000000000000000006B630200A0
:106030006D630200000000006F63020071630200E4
:10604000B19B020073630200C19F0200D1A2020053
:106050007363020073630200759E020073630200A3
:10606000A1A40200B5A40200C9A402007363020047
:1060700073630200736302007363020073630200C0
:10608000736302007176020073630200736302009F
:10609000736302007363020025F802007363020059
:1060A0007363020073630200DDA40200F1A4020026
:1060B000D1A1020073630200000000000000000094
:1060C0007363020073630200736302007363020070
:1060D0007363020073630200736302000000000038
:1060E00000000000000000000000000000000000B0
:1060F00000000000000000000000000000000000A0
:10610000000000000000000000000000000000008F
:10611000000000000000000000000000000000007F
:10612000000000000000000000000000000000006F
:10613000000000000000000000000000000000005F
:10614000000000000000000000000000000000004F
:10615000000000000000000000000000000000003F
:10616000000000000000000000000000000000002F
:10617000000000000000000000000000000000001F
:10618000000000000000000000000000000000000F
:1061900000000000000000000000000000000000FF
:1061A00000000000000000000000000000000000EF
:1061B00000000000000000000000000000000000DF
:1061C00000000000000000000000000000000000CF
:1061D00000000000000000000000000000000000BF
:1061E00000000000000000000000000000000000AF
:1061F000000000000000000000000000000000009F
:10620000364937480A1A02D0072291438D4635494C
:1062100035480A1A06D00722914381F309880222E1
:1062200082F3148831483249324A00F045F8324846
:106230003249334A00F040F832483349334A00F0DB
:106240003BF833483349344A00F036F83348344990
:10625000344A00F031F834483449354A00F02CF81B
:1062600034483549354A00F027F835483549002289
:1062700000F02DF834483549002200F028F8344861
:106280003449091A082903DB002202600430016046
:10629000314A90471F482049884205D0026804309F
:1062A00003B4904703BCF7E700208646EC46002085
:1062B00000212A4A9047FEE7884207D0521A05D0AB
:1062C000037801300B700131013AF9D170478842EF
:1062D00002D002700130FAE7704700000000012090
:1062E00000E0002000000120000001206C2A0300D3
:1062F0007422002034230020D4630200D4630200FF
:106300000C0403006C2A0300742200207422002075
:10631000C0050300C0050300C0050300C00503005D
:10632000C0050300C0050300C0050300C00503004D
:106330006C2A03002C2B030034230020342300207C
:1063400034230020043D0020043D0020043D0020B3
:10635000043D0020045D0020A1630200C5AE0200E0
:10636000FEE7FEE7FEE7FEE7FEE7FEE7FEE7FEE705
:10637000FEE7FEE700F002B8FFF7FCBF0F484FF062
:106380000701884385460E4880470E48016841F45E
:1063900070010160BFF34F8FBFF36F8FFFF730BF06
:1063A00009480A490A4A884207D0521A05D0037898
:1063B00001300B700131013AF9D170470000012022
:1063C000D196020088ED00E0AC05030060220020B9
:0463D0007422002013
:1063D4007047000007B5044B0093044A402300F0C3
:1063E40032F803B05DF804FBF563020035230020A6
:1063F4002DE9F84389461446E2B10F4B0F4E0325AD
:10640400002743F00108224609EB0701002004F0AD
:1064140061FF0744241A48B933785BB14FF47A40DA
:10642400C047013D02D13570BDE8F88301233370C4
:10643400002CE8D1BDE8F883C00503003423002014
:10644400704704F07BBFF0B595B01C4608460D4676
:10645400164602F075FF1A9B099400240D93082236
:10646400234605A9284608960A948DF82C400C94D6
:1064740002F084FF079B0293BDF81830ADF80C308E
:10648400BDF81A30ADF80E309DF814308DF8114077
:1064940003F00302012A1DD1BDF81440059EC3F385
:1064A400C203C4F383148DF81030A20008230EA98C
:1064B400284602F063FFC6F3952608AB00932246F4
:1064C40002AB0EA9304600F057FB284602F03CFF11
:1064D40015B0F0BD022AF8D1BDF81640C3F3C203CB
:1064E400C4F389148DF810300827082C264628BFD9
:1064F40008263B4632460EA9284602F03FFFA41B5D
:1065040008AB02AA31460EA8374400F099FB002CD0
:10651400EBD1DAE708B5FFF794FF0421034800F054
:106524009BFA034B01225A7108BD00BF9C0503006E
:1065340074220020037813F0040216D003F003033E
:10654400012B03D0022B09D0012070470A68008870
:106554000232C0F3831002440A60F5E70B684288F4
:10656400023303EB92130B60EEE710467047000012
:106574002DE9F04F87B00546841C06A8002300F8D7
:10658400113D0E46904600F001FF454A53683360C2
:106594009368516803F580735B1A924602F21C46B5
:1065A40002F5836902F21447A3421BD30023B8F116
:1065B400000F6CD0012262F3010343F0040365F37E
:1065C4008913DAF804109DF80700CAB203320C44A8
:1065D4004AF82230CAF8044000F0FCFE012007B05B
:1065E400BDE8F08F0121304602F020F9484602F060
:1065F4003AF9384602F037F90DF1180BDAF80800C9
:106604004BF8100DC0B203300AEB80005946FFF777
:1066140091FF029BA0B9DAB20AEB8202991C013302
:10662400D2680392DBB20AEB830302F00302DB6855
:106634000291012A049322D0022A03D083460BE05C
:10664400D8B2E0E7BDF80E30BDF812B0C3F3891339
:10665400033301EB93030293384602F007F910B1B8
:10666400029BCAF808305946304602F0DFF8DAF8DF
:106674000830DAF8042003F580739B1A94E7BDF818
:106684000C30BDF812B0C3F383130B44E3E70222CA
:1066940062F3010343F0040365F39F5391E700BFE2
:1066A40048240020064B074810B500221A7002F057
:1066B400FEFD044610B9044802F0AAFE204610BDAF
:1066C40048240020A0040300E405030030B50A4C6C
:1066D40071B10A4A0A49121BD20800239A4201D115
:1066E400002030BD31F82350854202D00133F5E754
:1066F400034654F8330030BDB40403009C05030082
:1067040074220020094B013903EBC000032909D886
:10671400DFE801F00A02040604207047007970479C
:10672400407970470020704702207047B40403008A
:10673400034B98685B68C31A58425841704700BFBE
:10674400482400202DE9F04186B0FFF7F1FF05460B
:10675400002840F0E580784CC4F81804BFF34F8F4C
:10676400A06806AE46F8100DC0B2033004EB8000FA
:106774003146FFF7DFFE029B18B1D4F81824002A33
:1067840055D0DAB2991C013304EB8202DBB204EB7C
:106794008303D268DB68049302F00303022B0392A1
:1067A400029154D1BDF80E306448C3F38917502FB9
:1067B400B846A8BF4FF0500868F38F1308F10801DA
:1067C400ADF80E3002F08BFD0546002800F0AA80DB
:1067D40002F0B6FD03A900230822284602F0C3FDF7
:1067E4000299CE43F6B20136B600B045C9B228D9F3
:1067F40003310823324604EB8101A8EB060828463E
:1068040002F0B1FD5FFA88F84D4906F108034246EB
:10681400284602F0A8FD029B033703EB9707029773
:10682400D4F81834002B46D1D4F8106451E06268CF
:106834009A4204D8A260284606B0BDE8F081D8B2D6
:1068440093E703310823424604EB8101E0E7012B7F
:1068540068D1BDF80C303948C3F38311062928BF29
:10686400062161F3891302318900ADF80C3002F07E
:1068740036FD0546002855D002F062FD00230822AB
:1068840003A9284602F06FFD0026BDF80C20C2F3D0
:106894008312B31C96424FEA8303C1D202994A1C65
:1068A400C9B20331029204EB81010422284602F0AA
:1068B4005AFD0136E9E7284602F046FDFFF738FFA6
:1068C40080F00100C5B2B6E7F3685B796BBBF3688F
:1068D4001E68002EF8D1284602F036FD06A800F8FE
:1068E400116D00F053FDD4F818340BB9029BA3606A
:1068F4009DF8070000F06EFDE0E7236820469B68E2
:106904009847E3681C68002CF7D10E4B0E480F49DA
:10691400C01AC008000440F0020000F06BF8CDE794
:10692400002588E7D4F81044EDE7336829461B684E
:1069340030469847CBE700BF48240020A00403005A
:1069440054240020B4040300FC040300F0050300F5
:106954002DE9F34780460F46924601A901221846C5
:106964009946FFF705FE214D68B3019C0026A21C41
:106974004E4531D100211E4801F00BFF80F3100079
:10698400631CDBB205EB8303000440EA1840D860C3
:10699400E3B20333012115F8232068F3C50205F897
:1069A400232035F8232066F3891225F8232055F88F
:1069B400232067F39F2245F8232061F301026FF33C
:1069C400820205F823202B781BB1FFF7BBFE0028B9
:1069D400FBD102B0BDE8F087D1B205EB81015AF8D2
:1069E4002630CB6001360132C2E700BF48240020C4
:1069F4006428002000231A46FFF7AABF13B502AC8F
:106A0400012344F8042D2246FFF7A2FF02B010BD73
:106A140007B58DE80C0002236A46FFF799FF03B01F
:106A24005DF804FB1FB50293069B0192039301AA30
:106A34000323FFF78DFF05B05DF804FB1FB58DE858
:106A44000C00069B0293079B03936A460423FFF7FB
:106A54007FFF05B05DF804FB30B50F49D1F8102471
:106A6400002314463CB9C468237152B9C1F8100418
:106A74002260184630BDE46825799D4206D024681A
:106A8400F0E7D268116821601060F2E701330A2B45
:106A9400E7D14FF0FF33ECE748240020084A38B52B
:106AA4000123D2F8104413701D4604B938BDE368BD
:106AB4005D71236820465B689847E3681C68F4E7C7
:106AC40048240020C38873B504460D4633B1144AE4
:106AD40000921449144A284601F029FF217A052915
:106AE4001CD0637A4BB1A088FFF70CFE0F4B104902
:106AF40053F82020284601F01AFF227A0D4BA08873
:106B040053F822600021FFF7E1FD0B4903463246AA
:106B1400284602B0BDE8704001F009BF02B070BD64
:106B24005B060300430603003B060300080603005C
:106B3400D71D03006C06030060060300037A052BCF
:106B440010B50C460FD0437A23B1084A08492046B1
:106B540001F0EDFE0749204601F0E9FE2046BDE8BC
:106B6400104001F0D9BE002AF8D0F3E75B06030019
:106B7400D71D0300580603002DE9F04385B01F46D6
:106B84000C9D002306460C46904695F80C902B73FA
:106B940029463846FFF796FFB8F1060F09D8DFE813
:106BA40008F00412181F283340003146284601F02B
:106BB400BEFE002229463846FFF7C0FF85F80C9038
:106BC40005B0BDE8F08322683146284601F0AFFEE7
:106BD400EFE794E80C003146284601F0A8FEE8E708
:106BE400A3680093314694E80C00284601F09FFE08
:106BF400DFE7E3680193A3680093314694E80C004F
:106C0400284601F094FED4E723690293E3680193D4
:106C1400A3680093314694E80C00284601F087FEEF
:106C2400C7E76369039323690293E3680193A36845
:106C34000093314694E80C00284601F078FEB8E74A
:106C440008292DE9F84F80460E4617461C463AD8C7
:106C5400002593F80C901D7319461046FFF732FF78
:106C6400DFF884A0DFF884B0AE422ED918F80520EE
:106C74005946204601F05BFE0135082DF4D1184930
:106C8400DFF86CB0204601F052FE4FF0000A564582
:106C940020D918F80A507E2D03D8284609F0CAFADC
:106CA40000B92E252A465946204601F040FE0AF135
:106CB400010ABAF1080FEAD1012221463846FFF74A
:106CC4003DFF84F80C90BDE8F88F5146204601F052
:106CD4002EFED1E70349204601F029FEE7E700BF75
:106CE4003606030034060300320603002C060300B4
:106CF40038060300C30710B507D4F0234008054A3B
:106D0400145C23401943115410BD0901C9B20F2367
:106D1400F4E700BF3029002030B5094B1C78094B3B
:106D240019680023A34202DB0022104630BD11F88B
:106D34003350854201EBC302F7D00133F2E700BFC1
:106D4400002900204029002070B504460D46FFF7B5
:106D5400E3FF30B1436823B129462046BDE87040C3
:106D6400184770BD034B044819680022490800F015
:106D740022BA00BF042900200829002010B5C0B29F
:106D8400FFF7CAFF0446007803F068F863785A1ED8
:106D940053425341834208D1044BD3E900231343A4
:106DA40003D1BDE81040FFF7DDBF10BD2829002046
:106DB40037B543082E4AD35CC2074CBF1B0903F006
:106DC4000F0304460D46042B2FD8DFE803F0031EFF
:106DD4002632360049B30121FFF78CFF02A80023B5
:106DE40000F8013D234D00F0D1FA22460120002194
:106DF40009F04CF9D5E9002310431943C5E9000112
:106E04009DF8070000F0E6FA0FE0002914BF022104
:106E140000212046FFF76EFF07E041B10321FFF791
:106E240069FF01212046FFF78FFF03B030BD012128
:106E3400EFE70029F9D10421EBE709B10321E8E7E1
:106E4400FFF758FF29462046FFF77EFF02A800F807
:106E5400015D084D00F09AFA22460120002109F054
:106E640015F9D5E9002322EA000023EA0101C5E768
:106E740030290020282900202DE9F041124E134F1B
:106E8400002433789C4208DB114BD3E900231343DD
:106E940018D0BDE8F041FFF765BF3D6805EBC408B5
:106EA40015F8340002F0DAFF98F801104B1E59422D
:106EB40059410A1A514215F834005141FFF778FF3D
:106EC4000134DEE7BDE8F0810029002040290020DC
:106ED40028290020092AF7B505460C4616463FD94D
:106EE40002F0F8FED8B11F4B1F481D601F4B204F06
:106EF4001C70204B002110221E6009F0FFF91E4B6C
:106F040000200021C3E90001013CE4B20326FF2C68
:106F14000BD11A4A1A48002100F042F903E002F0AA
:106F24009BFE0028DFD003B0F0BD9DF806308DF83D
:106F3400046020B203F0FC0305EBC0026FF382038C
:106F44008DF80630937815F830008DF805303A4600
:106F540001A902F0C9FE013CE4B20028D7D0E2E75F
:106F64000720E0E7402900203029002000290020E4
:106F7400816D020004290020282900207D6E020072
:106F8400CC06030070B5084D084E00242B789C42B3
:106F940001D3002070BD3368012113F8340002F0DE
:106FA40017FF0134F2E700BF002900204029002028
:106FB4001FB50021039001AA44F20100019102913E
:106FC40000F004F805B05DF804FB000010B572B6DB
:106FD400FFF764FDFFF7B6FB0028FBD1104B114C03
:106FE4001149E41AE408240444F00100FFF702FD07
:106FF4000E4B1B68DB0700D500BE0D4944F00200B0
:10700400FFF7F8FCBFF34F8F0A490B4BCA6802F431
:10701400E0621343CB60BFF34F8F00BFFDE700BFB7
:10702400B4040300FC040300DB060300F0ED00E0FD
:10703400E706030000ED00E00400FA05D0E90223AE
:10704400D1E90201994208BF90422CBF01200020DF
:10705400704700002DE900480C4800F0F1FA0C4B91
:10706400D3E9002312EB000B43F1000C094BD3E9E5
:1070740000239C4508BF93455846614603D21BF143
:1070840080704CF10001BDE8008800BF7C22002024
:1070940048290020C029002037B505460C460A4877
:1070A40001A901F0A4FA60B10570446001A9064881
:1070B40001F0C7FA18B1054800F0C6FA002003B081
:1070C40030BD0420FBE700BFAC2900207C22002057
:1070D40038B5184B1B78044613B90025284638BD2B
:1070E4000028FAD0037F03F0FF05002BF5D0FFF74B
:1070F400B1FFD4E90223994208BF904214D3236913
:1071040003B923776369A069984721690029E4D00A
:10711400237F03F0FF05002BDFD0D4E902235218AC
:1071240043F10003C4E902232146034802F08FF926
:10713400D4E700BF50290020F806030013B5114B13
:1071440011491868019008235822104801F01AFACE
:10715400044698B90E4A0F4801A900F05FF90446A5
:1071640060B901210B4800F04DFA01230A4A09488D
:10717400194600F0B1F9094B01221A70204602B0F9
:1071840010BD00BFF406030054290020AC290020E0
:10719400057202007C220020FFFF7F00502900209E
:1071A4003AB103685A614A1E5142514119610020A3
:1071B40070470720704738B5037F04460D4683B9EE
:1071C4008261FFF747FF2369401941F10001C4E9D7
:1071D400020103B1256121460020BDE83840FFF7D4
:1071E4005BBF002038BD0023014603770120FFF771
:1071F40053BF0000014800F023BA00BF7C220020E6
:107204002DE9F74F064600F005FA40B15749D1E998
:10721400002312F1807243F10003C1E9002300212D
:10722400304600F006FA38B1514C236823B1206887
:10723400FFF74EFF002323600121304600F0F9F9E7
:1072440020B1FFF707FF4B4BC3E9000101A94A48EE
:10725400474D4A4C4A4F01F004FA002833D1DFF875
:107264001CA1434CDFF820B1504602F006F9236814
:10727400002871D07BB12368D0E90201D3E902234D
:10728400994208BF90425DD223681B7F1BB12168DD
:10729400504602F0DCF8504602F0E9F8D0E90289E1
:1072A4000746FFF7D7FEB8EB000069EB01010128A0
:1072B40071F1000333DA0021584600F0B0F9384682
:1072C400FFF706FF45E00378012B1DD00BD3022BFB
:1072D40011D14FF00008204602F0C9F8002841D02F
:1072E40080F81C80F7E741680B7F23B901230B77F3
:1072F400204602F0ACF801A91F4801F0DDF901A90C
:107304001D4801F0AEF9A8E741682B68994202D103
:1073140000232B60EFE7204602F0B2F8EBE7194DAB
:10732400A84212D9FFF766FF42194FF496030021D1
:10733400584600F0F1F850B9236813B9304600F00C
:10734400C3F8276003B0BDE8F08FBA68EDE70D28F5
:10735400B5D00023236087E7002BF3D1304600F03B
:10736400B7F8EFE701233B70C5E700BF48290020C9
:10737400C8290020C0290020AC290020F8060300F9
:1073840050290020FFFFB4007C22002070B5EFF3E9
:10739400108672B60C4A946801239CB993600B4B17
:1073A4000B4DD3F8801029401160C3F88050D3F8F6
:1073B400841051604FF0FF32C3F88420047006B982
:1073C40062B670BD0370FAE7CC29002000E100E04A
:1073D400FC06FFBD084B9A6810B55AB150B9EFF3DB
:1073E400108172B6054A1C6814605C685460986029
:1073F40001B962B610BD00BFCC29002000E100E055
:10740400435882B03BB10023435043580193019B3E
:10741400012002B070471846FBE70000F8B5224C83
:107424004379224D44F8232005EBC303204A1B79FA
:10743400204C4BB1101BC00800041F4940F002004F
:10744400FFF7D8FA0820F8BD03680E88C3F808656A
:1074540090F904308978002B4FEA41111DDB174E57
:10746400F718C9B287F8001301215F0903F01F035D
:1074740001FA03F346F82730437945F83300101B2B
:1074840005EBC301C008012600040E7140F003009F
:107494000B49FFF7AFFA0020F8BD03F00F03094EC4
:1074A400C9B2F154E8E700BFE0290020D829002040
:1074B4000C050300B40403001607030000E100E018
:1074C4003807030014ED00E0036801221A607047D6
:1074D400036801225A60704773B58D0005F5A075E5
:1074E4000068ADB24FF480348C400026C0F80843E5
:1074F400C0F84843465101F5A8714559019522F059
:107504007F42019D40F82120C0F844430BB1C0F8EC
:10751400044302B070BD00002DE9F74F8E00984679
:107524004FF4803503688D4006F5A079C3F84853BD
:107534001FFA89F9C3F80853074698198A464FF089
:10754400000BD3F8041522F07F44D0F84025C0F88E
:10755400401543F809B053F809300093009B531ABF
:1075640023F07F43012B0CD1254B4FF4806043F073
:10757400010398473B6843F809B053F80930019375
:10758400019B3868D0F80495C0F84453A4EB090370
:1075940023F07F43012B1AD10AF5A87A184B013442
:1075A40040F82A4043F001034FF4806098473B6859
:1075B400D3F80435994508D13B680020C3F84453F7
:1075C400C3F8045303B0BDE8F08F0D20FAE7064476
:1075D400C8F1FF18C6F84045D0F80435E21A013A5C
:1075E40022F07F4208F57F489045EED3002AE3D18C
:1075F4000134C6F84045D0F804259342DBE700BFC8
:107604001007030003680222C3F8442309B1C3F836
:10761400042370474FF482710068FFF7F1BE4FF402
:10762400803303FA01F10368C3F84813C3F808135D
:107634007047890001F5A07189B20068FFF7E0BEC8
:107644000368D3F80405704790F90430002B09DB74
:107654005A09012103F01F0301FA03F340320249DE
:1076640041F82230704700BF00E100E0024B034ABA
:107674001B681068184700BFE0290020D8290020A3
:1076840070B5064E0546002456F824300BB1284642
:1076940098470134042CF7D170BD00BFF0290020B5
:1076A400033080B240F2FE33984230B51FD8134BFA
:1076B4001A783AB95C891D892C440444A4B2B4F5FF
:1076C400806F0AD91A7DAAB99A8BDC8B22440244B2
:1076D40092B2B2F5806F0DD801220A8014461422AA
:1076E40002FB04335A8910445881002030BD48F20B
:1076F400086030BD48F2066030BD00BF242A002077
:107704000B4A0C4B5188142000FB0131CB6833B970
:107714000420496810700122074801F095BB052335
:107724000649137002238B80012200230968F3E7C2
:10773400082A0020242A002060220020EC2A0020AD
:1077440007B5002305490093054A0968054808233D
:1077540001F0E0FA03B05DF804FB00BFEC2A00205E
:10776400580703006022002007B500230093014658
:107774000823034A034801F0CDFA03B05DF804FB83
:10778400500703006022002013B500230C46009329
:1077940001460423074A084801F0BCFA38B9074BEC
:1077A400142202FB04340123237402B010BD48F2F6
:1077B4000D60FAE74C07030060220020242A002011
:1077C40037B50A480A4B42689C88196853880325D0
:1077D400033305709BB2002000909B0001EB8401F1
:1077E400044801F097FA03B030BD00BF082A002016
:1077F400EC2A00206022002010B50146044800F065
:10780400F6FE1C220446002108F078FD204610BD37
:10781400D82A00204388033300EB830399420BD317
:1078240082884FF6FF739A4208D0038833B1806888
:10783400431C58425841704702207047012070474A
:107844002DE9F8430223DFF864800B800D461746C8
:1078540000F5805600F108044FF00109B44222D229
:10786400236801331FD031462046FFF7D3FF48B1C8
:107874000FB187F8009002280BD14FF480632B805E
:10788400BDE8F883A368D8F80020934201D9C8F86A
:1078940000302B886288033313442B8063880333BE
:1078A40004EB8304DAE7BDE8F88300BF1C2A002058
:1078B400144A142303FB002070B50B6844680D467A
:1078C40004F5805653B15C88033403EB8404A64268
:1078D40002D9236801330BD1002070BD0834F6E7C8
:1078E4002C60012070BD6388033304EB8304EEE74E
:1078F40031462046FFF78EFF0128F4D0F0D302284A
:10790400EAD0E4E7242A0020436873B505460C4610
:1079140073B3254AD1688B422AD31269934227D87C
:1079240013F0030224D121490089098988421FD117
:107934002868996888421BD11D494868834203D945
:1079440000F5805083420ED38A6993420DD902F523
:107954008052934209D2012323800020B0FA80F0A0
:10796400400902B070BD1346F6E748F20960F5E736
:10797400002323801E462388012B01D90020F0E731
:10798400019601A92088FFF793FF18B923880133D2
:107994002380F0E7019B2A6899689142F1D16B60DA
:1079A400024B1B892B81DCE760220020082A00207F
:1079B400242A00202DE9F8431C46214B1B78064657
:1079C4000F461546002B32D0002A34D0002C32D07A
:1079D400DFF874804FF01409A388012B03D948F20F
:1079E4000960BDE8F88309FB03F318F803302BB9E9
:1079F4002146A088FFF75CFF20B92060A3880133EB
:107A0400A380E9E723681EB1998832889142EFD1B7
:107A140047B99A6885E80C000A4B1B892B81002022
:107A2400BDE8F88319883A889142E1D1F1E748F238
:107A34000160BDE8F88348F20460BDE8F88300BF44
:107A4400002A0020082A0020242A002008B5074B19
:107A5400191D5888FFF72CFF18B1BDE80840FFF73F
:107A6400AFBEBDE80840FFF74BBE00BF082A0020A8
:107A74002DE9F04FA34FDFF8B09289B00646B8461F
:107A84003B6823B94946A04800F0EBFD3860D8F8BC
:107A940000502A78531E052B00F2F781DFE813F01B
:107AA4000600720072000601060163012EB1974BB5
:107AB40000225A604FF4064426E02B79032B1ED88B
:107AC400DFE803F016023D4891490B78022B084683
:107AD40033D00B7D022B4FF0010340F01B821422A4
:107AE4005343C2180020C8545068FFF73DFE03E01A
:107AF40001232B71FFF724FE002800F0D180834B73
:107B040000225A6048F20D641422002103A808F0F0
:107B1400F5FB41F61D539C4208BF0024D8F8003001
:107B240004941A78023A042A00F2CF81DFE812F0B2
:107B3400B001BC01DF01E701EE010023CFE7754985
:107B44007548002302222B718A800122096801F002
:107B54007BF9D1E76F4C00262E7120686C4DFFF73E
:107B640003FE6E4BD4F800E05A8814235343EA18FA
:107B7400EE5451682160A188C2F804E01181022208
:107B8400A280B9E7B5F814A0DFF884B1B6B1AA7D34
:107B9400EB88022A06D9142101FB0AB1DA1C0889F0
:107BA40002440A81142202FB0ABAC3F57F43BAF8DD
:107BB4000A20FD331344AAF80A307BE7142303FB9D
:107BC4000AB319895C68AB7D04EB8104062B05D8E4
:107BD400DFE803F0284F37451D5B690048F20E6467
:107BE400AA7DEB88022A06D9142101FB0AB1DA1C0A
:107BF400088902440A81142202FB0ABAC3F57F43AE
:107C0400BAF80A20FD331344AAF80A307CE7444842
:107C1400444900234360AB690360FFF775FE002805
:107C240000F030810223AB75002300930423EA188B
:107C34002146394801F06EF8002831D048F20D642D
:107C4400CEE72B69002B14BF03230123AB7500235C
:107C5400009305F10C02042304F10801E9E7012370
:107C6400AB750022EB8800929B002A6904F10C0199
:107C7400DFE7032A0CBF05230623AB75002300931B
:107C8400042305F10802E118D3E70623AB75254B5D
:107C94001988234B5868FFF777FD044600289FD1C5
:107CA40009B0BDE8F08F41F61D5499E7002E7FF42A
:107CB40001AF2B79012B39D007D348F20E6241F67C
:107CC4001D54022B18BF14461EE702232B71039682
:107CD40004960596EB6803930DF10A0103A8FFF7D8
:107CE40013FE002800F0CE800498BDF80A108388A3
:107CF400EB8003882B81FFF747FD0446002C7FF4BB
:107D040003AFCDE7202A0020D82A0020002A002033
:107D1400242A0020EC2A002060220020082A0020C7
:107D2400E4290020F82A0020182A0020DFF808A2FD
:107D340003AA53463146A81DFFF73CFE044660B92A
:107D4400BAF804100498FFF71FFD044648F20963CB
:107D54009C42D3D141F61D54D6E608223146504602
:107D640008F0CCFAF2E7002E7FF4A4AE6C4B1A7B39
:107D74005AB11E731A78013A062A00F28680DFE8A7
:107D840002F04C61696C846F7A001A78072AF1D882
:107D940001A151F822F000BFBD7D0200797D0200EF
:107DA400797D0200E37D0200F77D02001B7E020064
:107DB4001B7E0200DF7D02001A895A4901321A81B2
:107DC40000225A801A730A78B2FA82F252099A721D
:107DD4000A7DB2FA82F25209DA72012207E05249AC
:107DE40058688A884088033202448A8002221A70C2
:107DF400C0E74C4C5A884C49142505FB02420868DC
:107E0400546850608888108102200C6088800021AA
:107E140011740622EBE70722E9E79A7A32B1414965
:107E240000229A72CA680AB9097C51B9DA7A62B135
:107E34000022DA723B4A116A39B992F8242022B13D
:107E440001225A80FFF702FE57E700221A705A8077
:107E54005A607FE7FFF7B4FC4FE7FFF751FC4CE7AC
:107E640006221A702F4A5B88142101FB03235868E9
:107E7400FFF77AFC41E707221A7000225A60FFF7E5
:107E84005FFC3AE748F209643EE648F20E643BE6DA
:107E940001228DF80C201A89ADF818209A88ADF8C3
:107EA4001A20DB68059310E002228DF80C201A8951
:107EB400ADF818209A88ADF81A20DA6805929B7DEF
:107EC4009A1F534253418DF81C3003A8FFF7D8FB87
:107ED400002649461548C8F8006000F0EDFB012172
:107EE400134800F0B0FC00287FF4CAADD8E60322A2
:107EF4008DF80C20DA88ADF818201A89CFE704220F
:107F04008DF80C20DB88ADF81830DEE705238DF8FA
:107F14000C30DAE7074A1370002353601AE700BFF6
:107F2400082A0020242A0020EC2A0020D82A002035
:107F3400E82A0020002A0020FC2A00204068FFF7DD
:107F440097BD000008B50121044800F062FC18B98F
:107F5400BDE80840FFF78CBD08BD00BFE82A00203B
:107F64002DE9F3419846364B1B7806460D46002B07
:107F74005AD000295BD009884FF6FF73994259D033
:107F84006B88002B56D06B689B0756D14AB92F8952
:107F94000DF102013846FFF783FB30B102B0BDE8B2
:107FA400F08113885788ADF8023001A8FFF724FC4C
:107FB400044660B9BDF80230224A142101FB0323B0
:107FC40058890338C01B588148F20760E6E700234C
:107FD4008375BDF8023083826B68036180F800808A
:107FE4000121194800F022FCE0602B8823816B8872
:107FF400A380B8F1030F04BF0423A375E78004BF73
:108004003368A3610025658101A9104800F019FBBC
:1080140036B17560E36833600D4BB5721B893381EB
:10802400FFF790FF0020B9E748F20160B6E748F295
:108034000460B3E748F20360B0E748F20260ADE7DA
:10804400002A0020242A00201C2A0020D82A0020EC
:10805400082A002008B5084B1A68042A09D01968B0
:10806400064A42F821000121184600F0DFFB0020F7
:1080740008BD48F20B6008BDF42A0020F029002056
:108084002DE9F04F89B01422002103A808F036F935
:10809400814A137803F0FF01009191463BB103A894
:1080A400FFF7EEFA0026304609B0BDE8F08F101D48
:1080B40000F0D6FB05460028F4D140F6F8734FF0E3
:1080C40080521B68DFF8FCA15C1C04BF734B1B6867
:1080D40011695269581C08BF02FB01F3CAF8103039
:1080E4000022A3F540536E49CAF80C30504600F004
:1080F400DDFD06460028D6D11C238C2269496A4836
:1081040000F040FA3746B0464FF0030B3446CDF842
:1081140004A0019BDA6818EB020058F8022009D089
:10812400624B9A4206D14168614B994269D001334E
:1081340099427FD0531C03D05C4B9A4240F09D80FF
:1081440000F6FC71024652F8043F013340F095807A
:108154009142F8D1574A116829B9022101231060CC
:10816400918000930EE014226243534B4FF0020CB3
:10817400991803F802C0514A486054800134A1F8A8
:1081840008C0A4B247F0010708F58058B8F5405F6D
:10819400BFD1BBF1010F88BF3D46EDB2022D02D025
:1081A400062D03D065B948F20A667CE7012389F8F5
:1081B400003003A80023C9F80430FFF761FA72E71E
:1081C40002A8FFF719FBC8B10123013D03700A2D72
:1081D40009D8DFE805F006080608070807080F11A4
:1081E4000F000023037102A92F4800F02AFAFFF7B9
:1081F400A9FE58E70323F5E70223F3E748F20766ED
:1082040051E72D494FF0140E0EFB04FE01EB0E0254
:108214004FF0000C01F80EC050600EF110020EF188
:10822400080E0A447144FFF70BFB47F002070134C0
:10823400A4B2A9E7009BDFF87CA083B11E4B1422F3
:10824400624399184FF0020E03F802E0DAF80020B6
:108254004A601A4AA1F808E054800134A4B200220A
:108264001749CAF80000FFF7EBFABAF80420022A0B
:1082740014BF08220422174386E70F4914226243DD
:1082840001EB020E0BF1FF33CEF8040003201FFABA
:1082940083FB8854CBE700BF002A00201410001091
:1082A4004C0903004C2A0020D82A0020DEC0ADDE91
:1082B400FE011EF1EC2A0020242A0020082A0020B6
:1082C400F02A00206022002073B50D460446C8B190
:1082D400C1B10DF10601FFF717FBB0B10C4BBDF8AE
:1082E40006006668142202FB003001210C3000F005
:1082F4009DFA63682E600C336B600123A372002027
:1083040002B070BD48F20460FAE748F20960F7E78A
:10831400242A002013B50446A8B10DF10601FFF785
:10832400F3FA98B10C4ABDF80630142101FB03237B
:10833400DA6872B1A27A62B1DA680020013ADA60CE
:10834400A07202B010BD48F20460FAE748F2096076
:10835400F7E748F20560F4E7242A0020022300220C
:10836400FFF7FEBD18B103230022FFF7F9BD48F261
:1083740004607047114B1B7813B50446ABB14FF63C
:10838400FF73984214D001A8FFF736FA98B1052379
:10839400037001230371C48001A9094800F051F955
:1083A400FFF7D0FD002002B010BD48F20160FAE7EB
:1083B40048F20360F7E748F20760F4E7002A002078
:1083C400D82A00200F4B1B7807B5A3B101A8FFF7EB
:1083D40013FA98B10623037001A90B4800F031F990
:1083E4000A4B1A780AB101221A73FFF7ABFD002079
:1083F40003B05DF804FB48F20160F9E748F2076056
:10840400F6E700BF002A0020D82A0020082A00200E
:1084140007B5ADF8060002A820F8041D01460DF1C9
:108424000600FFF7C7FA03B05DF804FB13B502AC0E
:10843400134624F8020D0A4600202146FFF7BAFA33
:1084440002B010BD13B502AC134624F8020D0A465F
:1084540020460021FFF7AEFA02B010BD20B119B1D9
:1084640003680B600020704748F204607047000006
:10847400404B1B782DE9F74F0446002B6FD00028A2
:1084840070D01222002107F039FF3B4F3B4A0323EF
:1084940023803B4B4FF00008BA464FF014094FF0CD
:1084A400010B7E8939897D68314489B2002D5CD005
:1084B4002868904259D168681844012855D809FBA6
:1084C40008A0B4F802E0C0687044608020890644C3
:1084D4006089268108446081C1F58061A08989B2E0
:1084E400884205F1080638BFA18105F58055B542DB
:1084F40019D93168013116D0294630468DE80C006F
:10850400FFF788F901289DE80C0017D023D302282F
:10851400EDD1E18884F810B00131E180E189AD1B2F
:1085240001EBA505E58108F10108B8F1020F07F197
:108534001407B6D1002003B0BDE8F08FE188013103
:10854400E180E189708803310144E181718803315C
:1085540006EB8106CBE7A1880131A180F6E748F25A
:108564000160E8E748F20460E5E7208801382080EC
:10857400A5E700BF002A0020242A0020DEC0ADDECB
:1085840002FEE10E10B561B1B2FBF3F403FB142457
:10859400A4B244B980E8120084608281C381204679
:1085A40010BD0E2010BD092010BD82B050E8022F6E
:1085B400C188B2EB324F4FF0000317BF92B241EAC9
:1085C400014142EA014104E04268B2EB324F08BF84
:1085D400012340E80212002AE8D18DF807309DF803
:1085E4000730002B0CBF1120002002B0704737B5B4
:1085F40050E8013F9DB2C48925448489A54228BF1F
:108604002D1B0489A54202BFBFF32F8F002207E070
:10861400C5EA030540E80154002CE9D14FF00102FA
:108624008DF803200193019B9DF803200B6002F059
:10863400FF0322B10B880068184403B030BD18460C
:10864400FBE70A884B889A4209D150E8012FC2EA15
:10865400024240E80123002BF7D10120704700209B
:10866400704737B550E8023F1FFAA3F5C488A54206
:1086740002BFBFF32F8F00220DE0C48925448489F3
:10868400A54228BF2D1BC3EA054540E80254002C2F
:10869400E8D14FF001028DF803200193019B9DF86E
:1086A40003200B6002F0FF0322B14B8800681844DA
:1086B40003B030BD1846FBE70A884B889A4209D1BB
:1086C40050E8022FC2EA224240E80223002BF7D1ED
:1086D400012070470020704701F01F024B0901215F
:1086E400914000EB830000F06DB84B0910B501F028
:1086F4001F040121A14000EB830000F056F8E04084
:1087040000F0010010BD01F01F0301229A404B0943
:1087140000EB8300D14300F06FB84B0901F01F0157
:1087240050F82300C84000F0010070472DE9F047DD
:108734004E1E760980460F460136002558F825401E
:1087440008EB8509E44394FAA4F464B1B4FA84F41C
:108754004FEA451A202C08D10135AE42EED83C46EA
:108764002046BDE8F0872024F2E75444A742F3D919
:1087740021464046FFF7B9FF0028F1D0D9F8004060
:10878400E44394FAA4F414B1B4FA84F4E2E72024A0
:10879400E0E700B550E8002F0B4640E8003E9EF0AD
:1087A400000FF7D110465DF804FB00B550E8002F28
:1087B40042EA010340E8003E9EF0000FF6D1104665
:1087C4005DF804FB00B550E8003F43EA010240E8CD
:1087D400002E9EF0000FF6D110465DF804FB00B5A4
:1087E40050E8002F02EA010340E8003E9EF0000F2B
:1087F400F6D110465DF804FB00B550E8003F03EAEB
:10880400010240E8002E9EF0000FF6D110465DF8FC
:1088140004FB00B550E8002F02EB010340E8003EE2
:108824009EF0000FF6D110465DF804FB00B550E849
:10883400003F03EB010240E8002E9EF0000FF6D14A
:1088440010465DF804FB00B550E8003FA3EB0102BD
:1088540040E8002E9EF0000FF6D110465DF804FBB0
:108864000121FFF7A2BF0121FFF7ACBF0021FFF7F1
:10887400B6BF10B590B14268836801689B1ADBB239
:108884000A60013BDBB2FF2B026802D100201071A9
:1088940010BD11684C1C14600B70F2E70E2010BD63
:1088A40037B5054602A8002400F8014DFEF76EFD19
:1088B4002A686B68116899420ED9481E106011F835
:1088C400014CEB68298A01FB0434AB6811791B1A4B
:1088D400DBB2994238BF13719DF80700FEF77AFDA9
:1088E400204603B030BD37B5054602A8002300F882
:1088F400013D0C46FEF74AFD2A681368591C1160B5
:10890400E968641A298AB4FBF1F41C709DF8070025
:10891400FEF760FD03B030BD826810B504462AB18D
:1089240043690168006998470023A36010BD0EB431
:1089340003B5039929B102AA04AB42F8043D00F03F
:1089440075F802B05DF804EB03B070470A2938B536
:1089540004460D4602D10D21FFF7F8FFA3682268F3
:10896400591CA160D554A26863689A4204D3204676
:10897400BDE83840FFF7D0BF38BD00002DE9F84FFF
:108984000A9C99460B9B1746824688460A4601264E
:10899400BA420FD24E4538BF4E4613F0010B01D1F7
:1089A40064B900240125B9F1010F1AD909F1FF397D
:1089B4007D43F8E7B2FBF7F20136E9E79B070ED5F2
:1089C400B9F1000F0CBF30252025A642EAD2013CA4
:1089D40029465046FFF7BAFF002CF6D1E1E72025DF
:1089E400F3E7B8FBF5F39F42E2D9DFF83C90B8FB1C
:1089F400F5F3504619F8031005FB1388FFF7A6FF9B
:108A0400B5FBF7F5002DF2D1BBF1000F0AD03CB94C
:108A1400BDE8F88F013C20215046FFF797FF0CB1C9
:108A2400A642F7D3BDE8F88F600703002DE9F74F9E
:108A3400054617460C46002900F0358114F8011B41
:108A440049B92B7B002B00F02E81284603B0BDE8EA
:108A5400F04FFFF761BF252940F02181234600260E
:108A6400194611F8012B2D2A24D0302A26D02B2A7E
:108A740027D000242A2A994603F1010124D13B6816
:108A84001A1D1B683A601C44894699F800302E2B45
:108A940025D109F101014FF00008894611F8012B95
:108AA400A2F1300009281CD80A2303FB0823A3F1F0
:108AB4003008F2E746F001060B46D1E746F002061D
:108AC400FAE746F00406F7E71A780B46A2F13001FC
:108AD4000929DAD80A2101FB0424303CCAE74FF003
:108AE400000899F8001001F0FB02682A02D119F875
:108AF400011FF8E769290FD04BD8582965D007D84A
:108B040025296ED009F101042378002B96D198E72A
:108B1400632962D06429F5D13A68D2F800A0111D06
:108B24008AEAEA723960A2EBEA724FF0010B092A71
:108B34005BDCC34538BFC3462CB1BAF1000F01DB7F
:108B4400710700D5013CB20702D5B8F1000F04D07B
:108B5400F30702D4002C4ED10024BAF1000F52DAEC
:108B6400CAF1000A2D212846FFF7F0FE06F00302A1
:108B7400022A05D1B8F1000F02D1002C47D10024FC
:108B84008DE8500043460A2251462846FFF7F6FE78
:108B9400B8E773294CD014D87029B3D13B681A1D97
:108BA4003A60302128461C68FFF7D0FE7821284619
:108BB400FFF7CCFE002301930823009310222146E3
:108BC400E3E775292BD078299CD139680A1D3A60CE
:108BD40043468DE85000102228E03B681A1D19789E
:108BE4003A602846FFF7B2FE8CE70A230BF1010B2B
:108BF40092FBF3F29BE7A345AFD220212846013C28
:108C0400FFF7A4FEA6E77007B0D52B21ABE7A34579
:108C1400B6D230212846013CFFF798FEADE739680B
:108C24000A1D3A608DE8500043460A220968ACE701
:108C34003B681A1D3A60F107D3F800A012D55646D6
:108C4400A6EB0A0B16F8011B41B95C457FF65AAF37
:108C540020212846013CFFF779FEF6E72846FFF776
:108C640075FEEDE7BAF1000F11D0504607F09CFBFA
:108C74000646B44200D964B90AF1FF3A1AF8011F52
:108C840000293FF43FAF2846FFF760FEF6E756465B
:108C9400EFE720212846013CFFF758FEE9E7284684
:108CA400FFF754FE30E703B0BDE8F08F07B50B467D
:108CB40088B9124B1248134AC01A0E23C0080093F5
:108CC400114B0004114940F00100FDF7ABFE0E20EA
:108CD40003B05DF804FB4BB9084B09480C4AC01AB1
:108CE400C0080E2300930004074BEBE703601B68E6
:108CF400114603B05DF804EB184700BFB404030049
:108D0400240503001D080300700703002208030064
:108D1400990803002DE9F743DDF828C088B93E4BD4
:108D24003E483F4AC01AC0080E243E4B009400043B
:108D34003D4940F00100FDF775FE204603B0BDE853
:108D4400F0834AB9344B3548384AC01AC0080E2457
:108D540000040094334BEBE7D0F800E0BEF1000FC1
:108D640009D12D4B2D48324AC01AC00808240004EA
:108D740000942C4BDCE74BB9274B28482D4AC01AEA
:108D8400C008092400040094264BD1E74768D7F8AB
:108D94000490B3FBF9F709FB17374FB11E4B1F487B
:108DA400254AC01AC0080924000400941D4BBFE7DB
:108DB4008F0709D0184B1948204AC01AC00810243C
:108DC40000040094174BB3E712F0030F09D0124BC1
:108DD40012481B4AC01AC008102400040094114B06
:108DE400A6E7C768B9420DD34C1E05691C44AC42C2
:108DF40008D8CDF828C0DEF80C40A44603B0BDE87E
:108E0400F0436047044B05480E4AC01AC0081024BA
:108E140000040094034B8BE7B4040300240503000F
:108E24001D08030082070300220803009F080300B3
:108E34009308030052080300A5080300CF080300A9
:108E4400E70803000A090300F7B580B92A4B2B4849
:108E54002B4AC01AC0080E242A4B009400042A4945
:108E640040F00100FDF7DEFD204603B0F0BDD0F870
:108E740000E0BEF1000F09D11F4B2048234AC01A5D
:108E8400C0080824000400941E4BE8E74AB91A4BB2
:108E94001A481F4AC01AC008092400040094194B38
:108EA400DDE74768D7F800C00CF1FF370F4209D05F
:108EB400114B1248174AC01AC00810240004009429
:108EC400104BCCE7C768B94205D34C1E05690CFBAF
:108ED4000244AC4209D9084B08480F4AC01AC008DA
:108EE400102400040094074BB9E7DEF81040A446B0
:108EF40003B0BDE8F0406047B40403002405030058
:108F04001D080300950703002208030093080300CB
:108F140052080300A8070300CE07030029DF7047A7
:108F240028DF704770B503689D6886B004460E4616
:108F34006DB118220021684607F0E0F9A368059393
:108F4400237901962BB1012B0DD06846A84706B0B2
:108F540070BD01238DF8003023690293E368039305
:108F640063690493F1E702238DF80030E3681B037F
:108F74000293F5E70846704700207047024B187AC1
:108F8400003018BF01207047A02B0020034B187A33
:108F94000122B0FA80F05A7440097047A02B0020D7
:108FA40008B510461A4607F07FF9002008BD0000F6
:108FB40008B514220021044807F0A0F90348FFF77C
:108FC400F4FA002008BD00BFA02B0020902B002045
:108FD40010B5094C094B43602046FFF741FC40B9EA
:108FE40006F004FC1C2320748C2205490548FFF775
:108FF400C9FA002010BD00BFA02B002040090300C7
:10900400042B0020902B002070B5244D244E2B7A85
:109014002C463BB923492448FFF723FB306008B9A9
:10902400686070BD0223237233681A7972B1012A11
:1090340024D018460321FFF775FF002323726360D1
:1090440018491948BDE87040FFF736BB98695A695A
:10905400D9681D69121AB2F5805F28BF4FF4805297
:109064009208012A014438BF01222844FFF756FF21
:1090740050B11128DDD10123237270BDD8681A695B
:109084001044FFF74DFFF3E7237C2BB90146BDE8FD
:109094007040022000F00AB870BD00BFA02B002071
:1090A400B82B0020B42B0020902B002038B5831E51
:1090B400012B45D8234C237A002B41D0022B09D114
:1090C400032830D0204B1B680022E2601A793AB1A1
:1090D400012A22D0637C7BBBBDE83840FFF794BFF4
:1090E4009A6959698D1AB5F5805F94BF521902F5D2
:1090F40080529A619142EDD102284FF0000308BFDB
:1091040019462372104B18BF0D211868FFF70AFF88
:109114000E490F48FFF7D0FADCE71A6901321A61E9
:109124005B699A42E7E7E3680133082B01D8E360FF
:10913400D0E70023E360DFE7BDE8384006F046BB34
:1091440038BD00BFA02B0020B82B0020B42B00207A
:10915400902B002000F0FD03012B08D1044B0022CA
:109164005A74421E504250411874FFF74DBF704765
:10917400A02B002010B5064C201DFFF771FB28B969
:10918400637C1BB9BDE81040FFF73EBF10BD00BFB4
:10919400A02B00202DE9F34180460D460F4801A97C
:1091A40016461F46FFF723FA0446A8B11C220021E5
:1091B40007F0A4F82D0B0123237101A9C4F8008042
:1091C400A760E56066610548FFF73BFAFFF7D2FF49
:1091D400002002B0BDE8F0810420FAE7902B0020C3
:1091E4002DE9F74381468846104801A917461E46D3
:1091F400FFF7FDF90446B8B11C22002107F07EF800
:1092040000250A9BA36001A92571C4F80090C4F845
:109214001080E76066610548FFF713FAFFF7AAFFBD
:10922400284603B0BDE8F0830420FAE7902B002021
:109234002DE9F047B0F806804479D2F800909DF803
:10924400207008FB04F4043C03EB090E744538BF9A
:10925400A4EB03090E46191DC2F80090B1FBF8F502
:10926400044608FB15114DB9A8EB010ACA4528BFED
:10927400CA46B9F1000F04D1BDE8F0872468013D66
:10928400F1E704317019631852466FB11946A9EB1E
:109294000A0907F009F8C84555442468C2464FF046
:1092A400000128BFCA46E4E701461846EFE7FFF786
:1092B400E0BAF8B546790446721E00239342246846
:1092C40004D301460025B54202D3F8BD0133F5E7C6
:1092D4000F682046FFF707FB01353946F3E72DE910
:1092E400F843078ACD1C8046FFF7DAFA043F3D4471
:1092F4000446B5FBF7F5002650B10123EDB2067123
:109304004371C780013DC0F800808146AE4202D35C
:109314002046BDE8F8834046FFF7C2FA074648B145
:109324006379013363710136C9F80000C0F8008025
:109334008146EBE72046FFF7BCFF3846BDE8F883DB
:1093440001210430FFF772BA10B50121044604303C
:10935400FFF779FA10F0FF0F04D12046BDE8104062
:10936400FFF7A7BF10BD1FB504AC44F8042D0022BD
:1093740000922246FFF75CFF04B010BD1FB504AC99
:1093840044F8042D012200922246FFF751FF04B055
:1093940010BD41DF70470000064B10B500241C705F
:1093A400054B1C60BFF35F8F0449054800F039F892
:1093B400204610BDC42B0020C82B00206C090300DC
:1093C400BC2B002007B502A8002300F8013DFDF7DF
:1093D400DDFFF1EE103A23F09F03E1EE103ABFF304
:1093E4005F8F0A4B4022C3F884219DF80700FDF7E4
:1093F400F1FF06F0FBF920B1FFF7CBFF03B05DF8F6
:1094040004FB20BF40BF20BFF8E700BF00E100E03D
:10941400836800225A609A601A615A61DA601A609D
:1094240070470B684A684360934208BF0023016099
:1094340008BF43607047436843B10268916852684B
:109444000B449342436004BF00234360704770B5EC
:10945400446806460D46206818B1B3682946984703
:1094640018B923682B60256070BD2468F3E743684E
:10947400186808B102681A60704743681868704732
:109484004368186800B97047884203D102681A60BB
:109494000120704703460068F4E700000D4930B529
:1094A400A1F594720225914201D8002030BD8B1A97
:1094B400DB1093FBF5F302EBC30452F83330834221
:1094C40005D802D204F10802EDE7606830BD2146F8
:1094D400E9E700BFC80A030008B5FFF7DFFF024B46
:1094E400002808BF184608BD8A09030002681368EB
:1094F4005268934291BFD01A80680130801888BFA7
:10950400C01A7047036881681A685B688B4234BF6D
:1095140001330023D31A584258417047F7B5044623
:1095240002A8002300F8013D0D46FDF72FFF204659
:10953400FFF7E8FF10B1237C002B3CD12268A6681A
:1095440053685168B14234BF01310021516030B1D8
:109554001168A068814234BF013100211160E268C2
:109564006068511E072920D8DFE801F004101F1499
:109574001F1F1F182A78C2542046FFF7B7FF23681D
:109584009A68904200D99860002415E02A8820F84F
:109594001320F1E72A6840F82320EDE7D5E90067B6
:1095A40000EBC300C0E90067E6E7294602FB0300BD
:1095B40006F07AFEE0E704249DF80700FDF70AFFB1
:1095C400204603B0F0BD13B5044602A8002300F8FA
:1095D400013DFDF7DBFE2046FFF788FF04469DF8BA
:1095E4000700FDF7F7FE204602B010BD03681868B7
:1095F4005B68C31A58425841704773B5054602A8C0
:10960400002300F8013D0C461646FDF7BFFE284630
:10961400FFF7ECFF002832D129680B682EB90A68DD
:10962400A868824238BF561C0E60EA686968501EFA
:1096340007281ED8DFE800F0040E1D121D1D1D169C
:10964400CB5C237000249DF80700FDF7C3FE204681
:1096540002B070BD31F813302380F3E751F82330A2
:109664002360EFE701EBC301D1E90023C4E9002340
:10967400E8E702FB0311204606F016FEE2E70524A4
:10968400E1E70000074B1B78062B09D1064B1B684A
:10969400C3F30313033B032B02D8044AD05C704783
:1096A40000207047E00F00F0E80F00F0820E030086
:1096B400044B1868421C04BF034B1878831F58429C
:1096C4005841704730010010E00F00F008B5FFF773
:1096D400EFFF28B1654B664A1B68C3F3042313608C
:1096E400FFF7D0FF10B1634B634A1A60FFF7E0FF46
:1096F40028B1624B624A1B68C3F342331360FFF71D
:10970400C1FF20B15F4AD36823F08073D360FFF7B1
:10971400CFFF40B14FF080430022C3F80C21C3F8BF
:109724001021C3F83825FFF7ADFF10B1564B0322C3
:109734001A60FFF7A7FF40B1544B05221A600122BB
:109744009A6700229A603F225A60514B1A68511C52
:109754000BBF504B504B1A781B6802BF08331B6871
:10976400C3F30313062A4DD1033B032B03D84B4AFF
:10977400D35C002B46D04FF08052494BD2F80414EE
:10978400C3F82015D2F80814C3F82415D2F80C1421
:10979400C3F82815D2F81014C3F82C15D2F81414F1
:1097A400C3F83015D2F81814C3F83415D2F81C14C1
:1097B400C3F84015D2F82014C3F84415D2F8241481
:1097C400C3F84815D2F82814C3F84C15D2F82C1451
:1097D400C3F85015D2F83014C3F85415D2F8341421
:1097E400C3F86015D2F83814C3F86415D2F83C14E1
:1097F400C3F86815D2F84014C3F86C15D2F84424A1
:10980400C3F87025FFF754FF28B1264B264A1B687E
:1098140003F04F031360FFF74BFF48B14FF0804351
:10982400D3F80024D20744BF6FF00102C3F8002428
:10983400174B1B68062B04D1174B1B68033B022BE9
:109844000ED81A4AD2F8883043F47003C2F888302C
:10985400BFF34F8FBFF36F8F154B164A1A6008BDC5
:10986400154A136843F480631360EAE72403001085
:109874004035014074C007400DF0ADBA44020010F9
:109884003C050040F0ED00E0A0050040105600400B
:1098940030010010E00F00F034010010860E0300C8
:1098A40000C0004058020010E40E004000ED00E04B
:1098B400842200200090D0033C170040054A4FF05A
:1098C400A043105CD3F8043523FA00F0C04300F041
:1098D400010070478E0E0300044B1A5C0123934071
:1098E4004FF0A042C2F80C35704700BF8E0E030043
:1098F400044B1A5C012393404FF0A042C2F8083590
:10990400704700BF8E0E030008B50020FFF7F0FF7C
:109914000120FFF7EDFF0220FFF7EAFF0320BDE877
:109924000840FFF7E5BF08B50020FFF7D5FF012089
:10993400FFF7D2FF0220FFF7CFFF0320BDE8084066
:10994400FFF7CABF074A4FF0A041105CD1F80435B5
:109954000122824022EA03001340C1F80805C1F83D
:109964000C3570478E0E0300054A4FF0A043105C7F
:10997400D3F8103523FA00F0C04300F0010070471B
:109984008A0E0300152809D00E2809D00F2809D003
:1099940010280CBF03204FF0FF30704700207047A1
:1099A4000120704702207047014B185C704700BFCC
:1099B4008A0E0300C20708B501460CD54FF0A04338
:1099C4000322C3F84427C3F84827C3F84C27C3F835
:1099D4005027FFF799FF8B070AD54FF0A0430C22BD
:1099E400C3F85427C3F83827C3F83C27C3F84027E3
:1099F40008BD000038B5084C04F1080305460028EA
:109A040018BF1C4623682BB11A6822605B6828467D
:109A14009847F7E738BD00BFD42B002020B9054B89
:109A240001225A70FFF7E6BF012802D1014A907063
:109A3400F8E77047CC2B002020B9034B01225A7061
:109A4400FFF7D8BF704700BFCC2B002038B50E4CB1
:109A54002378B3B90D486360A3602361E36000F029
:109A640071F8054605F0C2FE08B900F079F8012343
:109A74002370074BD3F800340BB10123A37028469D
:109A840038BD8525F5E700BFCC2B0020219A0200C4
:109A94000000014037B502A800230B4C00F8013D3B
:109AA400FDF774FCE368013BE360E36833B9074BFB
:109AB400D3F8005415B900F065F8A5709DF80700B7
:109AC400FDF788FC03B030BDCC2B00200000014022
:109AD400012813B50DD003D303281FD002B010BD45
:109AE400114B0122C3F88020BFF34F8FBFF36F8F58
:109AF400F4E702A800230D4C00F8013DFDF746FCF5
:109B040023780BB9FFF7A2FFE3689DF80700013340
:109B1400E3600123A370FDF75DFCDFE700F020F8AC
:109B2400FFF7B8FFDAE700BF00E100E0CC2B00202C
:109B340000F180400023036082B003680193019B1D
:109B440002B07047054A13792BB9012110601171D5
:109B54005371184670478520704700BFE02B0020E2
:109B6400074B1A68D20704D4C02283F800230122C9
:109B74001A604FF080430122C3F81825704700BFD4
:109B840000E100E04FF0804208B50223C2F8083338
:109B94004FF48270FFF7CCFF034B01211960D2F818
:109BA4001834DB03FBD408BD0C000040124B1B68C7
:109BB40010B573B14FF48070FFF7BAFF4FF08043D4
:109BC4000122C3F808230D4B587910B95A711B6848
:109BD40098470B4B1B6873B14FF48270FFF7A8FFD3
:109BE4004FF080430222C3F80823044B01201B6872
:109BF400BDE81040184710BD00010040E02B0020D4
:109C04000401004000F1804000F5C040002382B010
:109C1400036003680193019B02B07047800000F168
:109C2400A040D0F8003723F44033C0F80037D0F810
:109C3400003743EA0141C0F800177047054B4FF065
:109C4400FF32072843F8202084BF1B1883F84820DC
:109C5400704700BFE82B002010B51A4C94F8583018
:109C64006BBB4FF0FF3222FA03F1C90748BFE1187A
:109C740003F1010348BF81F83020202BF3D10021E8
:109C8400C8B2FFF7DBFF01310C29F9D1042200210E
:109C94000D4806F033FB0D4BC02283F80623402207
:109CA4001A604FF4BE70FFF7ADFF094B4FF000424E
:109CB400C3F80423012384F85830002010BD082081
:109CC40010BD00BFE82B00203C2C002000E100E088
:109CD40000600040034B93F85800003018BF012087
:109CE400704700BFE82B0020F0B5374D2B1893F9CF
:109CF4003030002B65DA8E78C6F34006002E0BBF99
:109D0400082300230C240824A34201D10420F0BD1D
:109D140055F82370013740D12F185CB287F83040D2
:109D240045F8232016B92B4483F848008B785A074A
:109D340013D4DE0733D5830003F1A043D3F80027FF
:109D440022F00202C3F80027204EC20800F00707E1
:109D54000123BB40B75C3B43B3548B780A7813F0C0
:109D6400020325D0A30003F1804303F5C04300029E
:109D7400D3F8101521F4473121F44071C3F81015BC
:109D84001204D3F8101500F4F85002F440321043D2
:109D94000843C3F810050020F0BD0133B4E74A7846
:109DA40000F5E0734FF0A046920046F82320CBE77D
:109DB400083C2C4494F8500040EA821284F8502065
:109DC400E9E70820F0BD00BFE82B00203C2C002070
:109DD40038B5204C251895F93020072A18DD22447F
:109DE40092F848309B09032B0DD14FF0A043D3F8D0
:109DF4001035C34013F0010F0CBF02210321BDE84D
:109E04003840FFF70BBF012B14BF03210221F6E7F3
:109E1400D3B2072B1CD8930003F1804303F5C0434E
:109E2400D3F8100540F00100C3F8100502F140001A
:109E3400800080B2FFF7E6FE51B195F9303054F856
:109E440023302BB1012303FA02F2034BC3F804239A
:109E540038BD00BFE82B0020006000404FF0A04355
:109E6400D3F8103523FA00F000F001007047000029
:109E74002DE9F3474C4A4D4E4D4D002401940121E8
:109E8400A2F5C04052F8043B012B80B206D1D6F8AB
:109E940004330B4202D0FFF7B5FE0C43AA424FEA4B
:109EA4004101EDD1434B1B68012B0CD14FF4BE7023
:109EB400FFF7A8FE4FF0A04344F00044D3F8202558
:109EC4000192C3F8202514F0FF0F4DD1002C48DA7D
:109ED400394E4FF0A04937464FF0000A4FF00108C1
:109EE40006EB0A0393F95020531C2ED0D2B222F071
:109EF400C00402AB03EBD40313F8041C02F0070301
:109F040008FA03F3194220D004F5E073204659F807
:109F14002350C5F30145022D0CBF032102219209F0
:109F2400FFF77CFE08FA04F3C9F820353B1993F9CE
:109F3400303057F8233043B1032A03D0022D2FD1F8
:109F4400012A02D11146204698470AF1010ABAF1C2
:109F5400040FC5D1D9F820350193C9F82035002B59
:109F6400BAD102B0BDE8F087134F01260025344270
:109F740010D0AB0003F1804303F5C043D3F81005C0
:109F8400D3F8101557F8253023B1C1F30141C0F3BC
:109F9400042098470135082D4FEA4606E7D195E796
:109FA400032DD2D1022ACCE70061004000600040BA
:109FB400206100407C610040E82B0020014B1B68BD
:109FC400184700BF442C00200023435082B043585C
:109FD4000193019B02B0704738B51D4602230B71F3
:109FE4000B684A7104467BB112F0040F0CBF822146
:109FF4009221100748BF41F02001D306236848BFCF
:10A0040021F08001C3F8001320684FF48271FFF738
:10A01400DBFF206812F0800F09BF01234019435170
:10A02400002038BD2DE9F04390F80490464C4FEAE7
:10A03400C90563190F46197985B0804601F0FF03FD
:10A0440000297FD144F839204FF0FF3E01264FF01C
:10A05400A0414FF0030CF85CFF286AD020F0800286
:10A064004DF8232010F0800F06FA02F002F5E0729A
:10A0740014BFC1F80805C1F80C0541F822C001332A
:10A08400042BE8D1D8F80000009BC0F86035019B90
:10A09400C0F86435029BC0F86835039BC0F86C3582
:10A0A400BA793B8979790126C0F80065C0F80C15A6
:10A0B400C0F80425C0F808357B89C0F810350023A2
:10A0C400C0F800324FF48E71C0F80033FFF77CFF04
:10A0D4004FF48871D8F80000FFF776FF4FF48A71C7
:10A0E400D8F80000FFF770FF4FF48271D8F8000031
:10A0F400FFF76AFF54F83930A3B1D8F800303A7941
:10A104001B0B59B200294FEA421215DB0F484718BE
:10A11400D2B287F80023490903F01F0306FA03F3B8
:10A1240040F821302C4401232371002005B0BDE800
:10A13400F0834DF823E0A2E703F00F030449D2B201
:10A14400CA54EFE70820F1E74C2C002000E100E0BE
:10A1540014ED00E0F0B50D461C461B490379D5F813
:10A1640000E0AF88AE68ED6801EBC3010368C3F893
:10A1740020E5C3F82475C3F82865C3F82C55C3F843
:10A1840040E5C3F84475C3F84865C3F84C5502F07C
:10A19400010505EB5202C3F81425E20711D414F0AB
:10A1A400020203D0002D14BF08220422002DC3F89C
:10A1B4000022E2B214BF0C230823BDE8F040FFF7ED
:10A1C4000BBF1022F2E700BF4C2C00202148D0F82E
:10A1D400103110B55BB14FF48871FFF7F5FE1E4BDB
:10A1E4005A79510703D51B680BB1012098471948C8
:10A1F400D0F814315BB14FF48A71FFF7E5FE164BCA
:10A204005A79120703D51B680BB1022098471148ED
:10A21400D0F81C315BB14FF48E71FFF7D5FE0E4BB5
:10A22400587910F0100002D11B6803B1984709480F
:10A23400D0F8043163B14FF48271FFF7C5FE064BC9
:10A2440001221A711B681BB10320BDE81040184796
:10A2540010BD00BF00C001404C2C0020002343501F
:10A2640082B043580193019B02B070470B7B032BD0
:10A2740013D8DFE803F01C2014028B685A0304D5BA
:10A28400D0F84C350A699A4218D18B685B0304D420
:10A29400D0F84C354A699A4210D101207047D0F861
:10A2A4004C350A699A4209D1D0F83C35F2E7D0F826
:10A2B4004C350A69EFE7D0F83C35FAE7002306226B
:10A2C400C0F80035C0F8002518467047F0B55B4A61
:10A2D4005B4CD2F8243187B01546FBB14FF4927130
:10A2E4001046FFF7BBFFD2F80431BBB9A368C2F82C
:10A2F40008330223A360A368C2F80433D2F86031A0
:10A304001BB1D2F800329F0503D44C4B01221A62D0
:10A314005A61012384F82E3007B0F0BDD5F804311A
:10A32400002B52D04FF482714448FFF797FF236A01
:10A334005E060AD494F82E303BB941493F48FFF7F2
:10A3440095FF80F0010084F82E00236A5D0721D474
:10A354003C4E0FCE01AD0FC5336838482B604FF427
:10A36400B071FFF77BFF4FF4AE713448FFF776FF0F
:10A3740094F8303013B194F82E305BB12F4B002297
:10A38400C3F80022A260304AC3F808232F4B0822E6
:10A39400C3F88021294AD2F8C434C2F8C4349807D7
:10A3A4003DD501238DF8003094F830300BB984F892
:10A3B4002F30236A5B0703D594F82E30002BABD0E3
:10A3C4002368616868469847A6E74FF4A4711B4860
:10A3D400FFF744FF237B83B91A4F0FCF01AE0FC69B
:10A3E4003B68336094F83030002BD3D1C5F8003289
:10A3F400A360154BC5F80833C8E74FF40073C5F8DC
:10A40400003240F20223A36003F1CE73C5F808338F
:10A41400A368C5F804330123AB602B627CE75907BA
:10A4240001D50223BEE7DA0701D50323BAE794F87E
:10A434002E30002BB6D00423B4E700BF0030004018
:10A44400542C0020602C002002029C0100E100E05A
:10A454002DE9F347002406460F4690464FF4A075B5
:10A464004FF48039A246444502D102B0BDE8F087DA
:10A474007259731972B1D6F8042309FA04F111421E
:10A4840008D0C3F800A01B680193019B79683B685E
:10A49400A8B2984701340435E5E7000004220249D4
:10A4A4000248FFF7D5BF00BF882C00200080004081
:10A4B400042202490248FFF7CBBF00BF942C0020BE
:10A4C40000900040042202490248FFF7C1BF00BFC8
:10A4D400A02C002000A00040062202490248FFF7F9
:10A4E400B7BF00BFAC2C002000A0014006220249E7
:10A4F4000248FFF7ADBF00BFB82C002000B00140F8
:10A504000220FFF71FBA000008B5094B1B7853B1AE
:10A514000020FFF7EDF90120FFF7EAF90320BDE879
:10A524000840FFF7E5B9BDE80840FFF7EDB900BF03
:10A53400C52C0020F8B5784C237805461BB10023C0
:10A544002370FFF7E1FF172D00F28780DFE805F0A5
:10A554000C1717435464757F878C878C949898984C
:10A564009898C2C6CDD4DEDEFFF7CEFF6B48FCF769
:10A574003AFE6B4B002204461A702046F8BD0020B8
:10A58400FFF79CF9F8B10020FFF7B2F9022D0CBFD8
:10A594004FF4E1614FF47A61614B1D704FF4004058
:10A5A4004FF47A740025E0FB01454FF4FA6200236E
:10A5B4002046294605F07EFD002201465748BDE8A5
:10A5C400F840FCF7F8BDFFF787F9022D0CBFC8214E
:10A5D4004FF4C871E0E70020FFF770F940B10020A4
:10A5E400FFF786F94FF4487103224D4B1A70D5E7F3
:10A5F400FFF772F9C821F7E70020FFF75FF930B1E0
:10A604000020FFF775F94FF47A610422EDE7FFF7B4
:10A6140063F94FF4C871F8E70020FFF74FF948B128
:10A624000020FFF765F93E4B05221A7040F6CD4134
:10A634000022C3E7FFF750F9F5E70020FFF782F99E
:10A64400374B06221A70002240F26661B6E70020FA
:10A65400FFF742F90722324B1A7000248DE70120DC
:10A664002070FFF76FF9EEE701202070FFF76AF919
:10A6740000224FF40051A1E7FFF755F90C22EAE755
:10A684002848294EFCF7AFFDD5F1110504461CD02E
:10A69400D8B9012D13D0C8235D434FF47A7000213B
:10A6A4004FF400474FF4FA620023C7FB050105F09D
:10A6B40001FD224601461B48FCF77DFD04460220AD
:10A6C400FFF70AF90123337057E70220FFF710F967
:10A6D4000023F8E7FFF718FF1222BCE7FFF714FF87
:10A6E4000020FFF7F9F81322B5E7FFF70DFF01206B
:10A6F400FFF7F2F81422AEE7FFF706FF0020FFF79A
:10A70400EBF80120FFF7E8F81522A4E7FFF70BF9AF
:10A71400034B1D70A1E700BF382D0020082D002039
:10A72400402D0020C82C0020C52C00202DE9F04726
:10A7340081460D46FFF726F90328044631D8012D3A
:10A7440004D022D3022D2ED0BDE8F087194D470046
:10A754003A18A918AE5C4A7852B1DFF868801648F6
:10A7640042464FF48041FCF726FD08B988F8009072
:10A774003B192B449A78114B1A5596B1104B1B6810
:10A784007BB13046BDE8F04718470B48FCF72BFD7A
:10A79400084B04EB440213449E78084B1B5DB34200
:10A7A400EBD0BDE8F087034B00EB40041C44667813
:10A7B400E3E700BF282D0020E82C0020412D0020D5
:10A7C4003C2D0020C42C002002210078FFF7AEBFEE
:10A7D400044B1B68DB0703D5034B1878FFF7AABEAD
:10A7E400704700BF342D0020402D0020032801D8DD
:10A7F400FFF7BAB800207047044B1B6813F001033D
:10A8040001D0FFF797BE1846704700BF342D0020D3
:10A8140038B51C4B18601C4B10F002040546196037
:10A824001AD01A4B1A480E221A700F22DA7010220C
:10A834009A7111225A72042140F23332FCF74AFB16
:10A84400044648B9FCF79EFB044628B90146114A60
:10A854001148FCF7A5FC0446EB0711D50120FFF7CE
:10A86400A9F86CB921460D4A0D48FCF799FC044639
:10A8740030B90C4A0C480121BDE83840FCF790BCC3
:10A88400204638BD342D00203C2D0020282D0020EA
:10A89400C80E0300CDA70200EC0E0300D5A70200EA
:10A8A400F00E030005A50200E80E0300032812D8E9
:10A8B400012A0BD1012908D100F10E02D2B200EB1A
:10A8C40040000C4B1A540020704700220129F6D096
:10A8D40009D3022901D007207047064B00EB400042
:10A8E40018444270EFE7034B00EB400018448270B9
:10A8F400E9E700BF282D0020032808B512D8FFF788
:10A9040053F8800000F1A040D0F8003723F440331E
:10A91400C0F80037D0F8003743F44033C0F80037AC
:10A92400002008BD062008BD08B501220221002030
:10A93400FFF7BCFF08B1072810D10722022101202C
:10A94400FFF7B4FF08B1072808D100210A220846FE
:10A95400FFF7ACFF10B1072808BF002008BD0000B6
:10A964000388102B10B502D0112B1ED010BD194C2A
:10A974002168B1B901220846FFF798FF08B10728FA
:10A9840021D1072202210120FFF790FF08B10728F7
:10A9940019D1042202210020FFF788FF08B10728FB
:10A9A40011D123680133236010BD0A4A1368013BA7
:10A9B400136073B9FFF7B8FF58B1074B1B6843B175
:10A9C400BDE810401847044B1B68002BE9D098479A
:10A9D400E7E710BD4C2D0020482D002008B50020CD
:10A9E400FFF78AFF08B1062806D10120FFF784FF8C
:10A9F40010B1062808BF002008BD00000D4B10B59B
:10AA040018600C4629B10120FFF7F0FE40B1022383
:10AA14002370094B1B6853B9BDE81040FFF784BF8E
:10AA2400FFF7E4FE08B10B23F2E72070F1E7002002
:10AA340010BD00BF482D00204C2D002076DF70474C
:10AA440078DF70477ADF70477CDF70478FDF7047AD
:10AA540033DF7047FCF7ACBA08B50020FFF7CCFE33
:10AA640008B1FCF7A5FA084B00221A60FFF7B6FFFD
:10AA740008B1FCF79DFAFFF7EBFF18B1BDE80840F9
:10AA8400FCF796BA08BD00BF783600200388212B56
:10AA940013B5044640D005D8102B1ED0112B0AD074
:10AAA40002B010BD3B2B01D0562BF9D11321A08845
:10AAB400FFF7C4FF0CE01D4B1D481E49C01AC00817
:10AAC400000440F00300FBF795FF1B48FCF78BFBE9
:10AAD4000028E5D0FCF76CFAE2E7144B1448174958
:10AAE400C01AC008000440F00300FBF783FF0720EE
:10AAF400FFF782FE08B1FCF75BFA114BA1881148FD
:10AB0400198002F085FB08B1FCF752FA00221021EB
:10AB14000948FCF750FBDBE7002301A980888DF886
:10AB240004308DF80530FFF791FFD1E7B40403003A
:10AB3400FC040300000F0300403600200E0F030046
:10AB4400F82200206036002008B503784BB9054B85
:10AB54003B211888FFF772FF18B1BDE80840FCF7E5
:10AB640027BA08BDF8220020072808B513D00A2800
:10AB74000DD0042819D10D4B13211888FFF75EFF5F
:10AB840030F0080311D0BDE80840FCF711BABDE865
:10AB94000840FFF761BF054B1A884FF6FF739A42CE
:10ABA40003D1034801F015F8EAE708BDF8220020B4
:10ABB400D02D002008B598B1032815D10B4B0C48B3
:10ABC4000C49C01AC008000440F00300FBF712FF50
:10ABD4000220FFF711FE38B1BDE80840FCF7E8B9E0
:10ABE400BDE80840FFF738BF08BD00BFB404030048
:10ABF400FC0403005F0F030073B50478054624B911
:10AC04000B4EAA89A3B29A4201D802B070BDA3B276
:10AC1400AA680748D35C8DF80730FEF773FC20B9A7
:10AC24000DF107013046FEF779FC0134E9E700BF76
:10AC34008C04030008B50321044800F08AFE18B10F
:10AC4400BDE80840FCF7B4B908BD00BFD02D002012
:10AC540010B5044603F00EFE204603F0F1FB237802
:10AC64000C2B03D1BDE81040FFF7E4BF10BDFCF787
:10AC74009FB90000094A00231360094A1360094B75
:10AC84004FF07E521A60084B084A1A60084B094A72
:10AC94001A60094B094A1A60704700BFCC2D002086
:10ACA40074360020502D0020542D0020F01678BF5B
:10ACB400582D002031087C3F5C2D002031087CBFDA
:10ACC4000023114A194642F8231001331A2BFAD1F2
:10ACD4000E4B00221946B1EE007AF7EE006A5AB91B
:10ACE400D1ED007A77EEA67AC1ED007A01321B2A03
:10ACF40003F10403F3D17047D3ED007A67EE877A4A
:10AD0400C3ED007AF2E700BF602D00208822002006
:10AD1400154B164A93ED007A154B07EE900AF8EEA0
:10AD2400E76AD3ED007A134B87EE876AD3ED007A96
:10AD3400114B93ED005A114BC7EE875AC5EE077AB3
:10AD440092ED007AC2ED006A67EE877A93ED007A9D
:10AD5400E5EEA67AE6EE477AC3ED007AFDEEE77AF1
:10AD640017EE900A704700BF502D0020CC2D002014
:10AD7400542D0020582D00205C2D00207436002016
:10AD84001A4BDFED1B7AD3ED006A70B5194C002223
:10AD94006FF00305DAB907EE100AB8EEC77AE6EEEB
:10ADA400877A01321B2A03F10403F3D1124B0022E8
:10ADB400A3F16404B2B9616E606601321A2AA3F188
:10ADC4000403F7D1FDEEE77A17EE900A70BD05FB98
:10ADD400024696ED1A7A93ED006AB8EEC77AE6EE6B
:10ADE400077ADEE71D6819602946E6E78822002015
:10ADF40000000000602D0020C42D002070B52848FC
:10AE0400284CFEF7E0FB012816D9274D24480022E0
:10AE14002946FEF7F2FB2B8821481B029BB2002235
:10AE240029462360FEF7E9FB236828781843FFF7D7
:10AE3400A7FFFFF76DFF206023684FF0A042002BAF
:10AE4400B8BF5B424FF480114FF08050B5BFC2F8D9
:10AE54000805C2F80815C2F80C15C2F80C05B8BFED
:10AE64002360206804F0E4FE0022104B05F058F83B
:10AE740002460B4600200E4904F00CFF04F0F0FEDD
:10AE840080B2B0F5C87F0B4B0B4928BF4FF4C87094
:10AE94001880282201230948BDE87040FFF75AB9F9
:10AEA4008C04030078360020C82D002000001E40CA
:10AEB400000079406C360020200F0300FC220020A3
:10AEC40000B54FF48041ADB00020FBF7EBFB08B1B7
:10AED400FCF76EF8FBF71EFBA54A1068516801AB3E
:10AEE40003C390681860002201A9A248FFF79AF8EA
:10AEF40008B1FCF75DF8A04B4FF4C8721A80002229
:10AF04005A809A80DA80FCF719F908B1FCF750F8F6
:10AF14009A4A9B480121FCF743F908B1FCF748F829
:10AF240098490320FFF774FC08B1FCF741F801A924
:10AF34000020FFF763FD08B1FCF73AF89DF80450D0
:10AF4400FEF72AFA08B1FCF733F804F0D3FB08B192
:10AF5400FCF72EF8002301A90120019304F090FCD2
:10AF640008B1FCF725F801A804F03CFD08B1FCF792
:10AF74001FF89DF800308448012262F303032CACCF
:10AF840062F3071304F8B03D05F00EFA7E4982B26D
:10AF94002046FFF759FD08B1FCF70AF80020FFF737
:10AFA4004FFD08B1FCF704F80822002101A805F0C0
:10AFB400A5F90823ADF80430ADF806300023ADF848
:10AFC400083001A84FF4C873ADF80A30FFF73AFD12
:10AFD40008B1FBF7EDFF00216C4802F009F808B155
:10AFE400FBF7E6FF6A4B6B480093214602F0FEF83C
:10AFF40008B1FBF7DDFF042200210DEB020005F090
:10B004007DF9654B6548019301A904F081FD08B100
:10B01400FBF7CEFFAC22002101A805F06FF9022353
:10B024008DF8043000238DF8063005238DF80730A1
:10B034000123ADF850308DF880304FF4967323938C
:10B0440044F25063564A249301A9564B564815922C
:10B054002A9300F001FC08B1FBF7AAFF0121524832
:10B0640000F0F7FB1C22002101A805F047F900239A
:10B074004FF4A03201930292ADF812304FF4F02253
:10B084008DF81430494B039206930322484B8DF8F4
:10B09400102001A8079300F0BBFE08B1FBF788FF5E
:10B0A40002F092FE08B1FBF783FF0522002101A8FC
:10B0B40005F024F99DF8043043F00103032203F062
:10B0C400F10362F306136FF3C7138DF804300723FB
:10B0D4008DF8053010238DF806309DF807301343A2
:10B0E4008DF807309DF8083001A813438DF8083017
:10B0F40002F004FF08B1FBF75BFF2E4802F0E6FE06
:10B1040008B1FBF755FFFFF7B5FDFFF7D9FD4FF089
:10B11400A0430322C3F81027C3F85027C3F87027AD
:10B124001022C3F80825244C244B2549E41AE408CA
:10B13400944044F003042046FBF75CFC022D13D139
:10B1440020492046FBF756FC02F004FF08B1FBF748
:10B154002FFFFBF7F7FA0028FBD1FBF7F3FA0028DF
:10B16400FBD1FEF72FF9F8E7FFF764FDF1E700BF25
:10B17400F40E0300FC2200206C36002001AE020015
:10B184001C0F03006DAB0200300F030014360020C7
:10B1940073AC020060360020FDAB020028360020AC
:10B1A400F4220020B9AB0200D02D00204DAB0200E8
:10B1B40059AA020055AC0200FC040300B4040300C5
:10B1C400380F0300520F03000369C1688B429DBF0F
:10B1D4008268D21802F1FF3203F1FF3394BF501A90
:10B1E400581A70472DE9F041C7688668F61B9642E5
:10B1F400044688461546406806D9384405F054F894
:10B204003D44E560BDE8F08132463844AD1B05F0AD
:10B214004BF82A4608EB0601606805F045F8F0E7AC
:10B224002DE9F843C5680646894617464FF00008DD
:10B234003469B3687068A54228BFE418013C621BF6
:10B244005C1BBC4228BF3C46944228BF1446494676
:10B254002844224605F028F8B36825449D4208BFD7
:10B2640000253F1BA044A144F560E1D14046BDE860
:10B27400F883000010B5114C114AA2610223236126
:10B284006361104BE361A2644FF400730E4A2362BE
:10B29400E26400231022A3626362E362A365636530
:10B2A400E36522650949E01D05F05CF8084920467C
:10B2B40005F058F82023A37110BD00BF7C36002090
:10B2C400710F030004370020F43600207A0F0300C6
:10B2D4007E0F0300F8B5184C182300FB033503FB5D
:10B2E40000402544C46A012C0F46164611D003D3EE
:10B2F400022C1BD000240AE02846FFF765FFB04269
:10B3040005D3324639462846FFF76CFF34462046BB
:10B31400F8BD2846FFF758FF8642344628BF044646
:10B32400224639462846FFF75DFFF0E72846BDE888
:10B33400F840FFF775BF00BF7C360020FFF79ABFC7
:10B344006DDF704779DF70477DDF704764DF7047DA
:10B354002DE9F74F0C9CBDF834B0278800258046B2
:10B364008A4691462E46B8F8002096420BDB35B14A
:10B374002288013AD21B92B2FF2A39D8DA5500202A
:10B3840003B0BDE8F08FD8F8042052F826000190ED
:10B3940000220DF1030101A8FFF7D8FF0028EFD127
:10B3A4009DF803204A4521D12288002D14BF002096
:10B3B400022002EB09010144594519DC3DB901326F
:10B3C40092B2228003F802A02288013222802288CD
:10B3D4000DF103011A4401A8FFF7B8FF0028CFD1EB
:10B3E40021889DF803200A44228001250136BAE70A
:10B3F4000C20C5E72DE9F341089CBDF824501746FD
:10B404008DE8300002220646FFF7A2FF48B9102259
:10B41400394630460995089402B0BDE8F041FFF77B
:10B4240097BF02B0BDE8F0812DE9F04F00231788E3
:10B43400138090F82D3085B006460D46144643B36C
:10B44400082F4ED902A8FFF77BFF002840F0208187
:10B4540013880822CA54238801339BB21B222380F9
:10B46400CA542088013080B2208006220DF10901DF
:10B47400284404F019FF23889DF8082006339BB262
:10B4840012F0FE0218BF01222380EA5423880133FC
:10B494002380B378FBB123880433BB4221D802A8AC
:10B4A400FFF750FF002840F0F38023880322EA547A
:10B4B400238801339BB219222380EA542388BDF8E0
:10B4C400082001339BB2E9182380EA54120A4A7017
:10B4D400238802332380F278AAB12388D91CB94285
:10B4E40001D90C20D4E00221E954238801339BB212
:10B4F40001212380E95423880B449BB22380EA541E
:10B5040023880B4423807268AAB12388D91CB942CA
:10B51400E7D8022192F90020E954238801339BB231
:10B524000A212380E954238801339BB22380EA54FF
:10B534002388013323803389002B40F09D80338A94
:10B544005BB18DE890002B460722032106F1100021
:10B55400FFF750FF002840F09B80338B5BB18DE8F0
:10B5640090002B461522142106F11800FFF742FF24
:10B57400002840F08D80326A002A40F08C80D6F892
:10B584002480B8F1000F2ED0B8F804302188981C1C
:10B594008A1C0244BA42A4D8FE28A2D803336B54AE
:10B5A400238801339BB2FF222380EA54238801338A
:10B5B4009BB22380B8F80020EA54E918120A4A70B2
:10B5C4002088023080B22080B8F804205AB1D8F81C
:10B5D4000810002969D0284404F066FE2388B8F8CE
:10B5E40004201344238096F82C30002B40F09880DC
:10B5F400307800284CD03388012B56D021888A1CFF
:10B60400BA423FF66EAF012805D1737802330B447A
:10B614009F42FFF466AF023F7F1A04A9BFB221F82C
:10B62400087DA818FFF790FE90BB3378BDF808207A
:10B63400022B02D07178914202D3BA4240F2B68012
:10B64400012B40F0B08073789F42C0F0AC80ADF81D
:10B6540008300821BDF80830FE2B3FF642AF22889F
:10B664000133AB542288013292B22280A954228839
:10B674001344238000200BE08DE890002B46062223
:10B68400022106F10800FFF7B5FE00283FF457AF8A
:10B6940005B0BDE8F08FB4F800E00EF10603BB423C
:10B6A4003FF61FAF1188052901D80720F0E76FF492
:10B6B400486C01EB0C039BB24FF27D3C6345F4D91B
:10B6C4005388052BF1D96FF44860181880B260458F
:10B6D400EBD94FF6FF70814203D0834201D09942E7
:10B6E400E3D8052305F80E30238801339BB21221D9
:10B6F4002380E954238801339BB223801188E954C1
:10B70400E818090A4170238802339BB223805288C7
:10B71400EA54E918120A4A702388023323802EE778
:10B72400B36A002BC1D04FF000094FF00C0A4FF060
:10B73400160B96F82C305FFA89F293427FF658AFD5
:10B74400B16A0AFB02F201EB0208B8F80430981C53
:10B75400FE283FF6C6AE208803332B5423880133DA
:10B764009BB2238005F803B0238801339BB2238066
:10B774008A5AEA54E918120A4A702088023080B2C0
:10B784002080B8F804205AB1D8F8081000298CD0C9
:10B79400284404F089FD2388B8F804201344238046
:10B7A40009F10109C5E7ADF8087052E7092151E72D
:10B7B40030B538B12AB10024651C8D4203DB8C42BC
:10B7C4000DD3002030BD1588A54203D805196D7826
:10B7D4009D42F4D0055D01352C44A4B2ECE7005D34
:10B7E4000028EFD0013880B20028EBD00234A4B294
:10B7F40023189942E5DB148030BD37B502AC002331
:10B8040024F8023D134622460546FFF7D1FF10B146
:10B81400BDF80600284403B030BD72DF704773DF03
:10B82400704774DF704738B5012204460D46B0F8FE
:10B834001414D0F81004FFF7E0FF00B1057004F110
:10B844003C0204F5826104F15400BDE83840FFF77E
:10B85400E4BF80F830107047F8B504460F4681B154
:10B8640078B191F87A3013B191F898303BB9D7F8A0
:10B87400A030042B03D0D7F89C30042B03D107202D
:10B88400F8BD0E20F8BD07F178060FCE4FF0000E7C
:10B89400251D84F802E00FC50FCE0FC596E80700FA
:10B8A40085E8070084F830E0D7F8A4306363D7F85C
:10B8B400A830A3634FF6FF7504F58263C4F82034FF
:10B8C400A4F824540722714604F2264004F016FD1D
:10B8D40023780BB984F8545094F82430002B14BF07
:10B8E400EE231F2304F15501C4F81014A4F81434F2
:10B8F40004F214423846FFF797FD48BB94F824300D
:10B90400002B14BFEE231F2304F23121C4F81814B2
:10B91400A4F81C3404F21C4207F13C00FFF784FD38
:10B92400B0B9A269A4F8482001236269206484F8AC
:10B9340050006264014684F8513084F83C3004F1CC
:10B944003C0204F15400FFF768FF08B92370F8BD06
:10B95400F8BDF8B5077804460D46002F00F00481C1
:10B9640000F22646A17007220021304604F0C6FCEE
:10B97400E38813B1A378012B04D0E3794BB1A37806
:10B98400022B06D1636BA3B1012284F82D24082075
:10B994009847334604F22C4113F8012F12B9994207
:10B9A400FAD117466B1E032B52D8DFE803F0050BC0
:10B9B4000F1284F82D34ECE7A3791BB194F82430EA
:10B9C40003B95FB9E3790BB1002F43D1237A002B7C
:10B9D40042D1637A002B0CBF00250425636BA5704C
:10B9E400002B3BD0033D012D38D86279002A35D095
:10B9F40094F82E2492BB84F83024012284F82F2456
:10BA04000720984704F13C0518220021284604F039
:10BA140075FCE26A0121531E8B4288BF0A4684F8F2
:10BA2400512094F8242084F83C1032B1A36A581EA3
:10BA3400022828BF0B4684F85230A178002384F8EA
:10BA4400503004291BD8DFE801F0770D2235590066
:10BA54000025C3E70225C1E70325BFE7002384F8D7
:10BA64002F34CFE7C4F8203463640223012284F81E
:10BA74003C30802384F831202664A4F84830A3782D
:10BA8400002B5CD1636B002B6AD10020F8BD02232C
:10BA940084F8313062B1072384F83C302369A4F878
:10BAA40048300023C4F82034E36826646364E6E77E
:10BAB4000323F1E763696364A369A4F8483012B10E
:10BAC400062384F83C306379B3B194F82E349BB9DF
