:020000022000DC
:106000000000012079630200616302006363020003
:10601000656302006763020069630200000000001C
:106020000000000000000000000000006B630200A0
:106030006D630200000000006F63020071630200E4
:106040002D9C0200736302003DA00200A5A3020084
:106050007363020073630200F19E02007363020027
:10606000DDA60200F1A6020005A70200736302008C
:1060700073630200736302007363020073630200C0
:10608000736302007176020073630200736302009F
:1060900073630200736302003DFA0200736302003F
:1060A000736302007363020019A702002DA70200A8
:1060B000A5A20200736302000000000000000000BF
:1060C0007363020073630200736302007363020070
:1060D0007363020073630200736302000000000038
:1060E00000000000000000000000000000000000B0
:1060F00000000000000000000000000000000000A0
:10610000000000000000000000000000000000008F
:10611000000000000000000000000000000000007F
:10612000000000000000000000000000000000006F
:10613000000000000000000000000000000000005F
:10614000000000000000000000000000000000004F
:10615000000000000000000000000000000000003F
:10616000000000000000000000000000000000002F
:10617000000000000000000000000000000000001F
:10618000000000000000000000000000000000000F
:1061900000000000000000000000000000000000FF
:1061A00000000000000000000000000000000000EF
:1061B00000000000000000000000000000000000DF
:1061C00000000000000000000000000000000000CF
:1061D00000000000000000000000000000000000BF
:1061E00000000000000000000000000000000000AF
:1061F000000000000000000000000000000000009F
:10620000364937480A1A02D0072291438D4635494C
:1062100035480A1A06D00722914381F309880222E1
:1062200082F3148831483249324A00F045F8324846
:106230003249334A00F040F832483349334A00F0DB
:106240003BF833483349344A00F036F83348344990
:10625000344A00F031F834483449354A00F02CF81B
:1062600034483549354A00F027F835483549002289
:1062700000F02DF834483549002200F028F8344861
:106280003449091A082903DB002202600430016046
:10629000314A90471F482049884205D0026804309F
:1062A00003B4904703BCF7E700208646EC46002085
:1062B00000212A4A9047FEE7884207D0521A05D0AB
:1062C000037801300B700131013AF9D170478842EF
:1062D00002D002700130FAE7704700000000012090
:1062E00000E000200000012000000120CC3003006D
:1062F000742200203C240020D4630200D4630200F6
:10630000380A0300CC3003007422002074220020DD
:10631000EC0B0300EC0B0300EC0B0300EC0B030095
:10632000EC0B0300EC0B0300EC0B0300EC0B030085
:10633000CC300300943203003C2400203C24002095
:106340003C24002090B9002090B9002090B9002092
:1063500090B9002090D90020A16302006DB0020026
:10636000FEE7FEE7FEE7FEE7FEE7FEE7FEE7FEE705
:10637000FEE7FEE700F002B8FFF7FCBF0F484FF062
:106380000701884385460E4880470E48016841F45E
:1063900070010160BFF34F8FBFF36F8FFFF730BF06
:1063A00009480A490A4A884207D0521A05D0037898
:1063B00001300B700131013AF9D170470000012022
:1063C000D196020088ED00E0D80B03006022002087
:0463D0007422002013
:1063D4007047000007B5044B0093044A402300F0C3
:1063E40032F803B05DF804FBF56302003D2400209D
:1063F4002DE9F84389461446E2B10F4B0F4E0325AD
:10640400002743F00108224609EB0701002005F0AC
:106414006DF80744241A48B933785BB14FF47A40D5
:10642400C047013D02D13570BDE8F88301233370C4
:10643400002CE8D1BDE8F883F00B03003C240020D5
:10644400704705F087B8F0B595B01C4608460D4670
:10645400164602F075FF1A9B099400240D93082236
:10646400234605A9284608960A948DF82C400C94D6
:1064740002F084FF079B0293BDF81830ADF80C308E
:10648400BDF81A30ADF80E309DF814308DF8114077
:1064940003F00302012A1DD1BDF81440059EC3F385
:1064A400C203C4F383148DF81030A20008230EA98C
:1064B400284602F063FFC6F3952608AB00932246F4
:1064C40002AB0EA9304600F057FB284602F03CFF11
:1064D40015B0F0BD022AF8D1BDF81640C3F3C203CB
:1064E400C4F389148DF810300827082C264628BFD9
:1064F40008263B4632460EA9284602F03FFFA41B5D
:1065040008AB02AA31460EA8374400F099FB002CD0
:10651400EBD1DAE708B5FFF794FF0421034800F054
:106524009BFA034B01225A7108BD00BFC80B03003C
:1065340074220020037813F0040216D003F003033E
:10654400012B03D0022B09D0012070470A68008870
:106554000232C0F3831002440A60F5E70B684288F4
:10656400023303EB92130B60EEE710467047000012
:106574002DE9F04F87B00546841C06A8002300F8D7
:10658400113D0E46904600F001FF454A53683360C2
:106594009368516803F580735B1A924602F21C46B5
:1065A40002F5836902F21447A3421BD30023B8F116
:1065B400000F6CD0012262F3010343F0040365F37E
:1065C4008913DAF804109DF80700CAB203320C44A8
:1065D4004AF82230CAF8044000F0FCFE012007B05B
:1065E400BDE8F08F0121304602F020F9484602F060
:1065F4003AF9384602F037F90DF1180BDAF80800C9
:106604004BF8100DC0B203300AEB80005946FFF777
:1066140091FF029BA0B9DAB20AEB8202991C013302
:10662400D2680392DBB20AEB830302F00302DB6855
:106634000291012A049322D0022A03D083460BE05C
:10664400D8B2E0E7BDF80E30BDF812B0C3F3891339
:10665400033301EB93030293384602F007F910B1B8
:10666400029BCAF808305946304602F0DFF8DAF8DF
:106674000830DAF8042003F580739B1A94E7BDF818
:106684000C30BDF812B0C3F383130B44E3E70222CA
:1066940062F3010343F0040365F39F5391E700BFE2
:1066A40050250020064B074810B500221A7002F04E
:1066B400FEFD044610B9044802F0AAFE204610BDAF
:1066C40050250020CC0A0300140C030030B50A4CFA
:1066D40071B10A4A0A49121BD20800239A4201D115
:1066E400002030BD31F82350854202D00133F5E754
:1066F400034654F8330030BDE00A0300C80B03001E
:1067040074220020094B013903EBC000032909D886
:10671400DFE801F00A02040604207047007970479C
:10672400407970470020704702207047E00A030058
:10673400034B98685B68C31A58425841704700BFBE
:10674400502500202DE9F04186B0FFF7F1FF054602
:10675400002840F0E580784CC4F81804BFF34F8F4C
:10676400A06806AE46F8100DC0B2033004EB8000FA
:106774003146FFF7DFFE029B18B1D4F81824002A33
:1067840055D0DAB2991C013304EB8202DBB204EB7C
:106794008303D268DB68049302F00303022B0392A1
:1067A400029154D1BDF80E306448C3F38917502FB9
:1067B400B846A8BF4FF0500868F38F1308F10801DA
:1067C400ADF80E3002F08BFD0546002800F0AA80DB
:1067D40002F0B6FD03A900230822284602F0C3FDF7
:1067E4000299CE43F6B20136B600B045C9B228D9F3
:1067F40003310823324604EB8101A8EB060828463E
:1068040002F0B1FD5FFA88F84D4906F108034246EB
:10681400284602F0A8FD029B033703EB9707029773
:10682400D4F81834002B46D1D4F8106451E06268CF
:106834009A4204D8A260284606B0BDE8F081D8B2D6
:1068440093E703310823424604EB8101E0E7012B7F
:1068540068D1BDF80C303948C3F38311062928BF29
:10686400062161F3891302318900ADF80C3002F07E
:1068740036FD0546002855D002F062FD00230822AB
:1068840003A9284602F06FFD0026BDF80C20C2F3D0
:106894008312B31C96424FEA8303C1D202994A1C65
:1068A400C9B20331029204EB81010422284602F0AA
:1068B4005AFD0136E9E7284602F046FDFFF738FFA6
:1068C40080F00100C5B2B6E7F3685B796BBBF3688F
:1068D4001E68002EF8D1284602F036FD06A800F8FE
:1068E400116D00F053FDD4F818340BB9029BA3606A
:1068F4009DF8070000F06EFDE0E7236820469B68E2
:106904009847E3681C68002CF7D10E4B0E480F49DA
:10691400C01AC008000440F0020000F06BF8CDE794
:10692400002588E7D4F81044EDE7336829461B684E
:1069340030469847CBE700BF50250020CC0A03001F
:106944005C250020E00A0300280B0300200C030050
:106954002DE9F34780460F46924601A901221846C5
:106964009946FFF705FE214D68B3019C0026A21C41
:106974004E4531D100211E4801F00BFF80F3100079
:10698400631CDBB205EB8303000440EA1840D860C3
:10699400E3B20333012115F8232068F3C50205F897
:1069A400232035F8232066F3891225F8232055F88F
:1069B400232067F39F2245F8232061F301026FF33C
:1069C400820205F823202B781BB1FFF7BBFE0028B9
:1069D400FBD102B0BDE8F087D1B205EB81015AF8D2
:1069E4002630CB6001360132C2E700BF50250020BB
:1069F4006C29002000231A46FFF7AABF13B502AC86
:106A0400012344F8042D2246FFF7A2FF02B010BD73
:106A140007B58DE80C0002236A46FFF799FF03B01F
:106A24005DF804FB1FB50293069B0192039301AA30
:106A34000323FFF78DFF05B05DF804FB1FB58DE858
:106A44000C00069B0293079B03936A460423FFF7FB
:106A54007FFF05B05DF804FB30B50F49D1F8102471
:106A6400002314463CB9C468237152B9C1F8100418
:106A74002260184630BDE46825799D4206D024681A
:106A8400F0E7D268116821601060F2E701330A2B45
:106A9400E7D14FF0FF33ECE750250020084A38B522
:106AA4000123D2F8104413701D4604B938BDE368BD
:106AB4005D71236820465B689847E3681C68F4E7C7
:106AC40050250020C38873B504460D4633B1144ADB
:106AD40000921449144A284601F029FF217A052915
:106AE4001CD0637A4BB1A088FFF70CFE0F4B104902
:106AF40053F82020284601F01AFF227A0D4BA08873
:106B040053F822600021FFF7E1FD0B4903463246AA
:106B1400284602B0BDE8704001F009BF02B070BD64
:106B24008B0C0300730C03006B0C0300380C030084
:106B34000F2403009C0C0300900C0300037A052B24
:106B440010B50C460FD0437A23B1084A08492046B1
:106B540001F0EDFE0749204601F0E9FE2046BDE8BC
:106B6400104001F0D9BE002AF8D0F3E78B0C0300E3
:106B74000F240300880C03002DE9F04385B01F4661
:106B84000C9D002306460C46904695F80C902B73FA
:106B940029463846FFF796FFB8F1060F09D8DFE813
:106BA40008F00412181F283340003146284601F02B
:106BB400BEFE002229463846FFF7C0FF85F80C9038
:106BC40005B0BDE8F08322683146284601F0AFFEE7
:106BD400EFE794E80C003146284601F0A8FEE8E708
:106BE400A3680093314694E80C00284601F09FFE08
:106BF400DFE7E3680193A3680093314694E80C004F
:106C0400284601F094FED4E723690293E3680193D4
:106C1400A3680093314694E80C00284601F087FEEF
:106C2400C7E76369039323690293E3680193A36845
:106C34000093314694E80C00284601F078FEB8E74A
:106C440008292DE9F84F80460E4617461C463AD8C7
:106C5400002593F80C901D7319461046FFF732FF78
:106C6400DFF884A0DFF884B0AE422ED918F80520EE
:106C74005946204601F05BFE0135082DF4D1184930
:106C8400DFF86CB0204601F052FE4FF0000A564582
:106C940020D918F80A507E2D03D8284609F02CFA7A
:106CA40000B92E252A465946204601F040FE0AF135
:106CB400010ABAF1080FEAD1012221463846FFF74A
:106CC4003DFF84F80C90BDE8F88F5146204601F052
:106CD4002EFED1E70349204601F029FEE7E700BF75
:106CE400660C0300640C0300620C03005C0C0300DC
:106CF400680C0300C30710B507D4F0234008054A05
:106D0400145C23401943115410BD0901C9B20F2367
:106D1400F4E700BF382A002030B5094B1C78094B32
:106D240019680023A34202DB0022104630BD11F88B
:106D34003350854201EBC302F7D00133F2E700BFC1
:106D4400082A0020482A002070B504460D46FFF7A3
:106D5400E3FF30B1436823B129462046BDE87040C3
:106D6400184770BD034B044819680022490800F015
:106D740022BA00BF0C2A0020102A002010B5C0B28D
:106D8400FFF7CAFF0446007803F0A6F863785A1E9A
:106D940053425341834208D1044BD3E900231343A4
:106DA40003D1BDE81040FFF7DDBF10BD302A00203D
:106DB40037B543082E4AD35CC2074CBF1B0903F006
:106DC4000F0304460D46042B2FD8DFE803F0031EFF
:106DD4002632360049B30121FFF78CFF02A80023B5
:106DE40000F8013D234D00F0D1FA22460120002194
:106DF40009F060F8D5E9002310431943C5E90001FF
:106E04009DF8070000F0E6FA0FE0002914BF022104
:106E140000212046FFF76EFF07E041B10321FFF791
:106E240069FF01212046FFF78FFF03B030BD012128
:106E3400EFE70029F9D10421EBE709B10321E8E7E1
:106E4400FFF758FF29462046FFF77EFF02A800F807
:106E5400015D084D00F09AFA22460120002109F054
:106E640029F8D5E9002322EA000023EA0101C5E755
:106E7400382A0020302A00202DE9F041124E134F09
:106E8400002433789C4208DB114BD3E900231343DD
:106E940018D0BDE8F041FFF765BF3D6805EBC408B5
:106EA40015F8340003F018F898F801104B1E5942F5
:106EB40059410A1A514215F834005141FFF778FF3D
:106EC4000134DEE7BDE8F081082A0020482A0020CA
:106ED400302A0020092AF7B505460C4616463FD944
:106EE40002F036FFD8B11F4B1F481D601F4B204FC7
:106EF4001C70204B002110221E6009F087F91E4BE4
:106F040000200021C3E90001013CE4B20326FF2C68
:106F14000BD11A4A1A48002100F042F903E002F0AA
:106F2400D9FE0028DFD003B0F0BD9DF806308DF8FF
:106F3400046020B203F0FC0305EBC0026FF382038C
:106F44008DF80630937815F830008DF805303A4600
:106F540001A902F007FF013CE4B20028D7D0E2E720
:106F64000720E0E7482A0020382A0020082A0020C9
:106F7400816D02000C2A0020302A00207D6E020060
:106F8400FC0C030070B5084D084E00242B789C427D
:106F940001D3002070BD3368012113F8340002F0DE
:106FA40055FF0134F2E700BF082A0020482A0020D8
:106FB4001FB50021039001AA44F20100019102913E
:106FC40000F004F805B05DF804FB000010B572B6DB
:106FD400FFF764FDFFF7B6FB0028FBD1104B114C03
:106FE4001149E41AE408240444F00100FFF702FD07
:106FF4000E4B1B68DB0700D500BE0D4944F00200B0
:10700400FFF7F8FCBFF34F8F0A490B4BCA6802F431
:10701400E0621343CB60BFF34F8F00BFFDE700BFB7
:10702400E00A0300280B03000B0D0300F0ED00E061
:10703400170D030000ED00E00400FA05D0E9022377
:10704400D1E90201994208BF90422CBF01200020DF
:10705400704700002DE900480C4800F0F1FA0C4B91
:10706400D3E9002312EB000B43F1000C094BD3E9E5
:1070740000239C4508BF93455846614603D21BF143
:1070840080704CF10001BDE8008800BF7C22002024
:10709400502A0020C82A002037B505460C460A4865
:1070A40001A901F0A4FA60B10570446001A9064881
:1070B40001F0C7FA18B1054800F0C6FA002003B081
:1070C40030BD0420FBE700BFB42A00207C2200204E
:1070D40038B5184B1B78044613B90025284638BD2B
:1070E4000028FAD0037F03F0FF05002BF5D0FFF74B
:1070F400B1FFD4E90223994208BF904214D3236913
:1071040003B923776369A069984721690029E4D00A
:10711400237F03F0FF05002BDFD0D4E902235218AC
:1071240043F10003C4E902232146034802F08FF926
:10713400D4E700BF582A0020280D030013B5114BD3
:1071440011491868019008235822104801F01AFACE
:10715400044698B90E4A0F4801A900F05FF90446A5
:1071640060B901210B4800F04DFA01230A4A09488D
:10717400194600F0B1F9094B01221A70204602B0F9
:1071840010BD00BF240D03005C2A0020B42A002097
:10719400057202007C220020FFFF7F00582A002095
:1071A4003AB103685A614A1E5142514119610020A3
:1071B40070470720704738B5037F04460D4683B9EE
:1071C4008261FFF747FF2369401941F10001C4E9D7
:1071D400020103B1256121460020BDE83840FFF7D4
:1071E4005BBF002038BD0023014603770120FFF771
:1071F40053BF0000014800F023BA00BF7C220020E6
:107204002DE9F74F064600F005FA40B15749D1E998
:10721400002312F1807243F10003C1E9002300212D
:10722400304600F006FA38B1514C236823B1206887
:10723400FFF74EFF002323600121304600F0F9F9E7
:1072440020B1FFF707FF4B4BC3E9000101A94A48EE
:10725400474D4A4C4A4F01F004FA002833D1DFF875
:107264001CA1434CDFF820B1504602F006F9236814
:10727400002871D07BB12368D0E90201D3E902234D
:10728400994208BF90425DD223681B7F1BB12168DD
:10729400504602F0DCF8504602F0E9F8D0E90289E1
:1072A4000746FFF7D7FEB8EB000069EB01010128A0
:1072B40071F1000333DA0021584600F0B0F9384682
:1072C400FFF706FF45E00378012B1DD00BD3022BFB
:1072D40011D14FF00008204602F0C9F8002841D02F
:1072E40080F81C80F7E741680B7F23B901230B77F3
:1072F400204602F0ACF801A91F4801F0DDF901A90C
:107304001D4801F0AEF9A8E741682B68994202D103
:1073140000232B60EFE7204602F0B2F8EBE7194DAB
:10732400A84212D9FFF766FF42194FF496030021D1
:10733400584600F0F1F850B9236813B9304600F00C
:10734400C3F8276003B0BDE8F08FBA68EDE70D28F5
:10735400B5D00023236087E7002BF3D1304600F03B
:10736400B7F8EFE701233B70C5E700BF502A0020C0
:10737400D02A0020C82A0020B42A0020280D0300A7
:10738400582A0020FFFFB4007C22002070B5EFF3E0
:10739400108672B60C4A946801239CB993600B4B17
:1073A4000B4DD3F8801029401160C3F88050D3F8F6
:1073B400841051604FF0FF32C3F88420047006B982
:1073C40062B670BD0370FAE7D42A002000E100E041
:1073D400FC06FFBD084B9A6810B55AB150B9EFF3DB
:1073E400108172B6054A1C6814605C685460986029
:1073F40001B962B610BD00BFD42A002000E100E04C
:10740400435882B03BB10023435043580193019B3E
:10741400012002B070471846FBE70000F8B5224C83
:107424004379224D44F8232005EBC303204A1B79FA
:10743400204C4BB1101BC00800041F4940F002004F
:10744400FFF7D8FA0820F8BD03680E88C3F808656A
:1074540090F904308978002B4FEA41111DDB174E57
:10746400F718C9B287F8001301215F0903F01F035D
:1074740001FA03F346F82730437945F83300101B2B
:1074840005EBC301C008012600040E7140F003009F
:107494000B49FFF7AFFA0020F8BD03F00F03094EC4
:1074A400C9B2F154E8E700BFE82A0020E02A00202E
:1074B400380B0300E00A0300460D030000E100E07E
:1074C400680D030014ED00E0036801221A607047A0
:1074D400036801225A60704773B58D0005F5A075E5
:1074E4000068ADB24FF480348C400026C0F80843E5
:1074F400C0F84843465101F5A8714559019522F059
:107504007F42019D40F82120C0F844430BB1C0F8EC
:10751400044302B070BD00002DE9F74F8E00984679
:107524004FF4803503688D4006F5A079C3F84853BD
:107534001FFA89F9C3F80853074698198A464FF089
:10754400000BD3F8041522F07F44D0F84025C0F88E
:10755400401543F809B053F809300093009B531ABF
:1075640023F07F43012B0CD1254B4FF4806043F073
:10757400010398473B6843F809B053F80930019375
:10758400019B3868D0F80495C0F84453A4EB090370
:1075940023F07F43012B1AD10AF5A87A184B013442
:1075A40040F82A4043F001034FF4806098473B6859
:1075B400D3F80435994508D13B680020C3F84453F7
:1075C400C3F8045303B0BDE8F08F0D20FAE7064476
:1075D400C8F1FF18C6F84045D0F80435E21A013A5C
:1075E40022F07F4208F57F489045EED3002AE3D18C
:1075F4000134C6F84045D0F804259342DBE700BFC8
:10760400400D030003680222C3F8442309B1C3F800
:10761400042370474FF482710068FFF7F1BE4FF402
:10762400803303FA01F10368C3F84813C3F808135D
:107634007047890001F5A07189B20068FFF7E0BEC8
:107644000368D3F80405704790F90430002B09DB74
:107654005A09012103F01F0301FA03F340320249DE
:1076640041F82230704700BF00E100E0024B034ABA
:107674001B681068184700BFE82A0020E02A002091
:1076840070B5064E0546002456F824300BB1284642
:1076940098470134042CF7D170BD00BFF82A0020AC
:1076A400033080B240F2FE33984230B51FD8134BFA
:1076B4001A783AB95C891D892C440444A4B2B4F5FF
:1076C400806F0AD91A7DAAB99A8BDC8B22440244B2
:1076D40092B2B2F5806F0DD801220A8014461422AA
:1076E40002FB04335A8910445881002030BD48F20B
:1076F400086030BD48F2066030BD00BF2C2B00206E
:107704000B4A0C4B5188142000FB0131CB6833B970
:107714000420496810700122074801F095BB052335
:107724000649137002238B80012200230968F3E7C2
:10773400102B00202C2B002060220020F42B002092
:1077440007B5002305490093054A0968054808233D
:1077540001F0E0FA03B05DF804FB00BFF42B002055
:10776400880D03006022002007B500230093014622
:107774000823034A034801F0CDFA03B05DF804FB83
:10778400800D03006022002013B500230C460093F3
:1077940001460423074A084801F0BCFA38B9074BEC
:1077A400142202FB04340123237402B010BD48F2F6
:1077B4000D60FAE77C0D0300602200202C2B0020D2
:1077C40037B50A480A4B42689C88196853880325D0
:1077D400033305709BB2002000909B0001EB8401F1
:1077E400044801F097FA03B030BD00BF102B00200D
:1077F400F42B00206022002010B50146044800F05C
:10780400F6FE1C220446002108F000FD204610BDAF
:10781400E02B00204388033300EB830399420BD30E
:1078240082884FF6FF739A4208D0038833B1806888
:10783400431C58425841704702207047012070474A
:107844002DE9F8430223DFF864800B800D461746C8
:1078540000F5805600F108044FF00109B44222D229
:10786400236801331FD031462046FFF7D3FF48B1C8
:107874000FB187F8009002280BD14FF480632B805E
:10788400BDE8F883A368D8F80020934201D9C8F86A
:1078940000302B886288033313442B8063880333BE
:1078A40004EB8304DAE7BDE8F88300BF242B00204F
:1078B400144A142303FB002070B50B6844680D467A
:1078C40004F5805653B15C88033403EB8404A64268
:1078D40002D9236801330BD1002070BD0834F6E7C8
:1078E4002C60012070BD6388033304EB8304EEE74E
:1078F40031462046FFF78EFF0128F4D0F0D302284A
:10790400EAD0E4E72C2B0020436873B505460C4607
:1079140073B3254AD1688B422AD31269934227D87C
:1079240013F0030224D121490089098988421FD117
:107934002868996888421BD11D494868834203D945
:1079440000F5805083420ED38A6993420DD902F523
:107954008052934209D2012323800020B0FA80F0A0
:10796400400902B070BD1346F6E748F20960F5E736
:10797400002323801E462388012B01D90020F0E731
:10798400019601A92088FFF793FF18B923880133D2
:107994002380F0E7019B2A6899689142F1D16B60DA
:1079A400024B1B892B81DCE760220020102B002076
:1079B4002C2B00202DE9F8431C46214B1B7806464E
:1079C4000F461546002B32D0002A34D0002C32D07A
:1079D400DFF874804FF01409A388012B03D948F20F
:1079E4000960BDE8F88309FB03F318F803302BB9E9
:1079F4002146A088FFF75CFF20B92060A3880133EB
:107A0400A380E9E723681EB1998832889142EFD1B7
:107A140047B99A6885E80C000A4B1B892B81002022
:107A2400BDE8F88319883A889142E1D1F1E748F238
:107A34000160BDE8F88348F20460BDE8F88300BF44
:107A4400082B0020102B00202C2B002008B5074BFE
:107A5400191D5888FFF72CFF18B1BDE80840FFF73F
:107A6400AFBEBDE80840FFF74BBE00BF102B00209F
:107A74002DE9F04FA34FDFF8B09289B00646B8461F
:107A84003B6823B94946A04800F0EBFD3860D8F8BC
:107A940000502A78531E052B00F2F781DFE813F01B
:107AA4000600720072000601060163012EB1974BB5
:107AB40000225A604FF4064426E02B79032B1ED88B
:107AC400DFE803F016023D4891490B78022B084683
:107AD40033D00B7D022B4FF0010340F01B821422A4
:107AE4005343C2180020C8545068FFF73DFE03E01A
:107AF40001232B71FFF724FE002800F0D180834B73
:107B040000225A6048F20D641422002103A808F0F0
:107B14007DFB41F61D539C4208BF0024D8F8003079
:107B240004941A78023A042A00F2CF81DFE812F0B2
:107B3400B001BC01DF01E701EE010023CFE7754985
:107B44007548002302222B718A800122096801F002
:107B54007BF9D1E76F4C00262E7120686C4DFFF73E
:107B640003FE6E4BD4F800E05A8814235343EA18FA
:107B7400EE5451682160A188C2F804E01181022208
:107B8400A280B9E7B5F814A0DFF884B1B6B1AA7D34
:107B9400EB88022A06D9142101FB0AB1DA1C0889F0
:107BA40002440A81142202FB0ABAC3F57F43BAF8DD
:107BB4000A20FD331344AAF80A307BE7142303FB9D
:107BC4000AB319895C68AB7D04EB8104062B05D8E4
:107BD400DFE803F0284F37451D5B690048F20E6467
:107BE400AA7DEB88022A06D9142101FB0AB1DA1C0A
:107BF400088902440A81142202FB0ABAC3F57F43AE
:107C0400BAF80A20FD331344AAF80A307CE7444842
:107C1400444900234360AB690360FFF775FE002805
:107C240000F030810223AB75002300930423EA188B
:107C34002146394801F06EF8002831D048F20D642D
:107C4400CEE72B69002B14BF03230123AB7500235C
:107C5400009305F10C02042304F10801E9E7012370
:107C6400AB750022EB8800929B002A6904F10C0199
:107C7400DFE7032A0CBF05230623AB75002300931B
:107C8400042305F10802E118D3E70623AB75254B5D
:107C94001988234B5868FFF777FD044600289FD1C5
:107CA40009B0BDE8F08F41F61D5499E7002E7FF42A
:107CB40001AF2B79012B39D007D348F20E6241F67C
:107CC4001D54022B18BF14461EE702232B71039682
:107CD40004960596EB6803930DF10A0103A8FFF7D8
:107CE40013FE002800F0CE800498BDF80A108388A3
:107CF400EB8003882B81FFF747FD0446002C7FF4BB
:107D040003AFCDE7282B0020E02B0020082B002018
:107D14002C2B0020F42B002060220020102B0020AC
:107D2400EC2A0020002C0020202B0020DFF808A2E1
:107D340003AA53463146A81DFFF73CFE044660B92A
:107D4400BAF804100498FFF71FFD044648F20963CB
:107D54009C42D3D141F61D54D6E608223146504602
:107D640008F054FAF2E7002E7FF4A4AE6C4B1A7BB1
:107D74005AB11E731A78013A062A00F28680DFE8A7
:107D840002F04C61696C846F7A001A78072AF1D882
:107D940001A151F822F000BFBD7D0200797D0200EF
:107DA400797D0200E37D0200F77D02001B7E020064
:107DB4001B7E0200DF7D02001A895A4901321A81B2
:107DC40000225A801A730A78B2FA82F252099A721D
:107DD4000A7DB2FA82F25209DA72012207E05249AC
:107DE40058688A884088033202448A8002221A70C2
:107DF400C0E74C4C5A884C49142505FB02420868DC
:107E0400546850608888108102200C6088800021AA
:107E140011740622EBE70722E9E79A7A32B1414965
:107E240000229A72CA680AB9097C51B9DA7A62B135
:107E34000022DA723B4A116A39B992F8242022B13D
:107E440001225A80FFF702FE57E700221A705A8077
:107E54005A607FE7FFF7B4FC4FE7FFF751FC4CE7AC
:107E640006221A702F4A5B88142101FB03235868E9
:107E7400FFF77AFC41E707221A7000225A60FFF7E5
:107E84005FFC3AE748F209643EE648F20E643BE6DA
:107E940001228DF80C201A89ADF818209A88ADF8C3
:107EA4001A20DB68059310E002228DF80C201A8951
:107EB400ADF818209A88ADF81A20DA6805929B7DEF
:107EC4009A1F534253418DF81C3003A8FFF7D8FB87
:107ED400002649461548C8F8006000F0EDFB012172
:107EE400134800F0B0FC00287FF4CAADD8E60322A2
:107EF4008DF80C20DA88ADF818201A89CFE704220F
:107F04008DF80C20DB88ADF81830DEE705238DF8FA
:107F14000C30DAE7074A1370002353601AE700BFF6
:107F2400102B00202C2B0020F42B0020E02B002011
:107F3400F02B0020082B0020042C00204068FFF7C1
:107F440097BD000008B50121044800F062FC18B98F
:107F5400BDE80840FFF78CBD08BD00BFF02B002032
:107F64002DE9F3419846364B1B7806460D46002B07
:107F74005AD000295BD009884FF6FF73994259D033
:107F84006B88002B56D06B689B0756D14AB92F8952
:107F94000DF102013846FFF783FB30B102B0BDE8B2
:107FA400F08113885788ADF8023001A8FFF724FC4C
:107FB400044660B9BDF80230224A142101FB0323B0
:107FC40058890338C01B588148F20760E6E700234C
:107FD4008375BDF8023083826B68036180F800808A
:107FE4000121194800F022FCE0602B8823816B8872
:107FF400A380B8F1030F04BF0423A375E78004BF73
:108004003368A3610025658101A9104800F019FBBC
:1080140036B17560E36833600D4BB5721B893381EB
:10802400FFF790FF0020B9E748F20160B6E748F295
:108034000460B3E748F20360B0E748F20260ADE7DA
:10804400082B00202C2B0020242B0020E02B0020C8
:10805400102B002008B5084B1A68042A09D01968A7
:10806400064A42F821000121184600F0DFFB0020F7
:1080740008BD48F20B6008BDFC2B0020F82A002044
:108084002DE9F04F89B01422002103A808F0BEF8AE
:10809400814A137803F0FF01009191463BB103A894
:1080A400FFF7EEFA0026304609B0BDE8F08F101D48
:1080B40000F0D6FB05460028F4D140F6F8734FF0E3
:1080C40080521B68DFF8FCA15C1C04BF734B1B6867
:1080D40011695269581C08BF02FB01F3CAF8103039
:1080E4000022A3F540536E49CAF80C30504600F004
:1080F400DDFD06460028D6D11C238C2269496A4836
:1081040000F040FA3746B0464FF0030B3446CDF842
:1081140004A0019BDA6818EB020058F8022009D089
:10812400624B9A4206D14168614B994269D001334E
:1081340099427FD0531C03D05C4B9A4240F09D80FF
:1081440000F6FC71024652F8043F013340F095807A
:108154009142F8D1574A116829B9022101231060CC
:10816400918000930EE014226243534B4FF0020CB3
:10817400991803F802C0514A486054800134A1F8A8
:1081840008C0A4B247F0010708F58058B8F5405F6D
:10819400BFD1BBF1010F88BF3D46EDB2022D02D025
:1081A400062D03D065B948F20A667CE7012389F8F5
:1081B400003003A80023C9F80430FFF761FA72E71E
:1081C40002A8FFF719FBC8B10123013D03700A2D72
:1081D40009D8DFE805F006080608070807080F11A4
:1081E4000F000023037102A92F4800F02AFAFFF7B9
:1081F400A9FE58E70323F5E70223F3E748F20766ED
:1082040051E72D494FF0140E0EFB04FE01EB0E0254
:108214004FF0000C01F80EC050600EF110020EF188
:10822400080E0A447144FFF70BFB47F002070134C0
:10823400A4B2A9E7009BDFF87CA083B11E4B1422F3
:10824400624399184FF0020E03F802E0DAF80020B6
:108254004A601A4AA1F808E054800134A4B200220A
:108264001749CAF80000FFF7EBFABAF80420022A0B
:1082740014BF08220422174386E70F4914226243DD
:1082840001EB020E0BF1FF33CEF8040003201FFABA
:1082940083FB8854CBE700BF082B00201410001088
:1082A4007C0F0300542B0020E02B0020DEC0ADDE49
:1082B400FE011EF1F42B00202C2B0020102B00209B
:1082C400F82B00206022002073B50D460446C8B187
:1082D400C1B10DF10601FFF717FBB0B10C4BBDF8AE
:1082E40006006668142202FB003001210C3000F005
:1082F4009DFA63682E600C336B600123A372002027
:1083040002B070BD48F20460FAE748F20960F7E78A
:108314002C2B002013B50446A8B10DF10601FFF77C
:10832400F3FA98B10C4ABDF80630142101FB03237B
:10833400DA6872B1A27A62B1DA680020013ADA60CE
:10834400A07202B010BD48F20460FAE748F2096076
:10835400F7E748F20560F4E72C2B00200223002203
:10836400FFF7FEBD18B103230022FFF7F9BD48F261
:1083740004607047114B1B7813B50446ABB14FF63C
:10838400FF73984214D001A8FFF736FA98B1052379
:10839400037001230371C48001A9094800F051F955
:1083A400FFF7D0FD002002B010BD48F20160FAE7EB
:1083B40048F20360F7E748F20760F4E7082B00206F
:1083C400E02B00200F4B1B7807B5A3B101A8FFF7E2
:1083D40013FA98B10623037001A90B4800F031F990
:1083E4000A4B1A780AB101221A73FFF7ABFD002079
:1083F40003B05DF804FB48F20160F9E748F2076056
:10840400F6E700BF082B0020E02B0020102B0020F3
:1084140007B5ADF8060002A820F8041D01460DF1C9
:108424000600FFF7C7FA03B05DF804FB13B502AC0E
:10843400134624F8020D0A4600202146FFF7BAFA33
:1084440002B010BD13B502AC134624F8020D0A465F
:1084540020460021FFF7AEFA02B010BD20B119B1D9
:1084640003680B600020704748F204607047000006
:10847400404B1B782DE9F74F0446002B6FD00028A2
:1084840070D01222002107F0C1FE3B4F3B4A032368
:1084940023803B4B4FF00008BA464FF014094FF0CD
:1084A400010B7E8939897D68314489B2002D5CD005
:1084B4002868904259D168681844012855D809FBA6
:1084C40008A0B4F802E0C0687044608020890644C3
:1084D4006089268108446081C1F58061A08989B2E0
:1084E400884205F1080638BFA18105F58055B542DB
:1084F40019D93168013116D0294630468DE80C006F
:10850400FFF788F901289DE80C0017D023D302282F
:10851400EDD1E18884F810B00131E180E189AD1B2F
:1085240001EBA505E58108F10108B8F1020F07F197
:108534001407B6D1002003B0BDE8F08FE188013103
:10854400E180E189708803310144E181718803315C
:1085540006EB8106CBE7A1880131A180F6E748F25A
:108564000160E8E748F20460E5E7208801382080EC
:10857400A5E700BF082B00202C2B0020DEC0ADDEB9
:1085840002FEE10E10B561B1B2FBF3F403FB142457
:10859400A4B244B980E8120084608281C381204679
:1085A40010BD0E2010BD092010BD82B050E8022F6E
:1085B400C188B2EB324F4FF0000317BF92B241EAC9
:1085C400014142EA014104E04268B2EB324F08BF84
:1085D400012340E80212002AE8D18DF807309DF803
:1085E4000730002B0CBF1120002002B0704737B5B4
:1085F40050E8013F9DB2C48925448489A54228BF1F
:108604002D1B0489A54202BFBFF32F8F002207E070
:10861400C5EA030540E80154002CE9D14FF00102FA
:108624008DF803200193019B9DF803200B6002F059
:10863400FF0322B10B880068184403B030BD18460C
:10864400FBE70A884B889A4209D150E8012FC2EA15
:10865400024240E80123002BF7D10120704700209B
:10866400704737B550E8023F1FFAA3F5C488A54206
:1086740002BFBFF32F8F00220DE0C48925448489F3
:10868400A54228BF2D1BC3EA054540E80254002C2F
:10869400E8D14FF001028DF803200193019B9DF86E
:1086A40003200B6002F0FF0322B14B8800681844DA
:1086B40003B030BD1846FBE70A884B889A4209D1BB
:1086C40050E8022FC2EA224240E80223002BF7D1ED
:1086D400012070470020704701F01F024B0901215F
:1086E400914000EB830000F06DB84B0910B501F028
:1086F4001F040121A14000EB830000F056F8E04084
:1087040000F0010010BD01F01F0301229A404B0943
:1087140000EB8300D14300F06FB84B0901F01F0157
:1087240050F82300C84000F0010070472DE9F047DD
:108734004E1E760980460F460136002558F825401E
:1087440008EB8509E44394FAA4F464B1B4FA84F41C
:108754004FEA451A202C08D10135AE42EED83C46EA
:108764002046BDE8F0872024F2E75444A742F3D919
:1087740021464046FFF7B9FF0028F1D0D9F8004060
:10878400E44394FAA4F414B1B4FA84F4E2E72024A0
:10879400E0E700B550E8002F0B4640E8003E9EF0AD
:1087A400000FF7D110465DF804FB00B550E8002F28
:1087B40042EA010340E8003E9EF0000FF6D1104665
:1087C4005DF804FB00B550E8003F43EA010240E8CD
:1087D400002E9EF0000FF6D110465DF804FB00B5A4
:1087E40050E8002F02EA010340E8003E9EF0000F2B
:1087F400F6D110465DF804FB00B550E8003F03EAEB
:10880400010240E8002E9EF0000FF6D110465DF8FC
:1088140004FB00B550E8002F02EB010340E8003EE2
:108824009EF0000FF6D110465DF804FB00B550E849
:10883400003F03EB010240E8002E9EF0000FF6D14A
:1088440010465DF804FB00B550E8003FA3EB0102BD
:1088540040E8002E9EF0000FF6D110465DF804FBB0
:108864000121FFF7A2BF0121FFF7ACBF0021FFF7F1
:10887400B6BF10B590B14268836801689B1ADBB239
:108884000A60013BDBB2FF2B026802D100201071A9
:1088940010BD11684C1C14600B70F2E70E2010BD63
:1088A40037B5054602A8002400F8014DFEF76EFD19
:1088B4002A686B68116899420ED9481E106011F835
:1088C400014CEB68298A01FB0434AB6811791B1A4B
:1088D400DBB2994238BF13719DF80700FEF77AFDA9
:1088E400204603B030BD37B5054602A8002300F882
:1088F400013D0C46FEF74AFD2A681368591C1160B5
:10890400E968641A298AB4FBF1F41C709DF8070025
:10891400FEF760FD03B030BD826810B504462AB18D
:1089240043690168006998470023A36010BD0EB431
:1089340003B5039929B102AA04AB42F8043D00F03F
:1089440075F802B05DF804EB03B070470A2938B536
:1089540004460D4602D10D21FFF7F8FFA3682268F3
:10896400591CA160D554A26863689A4204D3204676
:10897400BDE83840FFF7D0BF38BD00002DE9F84FFF
:108984000A9C99460B9B1746824688460A4601264E
:10899400BA420FD24E4538BF4E4613F0010B01D1F7
:1089A40064B900240125B9F1010F1AD909F1FF397D
:1089B4007D43F8E7B2FBF7F20136E9E79B070ED5F2
:1089C400B9F1000F0CBF30252025A642EAD2013CA4
:1089D40029465046FFF7BAFF002CF6D1E1E72025DF
:1089E400F3E7B8FBF5F39F42E2D9DFF83C90B8FB1C
:1089F400F5F3504619F8031005FB1388FFF7A6FF9B
:108A0400B5FBF7F5002DF2D1BBF1000F0AD03CB94C
:108A1400BDE8F88F013C20215046FFF797FF0CB1C9
:108A2400A642F7D3BDE8F88F900D03002DE9F74F68
:108A3400054617460C46002900F0358114F8011B41
:108A440049B92B7B002B00F02E81284603B0BDE8EA
:108A5400F04FFFF761BF252940F02181234600260E
:108A6400194611F8012B2D2A24D0302A26D02B2A7E
:108A740027D000242A2A994603F1010124D13B6816
:108A84001A1D1B683A601C44894699F800302E2B45
:108A940025D109F101014FF00008894611F8012B95
:108AA400A2F1300009281CD80A2303FB0823A3F1F0
:108AB4003008F2E746F001060B46D1E746F002061D
:108AC400FAE746F00406F7E71A780B46A2F13001FC
:108AD4000929DAD80A2101FB0424303CCAE74FF003
:108AE400000899F8001001F0FB02682A02D119F875
:108AF400011FF8E769290FD04BD8582965D007D84A
:108B040025296ED009F101042378002B96D198E72A
:108B1400632962D06429F5D13A68D2F800A0111D06
:108B24008AEAEA723960A2EBEA724FF0010B092A71
:108B34005BDCC34538BFC3462CB1BAF1000F01DB7F
:108B4400710700D5013CB20702D5B8F1000F04D07B
:108B5400F30702D4002C4ED10024BAF1000F52DAEC
:108B6400CAF1000A2D212846FFF7F0FE06F00302A1
:108B7400022A05D1B8F1000F02D1002C47D10024FC
:108B84008DE8500043460A2251462846FFF7F6FE78
:108B9400B8E773294CD014D87029B3D13B681A1D97
:108BA4003A60302128461C68FFF7D0FE7821284619
:108BB400FFF7CCFE002301930823009310222146E3
:108BC400E3E775292BD078299CD139680A1D3A60CE
:108BD40043468DE85000102228E03B681A1D19789E
:108BE4003A602846FFF7B2FE8CE70A230BF1010B2B
:108BF40092FBF3F29BE7A345AFD220212846013C28
:108C0400FFF7A4FEA6E77007B0D52B21ABE7A34579
:108C1400B6D230212846013CFFF798FEADE739680B
:108C24000A1D3A608DE8500043460A220968ACE701
:108C34003B681A1D3A60F107D3F800A012D55646D6
:108C4400A6EB0A0B16F8011B41B95C457FF65AAF37
:108C540020212846013CFFF779FEF6E72846FFF776
:108C640075FEEDE7BAF1000F11D0504607F024FB72
:108C74000646B44200D964B90AF1FF3A1AF8011F52
:108C840000293FF43FAF2846FFF760FEF6E756465B
:108C9400EFE720212846013CFFF758FEE9E7284684
:108CA400FFF754FE30E703B0BDE8F08F07B50B467D
:108CB40088B9124B1248134AC01A0E23C0080093F5
:108CC400114B0004114940F00100FDF7ABFE0E20EA
:108CD40003B05DF804FB4BB9084B09480C4AC01AB1
:108CE400C0080E2300930004074BEBE703601B68E6
:108CF400114603B05DF804EB184700BFE00A030017
:108D0400500B03004D0E0300A00D0300520E030090
:108D1400C90E03002DE9F743DDF828C088B93E4B9E
:108D24003E483F4AC01AC0080E243E4B009400043B
:108D34003D4940F00100FDF775FE204603B0BDE853
:108D4400F0834AB9344B3548384AC01AC0080E2457
:108D540000040094334BEBE7D0F800E0BEF1000FC1
:108D640009D12D4B2D48324AC01AC00808240004EA
:108D740000942C4BDCE74BB9274B28482D4AC01AEA
:108D8400C008092400040094264BD1E74768D7F8AB
:108D94000490B3FBF9F709FB17374FB11E4B1F487B
:108DA400254AC01AC0080924000400941D4BBFE7DB
:108DB4008F0709D0184B1948204AC01AC00810243C
:108DC40000040094174BB3E712F0030F09D0124BC1
:108DD40012481B4AC01AC008102400040094114B06
:108DE400A6E7C768B9420DD34C1E05691C44AC42C2
:108DF40008D8CDF828C0DEF80C40A44603B0BDE87E
:108E0400F0436047044B05480E4AC01AC0081024BA
:108E140000040094034B8BE7E00A0300500B0300AB
:108E24004D0E0300B20D0300520E0300CF0E0300DB
:108E3400C30E0300820E0300D50E0300FF0E0300D1
:108E4400170F03003A0F0300F7B580B92A4B2B48DC
:108E54002B4AC01AC0080E242A4B009400042A4945
:108E640040F00100FDF7DEFD204603B0F0BDD0F870
:108E740000E0BEF1000F09D11F4B2048234AC01A5D
:108E8400C0080824000400941E4BE8E74AB91A4BB2
:108E94001A481F4AC01AC008092400040094194B38
:108EA400DDE74768D7F800C00CF1FF370F4209D05F
:108EB400114B1248174AC01AC00810240004009429
:108EC400104BCCE7C768B94205D34C1E05690CFBAF
:108ED4000244AC4209D9084B08480F4AC01AC008DA
:108EE400102400040094074BB9E7DEF81040A446B0
:108EF40003B0BDE8F0406047E00A0300500B0300F4
:108F04004D0E0300C50D0300520E0300C30E0300F3
:108F1400820E0300D80D0300FE0D030029DF704705
:108F240028DF704770B503689D6886B004460E4616
:108F34006DB118220021684607F068F9A36805930B
:108F4400237901962BB1012B0DD06846A84706B0B2
:108F540070BD01238DF8003023690293E368039305
:108F640063690493F1E702238DF80030E3681B037F
:108F74000293F5E70846704700207047024B187AC1
:108F8400003018BF01207047A82C0020034B187A2A
:108F94000122B0FA80F05A7440097047A82C0020CE
:108FA40008B510461A4607F007F9002008BD00006E
:108FB40008B514220021044807F028F90348FFF7F4
:108FC400F4FA002008BD00BFA82C0020982C002033
:108FD40010B5094C094B43602046FFF741FC40B9EA
:108FE40006F010FD1C2320748C2205490548FFF768
:108FF400C9FA002010BD00BFA82C0020700F030088
:109004000C2C0020982C002070B5244D244E2B7A73
:109014002C463BB923492448FFF723FB306008B9A9
:10902400686070BD0223237233681A7972B1012A11
:1090340024D018460321FFF775FF002323726360D1
:1090440018491948BDE87040FFF736BB98695A695A
:10905400D9681D69121AB2F5805F28BF4FF4805297
:109064009208012A014438BF01222844FFF756FF21
:1090740050B11128DDD10123237270BDD8681A695B
:109084001044FFF74DFFF3E7237C2BB90146BDE8FD
:109094007040022000F00AB870BD00BFA82C002068
:1090A400C02C0020BC2C0020982C002038B5831E36
:1090B400012B45D8234C237A002B41D0022B09D114
:1090C400032830D0204B1B680022E2601A793AB1A1
:1090D400012A22D0637C7BBBBDE83840FFF794BFF4
:1090E4009A6959698D1AB5F5805F94BF521902F5D2
:1090F40080529A619142EDD102284FF0000308BFDB
:1091040019462372104B18BF0D211868FFF70AFF88
:109114000E490F48FFF7D0FADCE71A6901321A61E9
:109124005B699A42E7E7E3680133082B01D8E360FF
:10913400D0E70023E360DFE7BDE8384006F052BC27
:1091440038BD00BFA82C0020C02C0020BC2C00205F
:10915400982C002000F0FD03012B08D1044B0022C1
:109164005A74421E504250411874FFF74DBF704765
:10917400A82C002010B5064C201DFFF771FB28B960
:10918400637C1BB9BDE81040FFF73EBF10BD00BFB4
:10919400A82C00202DE9F34180460D460F4801A973
:1091A40016461F46FFF723FA0446A8B11C220021E5
:1091B40007F02CF82D0B0123237101A9C4F80080BA
:1091C400A760E56066610548FFF73BFAFFF7D2FF49
:1091D400002002B0BDE8F0810420FAE7982C0020BA
:1091E4002DE9F74381468846104801A917461E46D3
:1091F400FFF7FDF90446B8B11C22002107F006F878
:1092040000250A9BA36001A92571C4F80090C4F845
:109214001080E76066610548FFF713FAFFF7AAFFBD
:10922400284603B0BDE8F0830420FAE7982C002018
:109234002DE9F047B0F806804479D2F800909DF803
:10924400207008FB04F4043C03EB090E744538BF9A
:10925400A4EB03090E46191DC2F80090B1FBF8F502
:10926400044608FB15114DB9A8EB010ACA4528BFED
:10927400CA46B9F1000F04D1BDE8F0872468013D66
:10928400F1E704317019631852466FB11946A9EB1E
:109294000A0906F091FFC84555442468C2464FF0B8
:1092A400000128BFCA46E4E701461846EFE7FFF786
:1092B400E0BAF8B546790446721E00239342246846
:1092C40004D301460025B54202D3F8BD0133F5E7C6
:1092D4000F682046FFF707FB01353946F3E72DE910
:1092E400F843078ACD1C8046FFF7DAFA043F3D4471
:1092F4000446B5FBF7F5002650B10123EDB2067123
:109304004371C780013DC0F800808146AE4202D35C
:109314002046BDE8F8834046FFF7C2FA074648B145
:109324006379013363710136C9F80000C0F8008025
:109334008146EBE72046FFF7BCFF3846BDE8F883DB
:1093440001210430FFF772BA10B50121044604303C
:10935400FFF779FA10F0FF0F04D12046BDE8104062
:10936400FFF7A7BF10BD1FB504AC44F8042D0022BD
:1093740000922246FFF75CFF04B010BD1FB504AC99
:1093840044F8042D012200922246FFF751FF04B055
:1093940010BD41DF70470000064B10B500241C705F
:1093A400054B1C60BFF35F8F0449054800F039F892
:1093B400204610BDCC2C0020D02C00209C0F030094
:1093C400C42C002007B502A8002300F8013DFDF7D6
:1093D400DDFFF1EE103A23F09F03E1EE103ABFF304
:1093E4005F8F0A4B4022C3F884219DF80700FDF7E4
:1093F400F1FF06F007FB20B1FFF7CBFF03B05DF8E8
:1094040004FB20BF40BF20BFF8E700BF00E100E03D
:10941400836800225A609A601A615A61DA601A609D
:1094240070470B684A684360934208BF0023016099
:1094340008BF43607047436843B10268916852684B
:109444000B449342436004BF00234360704770B5EC
:10945400446806460D46206818B1B3682946984703
:1094640018B923682B60256070BD2468F3E743684E
:10947400186808B102681A60704743681868704732
:109484004368186800B97047884203D102681A60BB
:109494000120704703460068F4E700000D4930B529
:1094A400A1F594720225914201D8002030BD8B1A97
:1094B400DB1093FBF5F302EBC30452F83330834221
:1094C40005D802D204F10802EDE7606830BD2146F8
:1094D400E9E700BFF810030008B5FFF7DFFF024B10
:1094E400002808BF184608BDBA0F030002681368B5
:1094F4005268934291BFD01A80680130801888BFA7
:10950400C01A7047036881681A685B688B4234BF6D
:1095140001330023D31A584258417047F7B5044623
:1095240002A8002300F8013D0D46FDF72FFF204659
:10953400FFF7E8FF10B1237C002B3CD12268A6681A
:1095440053685168B14234BF01310021516030B1D8
:109554001168A068814234BF013100211160E268C2
:109564006068511E072920D8DFE801F004101F1499
:109574001F1F1F182A78C2542046FFF7B7FF23681D
:109584009A68904200D99860002415E02A8820F84F
:109594001320F1E72A6840F82320EDE7D5E90067B6
:1095A40000EBC300C0E90067E6E7294602FB0300BD
:1095B40006F002FEE0E704249DF80700FDF70AFF29
:1095C400204603B0F0BD37B5054602A8002400F8D4
:1095D400014DFDF7DBFE0C222146286806F016FE3D
:1095E4009DF80700FDF7F6FE03B030BD0368186868
:1095F4005B68C31A58425841704773B5054602A8C0
:10960400002300F8013D0C461646FDF7BFFE284630
:10961400FFF7ECFF002832D129680B682EB90A68DD
:10962400A868824238BF561C0E60EA686968501EFA
:1096340007281ED8DFE800F0040E1D121D1D1D169C
:10964400CB5C237000249DF80700FDF7C3FE204681
:1096540002B070BD31F813302380F3E751F82330A2
:109664002360EFE701EBC301D1E90023C4E9002340
:10967400E8E702FB0311204606F09EFDE2E705241D
:10968400E1E70000074B1B78062B09D1064B1B684A
:10969400C3F30313033B032B02D8044AD05C704783
:1096A40000207047E00F00F0E80F00F0B214030050
:1096B400044B1868421C04BF034B1878831F58429C
:1096C4005841704730010010E00F00F008B5FFF773
:1096D400EFFF28B1824B834A1B68C3F30423136052
:1096E400FFF7D0FF10B1804B804A1A60FFF7E0FF0C
:1096F40028B17F4B7F4A1B68C3F342331360FFF7E3
:10970400C1FF20B17C4AD36823F08073D360FFF794
:10971400CFFF40B14FF080430022C3F80C21C3F8BF
:109724001021C3F83825FFF7ADFF10B1734B0322A6
:109734001A60FFF7A7FF40B1714B05221A6001229E
:109744009A6700229A603F225A606E4B1A68511C35
:109754000BBF6D4B6D4B1A781B6802BF08331B6837
:10976400C3F30313062A4DD1033B032B03D8684AE2
:10977400D35C002B46D04FF08052664BD2F80414D1
:10978400C3F82015D2F80814C3F82415D2F80C1421
:10979400C3F82815D2F81014C3F82C15D2F81414F1
:1097A400C3F83015D2F81814C3F83415D2F81C14C1
:1097B400C3F84015D2F82014C3F84415D2F8241481
:1097C400C3F84815D2F82814C3F84C15D2F82C1451
:1097D400C3F85015D2F83014C3F85415D2F8341421
:1097E400C3F86015D2F83814C3F86415D2F83C14E1
:1097F400C3F86815D2F84014C3F86C15D2F84424A1
:10980400C3F87025FFF754FF28B1434B434A1B6844
:1098140003F04F031360FFF74BFF48B14FF0804351
:10982400D3F80024D20744BF6FF00102C3F8002428
:10983400344B1B68062B04D1344B1B68033B022BAF
:1098440048D8374AD2F8883043F47003C2F88830D5
:10985400BFF34F8FBFF36F8F4FF01023D3F8002265
:10986400002A03DBD3F80432002B2FDA2D4B01221C
:10987400C3F80425D3F80024002AFBD04FF01022AB
:109884001521C2F80012D3F80024002AFBD04FF0AF
:1098940010231522C3F80422224B1A46D3F80014CD
:1098A4000029FBD00021C3F80415D2F80034002BA2
:1098B400FBD0BFF34F8F1A491B4BCA6802F4E06216
:1098C4001343CB60BFF34F8F00BFFDE7174B184A1C
:1098D4001A6008BD174A136843F480631360B0E745
:1098E400240300104035014074C007400DF0ADBAA8
:1098F400440200103C050040F0ED00E0A0050040EB
:109904001056004030010010E00F00F03401001048
:10991400B614030000C0004058020010E40E0040DA
:1099240000ED00E000E001400400FA05842200207C
:109934000090D0033C170040054A4FF0A043105C50
:10994400D3F8043523FA00F0C04300F00100704757
:10995400BE140300044B1A5C012393404FF0A04251
:10996400C2F80C35704700BFBE140300044B1A5CE8
:10997400012393404FF0A042C2F80835704700BF5E
:10998400BE14030008B50020FFF7F0FF0120FFF725
:10999400EDFF0220FFF7EAFF0320BDE80840FFF7D0
:1099A400E5BF08B50020FFF7D5FF0120FFF7D2FF80
:1099B4000220FFF7CFFF0320BDE80840FFF7CABF2E
:1099C400074A4FF0A041105CD1F8043501228240CF
:1099D40022EA03001340C1F80805C1F80C357047AA
:1099E400BE140300054A4FF0A043105CD3F81035B1
:1099F40023FA00F0C04300F001007047BA140300DA
:109A0400152809D00E2809D00F2809D010280CBF1A
:109A140003204FF0FF30704700207047012070474B
:109A240002207047014B185C704700BFBA14030052
:109A3400C20708B501460CD54FF0A0430322C3F872
:109A44004427C3F84827C3F84C27C3F85027FFF727
:109A540099FF8B070AD54FF0A0430C22C3F8542773
:109A6400C3F83827C3F83C27C3F8402708BD0000D3
:109A740038B5084C04F108030546002818BF1C46F5
:109A840023682BB11A6822605B6828469847F7E779
:109A940038BD00BFDC2C002020B9054B01225A70D0
:109AA400FFF7E6BF012802D1014A9070F8E770473A
:109AB400D42C002020B9034B01225A70FFF7D8BFE1
:109AC400704700BFD42C002038B50E4C2378B3B9AE
:109AD4000D486360A3602361E36000F071F80546FC
:109AE40005F090FF08B900F079F801232370074BC3
:109AF400D3F800340BB10123A370284638BD852563
:109B0400F5E700BFD42C00209D9A0200000001401C
:109B140037B502A800230B4C00F8013DFDF736FCD5
:109B2400E368013BE360E36833B9074BD3F80054BF
:109B340015B900F065F8A5709DF80700FDF74AFC1B
:109B440003B030BDD42C002000000140012813B51F
:109B54000DD003D303281FD002B010BD114B012236
:109B6400C3F88020BFF34F8FBFF36F8FF4E702A8D1
:109B740000230D4C00F8013DFDF708FC23780BB9D8
:109B8400FFF7A2FFE3689DF807000133E3600123B8
:109B9400A370FDF71FFCDFE700F020F8FFF7B8FF24
:109BA400DAE700BF00E100E0D42C002000F180409F
:109BB4000023036082B003680193019B02B07047E5
:109BC400054A13792BB9012110601171537118469C
:109BD40070478520704700BFE82C0020074B1A68A7
:109BE400D20704D4C02283F8002301221A604FF064
:109BF40080430122C3F81825704700BF00E100E04C
:109C04004FF0804208B50223C2F808334FF4827043
:109C1400FFF7CCFF034B01211960D2F81834DB03A2
:109C2400FBD408BD0C000040124B1B6810B573B187
:109C34004FF48070FFF7BAFF4FF080430122C3F85E
:109C440008230D4B587910B95A711B6898470B4B70
:109C54001B6873B14FF48270FFF7A8FF4FF0804385
:109C64000222C3F80823044B01201B68BDE81040FE
:109C7400184710BD00010040E82C002004010040FA
:109C840000F1804000F5C040002382B00360036807
:109C94000193019B02B07047800000F1A040D0F80E
:109CA400003723F44033C0F80037D0F8003743EAD4
:109CB4000141C0F800177047054B4FF0FF320728E9
:109CC40043F8202084BF1B1883F84820704700BF46
:109CD400F02C002010B51A4C94F858306BBB4FF0A0
:109CE400FF3222FA03F1C90748BFE11803F1010367
:109CF40048BF81F83020202BF3D10021C8B2FFF7F0
:109D0400DBFF01310C29F9D1042200210D4806F0B2
:109D14007DFA0D4BC02283F8062340221A604FF4CB
:109D2400BE70FFF7ADFF094B4FF00042C3F80423A8
:109D3400012384F85830002010BD082010BD00BF56
:109D4400F02C0020442D002000E100E000600040E1
:109D5400034B93F85800003018BF0120704700BF30
:109D6400F02C0020F0B5374D2B1893F93030002B30
:109D740065DA8E78C6F34006002E0BBF0823002355
:109D84000C240824A34201D10420F0BD55F823700B
:109D9400013740D12F185CB287F8304045F82320B2
:109DA40016B92B4483F848008B785A0713D4DE077E
:109DB40033D5830003F1A043D3F8002722F0020235
:109DC400C3F80027204EC20800F007070123BB4058
:109DD400B75C3B43B3548B780A7813F0020325D065
:109DE400A30003F1804303F5C0430002D3F8101528
:109DF40021F4473121F44071C3F810151204D3F84B
:109E0400101500F4F85002F4403210430843C3F82C
:109E140010050020F0BD0133B4E74A7800F5E07383
:109E24004FF0A046920046F82320CBE7083C2C4490
:109E340094F8500040EA821284F85020E9E70820A0
:109E4400F0BD00BFF02C0020442D002038B5204C7C
:109E5400251895F93020072A18DD224492F8483055
:109E64009B09032B0DD14FF0A043D3F81035C34009
:109E740013F0010F0CBF02210321BDE83840FFF7A6
:109E84000BBF012B14BF03210221F6E7D3B2072B2A
:109E94001CD8930003F1804303F5C043D3F81005A5
:109EA40040F00100C3F8100502F14000800080B2C8
:109EB400FFF7E6FE51B195F9303054F823302BB159
:109EC400012303FA02F2034BC3F8042338BD00BF95
:109ED400F02C0020006000404FF0A043D3F8103570
:109EE40023FA00F000F00100704700002DE9F34769
:109EF4004C4A4D4E4D4D002401940121A2F5C04021
:109F040052F8043B012B80B206D1D6F804330B423D
:109F140002D0FFF7B5FE0C43AA424FEA4101EDD14E
:109F2400434B1B68012B0CD14FF4BE70FFF7A8FE06
:109F34004FF0A04344F00044D3F820250192C3F825
:109F4400202514F0FF0F4DD1002C48DA394E4FF084
:109F5400A04937464FF0000A4FF0010806EB0A0308
:109F640093F95020531C2ED0D2B222F0C00402AB7D
:109F740003EBD40313F8041C02F0070308FA03F3F9
:109F8400194220D004F5E073204659F82350C5F354
:109F94000145022D0CBF032102219209FFF77CFE2B
:109FA40008FA04F3C9F820353B1993F9303057F80F
:109FB400233043B1032A03D0022D2FD1012A02D129
:109FC4001146204698470AF1010ABAF1040FC5D197
:109FD400D9F820350193C9F82035002BBAD102B045
:109FE400BDE8F087134F01260025344210D0AB00A2
:109FF40003F1804303F5C043D3F81005D3F81015DB
:10A0040057F8253023B1C1F30141C0F30420984728
:10A014000135082D4FEA4606E7D195E7032DD2D145
:10A02400022ACCE70061004000600040206100404B
:10A034007C610040F02C0020014B1B68184700BFD6
:10A044004C2D00200023435082B043580193019BC0
:10A0540002B0704738B51D4602230B710B684A7174
:10A0640004467BB112F0040F0CBF82219221100729
:10A0740048BF41F02001D306236848BF21F0800186
:10A08400C3F8001320684FF48271FFF7DBFF2068E8
:10A0940012F0800F09BF012340194351002038BD3D
:10A0A4002DE9F04390F80490464C4FEAC905631932
:10A0B4000F46197985B0804601F0FF0300297FD14E
:10A0C40044F839204FF0FF3E01264FF0A0414FF0F5
:10A0D400030CF85CFF286AD020F080024DF823209E
:10A0E40010F0800F06FA02F002F5E07214BFC1F816
:10A0F4000805C1F80C0541F822C00133042BE8D14E
:10A10400D8F80000009BC0F86035019BC0F86435A6
:10A11400029BC0F86835039BC0F86C35BA793B895B
:10A1240079790126C0F80065C0F80C15C0F804253B
:10A13400C0F808357B89C0F810350023C0F8003218
:10A144004FF48E71C0F80033FFF77CFF4FF4887131
:10A15400D8F80000FFF776FF4FF48A71D8F80000B2
:10A16400FFF770FF4FF48271D8F80000FFF76AFF21
:10A1740054F83930A3B1D8F800303A791B0B59B2EE
:10A1840000294FEA421215DB0F484718D2B287F86C
:10A194000023490903F01F0306FA03F340F82130B2
:10A1A4002C4401232371002005B0BDE8F0834DF851
:10A1B40023E0A2E703F00F030449D2B2CA54EFE745
:10A1C4000820F1E7542D002000E100E014ED00E048
:10A1D400F0B50D461C461B490379D5F800E0AF885D
:10A1E400AE68ED6801EBC3010368C3F820E5C3F86A
:10A1F4002475C3F82865C3F82C55C3F840E5C3F8A3
:10A204004475C3F84865C3F84C5502F0010505EBE5
:10A214005202C3F81425E20711D414F0020203D049
:10A22400002D14BF08220422002DC3F80022E2B23C
:10A2340014BF0C230823BDE8F040FFF70BBF102226
:10A24400F2E700BF542D00200379084A016802EBAD
:10A25400C3021379D1F80411DBB219B9981E18BFDF
:10A264000120704701201071704700BF542D002059
:10A2740038B503680022C3F8002201225A6005465B
:10A284000C46FFF7E1FF10B10124204638BD2846F3
:10A29400FFF7DAFF0028F7D1002CF8D1F5E700002A
:10A2A4002148D0F8103110B55BB14FF48871FFF735
:10A2B400C9FE1E4B5A79510703D51B680BB1012007
:10A2C40098471948D0F814315BB14FF48A71FFF7FD
:10A2D400B9FE164B5A79120703D51B680BB102203D
:10A2E40098471148D0F81C315BB14FF48E71FFF7D9
:10A2F400A9FE0E4B587910F0100002D11B6803B16F
:10A3040098470948D0F8043163B14FF48271FFF7DC
:10A3140099FE064B01221A711B681BB10320BDE88C
:10A324001040184710BD00BF00C00140542D00204C
:10A334000023435082B043580193019B02B07047FD
:10A344000B7B032B13D8DFE803F01C2014028B686B
:10A354005A0304D5D0F84C350A699A4218D18B684F
:10A364005B0304D4D0F84C354A699A4210D10120D9
:10A374007047D0F84C350A699A4209D1D0F83C3577
:10A38400F2E7D0F84C350A69EFE7D0F83C35FAE744
:10A3940000230622C0F80035C0F80025184670478F
:10A3A400F0B55B4A5B4CD2F8243187B01546FBB15B
:10A3B4004FF492711046FFF7BBFFD2F80431BBB9DA
:10A3C400A368C2F808330223A360A368C2F8043365
:10A3D400D2F860311BB1D2F800329F0503D44C4B44
:10A3E40001221A625A61012384F82E3007B0F0BDAD
:10A3F400D5F80431002B52D04FF482714448FFF752
:10A4040097FF236A5E060AD494F82E303BB941497B
:10A414003F48FFF795FF80F0010084F82E00236A7F
:10A424005D0721D43C4E0FCE01AD0FC533683848CB
:10A434002B604FF4B071FFF77BFF4FF4AE713448DB
:10A44400FFF776FF94F8303013B194F82E305BB1F7
:10A454002F4B0022C3F80022A260304AC3F808231D
:10A464002F4B0822C3F88021294AD2F8C434C2F8F9
:10A47400C43498073DD501238DF8003094F830306A
:10A484000BB984F82F30236A5B0703D594F82E3078
:10A49400002BABD02368616868469847A6E74FF461
:10A4A400A4711B48FFF744FF237B83B91A4F0FCFD6
:10A4B40001AE0FC63B68336094F83030002BD3D123
:10A4C400C5F80032A360154BC5F80833C8E74FF44C
:10A4D4000073C5F8003240F20223A36003F1CE7387
:10A4E400C5F80833A368C5F804330123AB602B62B5
:10A4F4007CE7590701D50223BEE7DA0701D5032318
:10A50400BAE794F82E30002BB6D00423B4E700BF8A
:10A51400003000405C2D0020682D002002029C01C8
:10A5240000E100E02DE9F347002406460F4690467B
:10A534004FF4A0754FF48039A246444502D102B0CD
:10A54400BDE8F0877259731972B1D6F8042309FA79
:10A5540004F1114208D0C3F800A01B680193019BC9
:10A5640079683B68A8B2984701340435E5E70000F0
:10A57400F7B50579304C0C266E43A7193B7A002BAE
:10A5840057D1A2514A687A604279503292004FF40E
:10A59400A0761F46B24203683BD11B0B5EB2CA7859
:10A5A400002E4FEA42123EDB244F07EB060ED2B2D6
:10A5B4008EF800230122760903F01F0302FA03F345
:10A5C40047F8263003684A78D3F8040502F00302FA
:10A5D40020F003000243C3F80425D3F808058A7861
:10A5E40020F0030002F003020243C3F80825D3F865
:10A5F40010050A7820F00F0102F00F020A43C3F895
:10A6040010250C2303FB054401232372002003B00F
:10A61400F0BD1FFA86FE043643F80E7053F80E3070
:10A624000193019BB6E703F00F03054ED2B2F25437
:10A63400C8E70820EBE700BF902D002000E100E010
:10A6440014ED00E0036801221A600379034A0C2127
:10A6540001FB032302221A72704700BF902D0020D1
:10A664000368044901221A6103790C2000FB0313D7
:10A674001A727047902D002037B54FF480348C4007
:10A6840000687BB18B0003F5A0730025C550C35847
:10A694000193019BC0F8044301F5A87140F82120FF
:10A6A40003B030BDC0F80843F6E7F0B404689DF881
:10A6B4001070D4F8005240F201168E4025EA0605C7
:10A6C400C4F80052D4F800522B43C4F800323B467D
:10A6D400F0BCFFF7D1BF0000042202490248FFF793
:10A6E40021BF00BF902D00200080004004220249B9
:10A6F4000248FFF717BF00BF9C2D002000900040C8
:10A70400042202490248FFF70DBF00BFA82D002014
:10A7140000A00040062202490248FFF703BF00BF21
:10A72400B42D002000A00140062202490248FFF790
:10A73400F9BE00BFC02D002000B001400220FFF789
:10A744003FB9000008B5094B1B7853B10020FFF74F
:10A754000DF90120FFF70AF90320BDE80840FFF7CF
:10A7640005B9BDE80840FFF70DB900BFCD2D0020A5
:10A77400F8B5784C237805461BB100232370FFF706
:10A78400E1FF172D00F28780DFE805F00C1717436F
:10A794005464757F878C878C949898989898C2C6CF
:10A7A400CDD4DEDEFFF7CEFF6B48FCF71CFD6B4B10
:10A7B400002204461A702046F8BD0020FFF7BCF8BA
:10A7C400F8B10020FFF7D2F8022D0CBF4FF4E1617D
:10A7D4004FF47A61614B1D704FF400404FF47A746A
:10A7E4000025E0FB01454FF4FA6200232046294688
:10A7F40005F088FB002201465748BDE8F840FCF705
:10A80400DABCFFF7A7F8022D0CBFC8214FF4C871BA
:10A81400E0E70020FFF790F840B10020FFF7A6F82A
:10A824004FF4487103224D4B1A70D5E7FFF792F8A5
:10A83400C821F7E70020FFF77FF830B10020FFF7C9
:10A8440095F84FF47A610422EDE7FFF783F84FF4AB
:10A85400C871F8E70020FFF76FF848B10020FFF750
:10A8640085F83E4B05221A7040F6CD410022C3E71D
:10A87400FFF770F8F5E70020FFF7A2F8374B062240
:10A884001A70002240F26661B6E70020FFF762F812
:10A894000722324B1A7000248DE701202070FFF745
:10A8A4008FF8EEE701202070FFF78AF800224FF4BA
:10A8B4000051A1E7FFF775F80C22EAE72848294E72
:10A8C400FCF791FCD5F1110504461CD0D8B9012D33
:10A8D40013D0C8235D434FF47A7000214FF400472E
:10A8E4004FF4FA620023C7FB050105F00BFB224677
:10A8F40001461B48FCF75FFC04460220FFF72AF8D8
:10A904000123337057E70220FFF730F80023F8E7FC
:10A91400FFF718FF1222BCE7FFF714FF0020FFF730
:10A9240019F81322B5E7FFF70DFF0120FFF712F81E
:10A934001422AEE7FFF706FF0020FFF70BF8012013
:10A94400FFF708F81522A4E7FFF72BF8034B1D7057
:10A95400A1E700BF402E0020102E0020482E00202A
:10A96400D02D0020CD2D00202DE9F04781460D4645
:10A97400FFF746F80328044631D8012D04D022D32A
:10A98400022D2ED0BDE8F087194D47003A18A918BA
:10A99400AE5C4A7852B1DFF86880164842464FF4FC
:10A9A4008041FCF708FC08B988F800903B192B4457
:10A9B4009A78114B1A5596B1104B1B687BB13046EF
:10A9C400BDE8F04718470B48FCF70DFC084B04EBB7
:10A9D400440213449E78084B1B5DB342EBD0BDE8A0
:10A9E400F087034B00EB40041C446678E3E700BFA8
:10A9F400302E0020F02D0020492E0020442E00206F
:10AA0400CC2D002002210078FFF7AEBF044B1B6859
:10AA1400DB0703D5034B1878FFF7AABE704700BFC6
:10AA24003C2E0020482E0020032801D8FEF7DABF70
:10AA340000207047044B1B6813F0010301D0FFF79B
:10AA440097BE1846704700BF3C2E002038B51C4BFB
:10AA540018601C4B10F00204054619601AD01A4BFA
:10AA64001A480E221A700F22DA7010229A711122DB
:10AA74005A72042140F23332FCF72CFA044648B9E6
:10AA8400FCF780FA044628B90146114A1148FCF73C
:10AA940087FB0446EB0711D50120FEF7C9FF6CB90B
:10AAA40021460D4A0D48FCF77BFB044630B90C4A9D
:10AAB4000C480121BDE83840FCF772BB204638BD84
:10AAC4003C2E0020442E0020302E0020F8140300D9
:10AAD40009AA02001C15030011AA02002015030094
:10AAE40041A7020018150300032812D8012A0BD12C
:10AAF400012908D100F10E02D2B200EB40000C4B48
:10AB04001A540020704700220129F6D009D30229E3
:10AB140001D007207047064B00EB400018444270F8
:10AB2400EFE7034B00EB400018448270E9E700BFF5
:10AB3400302E0020032808B512D8FEF773FF8000DA
:10AB440000F1A040D0F8003723F44033C0F80037B8
:10AB5400D0F8003743F44033C0F80037002008BD74
:10AB6400062008BD08B5012202210020FFF7BCFF22
:10AB740008B1072810D1072202210120FFF7B4FFF2
:10AB840008B1072808D100210A220846FFF7ACFFC4
:10AB940010B1072808BF002008BD00000388102B4F
:10ABA40010B502D0112B1ED010BD194C2168B1B9BB
:10ABB40001220846FFF798FF08B1072821D1072290
:10ABC40002210120FFF790FF08B1072819D10422C0
:10ABD40002210020FFF788FF08B1072811D123685C
:10ABE4000133236010BD0A4A1368013B136073B933
:10ABF400FFF7B8FF58B1074B1B6843B1BDE81040DD
:10AC04001847044B1B68002BE9D09847E7E710BDB1
:10AC1400542E0020502E002008B50020FFF78AFF94
:10AC240008B1062806D10120FFF784FF10B10628D9
:10AC340008BF002008BD00000D4B10B518600C467D
:10AC440029B10120FFF7F0FE40B102232370094B24
:10AC54001B6853B9BDE81040FFF784BFFFF7E4FE5B
:10AC640008B10B23F2E72070F1E7002010BD00BF0C
:10AC7400502E0020542E00206DDF704776DF704781
:10AC840078DF70477ADF70477CDF70478FDF70476B
:10AC940033DF7047FCF78CB908B50020FFF7CAFE14
:10ACA40008B1FCF785F9FFF7B7FF08B1FCF780F9A5
:10ACB400FFF7EEFF18B1BDE80840FCF779B908BD0D
:10ACC40008B503784BB9054B3B211888FFF7D6FF2D
:10ACD40018B1BDE80840FCF76BB908BD8C22002010
:10ACE400072808B513D00A280DD0042819D10D4B14
:10ACF40013211888FFF7C2FF30F0080311D0BDE814
:10AD04000840FCF755B9BDE80840FFF7C5BF054B3F
:10AD14001A884FF6FF739A4203D1034801F065F88D
:10AD2400EAE708BD8C220020742E002008B598B1F3
:10AD3400032815D10B4B0C480C49C01AC008000459
:10AD440040F00300FBF756FE0220FFF773FE38B114
:10AD5400BDE80840FCF72CB9BDE80840FFF79CBFEC
:10AD640008BD00BFE00A0300280B03009915030087
:10AD740073B50478054624B90B4EAA89A3B29A4246
:10AD840001D802B070BDA3B2AA680748D35C8DF89D
:10AD94000730FEF7B7FB20B90DF107013046FEF787
:10ADA400BDFB0134E9E700BFB80A030008B503217D
:10ADB400044800F0DAFE18B1BDE80840FCF7F8B822
:10ADC40008BD00BF742E002010B5044603F05EFEDB
:10ADD400204603F041FC23780C2B03D1BDE810403E
:10ADE400FFF7E4BF10BDFCF7E3B80000094A0023F5
:10ADF4001360094A1360094B4FF07E521A60084BE6
:10AE0400084A1A60084B094A1A60094B094A1A6031
:10AE1400704700BF702E0020F4B20020582E00208E
:10AE24005C2E0020D7347FBF602E002024977F3F04
:10AE3400642E002024977FBF154B164A93ED007AA9
:10AE4400154B07EE900AF8EEE76AD3ED007A134B40
:10AE540087EE876AD3ED007A114B93ED005A114BBC
:10AE6400C7EE875AC5EE077A92ED007AC2ED006A02
:10AE740067EE877A93ED007AE5EEA67AE6EE477AF6
:10AE8400C3ED007AFDEEE77A17EE900A704700BF33
:10AE9400582E0020702E00205C2E0020602E0020F2
:10AEA400642E0020F4B2002070B5254D254C2B787B
:10AEB40083B3254B2549187800F00F0004F0C4FF34
:10AEC400FFF7BAFF002320602B7020684FF0A043E7
:10AED40000284FF480124FF08051ABBFC3F808250F
:10AEE400C3F80815C3F80C15C3F80C2505F0F5F8DC
:10AEF400C0F5C87080B2B0F5C87F154B154928BF9E
:10AF04004FF4C8701880012202231348BDE8704032
:10AF1400FFF75EB91148FEF769FB02460028D4D159
:10AF2400094E0E483146FEF768FB307807490009A0
:10AF340004F08AFFFFF780FF01232060C4E700BF0D
:10AF4400692E002000B30020682E0020F8B20020F3
:10AF5400ECB200204C15030090220020B80A030034
:10AF6400024B00221A805A60704700BFF8B20020DA
:10AF74000388212B13B504464DD005D8102B1ED0C1
:10AF8400112B0AD002B010BD3B2B01D0562BF9D1A6
:10AF94001321A088FFF772FE46E0264B2648274976
:10AFA400C01AC008000440F00300FBF723FD244846
:10AFB400FFF756FB00212348FFF75AF9E2E71D4B40
:10AFC4001D482149C01AC008000440F00300FBF7E3
:10AFD40011FD0720FFF72EFD08B1FBF7E9FF1B4B1E
:10AFE400A1881B48198002F01FFA08B1FBF7E0FFA3
:10AFF400FFF7B6FF1748FEF7E6FA174A1048002392
:10B004001360164A1360164A00231360154A13602E
:10B01400FFF718FBB6E7002301A980888DF80430F8
:10B024008DF80530FFF732FE0028ABD0FBF7C0FFE8
:10B03400A8E700BFE00A0300280B03003015030053
:10B044005C150300902200203E1503008C22002092
:10B05400E0B20020B80A030000B300206C2E0020E8
:10B06400702E0020F4B2002000B54FF48041B7B038
:10B074000020FBF717FB08B1FBF79AFFFBF74AFA2E
:10B08400B54A106851680BAB03C39068186000227E
:10B094000BA9B248FFF704F808B1FBF789FFB04BDE
:10B0A40000244FF4C8721A805C809C80DC804FF0CE
:10B0B400A0430322C3F81027C3F85027C3F870270E
:10B0C4001022C3F80825FCF739F808B1FBF770FF24
:10B0D4000623A44AA4488DF82C400BA98DF82D40D2
:10B0E4008DF82E408DF82F300C94FFF741FA08B1FB
:10B0F400FBF75EFF9D4BD3F810254FF47A50D2B284
:10B10400002104F0EBFE012302460021964800933F
:10B11400FFF7CBFA96490320FFF798FC08B1FBF739
:10B1240047FF0BA90020FFF787FD08B1FBF740FF9D
:10B134009DF82C50FEF730F908B1FBF739FF04F005
:10B14400E5FB08B1FBF734FF00230BA901200B93A7
:10B1540004F0A2FC08B1FBF72BFF0BA804F04EFD92
:10B1640008B1FBF725FF9DF80C30012262F30303BD
:10B1740062F307137F4A8DF80C3010685168127A15
:10B1840008AB03C304A81A70FFF776FD70BB08AAC6
:10B1940079499DF811300BA804F0E8FF0BA805F0DD
:10B1A4008BF80BA982B203A8FFF76EFD08B1FBF779
:10B1B400FFFE0020FFF764FD08B1FBF7F9FE08224B
:10B1C400002106A805F022F82023ADF81830ADF8C8
:10B1D4001A300023ADF81C3006A84FF4C873ADF83C
:10B1E4001E30FFF74FFD08B1FBF7E2FE0021634874
:10B1F40002F00AF808B1FBF7DBFE614B61480893E3
:10B2040008A902F0FFF808B1FBF7D2FE00210422DE
:10B214000BA804F0FBFF5C4B5C480B930BA904F0F8
:10B2240083FD08B1FBF7C4FEAC2200210BA804F097
:10B23400EDFF02238DF82C3000238DF82E300523EA
:10B244008DF82F300123ADF878308DF8A8304FF405
:10B2540096732D9344F250634D4A2E930BA94D4B94
:10B264004D481F92349300F003FC08B1FBF7A0FE95
:10B274000121494800F0F9FB1C2200210BA804F02D
:10B28400C5FF00234FF4A0320B930C92ADF83A3073
:10B294004FF4F0228DF83C30404B0D921093032272
:10B2A4003F4B8DF838200BA8119300F0BDFE08B178
:10B2B400FBF77EFE02F094FE08B1FBF779FE05224F
:10B2C40000210BA804F0A2FF9DF82C3043F00103E9
:10B2D400032203F0F10362F306136FF3C7138DF82F
:10B2E4002C3007238DF82D3010238DF82E309DF847
:10B2F4002F3013438DF82F309DF830300BA81343B3
:10B304008DF8303002F006FF08B1FBF751FE2548F6
:10B3140002F0E8FE08B1FBF74BFE234A234C00235E
:10B324001360234A1360FFF761FD224B2249E41A9C
:10B33400E408240444F003042046FBF75BFBFFF716
:10B344000FFE022D49D11D492046FBF753FB02F0A5
:10B354000DFFB8B334E000BF241503009022002091
:10B36400ECB20020ADAE02005C150300009000407A
:10B37400E5AC02009015030064150300B8B2002088
:10B38400EBAD0200E0B2002075AD0200CCB20020AB
:10B394008822002031AD0200742E0020C5AC0200CA
:10B3A40099AC0200CDAD020000B30020280B0300CD
:10B3B4006C2E0020E00A03006915030083150300C6
:10B3C400FBF7F6FDFBF7BEF90028FBD1FBF7BAF952
:10B3D4000028FBD1FDF7F6FFF8E7FFF7E7FCF1E7FC
:10B3E4000369C1688B429DBF8268D21802F1FF32A3
:10B3F40003F1FF3394BF501A581A70472DE9F041F6
:10B40400C7688668F61B9642044688461546406817
:10B4140006D9384404F0D0FE3D44E560BDE8F0812F
:10B4240032463844AD1B04F0C7FE2A4608EB060139
:10B43400606804F0C1FEF0E72DE9F843C5680646EC
:10B44400894617464FF000083469B3687068A5420E
:10B4540028BFE418013C621B5C1BBC4228BF3C466D
:10B46400944228BF144649462844224604F0A4FEC8
:10B47400B36825449D4208BF00253F1BA044A14456
:10B48400F560E1D14046BDE8F883000010B5114CE9
:10B49400114AA261022323616361104BE361A26438
:10B4A4004FF400730E4A2362E26400231022A36265
:10B4B4006362E362A3656365E36522650949E01D90
:10B4C40004F0D8FE0849204604F0D4FE2023A371DA
:10B4D40010BD00BF04B30020AB1503008CB30020E3
:10B4E4007CB30020B4150300B8150300F8B5184C5C
:10B4F400182300FB033503FB00402544C46A012CD8
:10B504000F46164611D003D3022C1BD000240AE0A8
:10B514002846FFF765FFB04205D332463946284630
:10B52400FFF76CFF34462046F8BD2846FFF758FF66
:10B534008642344628BF0446224639462846FFF749
:10B544005DFFF0E72846BDE8F840FFF775BF00BF90
:10B5540004B30020FFF79ABF6DDF704779DF7047AF
:10B564007DDF704764DF70472DE9F74F0C9CBDF811
:10B5740034B02788002580468A4691462E46B8F87E
:10B58400002096420BDB35B12288013AD21B92B2DD
:10B59400FF2A39D8DA55002003B0BDE8F08FD8F877
:10B5A400042052F82600019000220DF1030101A8A5
:10B5B400FFF7D8FF0028EFD19DF803204A4521D199
:10B5C4002288002D14BF0020022002EB090101444F
:10B5D400594519DC3DB9013292B2228003F802A028
:10B5E40022880132228022880DF103011A4401A825
:10B5F400FFF7B8FF0028CFD121889DF803200A4423
:10B60400228001250136BAE70C20C5E72DE9F34174
:10B61400089CBDF8245017468DE8300002220646E7
:10B62400FFF7A2FF48B9102239463046099508941D
:10B6340002B0BDE8F041FFF797BF02B0BDE8F0816A
:10B644002DE9F04F00231788138090F82D3085B032
:10B6540006460D46144643B3082F4ED902A8FFF7F9
:10B664007BFF002840F0208113880822CA542388D5
:10B6740001339BB21B222380CA542088013080B23C
:10B68400208006220DF10901284404F095FD238849
:10B694009DF8082006339BB212F0FE0218BF012267
:10B6A4002380EA54238801332380B378FBB12388B1
:10B6B4000433BB4221D802A8FFF750FF002840F012
:10B6C400F38023880322EA54238801339BB219228E
:10B6D4002380EA542388BDF8082001339BB2E9187B
:10B6E4002380EA54120A4A70238802332380F278B2
:10B6F400AAB12388D91CB94201D90C20D4E0022173
:10B70400E954238801339BB201212380E95423881F
:10B714000B449BB22380EA5423880B442380726831
:10B72400AAB12388D91CB942E7D8022192F9002092
:10B73400E954238801339BB20A212380E9542388E6
:10B7440001339BB22380EA54238801332380338955
:10B75400002B40F09D80338A5BB18DE890002B462E
:10B764000722032106F11000FFF750FF002840F0E4
:10B774009B80338B5BB18DE890002B4615221421FE
:10B7840006F11800FFF742FF002840F08D80326A6E
:10B79400002A40F08C80D6F82480B8F1000F2ED017
:10B7A400B8F804302188981C8A1C0244BA42A4D8F0
:10B7B400FE28A2D803336B54238801339BB2FF22A3
:10B7C4002380EA54238801339BB22380B8F80020F5
:10B7D400EA54E918120A4A702088023080B22080A4
:10B7E400B8F804205AB1D8F80810002969D02844C0
:10B7F40004F0E2FC2388B8F804201344238096F86C
:10B804002C30002B40F09880307800284CD03388BE
:10B81400012B56D021888A1CBA423FF66EAF01280C
:10B8240005D1737802330B449F42FFF466AF023FA5
:10B834007F1A04A9BFB221F8087DA818FFF790FE6B
:10B8440090BB3378BDF80820022B02D07178914266
:10B8540002D3BA4240F2B680012B40F0B080737834
:10B864009F42C0F0AC80ADF808300821BDF8083024
:10B87400FE2B3FF642AF22880133AB5422880132BB
:10B8840092B22280A95422881344238000200BE022
:10B894008DE890002B460622022106F10800FFF7EE
:10B8A400B5FE00283FF457AF05B0BDE8F08FB4F8FB
:10B8B40000E00EF10603BB423FF61FAF11880529D5
:10B8C40001D80720F0E76FF4486C01EB0C039BB23E
:10B8D4004FF27D3C6345F4D95388052BF1D96FF4BD
:10B8E4004860181880B26045EBD94FF6FF7081426A
:10B8F40003D0834201D09942E3D8052305F80E30E2
:10B90400238801339BB212212380E9542388013315
:10B914009BB223801188E954E818090A41702388EE
:10B9240002339BB223805288EA54E918120A4A70FF
:10B934002388023323802EE7B36A002BC1D04FF053
:10B9440000094FF00C0A4FF0160B96F82C305FFAF2
:10B9540089F293427FF658AFB16A0AFB02F201EB17
:10B964000208B8F80430981CFE283FF6C6AE2088BA
:10B9740003332B54238801339BB2238005F803B08F
:10B98400238801339BB223808A5AEA54E918120AA5
:10B994004A702088023080B22080B8F804205AB15E
:10B9A400D8F8081000298CD0284404F005FC23881A
:10B9B400B8F804201344238009F10109C5E7ADF860
:10B9C400087052E7092151E730B538B12AB1002493
:10B9D400651C8D4203DB8C420DD3002030BD1588DD
:10B9E400A54203D805196D789D42F4D0055D013553
:10B9F4002C44A4B2ECE7005D0028EFD0013880B2FB
:10BA04000028EBD00234A4B223189942E5DB148059
:10BA140030BD37B502AC002324F8023D134622465C
:10BA24000546FFF7D1FF10B1BDF80600284403B066
:10BA340030BD72DF704773DF704774DF704738B50D
:10BA4400012204460D46B0F81414D0F81004FFF790
:10BA5400E0FF00B1057004F13C0204F5826104F1D9
:10BA64005400BDE83840FFF7E4BF80F83010704759
:10BA7400F8B504460F4681B178B191F87A3013B124
:10BA840091F898303BB9D7F8A030042B03D0D7F8FD
:10BA94009C30042B03D10720F8BD0E20F8BD07F11C
:10BAA40078060FCE4FF0000E251D84F802E00FC576
:10BAB4000FCE0FC596E8070085E8070084F830E04C
:10BAC400D7F8A4306363D7F8A830A3634FF6FF75A3
