:100000000000012079030000610300006303000089
:1000100065030000670300006903000000000000A2
:100020000000000000000000000000006B03000062
:100030006D030000000000006F030000710300006A
:10004000E127000073030000752D0000254B000020
:100050007303000073030000712C000073030000A1
:1000600091510000A9510000C1510000730300002C
:1000700073030000730300007303000073030000A8
:1000800073030000D5170000730300007303000022
:100090007303000073030000730300007303000088
:1000A0007303000073030000D951000073030000C4
:1000B00099380000730300000000000000000000F9
:1000C00073030000B1380000C9380000730300005A
:1000D00073030000730300007303000000000000BE
:1000E0000000000000000000000000000000000010
:1000F0000000000000000000000000000000000000
:1001000000000000000000000000000000000000EF
:1001100000000000000000000000000000000000DF
:1001200000000000000000000000000000000000CF
:1001300000000000000000000000000000000000BF
:1001400000000000000000000000000000000000AF
:10015000000000000000000000000000000000009F
:10016000000000000000000000000000000000008F
:10017000000000000000000000000000000000007F
:10018000000000000000000000000000000000006F
:10019000000000000000000000000000000000005F
:1001A000000000000000000000000000000000004F
:1001B000000000000000000000000000000000003F
:1001C000000000000000000000000000000000002F
:1001D000000000000000000000000000000000001F
:1001E000000000000000000000000000000000000F
:1001F00000000000000000000000000000000000FF
:10020000364937480A1A02D0072291438D463549AC
:1002100035480A1A06D00722914381F30988022241
:1002200082F3148831483249324A00F045F83248A6
:100230003249334A00F040F832483349334A00F03B
:100240003BF833483349344A00F036F833483449F0
:10025000344A00F031F834483449354A00F02CF87B
:1002600034483549354A00F027F8354835490022E9
:1002700000F02DF834483549002200F028F83448C1
:100280003449091A082903DB0022026004300160A6
:10029000314A90471F482049884205D002680430FF
:1002A00003B4904703BCF7E700208646EC460020E5
:1002B00000212A4A9047FEE7884207D0521A05D00B
:1002C000037801300B700131013AF9D1704788424F
:1002D00002D002700130FAE77047000000000120F0
:1002E00000E000200000012000000120109200002A
:1002F00000000020D8000020D4030000D403000038
:10030000C47C0000109200000000002000000020CB
:10031000587D0000587D0000587D0000587D000089
:10032000587D0000587D0000587D0000587D000079
:1003300010920000E8920000D8000020D8000020B1
:10034000D8000020040B0020040B0020040B002028
:10035000040B0020042B0020A10300008563000093
:10036000FEE7FEE7FEE7FEE7FEE7FEE7FEE7FEE765
:10037000FEE7FEE700F002B8FFF7FCBF0F484FF0C2
:100380000701884385460E4880470E48016841F4BE
:1003900070010160BFF34F8FBFF36F8FFFF730BF66
:1003A00009480A490A4A884207D0521A05D00378F8
:1003B00001300B700131013AF9D170470000012082
:1003C0001D6C000088ED00E0587D0000000000205A
:0403D0000000002009
:1003D40000B585B00190019B002B0AD0074B43F078
:1003E40001030393019B9B010293039B029898478B
:1003F40000E000BF05B05DF804FB00BF707D0000A5
:1004040000B583B00190019B002B0AD04FF47A70A1
:10041400FFF7DEFF019B013B0193019B002BF5D10C
:1004240000E000BF03B05DF804FB08B506F040F936
:1004340000BF08BD00B589B0039002910192019BF1
:10044400002B33D00023079303230693029A079BC0
:100454001344019A1946002006F0BEF80590079A45
:10046400059B13440793019A059BD31A0193059B9B
:10047400002B13D10F4B1B7883F00103DBB2002B4D
:1004840013D10120FFF7BCFF069B013B0693069B9B
:10049400002B03D1074B00221A7007E0054B012201
:1004A4001A70019B002BD1D100E000BF00BF09B03E
:1004B4005DF804FBD800002000B585B003900291DC
:1004C400054B00934023054A0299039800F012F863
:1004D40000BF05B05DF804FB39040000DC00002017
:1004E40082B0019000BF02B0704782B0019000BF9B
:1004F40002B0704700B5A1B0059004910392029335
:10050400049801F0DCFF039B1593029B16930023D0
:10051400179300238DF8603000231993229B1A93BC
:1005240000231F930FA91F9B0822049802F0A0F830
:1005340008231F93119B1293BDF84030ADF84C3043
:10054400BDF84230ADF84E3000238DF851309DF89F
:100554003C3003F00303DBB2012B26D10F9BC3F322
:1005640095231D939DF83C30C3F3C203DBB28DF891
:100574005030BDF83C30C3F38313DBB21C931C9B97
:100584009A0009A91F9B049802F072F81C9B9B0017
:100594001F9A13441F9312AA09A915AB009313467B
:1005A4001C9A1D9800F0C2FE2FE09DF83C3003F029
:1005B4000303DBB2022B28D1BDF83E30C3F3891309
:1005C4009BB21E939DF83C30C3F3C203DBB28DF89B
:1005D40050301E9B082B28BF08231B9307A91F9B81
:1005E4001B9A049802F044F81F9A1B9B13441F9310
:1005F4001E9A1B9BD31A1E9315AB12AA07A81B990C
:1006040000F036FF1E9B002BE3D1049801F066FF37
:1006140000BF21B05DF804FB82B00190019BDB6850
:1006240001225A7100BF02B07047000000B583B0C8
:100634004FF0FF330193FFF7F8FE0421084800F060
:1006440091FD0190019B002B03DA0649412001F042
:10065400CDF80348FFF7E0FF00BF03B05DF804FBEB
:10066400347D0000887D000000B583B001900091C6
:10067400019B1B681B6800990198984700BF03B051
:100684005DF804FB00B583B00190019B1B685B68B7
:100694000198984700BF03B05DF804FB00B583B030
:1006A4000190019B1B689B680198984700BF03B0A9
:1006B4005DF804FB82B001900B468DF80330019B7A
:1006C400DB689DF803201A7100BF02B0704782B046
:1006D4000190019BDB681B79184602B0704782B019
:1006E4000190019BDB6801225A7100BF02B0704780
:1006F40082B00190019BDB685B79184602B07047B9
:1007040000B585B0019000910C4B00221A700C4882
:1007140001F03AFE0390039B002B01D0039B08E0F9
:10072400084801F0C5FF084A084BD31ADB080293B6
:100734000023184605B05DF804FB00BF84020020C6
:10074400447D0000FC7D0000347D0000C47C00007A
:10075400024A034BD31ADB0818467047347D000065
:10076400C47C000000B587B001900B468DF80330BF
:100774009DF80330002B1FD0FFF7EAFF04900023FD
:10078400059313E0059B9B000E4A13440393039BBC
:100794001B881A46019B1B689A4204D1019B059A47
:1007A4001A60002309E0059B01330593059A049B15
:1007B4009A42E7D3052300E00023184607B05DF80A
:1007C40004FB00BF0000002000B585B001900B467B
:1007D4008DF803309DF8032001AB11461846FFF74E
:1007E400C1FF0346002B07D1019BDB00054A1344DC
:1007F4000393039B1B6800E00023184605B05DF8D3
:1008040004FB00BFC47C000084B001900B468DF84B
:100814000330019BDB00174A134402939DF8033015
:10082400013B032B1CD801A252F823F0410800001D
:1008340049080000510800005B08000002238DF8FD
:100844000F3011E004238DF80F300DE0029B1B796B
:100854008DF80F3008E0029B5B798DF80F3003E0D0
:1008640000238DF80F3000BF9DF80F30184604B0F8
:10087400704700BFC47C000084B001900091002345
:100884008DF80F30019B1B7803F00403DBB2002BBF
:1008940024D0019B1B78C3F30103DBB2012B02D0EC
:1008A400022B0CD017E0009B1B68019A1288C2F33C
:1008B4008312D2B213449A1C009B1A600BE0009B73
:1008C4001B68019A5288C2F3891292B213449A1C8B
:1008D400009B1A6000BF01238DF80F309DF80F3084
:1008E400184604B07047000000B58BB00023ADF883
:1008F40026303E4801F007F83D4801F004F83D4B2E
:100904009B6804933C4B1B680693049A069B134014
:1009140002339B00374A13440433089304AB19464B
:100924000898FFF7A9FF0346002B09D0049A069BF9
:10093400134002339B002F4A134404330893EDE71A
:1009440000BF0023079311E0079B9B0001AA1A44F0
:10095400049B591C049106990B40264902339B00C1
:100964000B445B681360079B01330793079B012BC0
:10097400EAD99DF80430C3F30103DBB2012B10D094
:10098400022B1CD1BDF80A30ADF82630BDF8063074
:10099400C3F389139BB203339A08049B134404934F
:1009A40013E0BDF80A30ADF82630BDF80430C3F3C7
:1009B4008313DBB21A46049B1344049305E00F49E6
:1009C4004FF4C27000F012FF00BF094800F0A7FF07
:1009D4000590059B002B02D0049B064A9360BDF84A
:1009E400263018460BB05DF804FB00BF9C060020BF
:1009F4009806002084020020080000200C7E0000DD
:100A040000B585B00021074800F006FF0390039B62
:100A14000293029B83F310030193019B184605B0D4
:100A24005DF804FBA006002000B589B00390029194
:100A340001920093039B1B0C0793FFF7E1FF0690C1
:100A4400FFF786FE0246079B9A4204D8224940F2E9
:100A5400A91000F0CBFE009B5A1C0A9B1340069A77
:100A64001104079A0A431D4902339B000B445A6040
:100A7400009A0A9B134002339B00184A1344043320
:100A84000593039BDBB203F00703D9B2059A1378ED
:100A940061F3C5031370019BDBB203F00F03D9B2FA
:100AA400059A138861F389131380029BC3F315011C
:100AB400059A136861F39F231360059A1378012143
:100AC40061F301031370059A13786FF382031370B3
:100AD40000BF09B05DF804FB0C7E00008402002016
:100AE40000B58BB00390029113468DF80730039B39
:100AF4000233089301238DF81F30002000F020FEFC
:100B04003F4B5A68029B1A603E4B1A683C4B9968EB
:100B14003B4B5B68CB1A13440133099314E0012166
:100B2400394800F0C0FEFFF7DFFE0690069936480C
:100B340000F0B9FE334B1A68314B9968304B5B684F
:100B4400CB1A134401330993089A099B9A42E6D8B5
:100B54009DF81F30002B4AD0002304939DF80730E2
:100B6400002B18D09DF81030012262F301038DF898
:100B740010309DF8103043F004038DF81030039BBF
:100B8400DBB203F00F03DAB2BDF8103062F389135D
:100B9400ADF8103017E09DF81030022262F3010323
:100BA4008DF810309DF8103043F004038DF81030A8
:100BB400039B9BB2C3F309039AB2BDF8123062F3EC
:100BC4008F13ADF812300E4B5A680E4B1B6813404E
:100BD40002339B000A4A134404330593049A059B89
:100BE4001A60074B5A68089B1344054A5360002057
:100BF40000F0BAFD9DF81F3018460BB05DF804FBF9
:100C04008402002008000020A006002000B58BB05C
:100C140005900491039202931F4B1B68079306AB44
:100C2400012219460298FFF75BFF0346002B24D0EC
:100C3400069B023309930023089311E0099B5A1C75
:100C44000992079A1340089A920003990A44126879
:100C5400124902339B000B445A60089B01330893EA
:100C6400089A029B9A42E9D3069A079B009313467B
:100C7400029A04990598FFF7D7FE084B1B78002BBE
:100C840005D000BF00F068F80346002BFAD100BF7E
:100C94000BB05DF804FB00BF0800002084020020B4
:100CA40000B583B0019000910023002200990198BF
:100CB400FFF7ACFF00BF03B05DF804FB00B587B0DD
:100CC400039002910192019B059305AA01230299C5
:100CD4000398FFF79BFF00BF07B05DF804FB00B566
:100CE40087B00390029101920093019B0493009BAF
:100CF400059304AA022302990398FFF787FF00BF14
:100D040007B05DF804FB00B58BB00390029101922B
:100D14000093019B0593009B06930C9B07930D9BEB
:100D240008930E9B099305AA052302990398FFF7DC
:100D34006DFF00BF0BB05DF804FB0000054B9A6823
:100D4400044B5B689A420CBF01230023DBB21846B4
:100D5400704700BF8402002000B599B0FFF7EEFF92
:100D64000346002B01D00023BBE19C4B0022C3F8B7
:100D74001824BFF34F8F994B9B680493984B1B68BF
:100D84001093049A109B134002339B00934A13441C
:100D940004331793002316930023159300230F9312
:100DA40004AB19461798FFF767FD0346002B19D0CB
:100DB4008A4BD3F81834002B14D1884B5A68049BFF
:100DC4009A4205D8854B5B68844A9360002388E186
:100DD400049A109B134002339B00804A134404334B
:100DE4001793DDE70023149311E0149B9B0001AAE1
:100DF4001A44049B591C049110990B4077490233FF
:100E04009B000B445B681360149B01331493149B85
:100E1400012BEAD99DF8043003F00303DBB2022B63
:100E240040F09C80BDF80630C3F389139BB20E9347
:100E3400BDF80630C3F389139BB2502BA8BF5023CF
:100E44000D930D9B9BB2C3F309039AB2BDF8063010
:100E540062F38F13ADF806300D9B08330C939DF8A5
:100E64000430C3F3C203DBB20F930C995D4801F065
:100E740096FA1690169B002B00F0D680169801F077
:100E84001EFB01A9159B0822169801F0D3FB159BA4
:100E940008331593049BDA43109B134001339B00E2
:100EA4000B930D9A0B9B9A4242D90B9B002B08D0B3
:100EB400049A109B134002339B00484A13440433A2
:100EC40000E0494B0A930B9B002B02D00B9BDBB237
:100ED40001E00D9BDBB28DF827300B9B002B01D07A
:100EE400414B00E0002308930B9B002B06D00D9B85
:100EF400DAB20B9BDBB2D31ADBB200E000238DF82D
:100F04001F309DF82720159B0A99169801F092FB33
:100F14009DF82730159A13441593089B002B16D07F
:100F24009DF81F20159B0899169801F083FB0EE08D
:100F3400049A109B134002339B00284A1344043341
:100F44000693159B0D9A0699169801F073FB0E9B58
:100F540003339A08049B1344049365E09DF804301A
:100F640003F00303DBB2012B5ED1BDF80430C3F3FD
:100F74008313DBB2062B28BF0623DBB203F00F0377
:100F8400DAB2BDF8043062F38913ADF80430BDF869
:100F94000430C3F38313DBB2023305939DF80430AA
:100FA400C3F3C203DBB20F93059B9B0019460D48A4
:100FB40001F0F5F91690169B002B35D0169801F028
:100FC4007EFA01A9159B0822169801F033FB159BA4
:100FD40008331593002314931DE000BF84020020FE
:100FE40008000020447D000090020020049B5A1C4D
:100FF4000492109A134002339B003C4A1344191D77
:10100400159B0422169801F015FB159B04331593C8
:10101400149B01331493BDF80430C3F38313DBB280
:101024001A46149B9A42E1D8169B002B39D02F4BB9
:10103400D3F8103413932D4BD3F81834002B1BD052
:10104400169801F04BFA46E000238DF84B301398C4
:10105400FFF74EFB0346002B02D001238DF84B30E3
:101064009DF84B30002B03D016991398FFF7FCFA28
:10107400139BDB681B681393139B002BE4D1169816
:1010840001F02CFA002000F05BFB184BD3F8183465
:10109400002B02D1049B154A9360002000F064FBEE
:1010A40019E0124BD3F81034119306E01198FFF7AE
:1010B400F5FA119BDB681B681193119B002BF5D18A
:1010C4000B4A0C4BD31ADB081B0443F002030A49F6
:1010D4001846FFF7E5FDFFF731FE034683F00103F1
:1010E400DBB2184619B05DF804FB00BF840200208F
:1010F4000C7D0000C47C0000787E000000B585B043
:101104000023039323E0164BD3F8103402930123F6
:101114008DF807300FE00298FFF7D9FA03461A4614
:10112400039B9A4203D100238DF8073006E0029B0B
:10113400DB681B680293029B002BECD19DF80730FF
:10114400002B01D0039B07E0039B01330393039B14
:10115400092BD8DD4FF0FF33184605B05DF804FBCA
:101164008402002000B585B001900B468DF8033051
:10117400FFF7C4FF0390039BB3F1FF3F01D1039B2F
:1011840022E0039BDBB219460198FFF793FA104B58
:10119400D3F81034002B08D10D4A019BC2F8103447
:1011A400019BDB6800221A600DE0019BDB68084AA2
:1011B400D2F81024D26812681A60054BD3F81034A0
:1011C400DB68019A1A60039B184605B05DF804FBBE
:1011D4008402002000B583B00C4BD3F81034019383
:1011E4000A4B01221A7009E00198FFF778FA019876
:1011F400FFF748FA019BDB681B680193019B002BF6
:10120400F2D100BF03B05DF804FB00BF84020020EC
:1012140082B00190009100BF02B0704710B584B055
:1012240003900291039BDB88002B0AD0039BDB888D
:101234001A461F4B009313461E4A1F49029800F09A
:101244009DFC039B1B7A052B2ED0039B5B7A002B02
:1012540012D0039B9B881A46039B1B7A194610469F
:10126400FFF7D2FA03461A46144B53F822301A46B3
:101274001349029800F082FC039B1B6819460298EC
:10128400FFF7C6FF039B1B7A1A460E4B53F8224006
:10129400039B9B8800211846FFF796FA03462246D3
:1012A4000949029800F06AFC00BF04B010BD00BFF9
:1012B400AC7E0000BC7E0000F47E00002000002014
:1012C4000C7F00000C000020107F000000B585B0EA
:1012D4000390029113468DF80730039B1B7A052B6C
:1012E4000FD0039B5B7A002B06D00D4B1B681A466C
:1012F4000C49029800F042FC0B49029800F03EFCB5
:1013040007E09DF80730002B03D00749029800F04E
:1013140035FC029800F010FC00BF05B05DF804FB3A
:10132400200000200C7F00001C7F000030B58BB033
:1013340007900691059204930E9B1B7B8DF8273032
:101344000E9B00221A730E990498FFF767FF059B02
:10135400062B7FD801A252F823F000BF7D130000B2
:101364008713000097130000AB130000C91300009B
:10137400F11300002114000007990E9800F0FEFB01
:1013840069E0069B1B681A4607990E9800F0F6FB65
:1013940061E0069B1A68069B04331B6807990E9844
:1013A40000F0ECFB57E0069B1A68069B04331968AF
:1013B400069B08331B6800930B4607990E9800F0B0
:1013C400DDFB48E0069B1968069B04331868069BFE
:1013D40008331B68069A0C32126801920093034684
:1013E4000A4607990E9800F0C9FB34E0069B18687A
:1013F400069B04331C68069B08331B68069A0C3250
:1014040012680699103109680291019200932346EB
:10141400024607990E9800F0B1FB1CE0069B1C687D
:10142400069B04331D68069B08331B68069A0C321E
:101434001268069910310968069814300068039000
:101444000291019200932B46224607990E9800F0D0
:1014540095FB00E000BF00220E990498FFF736FFC9
:101464000E9B9DF827201A7300BF0BB030BD00BF40
:1014740000B587B00390029101920093029B082B60
:1014840060D8009B1B7B8DF81330009B00221A73DD
:1014940000990198FFF7C2FE0023059314E0059A12
:1014A400029B9A4209D2039A059B13441B781A465D
:1014B4002649009800F062FB03E02549009800F0FB
:1014C4005DFB059B01330593059B072BE7D9214958
:1014D400009800F053FB0023059326E0059A029B35
:1014E4009A421BD2039A059B13441B788DF8123041
:1014F4009DF812307E2B0AD89DF81230184605F05C
:10150400B1FF0346002B02D09DF8123000E02E23D9
:101514001A461149009800F031FB03E00F49009886
:1015240000F02CFB059B01330593059B072BD5D9B4
:10153400012200990198FFF7C9FE009B9DF8132032
:101544001A7300E000BF07B05DF804FB207F0000C1
:10155400287F00002C7F0000307F0000347F0000D3
:1015640086B003900291019201238DF817309DF803
:1015740017301F4A039B13601D4A029B53601C4A89
:10158400019B9360039B44F20102934211D044F205
:101594000202934220D1019B154AD360144BDB68AD
:1015A4001B68134A9361124BDB685B68104AD36172
:1015B40012E0019B0E4A13610D4B1B699B680C4A98
:1015C40053610B4B1B691B68094A9361084B1B69E8
:1015D4005B68074AD36100BF72B600BF9DF817303D
:1015E400DBB2002BFAD162B600BF06B0704700BF71
:1015F400A406002000B583B002900091019244F249
:10160400010071466A4600F003F803B000BD00BF54
:1016140030B58BB007900691059272B6FFF7DAFDEC
:1016240000BFFFF799FB0346002BFAD1079B44F256
:101634000102934215D044F2020293423ED1059B2B
:1016440009932C4A2C4BD31ADB081B0443F00100EA
:10165400099B5B681A46099B1B682849FFF73FFBF7
:1016640039E0059B0893234A234BD31ADB081B0458
:1016740043F00104089B9D68089B9B68184601F091
:1016840035F803461846089B5B681946089B1B6897
:10169400069A02920193009103462A46184920466D
:1016A400FFF731FB134A144BD31ADB081B0443F036
:1016B400010314491846FFF7F3FA0CE00D4A0E4BE8
:1016C400D31ADB081B0443F00103069A0E4918469B
:1016D400FFF7F4FA00BF0D4B1B6803F00103002B66
:1016E40000D000BE059A06990798FFF739FF00BF9E
:1016F4000BB030BD0C7D0000C47C0000AC7F00004A
:10170400C87F0000F07F000004800000F0ED00E0DE
:1017140072B6034B1B680133014A136000BF704764
:10172400C4060020054B1B68013B044A1360034BAD
:101734001B68002B00D162B600BF7047C4060020AE
:1017440000B583B0019000F025F80346012B03D0C7
:101754000449432000F04AF8FFF7DAFF00BF03B062
:101764005DF804FB9080000000B583B003468DF85B
:10177400073000F00FF80346012B03D00449512031
:1017840000F034F8FFF7CEFF00BF03B05DF804FBB0
:101794009080000084B0EFF305830193019BC3F3B1
:1017A40008030393039B002B0DD1EFF314830093E1
:1017B400009B0293029B03F00103002B0CBF012347
:1017C4000023DBB200E00123184604B07047000098
:1017D40008B5044B1B68044A12681046984700BFBA
:1017E40008BD00BFC8060020CC06002000B585B0A7
:1017F40003460091ADF80630BDF806300293009B15
:10180400039302AB1A46002144F20200FFF700FFE3
:1018140000BF05B05DF804FB10B487B001900091DF
:10182400019B009A53E8004F104643E8000191F0F1
:10183400000FF7D1059404900391059B184607B057
:101844005DF8044B704710B487B001900091019B80
:10185400009A53E8004F44EA020043E8000191F083
:10186400000FF6D1059404900391049B184607B029
:101874005DF8044B704710B487B001900091019B50
:10188400009A53E8004F04EA020043E8000191F093
:10189400000FF6D1059404900391059B184607B0F8
:1018A4005DF8044B704710B487B001900091019B20
:1018B400009A53E8004F04EB020043E8000191F062
:1018C400000FF6D1059404900391049B184607B0C9
:1018D4005DF8044B704710B487B001900091019BF0
:1018E400009A53E8004FA4EB020043E8000191F092
:1018F400000FF6D1059404900391049B184607B099
:101904005DF8044B704700B583B001900121019844
:10191400FFF799FF0346184603B05DF804FB00B5D2
:1019240083B0019000210198FFF7A5FF03461846F4
:1019340003B05DF804FB000000B583B001900B46D2
:101944008DF80330019B002B03D10849E820FFF7F1
:101954004DFF019BDA689DF803300199098A01FB68
:1019640003F31344184603B05DF804FBFC80000045
:1019740000B583B001900091019B002B03D108496D
:10198400F520FFF733FF009B019AD2689B1A019A56
:10199400128AB3FBF2F3DBB2184603B05DF804FB22
:1019A400FC80000000B585B00190019B002B01D1A3
:1019B4000E234DE0019B1B68002B03D12649FF2019
:1019C400FFF714FF019B5B68002B04D122494FF4FD
:1019D4008070FFF70BFF019B9B68002B04D11E490D
:1019E40040F20110FFF702FF019BDB68002B04D1DA
:1019F40019494FF48170FFF7F9FE019B1B8A002BF4
:101A040004D1154940F20310FFF7F0FE019B9B68D7
:101A14001A46019B5B68D31A8DF80F30019B1B6833
:101A2400019A52681A6007E0019B1A681368591CEE
:101A340011609DF80F201A709DF80F305A1E8DF812
:101A44000F20002BF0D1019B1B6800221A71002388
:101A5400184605B05DF804FBFC80000000B585B0B5
:101A64000190019B002B04D11C494FF49270FFF7A5
:101A7400BDFE002303930020FFF762FE019B1B6859
:101A84001A68019B5B689A4220D9019B1B681A68FB
:101A9400013A1A601B681B7819460198FFF74CFF3E
:101AA4000390019B9B681A46019B1B681B68D31A11
:101AB4008DF80B30019B1B681B799DF80B209A4213
:101AC40004D9019B1B689DF80B201A710020FFF7B5
:101AD4004BFE039B184605B05DF804FBFC80000038
:101AE40010B584B001900091019B002B04D11149E1
:101AF40040F24710FFF77AFE009B002B04D10D49FA
:101B04004FF4A470FFF772FE009B03930020FFF7CD
:101B140017FE019B1B681C68621C1A6003990198DC
:101B2400FFF726FF034623700020FFF71DFE00BFCA
:101B340004B010BDFC80000000B583B00190019B8F
:101B4400002B03D10C493120FFF750FE019B9B6809
:101B5400002B0CD0019B5B69019A1069019A1168F2
:101B6400019A92689847019B00229A6000E000BFA6
:101B740003B05DF804FB00BF648100000EB400B53F
:101B840084B00190019B002B03D118494220FFF738
:101B94002DFE019B5B69002B03D114494320FFF701
:101BA40025FE019B1B68002B03D110494420FFF73D
:101BB4001DFE019B5B68002B03D10C494520FFF7F8
:101BC40015FE059B002B0AD00023039306AB039359
:101BD40003AB1A460599019800F0B8F900E000BF7C
:101BE40004B05DF804EB03B0704700BF64810000EB
:101BF40000B583B001900B468DF803309DF8033097
:101C04000A2B03D10D210198FFF7F2FF019B1A68FB
:101C1400019B9B68581C0199886013449DF803201C
:101C24001A70019B9A68019B5B689A4202D30198DF
:101C3400FFF782FF00BF03B05DF804FB00B587B077
:101C4400039002910192009300230593009B03F0FB
:101C54000103002B24D00BE0029B01330293059B6C
:101C6400013305939DF8133019460398FFF7C0FF1D
:101C7400029B1B788DF813309DF81330002BEBD1A9
:101C840006E0019B013B019320210398FFF7B0FF7D
:101C9400019A059B9A422ED9019B002BF1D12AE08F
:101CA400029B002B0BD0029805F04CFC059006E03B
:101CB400019B013B019320210398FFF799FF019AAF
:101CC400059B9A420FD9019B002BF1D10BE0029B9B
:101CD40001330293059B013305939DF81330194694
:101CE4000398FFF785FF029B1B788DF813309DF84E
:101CF4001330002BEBD100BF07B05DF804FB0000EC
:101D040000B589B00390029101920093029B07935E
:101D14000123069307E0079A019BB2FBF3F30793B1
:101D2400069B01330693079A019B9A42F3D2009AC9
:101D3400069B9A4201D9009B06930B9B03F0010377
:101D4400002B22D10A9B002B1FD00B9B03F0020314
:101D5400002B06D0009B002B03D130238DF81730C5
:101D640002E020238DF8173008E00A9B013B0A9318
:101D74009DF8173019460398FFF73AFF0A9B002B8A
:101D840003D0069A0A9B9A42EFD301230793009B40
:101D9400012B03D9009B013B009309E0029A079BA6
:101DA400B2FBF3F30493049A019B9A4200D205E038
:101DB400079B019A02FB03F30793E8E7029A079B48
:101DC400B2FBF3F30493049B079A02FB03F3029A16
:101DD400D31A0293154A049B13441B78194603989B
:101DE400FFF706FF079A019BB2FBF3F30793079BE8
:101DF400002BE3D10B9B03F00103002B11D00A9BB2
:101E0400002B0ED006E00A9B013B0A932021039885
:101E1400FFF7EEFE0A9B002B03D0069A0A9B9A4218
:101E2400F1D300BF09B05DF804FB00BF24820000B9
:101E340000B589B00590049103920293049B002B92
:101E4400B8BF5B4206930123079307E0039B069AFE
:101E540092FBF3F30693079B01330793039B069AC4
:101E64009A42F3DA029A079B9A4201D9029B07939A
:101E74000A9B002B0AD0049B002B04DB0B9B03F072
:101E84000403002B02D00A9B013B0A930B9B03F033
:101E94000203002B02D0029B002B16D00B9B03F0F5
:101EA4000103002B11D10A9B002B0ED006E00A9BE4
:101EB400013B0A9320210598FFF79AFE0A9B002B09
:101EC40003D0079A0A9B9A42F1D3049B002B07DAAA
:101ED400049B5B4204932D210598FFF789FE08E0DB
:101EE4000B9B03F00403002B03D02B210598FFF771
:101EF4007FFE0B9B03F00203002B19D00B9B03F016
:101F04000103002B14D1029B002B11D10A9B002B3F
:101F14000ED006E00A9B013B0A9330210598FFF797
:101F240067FE0A9B002B03D0079A0A9B9A42F1D3BF
:101F340004990B9B01930A9B0093029B039A0598B7
:101F4400FFF7DEFE00BF09B05DF804FB00B58FB0FB
:101F5400059004910392059B002B04D1C84940F2DB
:101F64005220FFF743FC059B5B69002B04D1C44955
:101F74004FF41570FFF73AFC059B1B68002B04D146
:101F8400BF4940F25520FFF731FC059B5B68002BED
:101F940004D1BB4940F25620FFF728FC049B002BD8
:101FA40000F0ED81049B1B788DF83730049B0133DE
:101FB40004939DF83730002B00F0D8819DF837301A
:101FC400252B40F0C78100230A9301230C93049B23
:101FD4001B788DF837309DF837302D2B04D0302BFB
:101FE4000AD02B2B10D017E00A9B43F001030A936D
:101FF400049B0133049312E00A9B43F002030A9307
:10200400049B013304930AE00A9B43F004030A93FC
:10201400049B0133049302E000230C9300BF0C9B48
:10202400002BD4D1002309939DF837302A2B0CD1EF
:10203400039B1B68191D039A11601B68099A1344BA
:102044000993049B013304931AE0049B1B788DF8D5
:1020540037309DF837302F2B12D99DF83730392B74
:102064000ED8049B01330493099A13469B0013442E
:102074005B001A469DF837301344303B0993D3E78D
:1020840000230B93049B1B788DF837309DF8373071
:102094002E2B1DD1049B01330493049B1B788DF8D4
:1020A40037309DF837302F2B12D99DF83730392B24
:1020B4000ED8049B013304930B9A13469B001344DC
:1020C4005B001A469DF837301344303B0B93E4E72A
:1020D400049B1B788DF837309DF837306C2B03D078
:1020E4009DF83730682B07D1049B01330493049B7C
:1020F4001B788DF83730EFE79DF83730253B532BAD
:1021040000F2238101A252F823F000BF452300000E
:102114004F2300004F2300004F2300004F230000F3
:102124004F2300004F2300004F2300004F230000E3
:102134004F2300004F2300004F2300004F230000D3
:102144004F2300004F2300004F2300004F230000C3
:102154004F2300004F2300004F2300004F230000B3
:102164004F2300004F2300004F2300004F230000A3
:102174004F2300004F2300004F2300004F23000093
:102184004F2300004F2300004F2300004F23000083
:102194004F2300004F2300004F2300004F23000073
:1021A4004F2300004F2300004F2300004F23000063
:1021B4004F2300004F2300004F2300004F23000053
:1021C4004F2300004F2300004F2300004F23000043
:1021D4004F2300004F230000D12200004F230000B2
:1021E4004F2300004F2300004F2300004F23000023
:1021F4004F2300004F2300004F2300004F23000013
:102204004F23000061220000892200004F230000B8
:102214004F2300004F2300004F23000089220000B9
:102224004F2300004F2300004F2300004F230000E2
:102234004F2300004F230000112300004F23000010
:102244004F230000F52200004F230000AD220000C0
:102254004F2300004F230000D1220000039B1B6882
:10226400191D039A11601B680C930C9B8DF8233085
:102274009DF8233019460598FFF7BAFC66E000BFC5
:10228400C0810000039B1B68191D039A11601B6821
:102294000C930A9B0193099B00930B9B0A220C99B4
:1022A4000598FFF7C5FD51E0039B1B68191D039AB0
:1022B40011601B680C930C990A9B0193099B009372
:1022C4000B9B0A220598FFF71BFD3FE0039B1B684D
:1022D400191D039A11601B680C930C990A9B0193B6
:1022E400099B00930B9B10220598FFF709FD2DE035
:1022F400039B1B68191D039A11601B6807930A9BB3
:10230400099A07990598FFF799FC1FE0039B1B683E
:10231400191D039A11601B680C9330210598FFF76F
:1023240067FC78210598FFF763FC0C99002301935F
:1023340008230093082310220598FFF7E1FC05E029
:1023440025210598FFF754FC00E000BF049B0133EE
:10235400049305E09DF8373019460598FFF748FCCB
:10236400049B1B78002B7FF41DAE00E000BF059B8F
:102374001B7B002B04D00598FFF7DEFB00E000BFB9
:102384000FB05DF804FB00BF00B583B00190019865
:10239400FFF708FB0346184603B05DF804FB00B5DD
:1023A4008BB001900091019B1B8A043B0793009A18
:1023B400079B1344DA1C079BB2FBF3F38DF81B3025
:1023C4000198FFF74BFB0590059B002B01D10023DF
:1023D40038E0059B00221A71059B01225A71079B64
:1023E4009AB2059BDA80059B09939DF81B30013B4B
:1023F4000493099B019A1A60002308931DE0019835
:10240400FFF72CFB0390039B002B0ED0059B5B79FD
:102414000133DAB2059B5A71099B039A1A60039B34
:10242400019A1A60039B099304E0059800F00EF8E2
:10243400002307E0089B01330893089A049B9A42FF
:10244400DDD3059B18460BB05DF804FB00B58BB0DB
:102454000190019B0793079B5B798DF81B30019BCF
:1024640008939DF81B30013B05930023099305E075
:10247400089B1B680893099B01330993099A059BE0
:102484009A42F5D3089B1B680493019B089300238D
:1024940009930BE0089B1B68039308990498FFF7C2
:1024A4001FFB039B0893099B013309939DF81B2091
:1024B400099B9A42EED800BF0BB05DF804FB00B54F
:1024C40085B00190019B0393039B043301211846BB
:1024D400FFF7E9F900BF05B05DF804FB00B587B06C
:1024E4000190019B0593059B043301211846FFF7D6
:1024F400F2F90346039303AB0493049B1B78002B6C
:1025040002D10198FFF7A2FF00BF07B05DF804FBFA
:1025140000B591B00390029101920093039B002BAC
:1025240003D14349B620FFF761F9039B0993039B49
:102534000F93099BDB881A46099B5B7903FB02F323
:10254400043B0893009A089B9A4203D33849C42059
:10255400FFF74CF9099BDB880793009B1A1D079B27
:10256400B2FBF3F30E93009B0433079AB3FBF2F22E
:10257400079901FB02F29B1A0D93019B1A68009BB9
:102584001A44089B9A4203D9089A009BD31A01E083
:10259400019B1B680C93019B0C9A1A6005E00F9B2E
:1025A4001B680F930E9B013B0E930E9B002BF6D1E1
:1025B40000230B93079A0D9BD31A0A930A9A0C9B38
:1025C400934228BF13460A932AE0029A0B9B1344B2
:1025D40006930F9A0D9B1344043305939DF84830DA
:1025E400002B05D00A9A0599069804F05FFF04E0D1
:1025F4000A9A0699059804F059FF00230D930F9B3E
:102604001B680F930C9A0A9BD31A0C930B9A0A9B80
:1026140013440B93079A0C9B934228BF13460A93C7
:102624000C9B002BD1D100BF11B05DF804FB00BF9F
:102634003482000000B589B005900491039202939E
:10264400039B079307AA00230093029B0499059810
:10265400FFF75EFF079A039B9A4203D00349F620D3
:10266400FFF7C4F800BF09B05DF804FB3482000032
:1026740000B589B00590049103920293039B0793DC
:1026840007AA01230093029B04990598FFF740FFD2
:10269400079A039B9A4204D004494FF48070FFF7D1
:1026A400A5F800BF09B05DF804FB00BF3482000048
:1026B40082B00190019B9B6800229A60019B9B68F9
:1026C40000221A61019B9B6800225A61019B9B684E
:1026D4000022DA60019B9B6800225A60019B9B6880
:1026E40000221A6000BF02B07047000000B585B038
:1026F4000190019800F00EF80390039B002B01D089
:10270400039B00E0024B184605B05DF804FB00BFD4
:102714001483000086B00190164B0593164B049366
:102724001FE0049A059BD31ADB10DA0F13445B10E5
:10273400DB00059A13440393039B1B680293029ADC
:10274400019B9A4202D9039B04930AE0029A019BDB
:102754009A4203D2039B0833059302E0039B5B6810
:1027640004E0059A049B9A42DBD30023184606B082
:10277400704700BFE88600000088000082B0019026
:102784004FF08042019BC2F8083300BF02B070478B
:1027940084B00346ADF80630BDF8063003F180433B
:1027A40000221A60BDF8063003F180431B680393CE
:1027B400039B00BF04B0704782B00346ADF80630F7
:1027C400BDF8063003F180431B68002B14BF0123BE
:1027D4000023DBB2184602B07047000008B54FF47E
:1027E4008070FFF7E9FF0346002B14D04FF480708C
:1027F400FFF7CEFF0120FFF7C1FF114B5B7983F098
:102804000103DBB2002B06D00D4B01225A710C4B95
:102814001B68002098474FF48270FFF7CDFF0346F2
:10282400002B0AD04FF48270FFF7B2FF0220FFF7AB
:10283400A5FF034B1B680120984700BF08BD00BFDC
:10284400D406002000B583B00346ADF80630BDF8C9
:102854000630184600F026F803461B68012B0CBF0F
:1028640001230023DBB2184603B05DF804FB00B576
:1028740085B00346ADF80630BDF80630184600F0C2
:1028840011F803461A4600231360BDF806301846B3
:1028940000F008F803461B680393039B00BF05B0D0
:1028A4005DF804FB82B00346ADF80630BDF806308F
:1028B40003F1804303F5C043184602B0704700009B
:1028C40082B00190034BD3F80423019B13401846B4
:1028D40002B070470060004082B00190054A019B3D
:1028E40003F5A27352F823301B0A03F01F031846A2
:1028F40002B070470060004082B00190064A019B1C
:1029040003F5A27352F823301B0C03F00303DBB26C
:10291400184602B0704700BF0060004000B583B0A5
:102924000190019B1B68184600F094F80346002BA5
:1029340004D105494FF4F670FEF758FF4FF0A04359
:10294400184603B05DF804FB3889000000B585B073
:1029540001900B468DF8033001AB1846FFF7DEFFFC
:102964000390019A0199039B01F5E07153F821301A
:1029740023F44031039B02F5E07243F82210019ADC
:102984000199039B01F5E07153F821309DF8031080
:1029940009041943039B02F5E07243F8221000BFB7
:1029A40005B05DF804FB00B585B0019001AB184695
:1029B400FFF7B4FF0390019A039B02F5E07253F80A
:1029C40022301B0C03F00303DBB2184605B05DF89C
:1029D40004FB86B00390029101924FF0A04304934C
:1029E400039B059319E0059B9B0006AA134453F827
:1029F400083CD3F82025019B1A60059B9B0006AA7E
:102A0400134453F8083C019A1268C3F82025019B2B
:102A140004330193059B01330593039A029B1A44E3
:102A2400059B9A42DFD800BF06B0704700B585B059
:102A3400019001AB1846FFF771FF0390019B01223F
:102A440002FA03F31A46039BC3F8202500BF05B01E
:102A54005DF804FB84B00190019B5B0902930023A1
:102A64000393029B002B03D14FF0FF33039300BF6A
:102A7400019B03F01F030193039A019B22FA03F3C2
:102A840003F00103002B14BF01230023DBB218461B
:102A940004B0704784B001900091009B0393019BA4
:102AA400DB080293019B03F0070301930122019BBE
:102AB40002FA03F30399029A0A441278134018465F
:102AC40004B0704782B00190044A019B1344303330
:102AD40093F90030184602B0704700BFDC060020AE
:102AE40082B00190034A019B52F82330184602B089
:102AF400704700BFDC06002084B00190074A019BA8
:102B04001344503393F900308DF80F309DF80F3093
:102B140023F0C003184604B0704700BFDC06002051
:102B240084B00190074A019B1344503393F9003059
:102B34008DF80F309DF80F309B09DBB2184604B0B6
:102B4400704700BFDC06002000B585B00190019AF3
:102B540001210020FFF73DFF002303930BE0039BBB
:102B64009B00019A13441B68002B01D0012306E04B
:102B7400039B01330393039B002BF0D000231846DF
:102B840005B05DF804FB000000B587B00190002398
:102B940005935BE0344A059B1344503393F90030AA
:102BA400B3F1FF3F4ED00598FFF7A6FF04900199BB
:102BB4000498FFF76FFF0346002B44D00598FFF7F6
:102BC400AFFF03468DF80F300498FFF7ECFE034681
:102BD4008DF80E309DF80E30022B01D1032300E056
:102BE40002238DF80D309DF80D3019460498FFF737
:102BF400ADFE0498FFF71AFF0498FFF763FF03463E
:102C04001846FFF76DFF0290029B002B1BD09DF826
:102C14000F30032B0FD09DF80E30022B03D19DF8FB
:102C24000F30012B07D09DF80E30032B0BD19DF8EC
:102C34000F30022B07D19DF80F20029B11460498F8
:102C4400984700E000BF059B01330593059B032BC8
:102C5400A0D90198FFF778FF0346002B97D100BF56
:102C640007B05DF804FB00BFDC06002000B589B0A6
:102C740000230793002300934FF48073ADF81630BC
:102C8400012304930023069321E0BDF8163018466F
:102C9400FFF7D8FD0346002B0ED00498FFF710FE73
:102CA4000346002B08D0BDF816301846FFF7DFFDA9
:102CB400079A049B13430793049B5B000493BDF89A
:102CC40016300433ADF81630069B01330693069B89
:102CD400072BDAD94FF4BE70FFF7B4FD0346002B7F
:102CE4000DD04FF4BE70FFF7C2FD079B43F00043C5
:102CF40007936B461A4601210020FFF76AFE079BE3
:102D0400DBB2002B29D0012304930023069321E096
:102D1400049A079B1340002B16D00698FFF7DCFD9E
:102D240003900698FFF7E8FD03468DF80B300698EC
:102D3400FFF7D6FE0190019B002B05D09DF80B20D8
:102D4400019B114603989847049B5B000493069BE0
:102D540001330693069B072BDAD9079B002B03DA72
:102D64006B461846FFF710FF00BF09B05DF804FB7F
:102D740008B5064B1B68002B03D105495120FEF70B
:102D840035FD024B1B68984700BF08BD380700207B
:102D9400D889000082B00190019B044A934201D17A
:102DA400034B00E00023184602B0704700200040A7
:102DB4003807002000B587B001900091019B002BDB
:102DC40003D118497720FEF711FD0198FFF7E2FFC0
:102DD4000490049B002B1ED000238DF81730002094
:102DE400FEF7AEFC049B1B79002B03D001238DF866
:102DF400173005E0049B009A1A60049B01221A71A3
:102E04000020FEF7B1FC9DF81730002B03D01123EE
:102E14000393039B02E000230393039B184607B02C
:102E24005DF804FBD889000082B003468DF80730B2
:102E34009DF90730002B0CDB07499DF907305B092E
:102E44009DF8072002F01F02012000FA02F241F867
:102E5400232000BF02B0704700E100E082B00346C7
:102E640000918DF807309DF90730002B0ADB0D49DE
:102E74009DF90730009AD2B25201D2B20B4483F8C2
:102E840000230BE008499DF8073003F00F03043BCF
:102E9400009AD2B25201D2B20B441A7600BF02B0E9
:102EA400704700BF00E100E000ED00E082B0019057
:102EB400019B03F06043B3F1005F0CBF01230023C7
:102EC400DBB2184602B0704782B00190019B1B0B25
:102ED4005BB2184602B0704700B583B003460A4699
:102EE4008DF8073013468DF806309DF80630072B11
:102EF40003D908496B20FEF779FC9DF806209DF95B
:102F0400073011461846FFF7A9FF00BF03B05DF86C
:102F140004FB00BF3C8A000000B583B003468DF873
:102F240007309DF907301846FFF77EFF00BF03B056
:102F34005DF804FB82B001900B468DF803309DF8D8
:102F44000330019A134401221A6000BF02B0704793
:102F540082B001900B468DF803309DF80320019B4D
:102F64001344184602B0704784B001900B46ADF884
:102F74000230BDF80230019A134400221A60BDF8F1
:102F84000230019A13441B680393039B00BF04B0EF
:102F9400704782B001900B46ADF80230BDF80230A4
:102FA400019A13441B68002B14BF01230023DBB2D6
:102FB400184602B0704782B001900091019B009ABC
:102FC400C3F8002200BF02B0704782B001900091A4
:102FD400019B009AC3F8002300BF02B0704782B07F
:102FE4000190019B0122C3F8002500BF02B0704785
:102FF40084B00190009100238DF80F3011E09DF80A
:103004000F209DF80F309B0000990B441968019B19
:1030140002F5AC7243F822109DF80F3001338DF89D
:103024000F309DF80F30032BE9D900BF04B070476F
:1030340000B583B00190084611461A4603468DF840
:1030440003300B468DF802301346ADF80030BDF95D
:103054000030002B04DA0C494FF42870FEF7C6FB4D
:103064009DF80320019BC3F80C259DF80220019BC9
:10307400C3F80425BDF80020019BC3F8082500BF50
:1030840003B05DF804FB00BF6C8A000000B585B096
:1030940003900B4601928DF80B30019B002B04D159
:1030A400144940F2AB20FEF7A1FB019B1A689DF87E
:1030B4000B301946039800F01FF8019B9A889DF87D
:1030C4000B301946039800F03DF8019B9A689DF86F
:1030D4000B301946039800F069F8019BDA689DF8F3
:1030E4000B301946039800F089F800BF05B05DF86D
:1030F40004FB00BF6C8A000000B585B003900B464A
:1031040001928DF80B309DF80B30012B04D90C493A
:1031140040F2B720FEF76AFB019B002B04D108495B
:103124004FF42E70FEF762FB9DF80B30019A039961
:1031340029335B010B441A6000BF05B05DF804FB42
:103144006C8A000000B583B001900B468DF8033003
:103154001346ADF800309DF80330012B04D9124911
:103164004FF43070FEF742FBBDF80030002B04D161
:103174000D4940F2C120FEF739FBBDF90030002BA8
:1031840004DA094940F2C220FEF730FB9DF803300F
:10319400BDF80020019929335B010B4404331A6004
:1031A40000BF03B05DF804FB6C8A000000B585B075
:1031B40003900B4601928DF80B309DF80B30012BD8
:1031C40004D90D4940F2CA20FEF710FB019BB3F16C
:1031D400807F04D3084940F2CB20FEF707FB9DF81B
:1031E4000B30039A5B01134403F5A563019A1A603B
:1031F40000BF05B05DF804FB6C8A000000B585B023
:1032040003900B4601928DF80B309DF80B30012B87
:1032140004D90D4940F2D320FEF7E8FA019BB3F13B
:10322400807F04D308494FF43570FEF7DFFA9DF828
:103234000B30039A5B01134403F22C53019A1A6076
:1032440000BF05B05DF804FB6C8A000082B00190F9
:103254000B468DF8033013468DF802309DF8032099
:103264009DF802301B021A43019BC3F8102500BFCE
:1032740002B0704782B001900B46ADF80230BDF841
:103284000220019BC3F8142500BF02B07047000060
:1032940000B583B00190019B1B68184600F08DF8BF
:1032A4000346002B04D105494FF4F670FEF79EFA4D
:1032B4004FF0A043184603B05DF804FB9C8A00005D
:1032C40000B585B00190084611461A4603468DF8AC
:1032D40003300B468DF8023013468DF8013001ABF4
:1032E4001846FFF7D5FF0390019A9DF803109DF847
:1032F40002305B0019439DF801309B0019439DF88F
:1033040018301B0219439DF81C301B041943039BFE
:1033140002F5E07243F8221000BF05B05DF804FB2B
:1033240000B585B00390002301930023009300238C
:10333400012201210398FFF7C3FF00BF05B05DF828
:1033440004FB00B585B0019001AB1846FFF7A0FF60
:103354000390019B012202FA03F31946039800F03B
:1033640018F800BF05B05DF804FB00B585B0019006
:1033740001AB1846FFF78CFF0390019B012202FA70
:1033840003F31946039800F00EF800BF05B05DF88A
:1033940004FB82B001900091019B009AC3F80825B8
:1033A40000BF02B0704782B001900091019B009A67
:1033B400C3F80C2500BF02B0704784B00190019B94
:1033C4005B09029300230393029B002B03D14FF06C
:1033D400FF33039300BF019B03F01F030193039A80
:1033E400019B22FA03F303F00103002B14BF012312
:1033F4000023DBB2184604B0704700B589B00190D1
:10340400009100238DF81F3050E09DF81F30009A82
:10341400D35C8DF81E309DF81E30FF2B38D09DF8FC
:103424001E3003F08003002B14BF012300238DF80A
:103434001D309DF81F309DF81E2022F080029B0055
:1034440008A90B4443F8142C9DF81D30002B0AD016
:103454009DF81F309B0008AA134453F8143C1846E7
:10346400FFF76FFF09E09DF81F309B0008AA134483
:1034740053F8143C1846FFF778FF9DF81F309B0063
:1034840008AA134453F8143C1846FFF749FF08E010
:103494009DF81F309B0008AA13444FF0FF3243F8F5
:1034A400142C9DF81F3001338DF81F309DF81F3008
:1034B400032BAAD9019B1B6803AA11461846FFF7E0
:1034C40097FD00BF09B05DF804FB000000B587B0AC
:1034D400039002910192029B002B03D13E4980206C
:1034E400FEF784F9039B1B79DB003C4A13440593E4
:1034F400059B1B79DBB2002B03D008230493049BA8
:1035040066E0059B019A1A6002990398FFF775FF1C
:10351400039B1B681846FFF762FD039B1868029B18
:103524005979029B9A79029B1B89FFF781FD039BC2
:103534001868029B997A029BDB7A1A46FFF786FE8B
:10354400039B1B6800211846FFF735FD039B1B688E
:1035540000211846FFF739FD039B1B684FF48E7159
:103564001846FFF701FD039B1B684FF4887118464A
:10357400FFF7FAFC039B1B684FF48A711846FFF7A8
:10358400F3FC039B1B684FF482711846FFF7ECFCB5
:10359400059B1B68002B15D0039B1B681846FFF77F
:1035A40093FC03461A46029B1B7919461046FFF703
:1035B40093FC039B1B681846FFF786FC03461846DA
:1035C400FFF7AAFC059B01221A7100230493049BB4
:1035D400184607B05DF804FBD08A000040070020BD
:1035E40000B587B00390029111461A460B468DF838
:1035F400073013468DF80630029B02221A71029B93
:103604009DF807205A71029B1B68002B25D082234A
:1036140005939DF8073003F00403002B03D0059BAA
:1036240043F0100305939DF8073003F00803002BC3
:1036340003D0059B43F0200305939DF8073003F066
:103644001003002B03D0059B23F080030593039BF9
:103654001B6805991846FFF7B8FC039B1B684FF4D9
:1036640082711846FFF780FC9DF90730002B0ADAB7
:10367400039B1B689DF8062011461846FFF768FC5B
:103684000490049B08E0039B1B689DF806201146E8
:103694001846FFF74FFC0023184607B05DF804FBFB
:1036A40000B589B00390029100931346ADF806303B
:1036B400039B1B79DB003C4A13440693069B1B794E
:1036C400DBB2002B04D139494FF48D70FEF78EF82C
:1036D400BDF80630002B04D1344940F21B10FEF72C
:1036E40085F8029B1B681846FFF7E0FB0346002B96
:1036F40004D12E494FF48E70FEF778F8039B1B68B3
:10370400029A00211846FFF7C1FC039B1B68029A2A
:1037140001211846FFF7BAFCBDF8063003F0010397
:10372400002B14BF012300238DF81730039B186866
:10373400BDF806305B089AB29DF817309BB213446B
:103744009BB21946FFF796FD009B03F00103002B83
:1037540002D0102307930FE0009B03F00203002B19
:1037640008D09DF81730002B01D0082300E0042373
:10377400079301E000230793039B1B6807991846EE
:10378400FFF719FC009BDAB29DF81730002B01D02B
:103794000C2300E0082306990398FFF721FF034652
:1037A400184609B05DF804FB40070020D08A0000E9
:1037B40000B583B0019000914FF488710198FFF730
:1037C400E8FB0346002B12D04FF488710198FFF7F1
:1037D400CBFB009B5B7903F00403002B07D0009B19
:1037E4001B68002B03D0009B1B68012098474FF4F3
:1037F4008A710198FFF7CDFB0346002B12D04FF4DA
:103804008A710198FFF7B0FB009B5B7903F0080312
:10381400002B07D0009B1B68002B03D0009B1B6868
:10382400022098474FF48E710198FFF7B2FB0346CC
:10383400002B12D04FF48E710198FFF795FB009B7B
:103844005B7903F01003002B07D1009B1B68002B4E
:1038540003D0009B1B68002098474FF482710198A5
:10386400FFF797FB0346002B0FD04FF482710198AA
:10387400FFF77AFB009B01221A71009B1B68002B47
:1038840003D0009B1B680320984700BF03B05DF87A
:1038940004FB000008B503490348FFF789FF00BF94
:1038A40008BD00BF4007002000C0014008B503491F
:1038B4000348FFF77DFF00BF08BD00BF4807002095
:1038C4000010024008B503490348FFF771FF00BF29
:1038D40008BD00BF500700200020024082B003460C
:1038E4008DF80730054A9DF80730012101FA03F3EA
:1038F400C2F8043500BF02B0704700BF00F00140B9
:1039040084B00346029101928DF80F3008499DF866
:103914000F30A233029A41F83320054A9DF80F3044
:10392400A233DB001344019A5A6000BF04B070470D
:1039340000F0014082B003468DF807309DF807304F
:10394400012202FA03F3184602B0704700B583B0AF
:1039540003468DF807309DF807301846FFF7EAFF55
:103964000346C3F31303002B14BF01230023DBB26C
:10397400184603B05DF804FB82B001900123184699
:1039840002B0704700B583B003468DF807309DF848
:1039940007301846FFF7CEFF03461846FFF7ECFF43
:1039A4000346184603B05DF804FB000000B583B07D
:1039B40003468DF807309DF807301846FFF7BAFF25
:1039C4000246064B1B681340002B14BF012300233F
:1039D400DBB2184603B05DF804FB00BF58070020B3
:1039E40000B583B003468DF807309DF807301846BC
:1039F400FFF7A0FF0246044B1B681343024A1360FF
:103A040000BF03B05DF804FB5807002000B587B081
:103A14000190002305930023039304230593244B6F
:103A2400039300238DF8133037E00020FDF788FE60
:103A34009DF813301846FFF77DFF0246039B1340A1
:103A4400002B15D09DF813301846FFF7AFFF03463F
:103A540083F00103DBB2002B0AD09DF81330184623
:103A6400FFF7BEFF019B9DF813201A7000230593F6
:103A74000020FDF779FE059B002B12D09DF8133032
:103A84001846FFF757FF0346DB43039A134003939B
:103A94009DF8133001338DF81330039B002BC4D1F0
:103AA40000E000BF059B184607B05DF804FB00BFAB
:103AB400FFFF0F0000B587B00346029101928DF815
:103AC4000F30029B002B02D0019B002B01D10E234F
:103AD40025E0002305939DF80F301846FFF736FFC5
:103AE400034683F00103DBB2002B02D007230593C6
:103AF40014E09DF80F301846FFF758FF034683F093
:103B04000103DBB2002B02D00823059306E09DF8E5
:103B14000F30019A02991846FFF7F2FE059B1846EA
:103B240007B05DF804FB00B585B003468DF8073097
:103B3400002303939DF807301846FFF723FF03463D
:103B440083F00103DBB2002B02D0072303931AE0B6
:103B54009DF807301846FFF7F9FE0346002B0DD0F9
:103B64009DF807301846FFF721FF034683F0010351
:103B7400DBB2002B02D00823039304E09DF8073046
:103B84001846FFF7ABFE039B184605B05DF804FB2F
:103B9400054B1B78002B04D1034B01221A70002320
:103BA40000E08523184670475C07002082B0034676
:103BB4008DF807309DF90730002B0CDB07499DF980
:103BC40007305B099DF8072002F01F02012000FA6C
:103BD40002F241F8232000BF02B0704700E100E088
:103BE40082B003468DF807309DF90730002B0DDBBA
:103BF40008499DF907305B099DF8072002F01F0270
:103C0400012000FA02F2603341F8232000BF02B021
:103C1400704700BF00E100E082B0034600918DF8D8
:103C240007309DF90730002B0ADB0D499DF9073059
:103C3400009AD2B25201D2B20B4483F800230BE0B3
:103C440008499DF8073003F00F03043B009AD2B2F1
:103C54005201D2B20B441A7600BF02B0704700BFC3
:103C640000E100E000ED00E082B00190019B03F070
:103C74006043B3F1005F0CBF01230023DBB218469D
:103C840002B0704782B00190019B1B0B5BB21846D7
:103C940002B0704700B583B003460A468DF807307A
:103CA40013468DF806309DF80630072B03D90849D2
:103CB4006B20FDF79BFD9DF806209DF9073011460A
:103CC4001846FFF7A9FF00BF03B05DF804FB00BF6F
:103CD400CC8C000000B583B003468DF807309DF905
:103CE40007301846FFF762FF00BF03B05DF804FB1E
:103CF40000B583B003468DF807309DF907301846A8
:103D0400FFF76EFF00BF03B05DF804FB82B00190C3
:103D14000B468DF803309DF80330019A13440122B9
:103D24001A6000BF02B0704782B001900B468DF854
:103D340003309DF80330019A1344184602B07047CB
:103D440084B001900B46ADF80230BDF80230019A00
:103D5400134400221A60BDF80230019A13441B6810
:103D64000393039B00BF04B0704782B001900B46DD
:103D7400ADF80230BDF80230019A13441B68002BE1
:103D840014BF01230023DBB2184602B0704782B08F
:103D940001900B46ADF80230BDF80230019A13448D
:103DA400184602B0704782B001900091019B009ABE
:103DB400C3F8042300BF02B0704782B001900091A1
:103DC400019B009AC3F8082300BF02B0704782B079
:103DD4000190019B0622C3F8002500BF02B0704782
:103DE40082B00190019B0022C3F8002500BF02B0FD
:103DF400704784B0039002910192039B029AC3F826
:103E04000825039B019AC3F80C2500BF04B0704732
:103E140082B001900091019B009AC3F8242500BF51
:103E240002B0704784B00190019BD3F8C43403936B
:103E3400019B039AC3F8C424039B184604B070473B
:103E440082B001900B468DF803309DF80320019B4E
:103E5400C3F8882500BF02B0704784B00390029174
:103E64000192029A039BC3F84425039B019AC3F869
:103E7400482500BF04B0704784B0039002910192BA
:103E8400029A039BC3F83425039B019AC3F838258F
:103E940000BF04B0704782B001900091019B009A6A
:103EA400C3F8002200BF02B0704782B00190019BAA
:103EB400D3F84C35184602B0704782B00190019B8C
:103EC400D3F80032184602B0704782B00190019BCB
:103ED400D3F83C35184602B0704782B00190019B7C
:103EE4000122C3F8502500BF02B0704782B0019090
:103EF400019B0022C3F8502500BF02B0704782B076
:103F04000190019B0122C3F8402500BF02B0704715
:103F140082B00190019B0022C3F8402500BF02B08B
:103F24007047000000B583B00190019B1B681846E0
:103F340000F040F80346002B04D105494FF4F67015
:103F4400FDF754FC4FF0A043184603B05DF804FBA2
:103F5400FC8C000000B585B00190084611461A4655
:103F640003468DF803300B468DF8023013468DF866
:103F7400013001AB1846FFF7D5FF0390019A9DF875
:103F840003109DF802305B0019439DF801309B003B
:103F940019439DF818301B0219439DF81C301B046B
:103FA4001943039B02F5E07243F8221000BF05B0E9
:103FB4005DF804FB84B00190019B5B09029300232C
:103FC4000393029B002B03D14FF0FF33039300BFF5
:103FD400019B03F01F030193039A019B22FA03F34D
:103FE40003F00103002B14BF01230023DBB21846A6
:103FF40004B0704784B0019003230393019B03F042
:104004000103002B02D04FF402430393019B03F0FE
:104014000203002B02D048F201230393019B03F017
:104024000403002B02D048F202230393039B184697
:1040340004B0704700B585B00190009101238DF85C
:104044000F30009B1B7B032B56D801A252F823F0A0
:10405400CD400000E5400000A540000065400000A0
:10406400009B9B6803F48023002B07D00198FFF783
:104074001CFF0246009B1B699A420DD1009B9B6862
:1040840003F48023002B39D10198FFF70EFF024679
:10409400009B5B699A4231D000238DF80F302DE0EC
:1040A4000198FFF702FF0246009B1B699A4207D161
:1040B4000198FFF70AFF0246009B5B699A421FD0F2
:1040C40000238DF80F301BE00198FFF7EEFE024647
:1040D400009B1B699A4215D000238DF80F3011E024
:1040E4000198FFF7F2FE0246009B1B699A420BD02F
:1040F40000238DF80F3007E000BF06E000BF04E0A6
:1041040000BF02E000BF00E000BF9DF80F3083F065
:104114000103DBB2002B05D00198FFF761FE019883
:10412400FFF755FE9DF80F30184605B05DF804FB07
:1041340000B58BB00590049103920293049B002B6D
:1041440003D14A49E720FDF751FB049B1A68049BFD
:104154005B689A4203D14549E820FDF747FB059B7C
:104164001B791A46342303FB02F3414A134409938F
:10417400099B93F82D30002B03D008230893089B48
:1041840070E0059B1A68059B1B791946394B53F857
:10419400213019461046FEF70DFE0346002B03D0CE
:1041A40011230893089B5DE0099B039A1A60099BFD
:1041B400029A5A60099B00229A60099B002283F8A4
:1041C4003020099B002283F82F20049B5A7B099BF3
:1041D40083F83220049B186800230193062300937C
:1041E400032300220021FFF7B5FE049B5868002337
:1041F400019306230093032300220021FFF7AAFE64
:10420400059B1B680793049B1968049B5B681A460B
:104214000798FFF7EEFD049B9B6819460798FFF784
:10422400F7FD099B1B68002B15D0059B1B681846DE
:10423400FFF728FD03461A46049B1B7B19461046CC
:10424400FFF728FD059B1B681846FFF71BFD034677
:104254001846FFF73FFD099B012283F82D20002318
:104264000893089B18460BB05DF804FB348D0000DE
:1042740060070020988D000000B585B00190019B77
:104284001B791A46342303FB02F30D4A13440393A8
:10429400039B93F82D30012B04D00A4940F24F10B0
:1042A400FDF7A4FA019B1B681846FFF790FD039BDA
:1042B400022283F82D2000BF05B05DF804FB00BF87
:1042C40060070020348D000000B583B00190009198
:1042D400009B03F00103002B03D00198FFF7FDFDC1
:1042E40002E00198FFF702FE009B03F00203002B9B
:1042F40003D00198FFF703FE02E00198FFF708FEE0
:1043040000BF03B05DF804FB30B589B0039002919F
:10431400019200930023079308238DF81B30039B1D
:10432400002283F82E20019BDB681846FFF79CFCD3
:10433400034683F00103DBB2002B03D01023079361
:10434400079BFBE19C490298FFF737FD039B93F819
:104354002F30DBB2002B09D0039B9B6819460298CF
:10436400FFF721FD11230793079BE7E1009B03F06F
:104374000403002B06D1009B03F01003002B01D192
:10438400012300E0002303F00103DAB2039B83F866
:104394002F20039B019A03F10C0415460FCD0FC483
:1043A4002B682360009B03F01003002B14BF012330
:1043B4000023DAB2039B83F83020039B009A1A622D
:1043C400019B5B7819460298FFF73AFD4FF482711E
:1043D4000298FFF7B5FC4FF492710298FFF7B0FC16
:1043E4004FF4B0710298FFF7ABFC4FF4A47102983C
:1043F400FFF7A6FC00990298FFF766FF019B1B7864
:10440400032B00F2DD8001A252F823F043450000A3
:104414008B450000EB44000021440000009B03F0A6
:104424001003002B04D065494FF4D970FDF7DEF971
:10443400009B03F00803002B04D0604940F2B31042
:10444400FDF7D4F9009B03F00403002B04D05B496F
:104454004FF4DA70FDF7CAF9019B1B691846FFF7A0
:1044640003FC034683F00103DBB2002B03D01023CB
:104474000793079B62E14FF480710298FFF70BFDED
:10448400019BD968019B5B681A460298FFF7E5FC1B
:104494004FF4A8710298FFF753FC20210298FFF70C
:1044A40035FC08210298FFF731FC00BF4FF4A871D6
:1044B4000298FFF75AFC034683F00103DBB2002B9A
:1044C400F4D14FF4A8710298FFF73AFC019B1969E3
:1044D400019B9B681A460298FFF7BFFC039B4FF4AD
:1044E40080229A606FE0019BD968019B5B681A4641
:1044F4000298FFF7B2FC019B1B691846FFF7B4FB57
:10450400034683F00103DBB2002B03D0102307938F
:10451400079B13E1019B1969019B9B681A4602984A
:10452400FFF7AAFC4FF484510298FFF7B4FC039BF5
:1045340002229A6020210298FFF7E8FB43E0019BE6
:10454400D968019B5B681A460298FFF786FC009BBA
:1045540003F02003002B09D04FF480710298FFF779
:104564009AFC039B4FF480229A6007E04FF4007199
:104574000298FFF790FC039B02229A602021029884
:10458400FFF7C4FB1FE0019BD968019B5B681A46D7
:104594000298FFF771FC4FF480510298FFF77BFCFF
:1045A400039B02229A6000238DF81B30202102987D
:1045B400FFF7ACFB07E000BF02029C01348D000052
:1045C4000723079300BF009B03F00803002B09D1C6
:1045D400019B1B78032B05D09DF81B3019460298CC
:1045E400FFF794FB039B1B68002B1FD0009B03F079
:1045F4000403002B02D0039B00229A60009B03F06B
:104604004003002B05D1039B9B6843F00202039BEC
:104614009A60039B9B6843F40072039B9A60039B1C
:104624009B6819460298FFF7BEFB86E000238DF8CD
:104634001A304FF4A4710298FFF797FB0346002B3E
:1046440002D001238DF81A304FF482710298FFF7DB
:104654008CFB0346002B07D04FF482710298FFF7BE
:104664006FFB01238DF81A304FF492710298FFF713
:104674007CFB0346002B38D04FF492710298FFF76D
:104684005FFB4FF4B0710298FFF76FFB03468DF8A0
:1046940019300298FFF711FC05909DF8193083F04A
:1046A4000103DBB2002B04D1059B03F40073002B40
:1046B4000AD120210298FFF729FB14210298FFF761
:1046C40025FB00238DF81A309DF81930002B0CD0EF
:1046D400059B03F48073002B07D04FF4A471029858
:1046E400FFF72EFB00238DF81A309DF81A3083F063
:1046F4000103DBB2002B9CD10298FFF793FB0490DB
:10470400039B002283F82F20049B002B04D00498E1
:10471400FFF770FC079010E0009B03F04003002BB0
:104724000BD103990298FFF785FC034683F001033C
:10473400DBB2002B01D003230793079B184609B073
:1047440030BD00BF00B587B0039002910192039B76
:104754001B79002B07D1029B5B68FF2B03D8029BBC
:104764009B68FF2B04D91B494FF41B70FDF73EF8DF
:1047740000230593039B1B791A46342303FB02F39E
:10478400154A13440493049B1B68002B08D1029B15
:104794001B78022B04D10F4940F27220FDF726F852
:1047A400049B1B68002B08D1029B1B78032B04D1AC
:1047B400084940F27320FDF719F8039B1968019B1F
:1047C400029A0498FFF7A0FD0590059B184607B0D0
:1047D4005DF804FB348D00006007002000B58BB049
:1047E4000390019200930B468DF80B3000238DF853
:1047F40014309DF80B308DF81530009B0693002380
:104804000793019B0893002309939DF83030002BF4
:1048140001D0202200E0002205AB19460398FFF7DF
:1048240091FF034618460BB05DF804FB00B583B056
:1048340001900B468DF80330019B1A689DF80330F4
:10484400012B01D0082300E0002319461046FFF78E
:104854006BFA0346184603B05DF804FB00B583B059
:104864000190019B1B684FF482711846FFF78FFA81
:104874000346184603B05DF804FB000030B58BB066
:1048840001900091009B1B68002B04D1A24940F2C7
:10489400C120FCF7ABFF4FF492710198FFF765FA62
:1048A4000346002B3ED04FF492710198FFF748FA6B
:1048B4004FF482710198FFF758FA034683F001031D
:1048C400DBB2002B2ED0009B9B6819460198FFF7A2
:1048D40074FA009B02229A60009B9B681946019817
:1048E400FFF761FA4FF4B0710198FFF73EFA0346FF
:1048F40083F00103DBB2002B07D10198FFF7DDFA47
:10490400034603F40073002B07D120210198FFF71D
:10491400FDF914210198FFF7F9F9009B012283F8AE
:104924002E20F6E04FF482710198FFF71EFA034639
:10493400002B5DD04FF482710198FFF701FA009BC0
:104944001B6A03F04003002B1AD1009B93F82E300E
:1049540083F00103DBB2002B12D000990198FFF71A
:1049640069FB0346002B14BF01230023DBB283F051
:104974000103DBB203F00103DAB2009B83F82E20BB
:10498400009B1B6A03F00403002B79D1009B04AC49
:1049940003F10C050FCD0FC42B6823604FF4B071E5
:1049A4000198FFF7CDF94FF4AE710198FFF7C8F9FC
:1049B400009B93F8303083F00103DBB2002B04D169
:1049C400009B93F82E30002B5AD000210198FFF75A
:1049D40062FA009B00229A6050490198FFF7EDF9B2
:1049E4000198FFF74FF903461846FFF781F947E0AE
:1049F4004FF4A4710198FFF7A3F9009B1B7B002BD4
:104A040022D1009B04AC03F10C050FCD0FC42B681D
:104A14002360009B93F8303083F00103DBB2002B5A
:104A24002ED000210198FFF736FA009B00229A60ED
:104A34003A490198FFF7C1F90198FFF723F90346B2
:104A44001846FFF755F91BE04FF400710198FFF782
:104A540022FA009B40F202229A6030490198FFF743
:104A6400ACF9009B9B6819460198FFF79CF9082153
:104A74000198FFF74BF920210198FFF747F948E027
:104A84000198FFF7CFF90990099B03F00203002B6B
:104A940003D001238DF80C301DE0099B03F00403BF
:104AA400002B03D002238DF80C3014E0099B03F093
:104AB4000103002B03D003238DF80C300BE0009B83
:104AC40093F82E30002B03D004238DF80C3002E031
:104AD40000238DF80C30009B93F8303083F00103F1
:104AE400DBB2002B03D0009B002283F82F20009B15
:104AF4001B6A03F00403002B04D0009B93F82E30B0
:104B0400002B06D0009B1B68009A516803AA10462C
:104B140098470BB030BD00BF348D000002029C01E9
:104B240008B503490348FFF7A9FE00BF08BD00BF4D
:104B3400600700200030004082B003468DF8073043
:104B44009DF90730002B0CDB07499DF907305B0901
:104B54009DF8072002F01F02012000FA02F241F83A
:104B6400232000BF02B0704700E100E082B003469A
:104B740000918DF807309DF90730002B0ADB0D49B1
:104B84009DF90730009AD2B25201D2B20B4483F895
:104B940000230BE008499DF8073003F00F03043BA2
:104BA400009AD2B25201D2B20B441A7600BF02B0BC
:104BB400704700BF00E100E000ED00E082B001902A
:104BC400019B1B0B5BB2184602B0704700B583B063
:104BD40003460A468DF8073013468DF806309DF8D3
:104BE4000630072B03D908496B20FCF7FFFD9DF81D
:104BF40006209DF9073011461846FFF7B7FF00BF9E
:104C040003B05DF804FB00BF9C8D000000B583B0C9
:104C140003468DF807309DF907301846FFF78CFFDF
:104C240000BF03B05DF804FB82B001900B468DF821
:104C340003309DF80330019A134401221A6000BF27
:104C440002B0704784B001900B46ADF80230BDF855
:104C54000230019A134400221A60BDF80230019A0E
:104C640013441B680393039B00BF04B0704782B0D6
:104C740001900B46ADF80230BDF80230019A13449E
:104C84001B68002B14BF01230023DBB2184602B0BB
:104C9400704782B001900091019BD3F80022009BE1
:104CA4001A43019BC3F8002200BF02B0704782B0D0
:104CB40001900091019BD3F80022009BDB431A4032
:104CC400019BC3F8002200BF02B0704782B001907C
:104CD4000091019B009AC3F8042300BF02B07047FF
:104CE40082B001900091019B009AC3F8082300BF91
:104CF40002B0704782B001900091019BD3F8042365
:104D0400009B1340002B14BF01230023DBB2184681
:104D140002B0704782B001900B468DF80330019BBE
:104D2400D3F8043523F003029DF8033003F00303A2
:104D34001A43019BC3F8042500BF02B0704782B038
:104D440001900B468DF80330019BD3F8083523F00E
:104D540003029DF8033003F003031A43019BC3F8D5
:104D6400082500BF02B0704782B001900B468DF851
:104D74000330019BD3F8103523F00F029DF8033064
:104D840003F00F031A43019BC3F8102500BF02B0C0
:104D9400704784B003900B4601928DF80B309DF858
:104DA4000B20039B02F5A872019943F8221000BF5F
:104DB40004B0704782B00190019B9B0003F5A0737F
:104DC4009BB2184602B0704782B001904FF4803213
:104DD400019B02FA03F3184602B0704710B588B07D
:104DE400039002910192039B1B791A4613465B00C0
:104DF40013449B00704A13440693029B002B03D177
:104E04006E494A20FCF7F2FC019B002B03D16B494D
:104E14004B20FCF7EBFC069B1B7A002B03D00823EA
:104E24000593059BC4E0039B1B68654A93420FD11D
:104E3400029B9B78012B64D0029B9B78002B60D053
:104E4400029B9B78022B5CD0029B9B78032B58D04F
:104E5400039B1B685B4A93420FD1029B9B78012BF7
:104E64004FD0029B9B78002B4BD0029B9B78022B4C
:104E740047D0029B9B78032B43D0039B1B68524A69
:104E840093420FD1029B9B78012B3AD0029B9B78D3
:104E9400002B36D0029B9B78022B32D0029B9B784E
:104EA400032B2ED0039B1B68484A93420FD1029BCD
:104EB4009B78012B25D0029B9B78002B21D0029B51
:104EC4009B78022B1DD0029B9B78032B19D0039B4C
:104ED4001B683F4A93420FD1029B9B78012B10D051
:104EE400029B9B78002B0CD0029B9B78022B08D052
:104EF400029B9B78032B04D030495F20FCF776FC9F
:104F040000E000BF069B019A1A60029B5A68069B48
:104F14005A6000238DF81F3010E0039B1C689DF835
:104F24001F301846FFF746FF034619462046FFF791
:104F340089FE9DF81F3001338DF81F30039B5B7988
:104F44009DF81F209A42E8D3039B1B681846FFF77D
:104F540035FE03461A46029BDB7819461046FFF7D6
:104F640035FE039B1B681846FFF728FE03461846C8
:104F7400FFF74CFE039B1A68029B5B7819461046A8
:104F8400FFF7C8FE039B1A68029B9B7819461046DC
:104F9400FFF7D5FE039B1A68029B1B78194610463F
:104FA400FFF7E2FE069B01221A7200230593059B7C
:104FB400184608B010BD00BF94070020D48D00002F
:104FC400008000400090004000A0004000A001408C
:104FD40000B0014000B583B00190019B1B791946D4
:104FE400114A0B465B000B449B00134408331B78A7
:104FF400012B03D00D498F20FCF7F8FB019B1B68A4
:1050040000211846FFF710FE019B1B791946064A3A
:105014000B465B000B449B001344083302221A70B6
:1050240000BF03B05DF804FB94070020D48D00009A
:1050340010B586B0039001921A460B468DF80B30DA
:1050440013468DF80A309DF80B301846FFF7BCFE66
:1050540005909DF80A30002B12D0039B1C689DF824
:105064000B301846FFF7A6FE034619462046FFF705
:10507400E9FD039B1B6805991846FFF727FE05E029
:10508400039B1B6805991846FFF72AFE039B1B68C0
:105094009DF80B10019A1846FFF77BFE00BF06B07F
:1050A40010BD00B585B0039001921A460B468DF8E9
:1050B4000B301346ADF80830039B18689DF80B308D
:1050C4004FF480729A409DF80B30012101FA03F3EA
:1050D40013431946FFF7EBFD039B1B68BDF808203B
:1050E40011461846FFF7D5FD9DF818309DF80B10B2
:1050F400019A0398FFF79CFF00BF05B05DF804FB1D
:1051040000B587B00390029113468DF80730002351
:105114008DF8173030E09DF817301846FFF74AFE37
:105124000346ADF814309DF817301846FFF74CFECF
:105134000490BDF8143019460398FFF798FD034610
:10514400002B14D004990398FFF7D4FD0346002BD9
:105154000DD0BDF8143019460398FFF773FD029B78
:105164001B68029A5168BDF81420104698479DF8B0
:10517400173001338DF817309DF817209DF807304C
:105184009A42C8D300BF07B05DF804FB08B50422F7
:1051940002490348FFF7B4FF00BF08BD940700208D
:1051A4000080004008B5042202490348FFF7A8FF25
:1051B40000BF08BDA00700200090004008B50422ED
:1051C40002490348FFF79CFF00BF08BDAC0700205D
:1051D40000A0004008B5062202490348FFF790FFEB
:1051E40000BF08BDB807002000A0014000B585B08D
:1051F4000190019B002B0AD0074B43F0010303935A
:10520400019B9B010293039B0298984700E000BF17
:1052140005B05DF804FB00BF708E000000B583B0DC
:105224000190019B1B68184600F069F80346002BA7
:1052340004D105494FF4F670FCF7D8FA4FF0A043B7
:10524400184603B05DF804FB388E000000B585B045
:10525400019001AB1846FFF7E1FF0390019B012287
:1052640002FA03F31946039800F035F800BF05B0BD
:105274005DF804FB00B585B0019001AB1846FFF75B
:10528400CDFF0390019B012202FA03F31946039810
:1052940000F02BF800BF05B05DF804FB00B585B045
:1052A400019001AB1846FFF7B9FF0390039800F093
:1052B4000AF80246019B22FA03F303F0010318469D
:1052C40005B05DF804FB82B00190019BD3F8103562
:1052D400184602B0704782B001900091019B009A79
:1052E400C3F8082500BF02B0704782B00190009156
:1052F400019B009AC3F80C2500BF02B0704784B02C
:105304000190019B5B09029300230393029B002BF2
:1053140003D14FF0FF33039300BF019B03F01F033E
:105324000193039A019B22FA03F303F00103002B78
:1053340014BF01230023DBB2184604B0704700B544
:1053440085B001904FF0A042019B1B6803F5E07308
:1053540040F20C6142F823104FF0A042019B5B68BD
:1053640003F5E07340F20C6142F82310019B1B68C3
:105374001846FFF76BFF019B5B681846FFF766FF53
:105384004FF0A042019B1B6803F5E07340F20D61EE
:1053940042F823104FF0A042019B5B6803F5E073D1
:1053A40040F20D6142F823100420FFF71FFF002391
:1053B40003931EE0019B5B681846FFF76FFF0346EB
:1053C400002B03D0039B002B17D124E0019B1B6807
:1053D4001846FFF74FFF0420FFF708FF019B1B68E7
:1053E4001846FFF733FF0420FFF700FF039B013348
:1053F4000393039B082BDDDD00E000BF019B5B688A
:105404001846FFF737FF0420FFF7F0FE019B5B68A7
:105414001846FFF71BFF05B05DF804FB00B589B023
:1054240001900091009B0793019B1B788DF80C3031
:10543400019B1B798DF81030019B5B798DF811303D
:10544400019B9B68DBB28DF81230019BDB68DBB2F9
:105454008DF81330019B1B690593019B5B690693CF
:10546400074A079B52F823300649079A51F822103D
:1054740003AA1046984700BF09B05DF804FB00BFBB
:10548400C4070020CC07002000B587B00390029128
:1054940001920093039B1B7805931249059B019A83
:1054A40041F823201049059B009A41F82320029BD0
:1054B4005B7B002B02D00298FFF741FF002304938B
:1054C400039B181D019B002B01D0084A00E0002219
:1054D400059B0299FEF72CFE0490049B184607B026
:1054E4005DF804FBC4070020CC0700202154000011
:1054F40000B583B00190019B1B68184600F08DF83D
:105504000346002B04D105494FF4F670FCF76EF9FD
:105514004FF0A043184603B05DF804FB788E0000FA
:1055240000B585B00190084611461A4603468DF829
:1055340003300B468DF8023013468DF8013001AB71
:105544001846FFF7D5FF0390019A9DF803109DF8C4
:1055540002305B0019439DF801309B0019439DF80C
:1055640018301B0219439DF81C301B041943039B7C
:1055740002F5E07243F8221000BF05B05DF804FBA9
:1055840000B585B00390002301930023009300230A
:10559400012201210398FFF7C3FF00BF05B05DF8A6
:1055A40004FB00B585B0019001AB1846FFF7A0FFDE
:1055B4000390019B012202FA03F31946039800F0B9
:1055C40018F800BF05B05DF804FB00B585B0019084
:1055D40001AB1846FFF78CFF0390019B012202FAEE
:1055E40003F31946039800F00EF800BF05B05DF808
:1055F40004FB82B001900091019B009AC3F8082536
:1056040000BF02B0704782B001900091019B009AE4
:10561400C3F80C2500BF02B0704784B00190019B11
:105624005B09029300230393029B002B03D14FF0E9
:10563400FF33039300BF019B03F01F030193039AFD
:10564400019B22FA03F303F00103002B14BF01238F
:105654000023DBB2184604B0704782B001900B46B9
:105664008DF803309DF80330019A1344184602B0B4
:10567400704782B001900B46ADF80230BDF802309D
:10568400019A1344184602B0704782B00190019BFE
:10569400D3F81035DBB2184602B070472DE9F04F4D
:1056A40087B001900B468DF803309DF803300593C5
:1056B400019B19464FF000020B4614464FEA441C66
:1056C4004CEAD36C4FEA431B5B4664465B1A64EBBB
:1056D40002044FEA840A4AEA937A4FEA83094B4662
:1056E40054465B1844EB02044FEAC41848EA536872
:1056F400DF013B464446059AC2F12000A2F1200195
:1057040023FA02F504FA00F0054324FA01F10D43EB
:1057140024FA02F6CDE90256DDE90234012C08BF71
:10572400002B04D304494FF43170FCF75FF8029B5B
:10573400184607B0BDE8F08FA88E000000B583B00E
:1057440001900B468DF80330019B1B689DF80320E4
:1057540011461846FFF781FF0346184603B05DF86B
:1057640004FB00B583B001900B46ADF80230019BF9
:105774001B68BDF8022011461846FFF77AFF03465E
:10578400184603B05DF804FB00B583B001900091A6
:10579400019B1B681846FFF778FF034619460098DB
:1057A400FFF77CFF0346184603B05DF804FB00B521
:1057B40083B00190019B04331846FEF75DFD00BFE2
:1057C40003B05DF804FB00B589B0059003921A4656
:1057D4000B468DF8133013468DF8123000230793CF
:1057E400059B181D9DF812209DF813109DF8283074
:1057F40000931346039AFEF7F1FF0790079B1846A0
:1058040009B05DF804FB00B591B0039002910192D8
:1058140000230F93029B1B788DF82830029B5B7842
:105824008DF82930029B9B780B93029BDB780C93B9
:10583400029B5B680D93029B9B680E93039B04334E
:105844000AA9019A1846FEF77DFF0F900F9B184690
:1058540011B05DF804FB00B585B001900B468DF8DE
:10586400033000230393019B04339DF80320114666
:105874001846FEF7DBFF0390039B184605B05DF85E
:1058840004FB00B585B0019000230393019B04330E
:105894001846FEF7E3FF0390039B184605B05DF836
:1058A40004FB84B00190002303934FF080430293E0
:1058B40002E0029B9B100293029A019B9A42F8DC3D
:1058C40017E0039A029B1A44019B9A420BDC039A49
:1058D400029B1344019AD31A0193039B5A10029B0F
:1058E4001344039302E0039B5B100393029B9B10FE
:1058F4000293029B002BE4D1039B184604B070472B
:105904000B4B4FF000021A600A4B4FF000021A6072
:10591400094B4FF07E521A60084B094A1A60094B32
:10592400094A1A60094B0A4A1A6000BF704700BF4F
:10593400F8070020FC0700200008002004080020CD
:10594400F01678BF0808002031087C3F0C080020BE
:1059540031087CBF82B00023ADF806300CE0BDF9FD
:105964000630264A002142F82310BDF906309BB2C6
:1059740001339BB2ADF80630BDF906201B23013B71
:105984009A42ECDB0023ADF804302FE0BDF904307B
:10599400002B12D1BDF90430BDF90420184992003E
:1059A4000A44D2ED007AB7EE007A77EE877A144A89
:1059B4009B001344C3ED007A11E0BDF90430BDF936
:1059C40004200F4992000A44D2ED007AB1EE007A25
:1059D40067EE877A0A4A9B001344C3ED007ABDF947
:1059E40004309BB201339BB2ADF804301B22BDF9E5
:1059F40004309342CADB00BF02B070471008002095
:105A04005400002084B00190214BD3ED006A214B57
:105A1400D3ED007A86EEA77A019B07EE903AF8EE72
:105A2400E77A27EE277A1C4B93ED006A194BD3EDE6
:105A3400007AC6EE276A194BD3ED007A66EEA77A90
:105A440037EE277A164B93ED006A124BD3ED007AAA
:105A5400C6EE276A134BD3ED007A66EEA77A77EE8B
:105A6400677ACDED037A019B07EE903AF8EEE77A78
:105A74000A4BC3ED007A0B4A039B1360DDED037AF6
:105A8400FDEEE77A17EE903A184604B0704700BF6F
:105A940008080020000800200C080020F807002057
:105AA40004080020FC07002088B001904FF0000398
:105AB40007930023ADF81A303AE0BDF91A30002BF1
:105AC40014D1BDF91A303C4A9B00134493ED007A7B
:105AD400019B07EE903AF8EEE77A67EE277A9DEDA0
