:020000022000DC
:106000000000012079630200616302006363020003
:10601000656302006763020069630200000000001C
:106020000000000000000000000000006B630200A0
:106030006D630200000000006F63020071630200E4
:1060400015BD020073630200A9C2020031C902003B
:106050007363020073630200A5C102007363020050
:106060006DCA020085CA02009DCA02007363020065
:1060700073630200736302007363020073630200C0
:10608000736302001D7B02007363020073630200EE
:106090007363020073630200DD3C0300736302005C
:1060A0007363020073630200B5CA0200CDCA020026
:1060B000FDC3020073630200000000000000000046
:1060C0007363020073630200736302007363020070
:1060D0007363020073630200736302000000000038
:1060E00000000000000000000000000000000000B0
:1060F00000000000000000000000000000000000A0
:10610000000000000000000000000000000000008F
:10611000000000000000000000000000000000007F
:10612000000000000000000000000000000000006F
:10613000000000000000000000000000000000005F
:10614000000000000000000000000000000000004F
:10615000000000000000000000000000000000003F
:10616000000000000000000000000000000000002F
:10617000000000000000000000000000000000001F
:10618000000000000000000000000000000000000F
:1061900000000000000000000000000000000000FF
:1061A00000000000000000000000000000000000EF
:1061B00000000000000000000000000000000000DF
:1061C00000000000000000000000000000000000CF
:1061D00000000000000000000000000000000000BF
:1061E00000000000000000000000000000000000AF
:1061F000000000000000000000000000000000009F
:10620000364937480A1A02D0072291438D4635494C
:1062100035480A1A06D00722914381F309880222E1
:1062200082F3148831483249324A00F045F8324846
:106230003249334A00F040F832483349334A00F0DB
:106240003BF833483349344A00F036F83348344990
:10625000344A00F031F834483449354A00F02CF81B
:1062600034483549354A00F027F835483549002289
:1062700000F02DF834483549002200F028F8344861
:106280003449091A082903DB002202600430016046
:10629000314A90471F482049884205D0026804309F
:1062A00003B4904703BCF7E700208646EC46002085
:1062B00000212A4A9047FEE7884207D0521A05D0AB
:1062C000037801300B700131013AF9D170478842EF
:1062D00002D002700130FAE7704700000000012090
:1062E00000E000200000012000000120C0E30400C5
:1062F00074220020EC680020D4630200D463020002
:1063000048740300C0E304007422002074220020BB
:10631000FC750300FC750300FC750300FC750300AD
:10632000FC750300FC750300FC750300FC7503009D
:10633000C0E30400382A0500EC680020EC68002067
:10634000EC680020F0880020F0880020F48800200D
:10635000F4880020F4A80020A163020059D40200B0
:10636000FEE7FEE7FEE7FEE7FEE7FEE7FEE7FEE705
:10637000FEE7FEE700F002B8FFF7FCBF0F484FF062
:106380000701884385460E4880470E48016841F45E
:1063900070010160BFF34F8FBFF36F8FFFF730BF06
:1063A00009480A490A4A884207D0521A05D0037898
:1063B00001300B700131013AF9D170470000012022
:1063C00009B2020088ED00E0E875030060220020B9
:0463D0007422002013
:1063D40000487047E888002000B585B00190019B13
:1063E400002B0AD0074B43F001030393019B9B014D
:1063F4000293039B0298984700E000BF05B05DF844
:1064040004FB00BF1076030000B583B00190019B2C
:10641400002B0AD04FF47A70FFF7DEFF019B013B9B
:106424000193019B002BF5D100E000BF03B05DF8A0
:1064340004FB08B507F05AFA00BF08BD00B589B0DF
:10644400039002910192019B002B33D00023079308
:1064540003230693029A079B1344019A19460020CA
:1064640007F0D0F90590079A059B13440793019A06
:10647400059BD31A0193059B002B13D10F4B1B785B
:1064840083F00103DBB2002B13D10120FFF7BCFF23
:10649400069B013B0693069B002B03D1074B00226E
:1064A4001A7007E0054B01221A70019B002BD1D111
:1064B40000E000BF00BF09B05DF804FBEC680020F9
:1064C40000B585B003900291054B00934023054A23
:1064D4000299039800F012F800BF05B05DF804FBC0
:1064E40041640200F068002082B0019000BF02B055
:1064F400704782B0019000BF02B0704700B5A1B0F0
:106504000590049103920293049804F04AFA039BC1
:106514001593029B16930023179300238DF8603084
:1065240000231993229B1A9300231F930FA91F9BE7
:106534000822049804F00EFB08231F93119B129366
:10654400BDF84030ADF84C30BDF84230ADF84E30B7
:1065540000238DF851309DF83C3003F00303DBB287
:10656400012B26D10F9BC3F395231D939DF83C303B
:10657400C3F3C203DBB28DF85030BDF83C30C3F333
:106584008313DBB21C931C9B9A0009A91F9B0498DC
:1065940004F0E0FA1C9B9B001F9A13441F9312AA59
:1065A40009A915AB009313461C9A1D9800F0E6FE4A
:1065B4002FE09DF83C3003F00303DBB2022B28D11B
:1065C400BDF83E30C3F389139BB21E939DF83C3053
:1065D400C3F3C203DBB28DF850301E9B082B28BFD7
:1065E40008231B9307A91F9B1B9A049804F0B2FA73
:1065F4001F9A1B9B13441F931E9A1B9BD31A1E9313
:1066040015AB12AA07A81B9900F05AFF1E9B002B7A
:10661400E3D1049804F0D4F900BF21B05DF804FB81
:1066240082B00190019BDB6801225A7100BF02B065
:106634007047000000B583B04FF0FF330193FFF7BC
:10664400F8FE0421084800F0B5FD0190019B002BE1
:1066540003DA0649412006F0E9FD0348FFF7E0FFAD
:1066640000BF03B05DF804FBD8750300287603006F
:1066740000B583B001900091019B1B681B680099D1
:106684000198984700BF03B05DF804FB00B583B0E0
:106694000190019B1B685B680198984700BF03B099
:1066A4005DF804FB00B583B00190019B1B689B68F7
:1066B4000198984700BF03B05DF804FB82B00190D5
:1066C4000B468DF80330019BDB689DF803201A719B
:1066D40000BF02B0704782B00190019BDB681B7958
:1066E400184602B0704782B00190019BDB6801221A
:1066F4005A7100BF02B0704782B00190019BDB6801
:106704005B79184602B0704700B585B001900091DE
:106714000C4B00221A700C4804F0A8F80390039B59
:10672400002B01D0039B08E0084804F033FA084A20
:10673400084BD31ADB0802930023184605B05DF812
:1067440004FB00BF986A0020DC7403009C760300FD
:10675400D8750300F0740300024A034BD31ADB0814
:1067640018467047D8750300F074030000B587B06D
:1067740001900B468DF803309DF80330002B1FD099
:10678400FFF7EAFF04900023059313E0059B9B00A9
:106794000E4A13440393039B1B881A46019B1B68F0
:1067A4009A4204D1019B059A1A60002309E0059BD3
:1067B40001330593059A049B9A42E7D3052300E02D
:1067C4000023184607B05DF804FB00BF74220020C4
:1067D40000B585B001900B468DF803309DF8032079
:1067E40001AB11461846FFF7C1FF0346002B07D142
:1067F400019BDB00054A13440393039B1B6800E0E1
:106804000023184605B05DF804FB00BFF0740300D4
:1068140084B001900B468DF80330019BDB00174ACE
:10682400134402939DF80330013B032B1CD801A2AF
:1068340052F823F0496802005168020059680200C6
:106844006368020002238DF80F3011E004238DF8F1
:106854000F300DE0029B1B798DF80F3008E0029B8E
:106864005B798DF80F3003E000238DF80F3000BF03
:106874009DF80F30184604B0704700BFF074030051
:1068840084B00190009100238DF80F30019B1B7898
:1068940003F00403DBB2002B24D0019B1B78C3F369
:1068A4000103DBB2012B02D0022B0CD017E0009BBA
:1068B4001B68019A1288C2F38312D2B213449A1C41
:1068C400009B1A600BE0009B1B68019A5288C2F37C
:1068D400891292B213449A1C009B1A6000BF0123D0
:1068E4008DF80F309DF80F30184604B07047000043
:1068F40000B58BB00023ADF826303E4802F0C5FE4B
:106904003D4802F0C2FE3D4B9B6804933C4B1B6820
:106914000693049A069B134002339B00374A1344A0
:106924000433089304AB19460898FFF7A9FF0346FC
:10693400002B09D0049A069B134002339B002F4A74
:10694400134404330893EDE700BF0023079311E0D9
:10695400079B9B0001AA1A44049B591C04910699A5
:106964000B40264902339B000B445B681360079B72
:1069740001330793079B012BEAD99DF80430C3F335
:106984000103DBB2012B10D0022B1CD1BDF80A305D
:10699400ADF82630BDF80630C3F389139BB2033338
:1069A4009A08049B1344049313E0BDF80A30ADF82D
:1069B4002630BDF80430C3F38313DBB21A46049BBC
:1069C4001344049305E00F494FF4C27006F02EFC03
:1069D40000BF094802F065FE0590059B002B02D01C
:1069E400049B064A9360BDF8263018460BB05DF848
:1069F40004FB00BFB06E0020AC6E0020986A00203B
:106A04007C220020AC76030000B585B00021074845
:106A140002F07CFD0390039B0293029B83F310031B
:106A24000193019B184605B05DF804FBB46E002089
:106A340000B589B00390029101920093039B1B0C53
:106A44000793FFF7E1FF0690FFF786FE0246079BD8
:106A54009A4204D8224940F2A91006F0E7FB009BB1
:106A64005A1C0A9B1340069A1104079A0A431D49AB
:106A740002339B000B445A60009A0A9B1340023372
:106A84009B00184A134404330593039BDBB203F0C1
:106A94000703D9B2059A137861F3C5031370019BF8
:106AA400DBB203F00F03D9B2059A138861F389139B
:106AB4001380029BC3F31501059A136861F39F23A6
:106AC4001360059A1378012161F301031370059A89
:106AD40013786FF38203137000BF09B05DF804FBF1
:106AE400AC760300986A002000B58DB00390029143
:106AF40013468DF80730039B02330A9301238DF864
:106B0400273000238DF81B300DF11B03184600F0CD
:106B140077FF414B5A68029B1A60404B1A683E4B00
:106B240099683D4B5B68CB1A134401330B9314E013
:106B340001213B4802F079FDFFF7DAFE089008993D
:106B4400374802F072FD354B1A68334B9968324B63
:106B54005B68CB1A134401330B930A9A0B9B9A423A
:106B6400E6D89DF82730002B4AD0002305939DF8E2
:106B74000730002B18D09DF81430012262F3010372
:106B84008DF814309DF8143043F004038DF814305C
:106B9400039BDBB203F00F03DAB2BDF8143062F3E7
:106BA4008913ADF8143017E09DF81430022262F313
:106BB40001038DF814309DF8143043F004038DF86C
:106BC4001430039B9BB2C3F309039AB2BDF8163089
:106BD40062F38F13ADF816300F4B5A680F4B1B68D6
:106BE400134002339B000C4A134404330793059A61
:106BF400079B1A60084B5A680A9B1344064A536061
:106C04009DF81B30184600F011FF9DF827301846F8
:106C14000DB05DF804FB00BF986A00207C220020C0
:106C2400B46E002000B58BB00590049103920293DA
:106C34001F4B1B68079306AB012219460298FFF706
:106C440053FF0346002B24D0069B023309930023F1
:106C5400089311E0099B5A1C0992079A1340089A59
:106C6400920003990A441268124902339B000B44B0
:106C74005A60089B01330893089A029B9A42E9D30D
:106C8400069A079B00931346029A04990598FFF706
:106C9400CFFE084B1B78002B05D000BF00F07EF818
:106CA4000346002BFAD100BF0BB05DF804FB00BF14
:106CB4007C220020986A002000B583B001900091E6
:106CC4000023002200990198FFF7ACFF00BF03B036
:106CD4005DF804FB00B587B0039002910192019B1B
:106CE400059305AA012302990398FFF79BFF00BFB0
:106CF40007B05DF804FB00B587B0039002910192E0
:106D04000093019B0493009B059304AA0223029918
:106D14000398FFF787FF00BF07B05DF804FB00B5D9
:106D240089B00390029101920093019B0593009B0B
:106D340006930A9B079305AA032302990398FFF776
:106D440071FF00BF09B05DF804FB00B58BB0039080
:106D5400029101920093019B0593009B06930C9B67
:106D640007930D9B08930E9B099305AA052302998B
:106D74000398FFF757FF00BF0BB05DF804FB00005A
:106D8400054B9A68044B5B689A420CBF01230023AD
:106D9400DBB21846704700BF986A002000B599B06E
:106DA400FFF7EEFF0346002B01D00023C2E19C4B0A
:106DB4000022C3F81824BFF34F8F994B9B680493A8
:106DC400984B1B681093049A109B134002339B004A
:106DD400934A134404331793002316930023159303
:106DE40000230F9304AB19461798FFF749FD034698
:106DF400002B19D08A4BD3F81834002B14D1884BAC
:106E04005A68049B9A4205D8854B5B68844A936010
:106E140000238FE1049A109B134002339B00804AA5
:106E2400134404331793DDE70023149311E0149BF8
:106E34009B0001AA1A44049B591C049110990B400D
:106E4400774902339B000B445B681360149B013346
:106E54001493149B012BEAD99DF8043003F0030327
:106E6400DBB2022B40F09C80BDF80630C3F38913DB
:106E74009BB20E93BDF80630C3F389139BB2502B1B
:106E8400A8BF50230D930D9B9BB2C3F309039AB281
:106E9400BDF8063062F38F13ADF806300D9B08334E
:106EA4000C939DF80430C3F3C203DBB20F930C9927
:106EB4005D4803F0E6FC1690169B002B00F0D6808C
:106EC400169803F06EFD01A9159B0822169803F08D
:106ED40023FE159B08331593049BDA43109B134040
:106EE40001339B000B930D9A0B9B9A4242D90B9B47
:106EF400002B08D0049A109B134002339B00484A8D
:106F04001344043300E0494B0A930B9B002B02D03B
:106F14000B9BDBB201E00D9BDBB28DF827300B9BA2
:106F2400002B01D0414B00E0002308930B9B002B66
:106F340006D00D9BDAB20B9BDBB2D31ADBB200E0B6
:106F440000238DF81F309DF82720159B0A99169869
:106F540003F0E2FD9DF82730159A13441593089B1E
:106F6400002B16D09DF81F20159B0899169803F046
:106F7400D3FD0EE0049A109B134002339B00284A71
:106F8400134404330693159B0D9A0699169803F03F
:106F9400C3FD0E9B03339A08049B1344049365E0DA
:106FA4009DF8043003F00303DBB2012B5ED1BDF87E
:106FB4000430C3F38313DBB2062B28BF0623DBB2F2
:106FC40003F00F03DAB2BDF8043062F38913ADF8AD
:106FD4000430BDF80430C3F38313DBB202330593EA
:106FE4009DF80430C3F3C203DBB20F93059B9B00EF
:106FF40019460D4803F045FC1690169B002B35D01E
:10700400169803F0CEFC01A9159B0822169803F0EC
:1070140083FD159B08331593002314931DE000BFD3
:10702400986A00207C220020DC740300A46A0020FB
:10703400049B5A1C0492109A134002339B003F4A4B
:107044001344191D159B0422169803F065FD159B26
:1070540004331593149B01331493BDF80430C3F324
:107064008313DBB21A46149B9A42E1D8169B002B79
:1070740040D0324BD3F810341393304BD3F8183438
:10708400002B1BD0169803F09BFC4DE000238DF8D9
:107094004B301398FFF730FB0346002B02D001233B
:1070A4008DF84B309DF84B30002B03D01699139874
:1070B400FFF7DEFA139BDB681B681393139B002B0B
:1070C400E4D1169803F07CFC00238DF803300DF115
:1070D4000303184600F094FC184BD3F81834002B23
:1070E40002D1049B154A93609DF80330184600F0C2
:1070F4009DFC19E0114BD3F81034119306E011985C
:10710400FFF7D0FA119BDB681B681193119B002BCE
:10711400F5D10B4A0B4BD31ADB081B0443F00203D3
:1071240009491846FFF7C8FDFFF72AFE034683F016
:107134000103DBB2184619B05DF804FB986A00201D
:1071440038750300F07403001877030000B585B0A8
:107154000023039323E0164BD3F810340293012346
:107164008DF807300FE00298FFF7B5FA03461A4688
:10717400039B9A4203D100238DF8073006E0029B5B
:10718400DB681B680293029B002BECD19DF807304F
:10719400002B01D0039B07E0039B01330393039B64
:1071A400092BD8DD4FF0FF33184605B05DF804FB1A
:1071B400986A002000B585B001900B468DF8033025
:1071C400FFF7C4FF0390039BB3F1FF3F01D1039B7F
:1071D40022E0039BDBB219460198FFF76FFA104BCC
:1071E400D3F81034002B08D10D4A019BC2F8103497
:1071F400019BDB6800221A600DE0019BDB68084AF2
:10720400D2F81024D26812681A60054BD3F81034EF
:10721400DB68019A1A60039B184605B05DF804FB0D
:10722400986A002000B583B00C4BD3F81034019356
:107234000A4B01221A7009E00198FFF754FA0198E9
:10724400FFF724FA019BDB681B680193019B002B69
:10725400F2D100BF03B05DF804FB00BF986A0020C0
:1072640082B00190009100BF02B0704710B584B0A5
:1072740003900291039BDB88002B0AD0039BDB88DD
:107284001A461F4B009313461E4A1F49029802F0E8
:1072940047FB039B1B7A052B2ED0039B5B7A002BA9
:1072A40012D0039B9B881A46039B1B7A19461046EF
:1072B400FFF7AEFA03461A46144B53F822301A4627
:1072C4001349029802F02CFB039B1B681946029891
:1072D400FFF7C6FF039B1B7A1A460E4B53F8224056
:1072E400039B9B8800211846FFF772FA0346224647
:1072F4000949029802F014FB00BF04B010BD00BF9E
:107304004C7703005C7703009477030094220020F9
:10731400AC77030080220020B077030000B585B06D
:107324000390029113468DF80730039B1B7A052BBB
:107334000FD0039B5B7A002B06D00D4B1B681A46BB
:107344000C49029802F0ECFA0B49029802F0E8FAB0
:1073540007E09DF80730002B03D00749029802F09C
:10736400DFFA029802F0BAFA00BF05B05DF804FB38
:1073740094220020AC770300BC77030030B58BB0B7
:1073840007900691059204930E9B1B7B8DF8273082
:107394000E9B00221A730E990498FFF767FF059B52
:1073A400062B7FD801A252F823F000BFCD73020050
:1073B400D7730200E7730200FB7302001974020022
:1073C400417402007174020007990E9802F0A8FA41
:1073D40069E0069B1B681A4607990E9802F0A0FA0A
:1073E40061E0069B1A68069B04331B6807990E9894
:1073F40002F096FA57E0069B1A68069B0433196854
:10740400069B08331B6800930B4607990E9802F0FD
:1074140087FA48E0069B1968069B04331868069BA4
:1074240008331B68069A0C321268019200930346D3
:107434000A4607990E9802F073FA34E0069B18681E
:10744400069B04331C68069B08331B68069A0C329F
:10745400126806991031096802910192009323463B
:10746400024607990E9802F05BFA1CE0069B1C6822
:10747400069B04331D68069B08331B68069A0C326E
:107484001268069910310968069814300068039050
:107494000291019200932B46224607990E9802F01E
:1074A4003FFA00E000BF00220E990498FFF736FF70
:1074B4000E9B9DF827201A7300BF0BB030BD00BF90
:1074C40000B587B00390029101920093029B082BB0
:1074D40060D8009B1B7B8DF81330009B00221A732D
:1074E40000990198FFF7C2FE0023059314E0059A62
:1074F400029B9A4209D2039A059B13441B781A46AD
:107504002649009802F00CFA03E02549009802F09D
:1075140007FA059B01330593059B072BE7D92149FE
:10752400009802F0FDF90023059326E0059A029BDA
:107534009A421BD2039A059B13441B788DF8123090
:107544009DF812307E2B0AD89DF8123018460EF0A2
:10755400D3FB0346002B02D09DF8123000E02E230B
:107564001A461149009802F0DBF903E00F4900982C
:1075740002F0D6F9059B01330593059B072BD5D95A
:10758400012200990198FFF7C9FE009B9DF8132082
:107594001A7300E000BF07B05DF804FBC077030076
:1075A400C8770300CC770300D0770300D4770300B7
:1075B40086B003900291019201238DF817309DF853
:1075C40017301F4A039B13601D4A029B53601C4AD9
:1075D400019B9360039B44F20102934211D044F255
:1075E4000202934220D1019B154AD360144BDB68FD
:1075F4001B68134A9361124BDB685B68104AD361C2
:1076040012E0019B0E4A13610D4B1B699B680C4AE7
:1076140053610B4B1B691B68094A9361084B1B6937
:107624005B68074AD36100BF72B600BF9DF817308C
:10763400DBB2002BFAD162B600BF06B0704700BFC0
:10764400B86E002000B583B002900091019244F21C
:10765400010071466A4600F003F803B000BD00BFA4
:1076640030B58BB007900691059272B6FFF7DAFD3C
:1076740000BFFFF793FB0346002BFAD1079B41F2AF
:10768400010293421BD041F20102934202D8012B22
:1076940009D05FE044F2010293422ED044F2020288
:1076A400934218D056E0394A394BD31ADB081B04ED
:1076B40043F0010337491846FFF7FEFA57E0334A0F
:1076C400334BD31ADB081B0443F001033249184639
:1076D400FFF7F2FA4BE0059B09932C4A2C4BD31A83
:1076E400DB081B0443F00100099B5B681A46099BF5
:1076F4001B682A49FFF7FFFA39E0059B0893234AE0
:10770400234BD31ADB081B0443F00104089B9D6838
:10771400089B9B68184603F0B7FA03461846089B73
:107724005B681946089B1B68069A029201930091B4
:1077340003462A461A492046FFF707FB134A144B0F
:10774400D31ADB081B0443F0010316491846FFF75C
:10775400B3FA0CE00D4A0E4BD31ADB081B0443F0BA
:107764000103069A10491846FFF7B4FA00BF0F4BFD
:107774001B6803F00103002B00D000BE059A069994
:107784000798FFF715FF00BF0BB030BD3875030035
:10779400F07403004C7803006C78030090780300C5
:1077A400AC780300D4780300E8780300F0ED00E03F
:1077B40010B582B0124800F095F9034619464FF00F
:1077C4000002104BD3E900345B1844EB0204CDE90A
:1077D40000340D4BD3E90034DDE90012A24208BFA6
:1077E400994207D2DDE9003413F1807344F10004B7
:1077F400CDE90034DDE900341846214602B010BD5D
:10780400B8220020D86E0020E06E002008B502489F
:1078140000F075F900BF08BDB822002000B585B09E
:10782400034600918DF80730114A02AB1946104601
:1078340001F049FD0390039B002B13D0039B9DF89B
:1078440007201A70039B009A5A60094A02AB194632
:10785400104601F051FD0346002B01D0FFF7D6FF7F
:10786400002300E00423184605B05DF804FB00BFC4
:10787400E86E002010B586B0039002910192039B3C
:10788400002B04D1164940F23E2005F0CFFC039BA7
:107894000593059B1B7FDBB2002B01D000231BE06B
:1078A400059B019A9A61FFF783FF0A460146029BF2
:1078B4004FF000045B1844EB0204059AC2E9023459
:1078C400059B1B69002B02D0059B029A1A6105993E
:1078D4000020FFF7A3FF0346184606B010BD00BF03
:1078E4000C79030000B585B00190019B002B04D1F5
:1078F40009494FF4157005F099FC019B0393039B10
:1079040000221A7703990120FFF788FF03461846DF
:1079140005B05DF804FB00BF0C79030082B0EFF3FF
:1079240010830093009B019372B6019B184602B02A
:10793400704762B600BF704700B585B00190FFF78D
:10794400EDFF0390164B9B68002B1BD1144B0122B7
:107954009A60144BD3F88020134B1340104A1360E1
:10796400104B114AC3F880200E4BD3F884300C4AD4
:1079740053600C4B4FF0FF32C3F88420019B00226C
:107984001A7002E0019B01221A70039B002B01D1A3
:10799400FFF7CFFF0023184605B05DF804FB00BFD6
:1079A400F86E002000E100E0FC06FFBD00B585B0E4
:1079B40003468DF80730104B9B68002B16D09DF8BA
:1079C4000730002B12D1FFF7A9FF03900B4A0A4B93
:1079D4001B681360094A084B5B685360064B00221E
:1079E4009A60039B002B01D1FFF7A3FF00231846E5
:1079F40005B05DF804FB00BFF86E002000E100E074
:107A040000B583B0019000F02BF80346012B03D09E
:107A14000549432005F00AFC0198FFF78DFF00BFDC
:107A240003B05DF804FB00BF7479030000B583B0B4
:107A340003468DF8073000F013F80346012B03D0FA
:107A44000649512005F0F2FB9DF807301846FFF770
:107A5400ADFF00BF03B05DF804FB00BF7479030001
:107A640084B0EFF305830193019BC3F308030393ED
:107A7400039B002B0DD1EFF314830093009B02931F
:107A8400029B03F00103002B0CBF01230023DBB294
:107A940000E00123184604B07047000082B003469A
:107AA4008DF807309DF90730002B0DDB08499DF94F
:107AB40007305B099DF8072002F01F02012000FA3D
:107AC40002F2403341F8232000BF02B0704700BFE8
:107AD40000E100E082B00190019BD3F80435184620
:107AE40002B0704700B583B00190019B1B68184633
:107AF400FFF7F0FF0346184603B05DF804FB00B53A
:107B040083B00190019B93F904301846FFF7C6FF38
:107B140000BF03B05DF804FB08B5044B1B68044ABE
:107B240012681046984700BF08BD00BF046F0020CC
:107B3400086F002082B00190019B03F00303002B27
:107B44000CBF01230023DBB2184602B070470000CB
:107B540000B585B00190002303930EE00A4A039B0D
:107B640052F82330002B05D0074A039B52F82330E8
:107B740001989847039B01330393039B032BEDD98F
:107B840000BF05B05DF804FB1C6F002082B00190BB
:107B94000091019B1B78013B052B61D801A252F88F
:107BA40023F000BFC17B0200C97B0200EF7B02000F
:107BB400217C0200417C02005D7C0200009B0022CB
:107BC4001A704EE0009B01221A70019B1A89009BD7
:107BD4009A81019B9A88009BDA81019BDA68009B59
:107BE4009A60009B00221A743BE0009B02221A70E8
:107BF400019B1A89009B9A81019B9A88009BDA81D8
:107C0400019BDA68009B9A60019B9B7D062B0CBF4D
:107C140001230023DAB2009B1A7422E0009B0322A2
:107C24001A70019BDA88009B9A81019B1A89009B38
:107C3400DA81019BDA68009B9A6012E0009B0422BF
:107C44001A70019BDA88009B9A81009B0022DA81DA
:107C5400009B00229A6004E0009B05221A7000E059
:107C640000BF00BF02B0704784B001900091019B37
:107C74000393039A009B9A4206D2039B1B68B3F1B9
:107C8400FF3F01D0012300E0002303F00103DBB236
:107C9400184604B0704782B00190019B5B8803339F
:107CA4009B00019A1344184602B0704700B583B094
:107CB400019000910198FFF7EEFF0246009B9A4263
:107CC40001D9022311E0019B9B884FF6FF72934276
:107CD40008D0019B1B88002B04D0019B9B68B3F147
:107CE400FF3F01D1012300E00023184603B05DF8F3
:107CF40004FB000000B583B00190019B002B13D05E
:107D04000D4BDB681A46019B9A420DD80A4B1B693E
:107D14001A46019B9A4207D30198FFF70BFF0346CB
:107D2400002B01D0012300E0002303F00103DBB2A8
:107D3400184603B05DF804FB6022002082B00346BD
:107D44000A46ADF806301346ADF80430BDF80620F7
:107D5400134913469B0013449B000B4408331A88B1
:107D6400BDF804301344ADF80430BDF806200C49C6
:107D740013469B0013449B000B440A331A88BDF836
:107D840004301344ADF80430BDF80430B3F5806F0B
:107D940094BF01230023DBB2184602B0704700BF32
:107DA400406F002084B00190009148F2096303936E
:107DB4000023ADF80A3027E0BDF80A20164913461F
:107DC4009B0013449B000B4404331A68009B9A42A3
:107DD40015D2BDF80A20104913469B0013449B009A
:107DE4000B4404331B6803F58052009B9A4206D966
:107DF40000230393019BBDF80A201A8008E0BDF814
:107E04000A300133ADF80A30BDF80A30012BD3D95A
:107E1400039B184604B07047406F002082B0019065
:107E24000091009B9B7D022B09D9019B1A89009B21
:107E3400DB8813449BB203339AB2019B1A81019BE2
:107E44005A89009BDB88D31A9BB2033B9AB2019BED
:107E54005A8100BF02B0704700B583B0074B1B685E
:107E64001946002300930823054A064802F05EF9E8
:107E74000346184603B05DF804FB00BF686F00209A
:107E84003C7A03006022002000B585B0039003997A
:107E9400002300930823044A044802F047F90346E8
:107EA400184605B05DF804FB447A03006022002004
:107EB40000B585B003460091ADF8063000238DF877
:107EC4000F30BDF806300333ADF80A30BDF80A3080
:107ED40040F2FE32934202D948F208634BE0002399
:107EE400ADF80C303BE0BDF80C20254913469B004F
:107EF40013449B000B441B78002B2BD1BDF80A20A4
:107F0400BDF80C3011461846FFF718FF0346002B46
:107F140020D001238DF80F30009BBDF80C201A806F
:107F2400BDF80C20BDF80C1015480B469B000B4403
:107F34009B0003440A331988BDF80A300B4498B2F5
:107F44000F4913469B0013449B000B440A3302461B
:107F54001A8008E0BDF80C300133ADF80C30BDF8E0
:107F64000C30012BBFD99DF80F30002B01D000231A
:107F740001E048F20663184605B05DF804FB00BF53
:107F8400406F002082B003460A46ADF8063013461F
:107F9400ADF80430BDF80420BDF804100C480B46BD
:107FA4009B000B449B0003440A331988BDF8063038
:107FB400CB1A9BB2033B98B2054913469B0013446A
:107FC4009B000B440A3302461A8000BF02B070477C
:107FD400406F002008B50121024801F026FB03464A
:107FE400184608BD2C6F002000B585B003460091EB
:107FF400ADF80630BDF80620234913469B00134410
:108004009B000B4404331B6803F580530293009BCD
:108014001B680393039B002B04D00398FFF73BFEDC
:10802400039024E0BDF80620174913469B0013442F
:108034009B000B4404331B680833039317E0029935
:108044000398FFF733FE0346012B09D0022B0CD013
:10805400002B00D00BE0009B039A1A6001230EE072
:108064000398FFF718FE039001E0002307E002994C
:108074000398FFF7F9FD0346002BE0D100231846CF
:1080840005B05DF804FB00BF406F002000B585B06B
:1080940001900091019B5B681846FFF72BFE034695
:1080A400002B19D0019B1A89244B1B899A4213D1A6
:1080B400019B1A68019B5B689B689A420CD1019BE7
:1080C4005B6819460098FFF76DFE0346002B0CBF52
:1080D40001230023DBB22CE0009B00221A8023E062
:1080E4000023029310E0029B0393039B9A68019B75
:1080F4001B689A4208D1029A019B5A600F4B1A8955
:10810400019B1A81012314E0009B1B8802AA1146DB
:108114001846FFF769FF0346002BE4D1009B1B8838
:1081240001339AB2009B1A80009B1B88012BD7D97C
:108134000023184605B05DF804FB00BF706F0020F3
:1081440000B587B00390029101920093324B1B78E3
:10815400DBB283F00103DBB2002B02D048F20163EF
:1081640055E0019B002B02D0009B002B49D148F223
:1081740004634CE0009B9B881946284A0B469B00ED
:108184000B449B0013441B78002B33D124E0009B49
:108194001B680593039B002B06D0059B9A88039BC1
:1081A4001B889A4200D017E0029B002B06D0059B47
:1081B4001A88029B1B889A4200D00DE0059B9A689E
:1081C400019B1A60009B1A68019B5A60144B1A8920
:1081D400019B1A8100231AE0009B9B88009A114698
:1081E4001846FFF701FF0346002BD0D1009B002265
:1081F4001A6000E000BF009B9B8801339AB2009B89
:108204009A80009B9B88012BB4D948F209631846D5
:1082140007B05DF804FB00BF106F0020406F002022
:10822400706F002000B585B00190084B0199184685
:1082340001F049F803901C22002103980DF0EAFD97
:10824400039B184605B05DF804FB00BF306F0020A7
:1082540000B583B00190044B0199184601F04CF825
:1082640000BF03B05DF804FB306F002000B583B09D
:108274000190054B0199184601F052F8034618463F
:1082840003B05DF804FB00BF306F002000B583B07D
:108294000190044B0199184601F05BF800BF03B04C
:1082A4005DF804FB306F002008B50A4B1B68002BF7
:1082B40004D109494FF4247004F0B8FF01210548A2
:1082C40001F0CBF90346002B14BF01230023DBB2DA
:1082D400184608BD186F0020E079030000B587B088
:1082E40003900291039B02229A750299039B1A1D23
:1082F400002300930423074801F018FF0590059B11
:10830400002B01D1002301E048F20D63184607B0A9
:108314005DF804FB6022002000B587B00390029151
:10832400039B1B69002B01D0032200E00122039B65
:108334009A75029B08331946039B03F10C02002330
:1083440000930423074801F0F1FE0590059B002BE0
:1083540001D1002301E048F20D63184607B05DF82F
:1083640004FB00BF6022002000B587B00390029197
:10837400039B1B78032B01D1052200E00622039BFB
:108384009A75029B04331946039B03F108020023E8
:1083940000930423074801F0C9FE0590059B002BB8
:1083A40001D1002301E048F20D63184607B05DF8DF
:1083B40004FB00BF6022002000B587B003900B4689
:1083C400ADF80A3003990023009304230D4A0E48A4
:1083D40001F0ACFE0590059B002B02D048F20D6322
:1083E4000BE0BDF80A20094913469B0013449B0087
:1083F4000B44103301221A700023184607B05DF8AD
:1084040004FB00BF4C7A030060220020406F002070
:1084140000B589B0019002AB00221A605A609A60DC
:10842400019BDB6802930DF1160202AB114618465C
:10843400FFF72CFE0346002B12D0039B0693069BEA
:108444009A88019BDA80069B1A88019B1A81039BF8
:10845400BDF8162011461846FFF7AEFF079002E05C
:1084640048F209630793079B184609B05DF804FBBB
:1084740000B587B00190019B981D02AA0D4B002105
:10848400FFF75EFE0590059B002B08D1039A094B6C
:108494009B8819461046FFF78FFF059004E00822D9
:1084A400002104480DF0B6FC059B184607B05DF8A2
:1084B40004FB00BF806F002000B587B003900291D9
:1084C400039B01229A75029B0C331846039B1A697D
:1084D400039BDB889900002300930B460146074861
:1084E40001F024FE0590059B002B01D1002301E03F
:1084F40048F20D63184607B05DF804FB60220020C3
:1085040082B0174B1B8901339AB2154B1A81144B55
:1085140000225A80124B00221A730023ADF8063051
:1085240017E0BDF80610BDF806200E4813469B0060
:1085340013449B0003441B78002B0CBF012300232E
:10854400DAB2074B0B449A72BDF806300133ADF82A
:108554000630BDF80630012BE3D900BF02B07047E6
:10856400706F0020406F002084B0019000238DF8CC
:108574000F300023ADF80C3031E0BDF80C301C4A4C
:1085840013449B7A002B25D0BDF80C30184A1344B1
:1085940000229A72BDF80C20164913469B0013441E
:1085A4009B000B440C331B68002B13D1BDF80C202B
:1085B400104913469B0013449B000B4410331B7853
:1085C400002B07D0019BBDF80C201A8001238DF8E5
:1085D4000F3008E0BDF80C300133ADF80C30BDF8B5
:1085E4000C30012BC9D99DF80F30184604B07047E0
:1085F400706F0020406F002008B5084B05221A70E8
:10860400074B02229A80064B1B681946002301225D
:10861400044801F06DFE0346184608BD706F002043
:10862400686F00206022002000B583B0164B5B8881
:10863400ADF80230BDF80220144913469B001344E0
:108644009B000B440C331B68002B14D10E4B0422EB
:108654001A70BDF802200D4913469B0013449B0079
:108664000B4404331B68194600230122084801F017
:108674003FFE019002E0FFF7BFFF0190019B184607
:1086840003B05DF804FB00BF706F0020406F002052
:108694006022002000B587B0114B5B680593114B35
:1086A4001A68104B9B889B0013440493059B5B88BA
:1086B4000333ADF80E300A4B03221A700499084BA9
:1086C4005A68BDF80E30980000230093034606480C
:1086D40001F02CFD0346184607B05DF804FB00BF0B
:1086E400706F0020686F00206022002000B583B006
:1086F4000A4B5B880A491846FFF776FC0346002BB1
:1087040003D0FFF7C7FF019002E0FFF78DFF019050
:10871400019B184603B05DF804FB00BF706F002096
:10872400746F002008B50A4B06221A70084B5B8848
:108734001946084A0B469B000B449B001344043320
:108744001B681846FFF7A0FB0346184608BD00BF88
:10875400706F0020406F002008B5054B07221A7087
:10876400034B00225A60FFF777FB0346184608BD07
:10877400706F002008B50D48FFF7F6FE034683F03E
:108784000103DBB2002B0BD0094B00221A70084BFB
:1087940000225A80064B00225A6041F61D5302E023
:1087A400FFF7A4FF0346184608BD00BF726F002000
:1087B400706F002082B0094B5B680193019B5B885A
:1087C4000333ADF80230064B9A88BDF802301344E7
:1087D4009AB2034B9A8000BF02B07047706F0020BA
:1087E400686F002082B01E4B1B6801931D4B5B8891
:1087F40019461D4A0B469B000B449B00134404334B
:108804001B68174A1360174B5B881946164A0B46B8
:108814009B000B449B0013440433019A1A60114BD0
:108824005B8819460E4B98880F4A0B469B000B44F5
:108834009B001344083302461A80094B02229A8093
:10884400084B5B881946084A0B469B000B449B0067
:108854001344103300221A7000BF02B0704700BFE7
:10886400686F0020706F0020406F002008B51A4B1D
:108874001B78072B2CD801A252F823F0A188020000
:10888400D5880200D5880200AD880200B9880200AC
:10889400C5880200C5880200CD880200FFF730FEBB
:1088A4000D4B01221A7014E0FFF784FF0A4B0222D9
:1088B4001A700EE0FFF796FF074B06221A7008E0C5
:1088C400054B07221A7004E0034B01221A7000E0E2
:1088D40000BF00BF08BD00BF706F002000B587B0A7
:1088E4000190009148F20E630593019B002B05D083
:1088F400634B00225A604FF40643BCE0009B1B7993
:10890400032B00F2AB8001A252F823F0218902006C
:108914002F890200BD890200DD890200009B01222B
:108924001A71FFF799FA05909BE000238DF8133034
:108934000023ADF810302BE0BDF810205149134648
:108944009B0013449B000B441B78022B1BD1BDF8E6
:1089540010204C4913469B0013449B000B440022F7
:108964001A7001238DF81330BDF8102045491346C1
:108974009B0013449B000B4404331B681846FFF709
:1089840083FA059008E0BDF810300133ADF81030DB
:10899400BDF81030012BCFD99DF8133083F00103BB
:1089A400DBB2002B5CD0364B01221A70344B002210
:1089B4005A6041F61D535EE0009B00221A71324B4F
:1089C40002229A80304B1B681946002301222F484B
:1089D40001F08EFC059044E0009B00221A712A4BA2
:1089E4001B681846FFF750FA0590294B5B88ADF8D1
:1089F4000E30254B1B680293BDF80E202149134607
:108A04009B0013449B000B4404331B681E4A1360F1
:108A1400BDF80E201B4913469B0013449B000B44D6
:108A24000433029A1A60BDF80E20174B9888154932
:108A340013469B0013449B000B44083302461A80E0
:108A4400114B02229A80BDF80E200E4913469B005A
:108A540013449B000B4400221A7002E000BF00E0A4
:108A640000BF059B002B05D0054B00225A6048F23D
:108A74000D6300E00023184607B05DF804FB00BF57
:108A8400106F0020406F0020686F002060220020DB
:108A9400706F002000B587B001900091009B9B8A05
:108AA4001A4613469B0013449B003B4A1344049309
:108AB400019B002B06D000990498FFF7AFF94FF4FF
:108AC400064364E0049B5A68049B1B899B0013447F
:108AD4000393009B9B7D062B4DD801A252F823F0F3
:108AE400298B02004D8B0200358B0200418B020062
:108AF400018B0200598B0200738B0200274B00226A
:108B04005A60009B9B69254A136025492348FFF757
:108B1400BDFA034683F00103DBB2002B02D048F216
:108B2400096334E003990098FFF7D8FB059026E029
:108B340003990098FFF7F0FB059020E00399009853
:108B4400FFF7BAFC05901AE003990098FFF70CFCB4
:108B5400059014E0009B06229A75104B5A68104B3E
:108B64001B8819461046FFF727FC059007E041F6DD
:108B74001D53059303E048F20E63059300BF059B64
:108B8400002B03D000990498FFF748F9059B184679
:108B940007B05DF804FB00BF406F0020886F002021
:108BA400946F002000B585B001900091019B002BCB
:108BB40002D04FF4064326E0009B1B79012B0BD017
:108BC400022B16D0002B18D1009B02221A71009898
:108BD400FFF71EFC039015E00098FFF749FC039093
:108BE400039B48F2096293420BD141F61D53039350
:108BF40007E041F61D53039304E048F20E63039328
:108C040000E000BF039B184605B05DF804FB0000BC
:108C140000B585B00190019B002B02D04FF40643B0
:108C24003DE0214B1B7B002B03D01F4B00221A730A
:108C340001E0FFF71BFE1C4B1B78013B062B29D8D8
:108C440001A252F823F000BF698C0200718C02006B
:108C5400798C0200818C0200998C0200898C0200BC
:108C6400918C0200FFF786FD039017E0FFF73EFDAD
:108C7400039013E0FFF70EFD03900FE0FFF7D4FC21
:108C840003900BE0FFF74EFD039007E0FFF764FD50
:108C9400039003E048F20E63039300BF039B18465E
:108CA40005B05DF804FB00BF706F002000B589B00B
:108CB4000190404B1B68002B05D13F48FFF7D6FAC3
:108CC40002463C4B1A603B4B1B68002B04D13B49CA
:108CD40040F29E5004F0AAFA364B1B681B78013B05
:108CE400052B2CD801A252F823F000BF098D0200F5
:108CF400198D0200198D0200298D0200298D0200B0
:108D0400398D02002B4B1B6819460198FFF7E6FDCD
:108D1400019018E0274B1B6819460198FFF7BAFE2B
:108D2400019010E0234B1B6819460198FFF73AFFA6
:108D3400019008E00198FFF76BFF019003E048F20F
:108D44000E63019300BF019B002B2BD003AB0022C9
:108D54001A605A609A60DA601A61019B41F61D52EA
:108D6400934201D0019B00E000230493114B1B6844
:108D740003AA11461846FEF709FF03AB1846FEF78F
:108D8400E7FE0C4B00221A60002301930A48FFF708
:108D94007DFAFFF789FA034683F00103DBB2002B67
:108DA40002D186E700BF00E000BF00BF09B05DF854
:108DB40004FB00BF986F00209C6F0020E079030043
:108DC40008B50121054800F018FC0346002B02D128
:108DD4000020FFF76BFF00BF08BD00BF186F002025
:108DE40000B583B00190019B5B681846FFF75EFFF6
:108DF40000BF03B05DF804FB00B58BB00390029193
:108E040001928DF803300023ADF824300023ADF82F
:108E14002630534B1B78DBB283F00103DBB2002B0B
:108E240002D048F2016397E0029B002B02D148F282
:108E3400046391E0029B1B884FF6FF72934203D0B8
:108E4400029B5B88002B02D148F2036384E0029BFF
:108E54005B681846FEF76EFE034683F00103DBB23F
:108E6400002B02D048F2026376E0019B002B11D163
:108E7400029B9B68ADF826300DF11A02BDF826302E
:108E840011461846FFF714F80890089B002B09D0E8
:108E9400089B61E0019B1B88ADF81A30019B5B883D
:108EA400ADF8263005AB1846FFF7BCF90790079BD1
:108EB400002B0AD1BDF81A20BDF8263011461846F9
:108EC400FFF760F848F2076346E0079B9DF803202C
:108ED4001A70079B00229A75BDF81A20079B9A8284
:108EE400029B5A68079B1A61FFF774F80246079BB6
:108EF400DA60029B1A88079B1A81029B5A88079B97
:108F04009A80079BBDF82620DA809DF80330032B56
:108F140006D1079B04229A75039B1A68079B9A61E2
:108F2400079BBDF824205A8105AB1846FFF790F93A
:108F3400039B002B0DD0039B00225A60079BDA6829
:108F4400039B1A60039B00229A72064B1A89039BA7
:108F54001A81FFF735FF002318460BB05DF804FBB8
:108F6400106F0020706F002000B585B00190009153
:108F7400019B002B02D0009B002B02D148F204631A
:108F84002AE00DF10A0319460198FFF77FF803461A
:108F9400002B1FD0019B5B680393BDF80A301A466F
:108FA40013469B0013449B0008330D4A13440433B7
:108FB4000121184600F039FB009B039A1A60019BBB
:108FC4005B6803F10C02009B5A60019B01229A72B8
:108FD400002301E048F20963184605B05DF804FB7C
:108FE400406F002000B585B00190019B002B02D199
:108FF40048F204633BE00DF10A0319460198FFF7B8
:1090040045F80346002B2ED0BDF80A3019461A4AFB
:109014000B469B000B449B0013440C331B68002B32
:109024001DD0019B9B7A002B19D0BDF80A301A463B
:10903400114913469B0013449B000B440C331B68DB
:10904400591E0D4813469B0013449B0003440C33E4
:109054001960019B00229A720023039306E048F2F0
:109064000563039302E048F209630393039B1846E4
:1090740005B05DF804FB00BF406F002000B583B06D
:10908400019000910223002200990198FFF7B4FE99
:109094000346184603B05DF804FB00B583B00190A5
:1090A4000091019B002B02D148F2046306E00323E4
:1090B400002200990198FFF79FFE0346184603B06B
:1090C4005DF804FB00B585B00346ADF806301A4BD5
:1090D4001B78DBB283F00103DBB2002B02D048F231
:1090E400016324E0BDF806304FF6FF72934202D1CB
:1090F40048F203631BE002AB1846FFF793F80390B2
:10910400039B002B02D148F2076310E0039B052266
:109114001A70039B01221A71039BBDF80620DA80A2
:1091240002AB1846FFF794F8FFF74AFE00231846EF
:1091340005B05DF804FB00BF106F002000B585B0DA
:10914400029201930346ADF80E300B46ADF80C3095
:1091540003A90DF10E00019B029AFEF7F1FF0346ED
:10916400184605B05DF804FB00B585B003460291CE
:109174000192ADF80E300DF10E01019B029A002010
:10918400FEF7DEFF0346184605B05DF804FB00B5A4
:1091940085B0034602910192ADF80E300DF10E0038
:1091A400019B029A0021FEF7CBFF0346184605B047
:1091B4005DF804FB82B001900091019B002B02D06A
:1091C400009B002B02D148F2046304E0019B1A685F
:1091D400009B1A600023184602B0704786B00190C5
:1091E4000091019B53E8011F8AB2D88902449889EF
:1091F400824228BF121A1889824202BFBFF32F8FFE
:10920400002307E0C2EA010243E801200028E9D173
:109214004FF001038DF80F30059002910492029AE9
:10922400009B1A609DF80F30DBB2184606B07047F9
:1092340084B00190019951E8013FC3EA034341E836
:109244000132002AF7D10392029300BF04B07047A1
:1092540086B001900091019B53E8021F1FFAA1F20E
:10926400D888824202BFBFF32F8F00230DE0D88934
:1092740002449889824228BF121AC1EA024243E892
:1092840002200028E8D14FF001038DF80F3005903B
:1092940002910492029A009B1A609DF80F30DBB28F
:1092A400184606B0704784B00190019951E8023F16
:1092B400C3EA234341E80232002AF7D1039202931E
:1092C40000BF04B0704700B585B001900091009BC9
:1092D40019460198FFF782FF0346002B07D0019B34
:1092E4001B68009A128813440393039B00E0002335
:1092F400184605B05DF804FB00B583B001900091F9
:10930400009B1A88009B5B889A4204D10198FFF75E
:109314008FFF012300E00023184603B05DF804FB2F
:1093240000B585B001900091009B19460198FFF7A4
:109334008FFF0346002B07D0019B1B68009A5288BD
:1093440013440393039B00E00023184605B05DF823
:1093540004FB00B583B001900091009B1A88009B28
:109364005B889A4204D10198FFF79DFF012300E036
:109374000023184603B05DF804FB00B585B00190E6
:109384000091009B5B099B00019AD018009B03F09D
:109394001F03012202FA03F3194600F0E6F80390D2
:1093A40000BF05B05DF804FB00B583B001900091E7
:1093B400009B5B099B00019AD018009B03F01F03DC
:1093C400012202FA03F3194600F0B7F80246009BA3
:1093D40003F01F0322FA03F303F00103002B14BF6D
:1093E40001230023DBB2184603B05DF804FB00B58B
:1093F40085B001900091009B5B099B00019AD018F5
:10940400009B03F01F03012202FA03F3DB43194616
:1094140000F0DBF8039000BF05B05DF804FB82B0F8
:1094240001900091009B5B099B00019A13441A6808
:10943400009B03F01F0322FA03F303F00103002B44
:1094440014BF01230023DBB2184602B0704700B5F5
:109454008DB00190009100230B934BE00B9B9B007C
:10946400019A13441B68DB430793079B93FAA3F306
:109474000693069B0893089B002B01D1202303E04D
:10948400089BB3FA83F3DBB20A932BE00B9B5A01DC
:109494000A9B13440993099A009B9A4226D209997C
:1094A4000198FFF781FF034683F00103DBB2002B31
:1094B40001D0099B26E00B9B9B00019A13441B6877
:1094C400DB430493049B93FAA3F30393039B059355
:1094D400059B002B01D1202303E0059BB3FA83F302
:1094E400DBB20A930A9B1F2BD0D900E000BF0B9B71
:1094F40001330B93009B013B5B095A1C0B9B9A4263
:10950400ACD8009B18460DB05DF804FB10B487B0CE
:1095140001900091019B009A53E8004F104643E8E4
:10952400000191F0000FF7D1059404900391059B7D
:10953400184607B05DF8044B704710B487B001902B
:109544000091019B009A53E8004F44EA020043E86B
:10955400000191F0000FF6D1059404900391059B4E
:10956400184607B05DF8044B704710B487B00190FB
:109574000091019B009A53E8004F44EA020043E83B
:10958400000191F0000FF6D1059404900391049B1F
:10959400184607B05DF8044B704710B487B00190CB
:1095A4000091019B009A53E8004F04EA020043E84B
:1095B400000191F0000FF6D1059404900391059BEE
:1095C400184607B05DF8044B704710B487B001909B
:1095D4000091019B009A53E8004F04EA020043E81B
:1095E400000191F0000FF6D1059404900391049BBF
:1095F400184607B05DF8044B704710B487B001906B
:109604000091019B009A53E8004F04EB020043E8E9
:10961400000191F0000FF6D1059404900391059B8D
:10962400184607B05DF8044B704710B487B001903A
:109634000091019B009A53E8004F04EB020043E8B9
:10964400000191F0000FF6D1059404900391049B5E
:10965400184607B05DF8044B704710B487B001900A
:109664000091019B009A53E8004FA4EB020043E8E9
:10967400000191F0000FF6D1059404900391049B2E
:10968400184607B05DF8044B704700B583B00190ED
:1096940001210198FFF769FF0346184603B05DF8FE
:1096A40004FB00B583B0019000210198FFF775FF1A
:1096B4000346184603B05DF804FB000000B583B010
:1096C40001900B468DF80330019B002B03D1084910
:1096D400E82003F0ABFD019BDA689DF803300199A3
:1096E400098A01FB03F31344184603B05DF804FB35
:1096F400507A030000B583B001900091019B002BC8
:1097040003D10849F52003F091FD009B019AD2682A
:109714009B1A019A128AB3FBF2F3DBB2184603B028
:109724005DF804FB507A030000B585B00190019BFD
:10973400002B01D10E234DE0019B1B68002B03D1AC
:109744002649FF2003F072FD019B5B68002B04D1C6
:1097540022494FF4807003F069FD019B9B68002B44
:1097640004D11E4940F2011003F060FD019BDB6847
:10977400002B04D119494FF4817003F057FD019B6C
:109784001B8A002B04D1154940F2031003F04EFD4F
:10979400019B9B681A46019B5B68D31A8DF80F30B6
:1097A400019B1B68019A52681A6007E0019B1A68C2
:1097B4001368591C11609DF80F201A709DF80F3022
:1097C4005A1E8DF80F20002BF0D1019B1B6800223C
:1097D4001A710023184605B05DF804FB507A0300A3
:1097E40000B585B00190019B002B04D120494FF4B2
:1097F400927003F01BFD0023039300238DF80A30BD
:109804000DF10A031846FEF7FBF8019B1B681A6862
:10981400019B5B689A4220D9019B1B681A68013A34
:109824001A601B681B7819460198FFF747FF0390DD
:10983400019B9B681A46019B1B681B68D31A8DF811
:109844000B30019B1B681B799DF80B209A4204D9AD
:10985400019B1B689DF80B201A719DF80A3018466D
:10986400FEF7E4F8039B184605B05DF804FB00BF5F
:10987400507A030010B584B001900091019B002B35
:1098840004D1154940F2471003F0D0FC009B002B93
:1098940004D111494FF4A47003F0C8FC009B039356
:1098A40000238DF80B300DF10B031846FEF7A8F8D2
:1098B400019B1B681C68621C1A6003990198FFF7DE
:1098C40019FF034623709DF80B301846FEF7AEF8D7
:1098D40000BF04B010BD00BF507A030000B583B0D0
:1098E4000190019B002B03D10C49312003F09EFC15
:1098F400019B9B68002B0CD0019B5B69019A10694A
:10990400019A1168019A92689847019B00229A6013
:1099140000E000BF03B05DF804FB00BFB87A0300A9
:109924000EB400B584B00190019B002B03D11849FB
:10993400422003F07BFC019B5B69002B03D114499B
:10994400432003F073FC019B1B68002B03D11049D7
:10995400442003F06BFC019B5B68002B03D10C4992
:10996400452003F063FC059B002B0AD000230393DE
:1099740006AB039303AB1A460599019800F0B8F9B6
:1099840000E000BF04B05DF804EB03B0704700BF13
:10999400B87A030000B583B001900B468DF803300C
:1099A4009DF803300A2B03D10D210198FFF7F2FF34
:1099B400019B1A68019B9B68581C01998860134499
:1099C4009DF803201A70019B9A68019B5B689A4278
:1099D40002D30198FFF782FF00BF03B05DF804FBD8
:1099E40000B587B003900291019200930023059380
:1099F400009B03F00103002B24D00BE0029B0133F6
:109A04000293059B013305939DF81330194603987F
:109A1400FFF7C0FF029B1B788DF813309DF81330BD
:109A2400002BEBD106E0019B013B0193202103981D
:109A3400FFF7B0FF019A059B9A422ED9019B002B98
:109A4400F1D12AE0029B002B0BD002980CF038FADB
:109A5400059006E0019B013B019320210398FFF749
:109A640099FF019A059B9A420FD9019B002BF1D1D2
:109A74000BE0029B01330293059B013305939DF890
:109A8400133019460398FFF785FF029B1B788DF866
:109A940013309DF81330002BEBD100BF07B05DF8F5
:109AA40004FB000000B589B0039002910192009379
:109AB400029B07930123069307E0079A019BB2FBDD
:109AC400F3F30793069B01330693079A019B9A428B
:109AD400F3D2009A069B9A4201D9009B06930B9BF2
:109AE40003F00103002B22D10A9B002B1FD00B9BF8
:109AF40003F00203002B06D0009B002B03D130237C
:109B04008DF8173002E020238DF8173008E00A9B07
:109B1400013B0A939DF8173019460398FFF73AFF63
:109B24000A9B002B03D0069A0A9B9A42EFD3012387
:109B34000793009B012B03D9009B013B009309E091
:109B4400029A079BB2FBF3F30493049A019B9A4293
:109B540000D205E0079B019A02FB03F30793E8E7B1
:109B6400029A079BB2FBF3F30493049B079A02FB4C
:109B740003F3029AD31A0293154A049B13441B78E5
:109B840019460398FFF706FF079A019BB2FBF3F30C
:109B94000793079B002BE3D10B9B03F00103002BDE
:109BA40011D00A9B002B0ED006E00A9B013B0A93BE
:109BB40020210398FFF7EEFE0A9B002B03D0069AA0
:109BC4000A9B9A42F1D300BF09B05DF804FB00BFC1
:109BD400787B030000B589B0059004910392029349
:109BE400049B002BB8BF5B4206930123079307E055
:109BF400039B069A92FBF3F30693079B01330793A7
:109C0400039B069A9A42F3DA029A079B9A4201D975
:109C1400029B07930A9B002B0AD0049B002B04DBB6
:109C24000B9B03F00403002B02D00A9B013B0A9315
:109C34000B9B03F00203002B02D0029B002B16D0D7
:109C44000B9B03F00103002B11D10A9B002B0ED0B8
:109C540006E00A9B013B0A9320210598FFF79AFE30
:109C64000A9B002B03D0079A0A9B9A42F1D3049BC8
:109C7400002B07DA049B5B4204932D210598FFF720
:109C840089FE08E00B9B03F00403002B03D02B2177
:109C94000598FFF77FFE0B9B03F00203002B19D0FE
:109CA4000B9B03F00103002B14D1029B002B11D159
:109CB4000A9B002B0ED006E00A9B013B0A9330213D
:109CC4000598FFF767FE0A9B002B03D0079A0A9BAF
:109CD4009A42F1D304990B9B01930A9B0093029B34
:109CE400039A0598FFF7DEFE00BF09B05DF804FB98
:109CF40000B58FB0059004910392059B002B04D10D
:109D0400C84940F2522003F091FA059B5B69002B8D
:109D140004D1C4494FF4157003F088FA059B1B68FD
:109D2400002B04D1BF4940F2552003F07FFA059B74
:109D34005B68002B04D1BB4940F2562003F076FA4D
:109D4400049B002B00F0ED81049B1B788DF83730C9
:109D5400049B013304939DF83730002B00F0D88125
:109D64009DF83730252B40F0C78100230A93012347
:109D74000C93049B1B788DF837309DF837302D2BCE
:109D840004D0302B0AD02B2B10D017E00A9B43F0C1
:109D940001030A93049B0133049312E00A9B43F0EA
:109DA40002030A93049B013304930AE00A9B43F0E1
:109DB40004030A93049B0133049302E000230C93ED
:109DC40000BF0C9B002BD4D1002309939DF837309E
:109DD4002A2B0CD1039B1B68191D039A11601B6865
:109DE400099A13440993049B013304931AE0049BD6
:109DF4001B788DF837309DF837302F2B12D99DF80A
:109E04003730392B0ED8049B01330493099A134637
:109E14009B0013445B001A469DF837301344303BD3
:109E24000993D3E700230B93049B1B788DF83730F9
:109E34009DF837302E2B1DD1049B01330493049BD2
:109E44001B788DF837309DF837302F2B12D99DF8B9
:109E54003730392B0ED8049B013304930B9A1346E5
:109E64009B0013445B001A469DF837301344303B83
:109E74000B93E4E7049B1B788DF837309DF837305B
:109E84006C2B03D09DF83730682B07D1049B01332A
:109E94000493049B1B788DF83730EFE79DF8373037
:109EA400253B532B00F2238101A252F823F000BF7B
:109EB400E9A00200F3A00200F3A00200F3A0020054
:109EC400F3A00200F3A00200F3A00200F3A002003A
:109ED400F3A00200F3A00200F3A00200F3A002002A
:109EE400F3A00200F3A00200F3A00200F3A002001A
:109EF400F3A00200F3A00200F3A00200F3A002000A
:109F0400F3A00200F3A00200F3A00200F3A00200F9
:109F1400F3A00200F3A00200F3A00200F3A00200E9
:109F2400F3A00200F3A00200F3A00200F3A00200D9
:109F3400F3A00200F3A00200F3A00200F3A00200C9
:109F4400F3A00200F3A00200F3A00200F3A00200B9
:109F5400F3A00200F3A00200F3A00200F3A00200A9
:109F6400F3A00200F3A00200F3A00200F3A0020099
:109F7400F3A00200F3A00200F3A0020075A0020007
:109F8400F3A00200F3A00200F3A00200F3A0020079
:109F9400F3A00200F3A00200F3A00200F3A0020069
:109FA400F3A00200F3A0020005A002002DA002000D
:109FB400F3A00200F3A00200F3A00200F3A0020049
:109FC4002DA00200F3A00200F3A00200F3A00200FF
:109FD400F3A00200F3A00200F3A00200B5A0020067
:109FE400F3A00200F3A0020099A00200F3A0020073
:109FF40051A00200F3A00200F3A0020075A0020029
:10A00400039B1B68191D039A11601B680C930C9B1E
:10A014008DF823309DF8233019460598FFF7BAFCD4
:10A0240066E000BF147B0300039B1B68191D039AA1
:10A0340011601B680C930A9B0193099B00930B9B73
:10A044000A220C990598FFF7C5FD51E0039B1B6894
:10A05400191D039A11601B680C930C990A9B0193B8
:10A06400099B00930B9B0A220598FFF71BFD3FE019
:10A07400039B1B68191D039A11601B680C930C99B0
:10A084000A9B0193099B00930B9B10220598FFF7F1
:10A0940009FD2DE0039B1B68191D039A11601B68C1
:10A0A40007930A9B099A07990598FFF799FC1FE003
:10A0B400039B1B68191D039A11601B680C933021C4
:10A0C4000598FFF767FC78210598FFF763FC0C9966
:10A0D4000023019308230093082310220598FFF717
:10A0E400E1FC05E025210598FFF754FC00E000BFE2
:10A0F400049B0133049305E09DF837301946059815
:10A10400FFF748FC049B1B78002B7FF41DAE00E096
:10A1140000BF059B1B7B002B04D00598FFF7DEFBDB
:10A1240000E000BF0FB05DF804FB00BF10B586B0BF
:10A134000590049103920293059B002B10D1604A71
:10A14400604BD31ADB081B0443F001005E4A5F49ED
:10A154000E2300930B465E49FCF7E1FD0E23ABE0B2
:10A16400039B002B10D1564A564BD31ADB081B0411
:10A1740043F00100574A55490E2300930B465449B6
:10A18400FCF7CDFD0E2397E0059B1B68002B10D137
:10A194004B4A4C4BD31ADB081B0443F001004E4AD4
:10A1A4004A49082300930B464949FCF7B8FD0823A4
:10A1B40082E0029B002B10D1414A424BD31ADB08A8
:10A1C4001B0443F00100454A4049092300930B4610
:10A1D4003F49FCF7A4FD09236EE0059B5B685A68C0
:10A1E400029BB3FBF2F102FB01F29B1A002B10D08D
:10A1F400334A344BD31ADB081B0443F00100384ABA
:10A204003249092300930B463149FCF788FD0923A1
:10A2140052E0049800F01EF90346002B10D1284A9E
:10A22400284BD31ADB081B0443F001002D4A2749AD
:10A23400102300930B462649FCF771FD10233BE0E5
:10A24400039B184600F006F90346002B10D11C4A64
:10A254001C4BD31ADB081B0443F00100224A1B49A0
:10A26400102300930B461A49FCF759FD102323E0F1
:10A27400029A0499059800F0D3F80346002B10D1F4
:10A284000F4A104BD31ADB081B0443F00100174A92
:10A294000E49102300930B460D49FCF740FD102393
:10A2A4000AE0059B1B68DC68089B0093029B039AE9
:10A2B40004990598A0470346184606B010BD00BF90
:10A2C40060750300F0740300987B03003C7D030079
:10A2D400A07B03002C7C0300D47B0300E87B0300F9
:10A2E400347C0300607C0300787C03009C7C0300C6
:10A2F40010B586B00590049103920293059B002B40
:10A3040010D13E4A3E4BD31ADB081B0443F0010034
:10A314003C4A3D490E2300930B463C49FCF7FFFCA5
:10A324000E2368E0059B1B68002B10D1334A344B85
:10A33400D31ADB081B0443F00100354A32490823D1
:10A3440000930B463149FCF7EAFC082353E0039BD6
:10A35400002B10D1294A2A4BD31ADB081B0443F0E3
:10A3640001002C4A2849092300930B462749FCF78E
:10A37400D6FC09233FE00499059800F078F80346D9
:10A38400002B10D11D4A1E4BD31ADB081B0443F0CB
:10A394000100214A1C49102300930B461B49FCF77A
:10A3A400BEFC102327E0059B5B681B68039A02FB35
:10A3B40003F31A460499059800F032F80346002B7B
:10A3C40010D10E4A0E4BD31ADB081B0443F00100D4
:10A3D400124A0D49102300930B460C49FCF79FFCCD
:10A3E400102308E0059B1B681C69029B039A0499CF
:10A3F4000598A0470346184606B010BD60750300D3
:10A40400F0740300987B0300507D0300A07B0300DD
:10A41400D47B0300E87B0300C47C0300EC7C0300D2
:10A4240084B0039002910192039BDA68029B9A42E2
:10A4340009D8029A019B13445A1E039B1B699A4232
:10A4440001D8012300E0002303F00103DBB2184626
:10A4540004B0704782B00190019B03F00303002B0A
:10A464000CBF01230023DBB2184602B0704782B050
:10A4740001900091019B5B681B685A1E009B13406E
:10A48400002B0CBF01230023DBB2184602B0704737
:10A4940029DF704700BF184628DF704700BF184601
:10A4A40000B589B001900091019B1B689B68002B4B
:10A4B40035D002AB00221A605A609A60DA601A61E1
:10A4C4005A61009B0393019B9B680793019B1B7933
:10A4D400002B02D0012B0DD01AE001238DF8083097
:10A4E400019B1B690493019BDB680593019B5B69DA
:10A4F40006930DE002238DF80830019BDB684FF4CE
:10A50400805202FB03F30493019B5B69069300BF33
:10A51400019B1B689B6802AA1046984700E000BF95
:10A5240009B05DF804FB00B587B00190019B5A693E
:10A53400019B9B69D31AB3F5805F28BF4FF4805306
:10A5440005930422059BB3FBF2F3012B38BF0123CF
:10A554000593019B1A69019B9B6913440493019B16
:10A56400DB681A46019B9B6913440393059A03997C
:10A574000498FFF78DFF0346184607B05DF804FB07
:10A5840000B583B00190019BDA68019B1B691344F9
:10A594001846FFF781FF0346184603B05DF804FB35
:10A5A40008B5034B03491846FEF7D3FE00BF08BDA8
:10A5B400A06F0020C86F002008B5084B0849184652
:10A5C400FEF7AEFE0246074B1A60064B1B68002BD3
:10A5D40014BF01230023DBB2184608BDA06F00207E
:10A5E400C86F0020C46F002000B583B02A4B1B7ACB
:10A5F400002B0BD1FFF7E0FF034683F00103DBB22E
:10A60400002B03D0244B00225A6042E0224B02224A
:10A614001A72224B1B681B79002B02D0012B07D026
:10A624000DE01E4B1B681846FFF77DFF019009E003
:10A634001A4B1B681846FFF7A3FF019002E003239F
:10A64400019300BF019B002B02D0112B0CD00FE013
:10A65400114B1B7C83F00103DBB2002B18D00021CB
:10A66400022000F06FF813E00B4B01221A7210E085
:10A674000A4B1B6803211846FFF712FF064B002202
:10A684001A72054B00225A60FFF78AFF00BF00E0F0
:10A6940000BF03B05DF804FBB06F0020C46F00205E
:10A6A40084B001901B4B0022DA60019B1B79002BC4
:10A6B40002D0012B19D028E0019B5A69019B9B69A8
:10A6C400D31AB3F5805F28BF4FF480530393019BE3
:10A6D4009A69039B1A44019B9A61019B9A69019BA5
:10A6E4005B699A420ED1012310E0019B1B695A1C3D
:10A6F400019B1A61019B1A69019B5B699A4203D110
:10A70400012303E000BF00E000BF0023184604B0AB
:10A71400704700BFB06F002082B00190084BDB6827
:10A724000133074AD360064BDB68082B04D9044B7A
:10A734000022DA60012300E00023184602B07047CB
:10A74400B06F002000B585B001900091019B022BF1
:10A7540002D0019B032B49D1274B1B7A012B35D007
:10A76400022B02D0002B43D033E000238DF80F30AE
:10A77400019B022B02D0032B09D011E01F4B1B6855
:10A784001846FFF78DFF03468DF80F3008E01B4B8A
:10A794001B681846FFF7C0FF03468DF80F3000BF53
:10A7A4009DF80F30002B13D0134B00221A72134B59
:10A7B4001A68019B022B01D1002300E00D231946E6
:10A7C4001046FFF76DFEFFF7EBFE01E000BF00E06F
:10A7D40000BF094B5B7C83F00103DBB2002B02D08A
:10A7E400FFF702FF05E009F02FFA02E000BF00E0E6
:10A7F40000BF05B05DF804FBB06F0020C46F0020FB
:10A8040082B0034600918DF80730064B01225A743A
:10A81400044B1B7A002B0CBF01230023DBB2184628
:10A8240002B07047B06F002000B583B003460091BA
:10A834008DF807309DF80730012B03D09DF80730C1
:10A84400032B0DD1084B00225A749DF80730012BBD
:10A854000CBF01230023DAB2034B1A74FFF7C4FEC2
:10A8640000BF03B05DF804FBB06F002000B583B0F7
:10A8740001900198FEF758FF0346184603B05DF8AF
:10A8840004FB00B58BB001900091019B1B8A043B33
:10A894000793009A079B1344DA1C079BB2FBF3F35C
:10A8A4008DF81B300198FEF79BFF0590059B002B4C
:10A8B40001D1002338E0059B00221A71059B012277
:10A8C4005A71079B9AB2059BDA80059B09939DF800
:10A8D4001B30013B0493099B019A1A6000230893DF
:10A8E4001DE00198FEF77CFF0390039B002B0ED024
:10A8F400059B5B790133DAB2059B5A71099B039A74
:10A904001A60039B019A1A60039B099304E005985B
:10A9140000F00EF8002307E0089B01330893089A1F
:10A92400049B9A42DDD3059B18460BB05DF804FBEB
:10A9340000B58BB00190019B0793079B5B798DF861
:10A944001B30019B08939DF81B30013B05930023AA
:10A95400099305E0089B1B680893099B013309933D
:10A96400099A059B9A42F5D3089B1B680493019BA3
:10A974000893002309930BE0089B1B680393089931
:10A984000498FEF777FF039B0893099B013309930F
:10A994009DF81B20099B9A42EED800BF0BB05DF8CE
:10A9A40004FB00B585B00190019B0393039B043322
:10A9B40001211846FEF739FE00BF05B05DF804FB1F
:10A9C40000B587B00190019B0593059B04330121D9
:10A9D4001846FEF742FE0346039303AB0493049B1D
:10A9E4001B78002B02D10198FFF7A2FF00BF07B02C
:10A9F4005DF804FB00B591B00390029101920093BD
:10AA0400039B002B03D14349B62002F00FFC039BA8
:10AA14000993039B0F93099BDB881A46099B5B7977
:10AA240003FB02F3043B0893009A089B9A4203D366
:10AA34003849C42002F0FAFB099BDB880793009B8A
:10AA44001A1D079BB2FBF3F30E93009B0433079A82
:10AA5400B3FBF2F2079901FB02F29B1A0D93019BDF
:10AA64001A68009B1A44089B9A4203D9089A009BCF
:10AA7400D31A01E0019B1B680C93019B0C9A1A608A
:10AA840005E00F9B1B680F930E9B013B0E930E9BDF
:10AA9400002BF6D100230B93079A0D9BD31A0A932C
:10AAA4000A9A0C9B934228BF13460A932AE0029AFF
:10AAB4000B9B134406930F9A0D9B13440433059385
:10AAC4009DF84830002B05D00A9A059906980BF09A
:10AAD40077F904E00A9A069905980BF071F90023B6
:10AAE4000D930F9B1B680F930C9A0A9BD31A0C931C
:10AAF4000B9A0A9B13440B93079A0C9B934228BF0F
:10AB040013460A930C9B002BD1D100BF11B05DF802
:10AB140004FB00BF647D030000B589B00590049177
:10AB240003920293039B079307AA00230093029BBB
:10AB340004990598FFF75EFF079A039B9A4203D096
:10AB44000349F62002F072FB00BF09B05DF804FB74
:10AB5400647D030000B589B00590049103920293CB
:10AB6400039B079307AA01230093029B049905986A
:10AB7400FFF740FF079A039B9A4204D004494FF41D
:10AB8400807002F053FB00BF09B05DF804FB00BF06
:10AB9400647D030082B00190019B9B6800229A604F
:10ABA400019B9B6800221A61019B9B6800225A61E9
:10ABB400019B9B680022DA60019B9B6800225A601B
:10ABC400019B9B6800221A6000BF02B0704700001E
:10ABD40000B583B001900091019B002B03D1104973
:10ABE400502002F023FB009B002B03D10C49512081
:10ABF40002F01CFB019B009A1A60019B1B681A68F7
:10AC0400019B5A60019B5A68019B1B685B689A42CE
:10AC140002D1019B00225A6000BF03B05DF804FB1F
:10AC2400D07E030000B583B00190019B002B03D1BB
:10AC34001449632002F0FAFA019B1B68002B03D12C
:10AC44001049642002F0F2FA019B5B68002B14D0D7
:10AC5400019B5B681A46019B1B689B6813441A4658
:10AC6400019B5A60019B5A68019B1B685B689A426E
:10AC740004D1019B00225A6000E000BF03B05DF8DC
:10AC840004FB00BFD07E030000B585B0019001989D
:10AC940000F00EF80390039B002B01D0039B00E00F
:10ACA400024B184605B05DF804FB00BFC87F0300E3
:10ACB40086B00190164B0593164B04931FE0049A3B
:10ACC400059BD31ADB10DA0F13445B10DB00059AE3
:10ACD40013440393039B1B680293029A019B9A42B9
:10ACE40002D9039B04930AE0029A019B9A4203D27D
:10ACF400039B0833059302E0039B5B6804E0059A19
:10AD0400049B9A42DBD30023184606B0704700BF69
:10AD1400C8830300F084030082B01B4B1B68B3F1AB
:10AD2400FF3F0AD1194B1B68DBB20193184B1B6818
:10AD34001B0903F00F03009305E0134B1B680193F9
:10AD4400144B1B680093019B062B19D1009B033BFA
:10AD5400032B13D801A252F823F000BF71AD0200F7
:10AD640075AD020079AD02007DAD0200012308E05B
:10AD7400012306E0012304E0012302E0012300E0B3
:10AD84000023184602B0704730010010E00F00F0B5
:10AD9400E80F00F03401001082B0154B1B68DBB2E1
:10ADA4000193144B1B681B0903F00F030093019BD1
:10ADB400062B19D1009B033B032B13D801A252F895
:10ADC40023F000BFD9AD0200DDAD0200E1AD020009
:10ADD400E5AD0200012308E0002306E0002304E0BF
:10ADE400002302E0002300E00023184602B070476D
:10ADF400E00F00F0E80F00F082B01B4B1B68B3F1CA
:10AE0400FF3F0AD1194B1B68DBB20193184B1B6837
:10AE14001B0903F00F03009305E0134B1B68019318
:10AE2400144B1B680093019B062B19D1009B033B19
:10AE3400032B13D801A252F823F000BF51AE020035
:10AE440055AE020059AE02005DAE0200012308E0D7
:10AE5400012306E0012304E0012302E0012300E0D2
:10AE64000023184602B0704730010010E00F00F0D4
:10AE7400E80F00F03401001082B0154B1B68DBB200
:10AE84000193144B1B681B0903F00F030093019BF0
:10AE9400062B19D1009B033B032B13D801A252F8B4
:10AEA40023F000BFB9AE0200BDAE0200C1AE020085
:10AEB400C5AE0200012308E0002306E0002304E0FD
:10AEC400002302E0002300E00023184602B070478C
:10AED400E00F00F0E80F00F082B01B4B1B68B3F1E9
:10AEE400FF3F0AD1194B1B68DBB20193184B1B6857
:10AEF4001B0903F00F03009305E0134B1B68019338
:10AF0400144B1B680093019B062B19D1009B033B38
:10AF1400032B13D801A252F823F000BF31AF020073
:10AF240035AF020039AF02003DAF0200012308E053
:10AF3400012306E0012304E0012302E0012300E0F1
:10AF44000023184602B0704730010010E00F00F0F3
:10AF5400E80F00F03401001082B0154B1B68DBB21F
:10AF64000193144B1B681B0903F00F030093019B0F
:10AF7400062B19D1009B033B032B13D801A252F8D3
:10AF840023F000BF99AF02009DAF0200A1AF020001
:10AF9400A5AF0200012308E0002306E0002304E03B
:10AFA400002302E0002300E00023184602B07047AB
:10AFB400E00F00F0E80F00F082B0154B1B68DBB225
:10AFC4000193144B1B681B0903F00F030093019BAF
:10AFD400062B19D1009B033B032B13D801A252F873
:10AFE40023F000BFF9AF0200FDAF020001B0020080
:10AFF40005B00200012308E0002306E0002304E07A
:10B00400002302E0002300E00023184602B070474A
:10B01400E00F00F0E80F00F082B01B4B1B68B3F1A7
:10B02400FF3F0AD1194B1B68DBB20193184B1B6815
:10B034001B0903F00F03009305E0134B1B680193F6
:10B04400144B1B680093019B062B19D1009B033BF7
:10B05400032B13D801A252F823F000BF71B00200F1
:10B0640075B0020079B002007DB00200002308E050
:10B07400002306E0012304E0012302E0012300E0B1
:10B084000023184602B0704730010010E00F00F0B2
:10B09400E80F00F03401001082B01B4B1B68B3F1C1
:10B0A400FF3F0AD1194B1B68DBB20193184B1B6895
:10B0B4001B0903F00F03009305E0134B1B68019376
:10B0C400144B1B680093019B062B19D1009B033B77
:10B0D400032B13D801A252F823F000BFF1B00200F1
:10B0E400F5B00200F9B00200FDB00200012308E04F
:10B0F400012306E0012304E0012302E0012300E030
:10B104000023184602B0704730010010E00F00F031
:10B11400E80F00F03401001082B01B4B1B68B3F140
:10B12400FF3F0AD1194B1B68DBB20193184B1B6814
:10B134001B0903F00F03009305E0134B1B680193F5
:10B14400144B1B680093019B062B19D1009B033BF6
:10B15400032B13D801A252F823F000BF71B10200EF
:10B1640075B1020079B102007DB10200012308E04B
:10B17400012306E0012304E0012302E0012300E0AF
:10B184000023184602B0704730010010E00F00F0B1
:10B19400E80F00F03401001082B0134B1B680193D8
:10B1A400124B1B680093019B062B19D1009B033B98
:10B1B400032B13D801A252F823F000BFD1B102002F
:10B1C400D5B10200D9B10200DDB10200002308E0CC
:10B1D400002306E0002304E0012302E0012300E051
:10B1E4000023184602B070473001001034010010EB
:10B1F400024B034A1A6000BF704700BFC022002000
:10B204000090D00308B5FFF787FD0346002B06D056
:10B21400834A844B1B681B0A03F01F031360FFF768
:10B22400BBFD0346002B02D07F4B804A1A60FFF718
:10B23400E3FD0346002B06D07D4A7E4B1B685B0B67
:10B2440003F007031360FFF717FE0346002B05D036
:10B25400794A794BDB6823F08073D360FFF73CFEB7
:10B264000346002B0ED04FF080430022C3F80C217C
:10B274004FF080430022C3F810214FF08043002296
:10B28400C3F83825FFF768FE0346002B02D06B4B4A
:10B2940003221A60FFF790FE0346002B0BD0684B85
:10B2A40005221A60674B01221A60674B00221A605C
:10B2B400664B3F221A60FFF7AFFE0346002B76D0A1
:10B2C400634A4FF08053D3F80434C2F82035604AFF
:10B2D4004FF08053D3F80834C2F824355C4A4FF059
:10B2E4008053D3F80C34C2F82835594A4FF08053B0
:10B2F400D3F81034C2F82C35554A4FF08053D3F8A4
:10B304001434C2F83035524A4FF08053D3F818340D
:10B31400C2F834354E4A4FF08053D3F81C34C2F887
:10B3240040354B4A4FF08053D3F82034C2F84435AB
:10B33400474A4FF08053D3F82434C2F84835444A7E
:10B344004FF08053D3F82834C2F84C35404A4FF0BC
:10B354008053D3F82C34C2F850353D4A4FF0805313
:10B36400D3F83034C2F85435394A4FF08053D3F807
:10B374003434C2F86035364A4FF08053D3F8383449
:10B38400C2F86435324A4FF08053D3F83C34C2F8E3
:10B3940068352F4A4FF08053D3F84034C2F86C35E7
:10B3A4002B4A4FF08053D3F84434C2F87035FFF77A
:10B3B40073FE0346002B05D0264A274B1B6803F077
:10B3C4004F031360FFF7A8FE0346002B0DD04FF088
:10B3D4008043D3F8003403F00103002B05D04FF071
:10B3E40080436FF00102C3F80024FFF7D5FE034643
:10B3F400002B05D0194A194B1B6843F48063136072
:10B40400174A174BD3F8883043F47003C2F88830D6
:10B41400BFF34F8FBFF36F8FFFF7EAFE00BF08BD86
:10B42400403501402403001074C007400DF0ADBA4C
:10B434003C05004044020010F0ED00E0A00500408F
:10B4440010560040885600401856004014560040DC
:10B4540000C00040E40E0040580200103C170040B9
:10B4640000ED00E000B583B00190019B1B68184615
:10B4740000F09DF80346002B04D105494FF4F67003
:10B4840001F0D4FE4FF0A043184603B05DF804FB6E
:10B49400F084030000B585B0019001AB1846FFF7B6
:10B4A400E1FF0390019B012202FA03F3194603987A
:10B4B40000F069F800BF05B05DF804FB00B585B085
:10B4C400019001AB1846FFF7CDFF0390019B0122C9
:10B4D40002FA03F31946039800F05FF800BF05B0C1
:10B4E4005DF804FB00B585B0019001AB1846FFF789
:10B4F400B9FF0390039BD3F804350293029BDA430C
:10B50400019B012101FA03F31A40039BC3F80825A8
:10B51400019B01229A40029B1A40039BC3F80C250D
:10B5240000BF05B05DF804FB00B583B00190009145
:10B53400009B002B03D10198FFF7C0FF02E00198A4
:10B54400FFF7A8FF00BF03B05DF804FB00B585B0AA
:10B55400019001AB1846FFF785FF0390039800F0B4
:10B564000AF80246019B22FA03F303F0010318468A
:10B5740005B05DF804FB82B00190019BD3F804355B
:10B58400184602B0704782B001900091019B009A66
:10B59400C3F8082500BF02B0704782B00190009143
:10B5A400019B009AC3F80C2500BF02B0704784B019
:10B5B4000190019B5B09029300230393029B002BE0
:10B5C40003D14FF0FF33039300BF019B03F01F032C
:10B5D4000193039A019B22FA03F303F00103002B66
:10B5E40014BF01230023DBB2184604B070470000E7
:10B5F40000B585B00190019B032B03D911493A2072
:10B6040001F014FE104A019B13441B781846FFF7FF
:10B614009DFF0346002B14BF012300238DF80F3038
:10B624009DF80F30002B14BF01230023DBB283F0FD
:10B634000103DBB203F00103DBB2184605B05DF889
:10B6440004FB00BF208503007885030000B583B0A8
:10B654000190019B032B03D90749412001F0E6FD2A
:10B66400064A019B13441B7800211846FFF75CFF30
:10B6740000BF03B05DF804FB208503007885030058
:10B6840000B583B00190019B032B03D907494720E0
:10B6940001F0CCFD064A019B13441B780121184696
:10B6A400FFF742FF00BF03B05DF804FB20850300F1
:10B6B4007885030000B583B00023019305E0019869
:10B6C400FFF7DEFF019B01330193019B032BF6D9A6
:10B6D40000BF03B05DF804FB00B583B00023019301
:10B6E40005E00198FFF7B2FF019B01330193019B31
:10B6F400032BF6D900BF03B05DF804FB00B583B09B
:10B704000190019B032B03D907495F2001F08EFDB3
:10B71400064A019B13441B781846FFF7E3FE00BF5B
:10B7240003B05DF804FB00BF2085030078850300A7
:10B7340082B003468DF807309DF90730002B11DBEA
:10B744000A499DF907305B099DF8072002F01F02A2
:10B75400012000FA02F2203341F82320BFF34F8F77
:10B76400BFF36F8F00BF02B0704700BF00E100E07D
:10B77400044BD3F80034002B14BF01230023DBB2A5
:10B78400184670470000014008B508F079FA0346EE
:10B7940083F00103DBB2002B03D109497B2001F0C4
:10B7A40045FDFFF7E5FF034683F00103DBB2002B01
:10B7B40004D000F08DFA034B00229A7000BF08BD3C
:10B7C40084850300CC6F002000B583B0002301936F
:10B7D400184B1B78002B02D0852301931CE0154BDA
:10B7E40000229A60134B00225A60124B00221A6105
:10B7F400104B0022DA60104800F030FA019008F093
:10B804003FFA034683F00103DBB2002B01D000F0C2
:10B814004BFA084B01221A70FFF7AAFF0346002BCC
:10B8240002D0044B01229A70019B184603B05DF8C4
:10B8340004FB00BFCC6F002015B9020084B0019056
:10B84400019B1B680393039B002B03D0039B1A6883
:10B85400019B1A60039B184604B0704700B583B07F
:10B86400164B1B78002B04D1154940F2171001F038
:10B87400DDFC124BDB68002B04D111494FF48C70B2
:10B8840001F0D4FC00238DF807300DF107031846AE
:10B89400FCF7B6F8094BDB68013B084AD360074B59
:10B8A400DB68002B01D1FFF76FFF9DF807301846C6
:10B8B400FCF7BCF800BF03B05DF804FBCC6F0020BC
:10B8C4008485030000B585B003468DF807309DF8E4
:10B8D4000730002B02D10C4B039301E00B4B039375
:10B8E4000398FFF7ABFF0290029B002B06D0029B4C
:10B8F4005B689DF8072010469847F1E700BF00BF3A
:10B9040005B05DF804FB00BFD46F0020DC6F00209D
:10B9140000B583B003468DF807309DF80730002B3F
:10B9240005D10A4B01225A700020FFF7CBFF9DF886
:10B934000730012B05D1054B01229A700120FFF736
:10B94400C1FF00BF03B05DF804FB00BFCC6F002053
:10B9540000B583B001900091019B002B05D1054BEC
:10B9640001225A700020FFF7ADFF00BF03B05DF85D
:10B9740004FB00BFCC6F002000B585B003460091E6
:10B984008DF807309DF80730012B08D0032B25D004
:10B99400002B00D030E00020FFF7CAFE2CE000238B
:10B9A4008DF80F300DF10F031846FCF729F8144BEE
:10B9B4001B7883F00103DBB2002B01D0FFF704FFF7
:10B9C4000F4BDB6801330E4AD3600D4B01229A7092
:10B9D4009DF80F301846FCF729F80DE0084B1B784A
:10B9E400002B04D1074940F2522001F01FFC00F063
:10B9F4005BF9FFF733FF00BF00BF05B05DF804FB40
:10BA0400CC6F00208485030082B003468DF8073094
:10BA14009DF90730002B0CDB07499DF907305B09C2
:10BA24009DF8072002F01F02012000FA02F241F8FB
:10BA3400232000BF02B0704700E100E082B003465B
:10BA440000918DF807309DF90730002B0ADB0D4972
:10BA54009DF90730009AD2B25201D2B20B4483F856
:10BA640000230BE008499DF8073003F00F03043B63
:10BA7400009AD2B25201D2B20B441A7600BF02B07D
:10BA8400704700BF00E100E000ED00E082B00190EB
:10BA9400019B1B0B5BB2184602B0704700B583B024
:10BAA40003460A468DF8073013468DF806309DF894
:10BAB4000630012B03D99DF80630032B0BD99DF8D2
:10BAC4000630042B03D99DF80630072B03D9084907
