:020000022000DC
:106000000000012079630200616302006363020003
:10601000656302006763020069630200000000001C
:106020000000000000000000000000006B630200A0
:106030006D630200000000006F63020071630200E4
:1060400041E4020073630200A1F10200790203003F
:1060500073630200736302009DF002007363020029
:1060600069090300810903009909030073630200B1
:1060700073630200736302007363020073630200C0
:1060800073630200E18D0200736302007363020018
:106090007363020073630200B5B20300736302000E
:1060A0007363020073630200B1090300C9090300AE
:1060B00045FD0200736302000000000000000000C4
:1060C0007363020073630200736302007363020070
:1060D0007363020073630200736302000000000038
:1060E00000000000000000000000000000000000B0
:1060F00000000000000000000000000000000000A0
:10610000000000000000000000000000000000008F
:10611000000000000000000000000000000000007F
:10612000000000000000000000000000000000006F
:10613000000000000000000000000000000000005F
:10614000000000000000000000000000000000004F
:10615000000000000000000000000000000000003F
:10616000000000000000000000000000000000002F
:10617000000000000000000000000000000000001F
:10618000000000000000000000000000000000000F
:1061900000000000000000000000000000000000FF
:1061A00000000000000000000000000000000000EF
:1061B00000000000000000000000000000000000DF
:1061C00000000000000000000000000000000000CF
:1061D00000000000000000000000000000000000BF
:1061E00000000000000000000000000000000000AF
:1061F000000000000000000000000000000000009F
:10620000364937480A1A02D0072291438D4635494C
:1062100035480A1A06D00722914381F309880222E1
:1062200082F3148831483249324A00F045F8324846
:106230003249334A00F040F832483349334A00F0DB
:106240003BF833483349344A00F036F83348344990
:10625000344A00F031F834483449354A00F02CF81B
:1062600034483549354A00F027F835483549002289
:1062700000F02DF834483549002200F028F8344861
:106280003449091A082903DB002202600430016046
:10629000314A90471F482049884205D0026804309F
:1062A00003B4904703BCF7E700208646EC46002085
:1062B00000212A4A9047FEE7884207D0521A05D0AB
:1062C000037801300B700131013AF9D170478842EF
:1062D00002D002700130FAE7704700000000012090
:1062E00000E0002000000120000001208C060400D6
:1062F00074220020C8240020D4630200D46302006A
:10630000B0C503008C060400742200207422002013
:1063100064C7030064C7030064C7030064C70300C5
:1063200064C7030064C7030064C7030064C70300B5
:106330008C060400E0080400C8240020C8240020C3
:10634000C824002048BA002048BA002048BA0020DB
:1063500048BA002048DA0020A1630200212503008A
:10636000FEE7FEE7FEE7FEE7FEE7FEE7FEE7FEE705
:10637000FEE7FEE700F002B8FFF7FCBF0F484FF062
:106380000701884385460E4880470E48016841F45E
:1063900070010160BFF34F8FBFF36F8FFFF730BF06
:1063A00009480A490A4A884207D0521A05D0037898
:1063B00001300B700131013AF9D170470000012022
:1063C000F1D6020088ED00E050C7030060220020F3
:0463D0007422002013
:1063D40000B585B00190019B002B0AD0074B43F018
:1063E40001030393019B9B010293039B029898472B
:1063F40000E000BF05B05DF804FB00BF70C70300F8
:1064040000B583B00190019B002B0AD04FF47A7041
:10641400FFF7DEFF019B013B0193019B002BF5D1AC
:1064240000E000BF03B05DF804FB08B50CF018FAF7
:1064340000BF08BD00B589B0039002910192019B91
:10644400002B33D00023079303230693029A079B60
:106454001344019A194600200CF0B4F90590079AE8
:10646400059B13440793019A059BD31A0193059B3B
:10647400002B13D10F4B1B7883F00103DBB2002BED
:1064840013D10120FFF7BCFF069B013B0693069B3B
:10649400002B03D1074B00221A7007E0054B0122A1
:1064A4001A70019B002BD1D100E000BF00BF09B0DE
:1064B4005DF804FBC824002000B585B00390029168
:1064C400054B00934023054A0299039800F012F803
:1064D40000BF05B05DF804FB39640200CC24002041
:1064E40082B0019000BF02B0704782B0019000BF3B
:1064F40002B0704700B5A1B00590049103920293D5
:10650400049806F07CF9039B1593029B16930023D1
:10651400179300238DF8603000231993229B1A935C
:1065240000231F930FA91F9B0822049806F040FA2A
:1065340008231F93119B1293BDF84030ADF84C30E3
:10654400BDF84230ADF84E3000238DF851309DF83F
:106554003C3003F00303DBB2012B26D10F9BC3F3C2
:1065640095231D939DF83C30C3F3C203DBB28DF831
:106574005030BDF83C30C3F38313DBB21C931C9B37
:106584009A0009A91F9B049806F012FA1C9B9B0011
:106594001F9A13441F9312AA09A915AB009313461B
:1065A4001C9A1D9800F0FEFE2FE09DF83C3003F08D
:1065B4000303DBB2022B28D1BDF83E30C3F38913A9
:1065C4009BB21E939DF83C30C3F3C203DBB28DF83B
:1065D40050301E9B082B28BF08231B9307A91F9B21
:1065E4001B9A049806F0E4F91F9A1B9B13441F930B
:1065F4001E9A1B9BD31A1E9315AB12AA07A81B99AC
:1066040000F072FF1E9B002BE3D1049806F006F9FC
:1066140000BF21B05DF804FB82B00190019BDB68F0
:1066240001225A7100BF02B07047000000B583B068
:106634004FF0FF330193FFF7F8FE0421084800F000
:10664400CDFD0190019B002B03DA064941200BF09C
:1066540063FA0348FFF7E0FF00BF03B05DF804FBF3
:1066640040C7030088C7030000B583B001900091C0
:10667400019B1B681B6800990198984700BF03B0F1
:106684005DF804FB00B583B00190019B1B685B6857
:106694000198984700BF03B05DF804FB00B583B0D0
:1066A4000190019B1B689B680198984700BF03B049
:1066B4005DF804FB82B001900B468DF80330019B1A
:1066C400DB689DF803201A7100BF02B0704782B0E6
:1066D4000190019BDB681B79184602B0704782B0B9
:1066E4000190019BDB6801225A7100BF02B0704720
:1066F40082B00190019BDB685B79184602B0704759
:1067040000B585B0019000910C4B00221A700C4822
:1067140005F0DAFF0390039B002B01D0039B08E0F4
:10672400084806F003FA084A084BD31ADB08029318
:106734000023184605B05DF804FB00BF7426002052
:1067440044C60300FCC7030040C7030058C6030047
:10675400024A034BD31ADB081846704740C70300AC
:1067640058C6030000B587B001900B468DF803307E
:106774009DF80330002B1FD0FFF7EAFF049000239D
:10678400059313E0059B9B000E4A13440393039B5C
:106794001B881A46019B1B689A4204D1019B059AE7
:1067A4001A60002309E0059B01330593059A049BB5
:1067B4009A42E7D3052300E00023184607B05DF8AA
:1067C40004FB00BF7422002000B585B001900B4685
:1067D4008DF803309DF8032001AB11461846FFF7EE
:1067E400C1FF0346002B07D1019BDB00054A13447C
:1067F4000393039B1B6800E00023184605B05DF873
:1068040004FB00BF58C6030084B001900B468DF80A
:106814000330019BDB00174A134402939DF80330B5
:10682400013B032B1CD801A252F823F0416802005B
:1068340049680200516802005B68020002238DF877
:106844000F3011E004238DF80F300DE0029B1B790B
:106854008DF80F3008E0029B5B798DF80F3003E070
:1068640000238DF80F3000BF9DF80F30184604B098
:10687400704700BF58C6030084B001900091002304
:106884008DF80F30019B1B7803F00403DBB2002B5F
:1068940024D0019B1B78C3F30103DBB2012B02D08C
:1068A400022B0CD017E0009B1B68019A1288C2F3DC
:1068B4008312D2B213449A1C009B1A600BE0009B13
:1068C4001B68019A5288C2F3891292B213449A1C2B
:1068D400009B1A6000BF01238DF80F309DF80F3024
:1068E400184604B07047000000B58BB00023ADF823
:1068F40026303E4804F0BEFC3D4804F0BBFC3D4B52
:106904009B6804933C4B1B680693049A069B1340B4
:1069140002339B00374A13440433089304AB1946EB
:106924000898FFF7A9FF0346002B09D0049A069B99
:10693400134002339B002F4A134404330893EDE7BA
:1069440000BF0023079311E0079B9B0001AA1A4490
:10695400049B591C049106990B40264902339B0061
:106964000B445B681360079B01330793079B012B60
:10697400EAD99DF80430C3F30103DBB2012B10D034
:10698400022B1CD1BDF80A30ADF82630BDF8063014
:10699400C3F389139BB203339A08049B13440493EF
:1069A40013E0BDF80A30ADF82630BDF80430C3F367
:1069B4008313DBB21A46049B1344049305E00F4986
:1069C4004FF4C2700BF0A8F800BF094804F05EFC55
:1069D4000590059B002B02D0049B064A9360BDF8EA
:1069E400263018460BB05DF804FB00BF8C2A00204B
:1069F400882A0020742600207C2200200CC8030072
:106A040000B585B00021074804F069FB0390039B9F
:106A14000293029B83F310030193019B184605B074
:106A24005DF804FB902A002000B589B00390029120
:106A340001920093039B1B0C0793FFF7E1FF069061
:106A4400FFF786FE0246079B9A4204D8224940F289
:106A5400A9100BF061F8009B5A1C0A9B1340069A7C
:106A64001104079A0A431D4902339B000B445A60E0
:106A7400009A0A9B134002339B00184A13440433C0
:106A84000593039BDBB203F00703D9B2059A13788D
:106A940061F3C5031370019BDBB203F00F03D9B29A
:106AA400059A138861F389131380029BC3F31501BC
:106AB400059A136861F39F231360059A13780121E3
:106AC40061F301031370059A13786FF38203137053
:106AD40000BF09B05DF804FB0CC803007426002055
:106AE40000B58DB00390029113468DF80730039BD7
:106AF40002330A9301238DF8273000238DF81B30CD
:106B04000DF11B03184601F03DFD414B5A68029BF1
:106B14001A60404B1A683E4B99683D4B5B68CB1A30
:106B2400134401330B9314E001213B4804F066FB4A
:106B3400FFF7DAFE08900899374804F05FFB354BFD
:106B44001A68334B9968324B5B68CB1A1344013390
:106B54000B930A9A0B9B9A42E6D89DF82730002B98
:106B64004AD0002305939DF80730002B18D09DF8D8
:106B74001430012262F301038DF814309DF81430AF
:106B840043F004038DF81430039BDBB203F00F03CE
:106B9400DAB2BDF8143062F38913ADF8143017E09B
:106BA4009DF81430022262F301038DF814309DF82D
:106BB400143043F004038DF81430039B9BB2C3F3E9
:106BC40009039AB2BDF8163062F38F13ADF816308C
:106BD4000F4B5A680F4B1B68134002339B000C4A3F
:106BE400134404330793059A079B1A60084B5A68A9
:106BF4000A9B1344064A53609DF81B30184601F063
:106C0400D7FC9DF8273018460DB05DF804FB00BF93
:106C1400742600207C220020902A002000B58BB02E
:106C240005900491039202931F4B1B68079306ABD4
:106C3400012219460298FFF753FF0346002B24D084
:106C4400069B023309930023089311E0099B5A1C05
:106C54000992079A1340089A920003990A44126809
:106C6400124902339B000B445A60089B013308937A
:106C7400089A029B9A42E9D3069A079B009313460B
:106C8400029A04990598FFF7CFFE084B1B78002B56
:106C940005D000BF00F096F80346002BFAD100BFE0
:106CA4000BB05DF804FB00BF7C220020742600209A
:106CB40000B583B00190009100230022009901984F
:106CC400FFF7ACFF00BF03B05DF804FB00B587B06D
:106CD400039002910192019B059305AA0123029955
:106CE4000398FFF79BFF00BF07B05DF804FB00B5F6
:106CF40087B00390029101920093019B0493009B3F
:106D0400059304AA022302990398FFF787FF00BFA3
:106D140007B05DF804FB00B589B0039002910192BD
:106D24000093019B0593009B06930A9B079305AA76
:106D3400032302990398FFF771FF00BF09B05DF8C0
:106D440004FB00B589B00390029101920093019B6A
:106D54000493009B05930A9B06930B9B079304AA39
:106D6400042302990398FFF759FF00BF09B05DF8A7
:106D740004FB00B58BB00390029101920093019B38
:106D84000593009B06930C9B07930D9B08930E9B06
:106D9400099305AA052302990398FFF73FFF00BF53
:106DA4000BB05DF804FB0000054B9A68044B5B686C
:106DB4009A420CBF01230023DBB21846704700BF80
:106DC4007426002000B599B0FFF7EEFF0346002BB0
:106DD40001D00023C2E19C4B0022C3F81824BFF366
:106DE4004F8F994B9B680493984B1B681093049A9C
:106DF400109B134002339B00934A134404331793AC
:106E0400002316930023159300230F9304AB194614
:106E14001798FFF731FD0346002B19D08A4BD3F89E
:106E24001834002B14D1884B5A68049B9A4205D815
:106E3400854B5B68844A936000238FE1049A109B1E
:106E4400134002339B00804A134404331793DDE755
:106E54000023149311E0149B9B0001AA1A44049B81
:106E6400591C049110990B40774902339B000B4441
:106E74005B681360149B01331493149B012BEAD9B0
:106E84009DF8043003F00303DBB2022B40F09C8036
:106E9400BDF80630C3F389139BB20E93BDF80630D8
:106EA400C3F389139BB2502BA8BF50230D930D9BA2
:106EB4009BB2C3F309039AB2BDF8063062F38F1391
:106EC400ADF806300D9B08330C939DF80430C3F3E2
:106ED400C203DBB20F930C995D4805F000FC1690D9
:106EE400169B002B00F0D680169805F088FC01A9AB
:106EF400159B0822169805F03DFD159B0833159344
:106F0400049BDA43109B134001339B000B930D9AAF
:106F14000B9B9A4242D90B9B002B08D0049A109BDE
:106F2400134002339B00484A1344043300E0494BA6
:106F34000A930B9B002B02D00B9BDBB201E00D9B51
:106F4400DBB28DF827300B9B002B01D0414B00E0C6
:106F5400002308930B9B002B06D00D9BDAB20B9BEE
:106F6400DBB2D31ADBB200E000238DF81F309DF8AA
:106F74002720159B0A99169805F0FCFC9DF82730EC
:106F8400159A13441593089B002B16D09DF81F20C7
:106F9400159B0899169805F0EDFC0EE0049A109BD9
:106FA400134002339B00284A134404330693159B71
:106FB4000D9A0699169805F0DDFC0E9B03339A088A
:106FC400049B1344049365E09DF8043003F0030329
:106FD400DBB2012B5ED1BDF80430C3F38313DBB203
:106FE400062B28BF0623DBB203F00F03DAB2BDF889
:106FF400043062F38913ADF80430BDF80430C3F3F0
:107004008313DBB2023305939DF80430C3F3C20348
:10701400DBB20F93059B9B0019460D4805F05FFBFF
:107024001690169B002B35D0169805F0E8FB01A9A5
:10703400159B0822169805F09DFC159B08331593A3
:10704400002314931DE000BF742600207C2200203E
:1070540044C6030080260020049B5A1C0492109A04
:10706400134002339B003F4A1344191D159B04220D
:10707400169805F07FFC159B04331593149B01337C
:107084001493BDF80430C3F38313DBB21A46149B84
:107094009A42E1D8169B002B40D0324BD3F81034DF
:1070A4001393304BD3F81834002B1BD0169805F0EB
:1070B400B5FB4DE000238DF84B301398FFF718FB18
:1070C4000346002B02D001238DF84B309DF84B3042
:1070D400002B03D016991398FFF7C6FA139BDB68AD
:1070E4001B681393139B002BE4D1169805F096FBB1
:1070F40000238DF803300DF10303184601F042FA22
:10710400184BD3F81834002B02D1049B154A936012
:107114009DF80330184601F04BFA19E0114BD3F8EF
:107124001034119306E01198FFF7B8FA119BDB684D
:107134001B681193119B002BF5D10B4A0B4BD31AEF
:10714400DB081B0443F0020309491846FFF7B0FDAE
:10715400FFF72AFE034683F00103DBB2184619B099
:107164005DF804FB74260020A0C6030058C6030083
:1071740078C8030000B585B00023039323E0164BC1
:10718400D3F81034029301238DF807300FE00298EE
:10719400FFF79DFA03461A46039B9A4203D1002344
:1071A4008DF8073006E0029BDB681B680293029BA4
:1071B400002BECD19DF80730002B01D0039B07E096
:1071C400039B01330393039B092BD8DD4FF0FF335B
:1071D400184605B05DF804FB7426002000B585B0A0
:1071E40001900B468DF80330FFF7C4FF0390039B17
:1071F400B3F1FF3F01D1039B22E0039BDBB21946AD
:107204000198FFF757FA104BD3F81034002B08D12C
:107214000D4A019BC2F81034019BDB6800221A60FE
:107224000DE0019BDB68084AD2F81024D26812688A
:107234001A60054BD3F81034DB68019A1A60039B7B
:10724400184605B05DF804FB7426002000B583B031
:107254000C4BD3F8103401930A4B01221A7009E045
:107264000198FFF73CFA0198FFF70CFA019BDB68E1
:107274001B680193019B002BF2D100BF03B05DF8A2
:1072840004FB00BF7426002082B00190009100BF6F
:1072940002B0704710B584B003900291039BDB8861
:1072A400002B0AD0039BDB881A461F4B009313461E
:1072B4001E4A1F49029804F027F9039B1B7A052BE9
:1072C4002ED0039B5B7A002B12D0039B9B881A461B
:1072D400039B1B7A19461046FFF796FA03461A4693
:1072E400144B53F822301A461349029804F00CF94F
:1072F400039B1B6819460298FFF7C6FF039B1B7A82
:107304001A460E4B53F82240039B9B8800211846D3
:10731400FFF75AFA034622460949029804F0F4F8A2
:1073240000BF04B010BD00BFACC80300BCC803005C
:10733400F4C80300942200200CC90300802200201A
:1073440010C9030000B585B00390029113468DF86F
:107354000730039B1B7A052B0FD0039B5B7A002B12
:1073640006D00D4B1B681A460C49029804F0CCF861
:107374000B49029804F0C8F807E09DF80730002B89
:1073840003D00749029804F0BFF8029804F09AF871
:1073940000BF05B05DF804FB942200200CC9030073
:1073A4001CC9030030B58BB0079006910592049375
:1073B4000E9B1B7B8DF827300E9B00221A730E99AF
:1073C4000498FFF767FF059B062B7FD801A252F8AC
:1073D40023F000BFF5730200FF7302000F74020074
:1073E400237402004174020069740200997402005B
:1073F40007990E9804F088F869E0069B1B681A4602
:1074040007990E9804F080F861E0069B1A68069BC1
:1074140004331B6807990E9804F076F857E0069B2E
:107424001A68069B04331968069B08331B6800938B
:107434000B4607990E9804F067F848E0069B196814
:10744400069B04331868069B08331B68069A0C32A3
:1074540012680192009303460A4607990E9804F0B5
:1074640053F834E0069B1868069B04331C68069B9B
:1074740008331B68069A0C321268069910310968A1
:107484000291019200932346024607990E9804F054
:107494003BF81CE0069B1C68069B04331D68069B96
:1074A40008331B68069A0C32126806991031096871
:1074B40006981430006803900291019200932B46C1
:1074C400224607990E9804F01FF800E000BF00223E
:1074D4000E990498FFF736FF0E9B9DF827201A7328
:1074E40000BF0BB030BD00BF00B587B00390029160
:1074F40001920093029B082B60D8009B1B7B8DF8A4
:107504001330009B00221A7300990198FFF7C2FE02
:107514000023059314E0059A029B9A4209D2039A28
:10752400059B13441B781A462649009803F0ECFF88
:1075340003E02549009803F0E7FF059B0133059319
:10754400059B072BE7D92149009803F0DDFF0023B1
:10755400059326E0059A029B9A421BD2039A059B47
:1075640013441B788DF812309DF812307E2B0AD804
:107574009DF81230184614F07BFB0346002B02D012
:107584009DF8123000E02E231A461149009803F0AA
:10759400BBFF03E00F49009803F0B6FF059B0133DE
:1075A4000593059B072BD5D9012200990198FFF774
:1075B400C9FE009B9DF813201A7300E000BF07B0BA
:1075C4005DF804FB20C9030028C903002CC903008B
:1075D40030C9030034C9030084B003468DF8073072
:1075E4009DF807305B08DBB21A460D4B9B5C8DF8A7
:1075F4000F309DF8073003F00103002B04D09DF8F1
:107604000F301B09DBB204E09DF80F3003F00F03C9
:10761400DBB28DF80E309DF80E30184604B070477A
:10762400C82A002084B003460A468DF80730134662
:107634008DF806309DF8073003F00103002B01D0CC
:107644000F2300E0F0238DF80F309DF8073003F08E
:107654000103002B04D09DF806301B01DBB201E0CE
:107664009DF806308DF80E309DF807305B08DBB2CC
:1076740019469DF807305B08DBB21A460E4B9A5C3C
:107684009DF80F301340DAB20B4B5A549DF8073073
:107694005B08DBB219469DF807305B08DBB21A467B
:1076A400054B9A5C9DF80E301343DAB2024B5A54E0
:1076B40000BF04B0704700BFC82A002000B585B0E1
:1076C40003468DF807300023039310E00F4B1A682C
:1076D400039BDB0013440293029B1B789DF8072055
:1076E4009A4201D1029B0DE0039B01330393084BA3
:1076F4001B781A46039B9A42E8DC064988200AF064
:107704000BFA0023184605B05DF804FB942A002008
:10771400982A002044C9030000B585B003460A46F0
:107724008DF8073013468DF806309DF8073018465B
:10773400FFF7C4FF0390039B002B0BD0039B5B68F4
:10774400002B07D0039B5B689DF806109DF807206B
:107754001046984700BF05B05DF804FBF0B585B04E
:1077640003460A468DF8073013468DF806309DF817
:1077740007301846FFF730FF0346042B00F2C080A1
:1077840001A252F823F000BFA17702000F78020093
:107794002B7802005B780200717802009DF80630B5
:1077A400002B00F0AA809DF8073001211846FFF74E
:1077B40039FF00238DF80F300DF10F03184600F048
:1077C400E1FE9DF807204FF001034FF00004A2F101
:1077D4002000C2F1200104FA02F703FA00F0074383
:1077E40023FA01F10F4303FA02F6474BD3E90034BD
:1077F40043EA060344EA0704434AC2E900349DF815
:107804000F30184600F0D4FE77E09DF80630002BC8
:1078140001D0022200E000229DF8073011461846EC
:10782400FFF700FF6CE09DF80630002B0CD09DF8AC
:10783400073003211846FFF7F5FE9DF807300121B4
:107844001846FFF769FF5BE09DF8073001211846F1
:10785400FFF7E8FE54E09DF80630002B4FD19DF869
:10786400073004211846FFF7DDFE48E09DF8063096
:10787400002B06D09DF8073003211846FFF7D2FEEF
:107884003EE09DF8073000211846FFF7CBFE9DF837
:10789400073000211846FFF73FFF00238DF80E3014
:1078A4000DF10E03184600F06DFE9DF807104FF021
:1078B40001024FF00003A1F12006C1F1200003FAF8
:1078C40001F502FA06F6354322FA00F0054302FAFE
:1078D40001F46FEA04016FEA05020B4BD3E90034AB
:1078E40003EA010304EA0204074AC2E900349DF8EA
:1078F4000E30184600F05CFE02E000BF00E000BF5E
:1079040000BF05B0F0BD00BFC02A002000B583B0A1
:107914000648074B1B685B080022194600F056FD19
:10792400019000BF03B05DF804FB00BFA02A002053
:107934009C2A002010B586B001900023059328E00E
:107944001C4B1A68059BDB0013440493049B1B78AF
:10795400184607F0F1FA03468DF80F30049B5B7864
:10796400012B0CBF01230023DBB21A469DF80F3014
:107974009A420CBF012300238DF80E30049B1B7820
:107984009DF80E2011461846FFF7E8FE059B0133CB
:107994000593094B1B781A46059B9A42D0DC074B8A
:1079A400D3E90034234301D0FFF7B0FF00BF06B092
:1079B40010BD00BF942A0020982A0020C02A00206D
:1079C40010B584B001900B468DF80330019BDBB2F7
:1079D4001846FFF773FE0390039B1B78184607F0C5
:1079E400ABFA03468DF80B30039B5B78012B0CBF7D
:1079F40001230023DBB21A469DF80B309A420CBFD8
:107A0400012300238DF80A309DF80A30002B06D09C
:107A1400044BD3E90034234301D1FFF777FF00BFC0
:107A240004B010BDC02A002010B58AB003900B46E4
:107A340001928DF80B30019B092B01D8072367E0D5
:107A440007F06EF9034683F00103DBB2002B09D083
:107A540007F002F90990099B0893089B002B01D0B9
:107A6400089B55E02C4A039B13602C4A9DF80B306D
:107A740013702B4A019B136010220021294814F033
:107A840081F9294A4FF000034FF00004C2E90034A1
:107A940031E09DF80B30DB00039A13440793032372
:107AA4008DF8143000238DF815309DF816306FF3DF
:107AB40000038DF816309DF816306FF341038DF8EE
:107AC40016309DF816306FF382038DF81630079B3D
:107AD4009B788DF81530079B1B78184605AB134A25
:107AE400194607F029F90990099B0693069B002B78
:107AF40001D0069B0CE09DF80B305A1E8DF80B202C
:107B0400002BC6D10A4A00210A4800F02BFC034688
:107B140018460AB010BD00BF942A0020982A0020FD
:107B24009C2A0020C82A0020C02A0020C57902000F
:107B340039790200ACC9030000B583B0114B1B684E
:107B4400002B04D1104940F2351009F0E5FF002361
:107B540001930CE00B4B1A68019BDB0013441B7868
:107B64000121184607F064F9019B01330193074B87
:107B74001B781A46019B9A42ECD80023184603B09E
:107B84005DF804FB942A002044C90300982A0020CD
:107B940086B003900291019201238DF817309DF86D
:107BA40017301F4A039B13601D4A029B53601C4AF3
:107BB400019B9360039B44F20102934211D044F26F
:107BC4000202934220D1019B154AD360144BDB6817
:107BD4001B68134A9361124BDB685B68104AD361DC
:107BE40012E0019B0E4A13610D4B1B699B680C4A02
:107BF40053610B4B1B691B68094A9361084B1B6952
:107C04005B68074AD36100BF72B600BF9DF81730A6
:107C1400DBB2002BFAD162B600BF06B0704700BFDA
:107C2400D82A002000B583B002900091019244F25A
:107C3400010071466A4600F003F803B000BD00BFBE
:107C440030B58BB007900691059272B6FFF7FEFA35
:107C540000BFFFF7B7F80346002BFAD1079B41F2A8
:107C6400010293421BD041F20102934202D8012B3C
:107C740009D05FE044F2010293422ED044F20202A2
:107C8400934218D056E0394A394BD31ADB081B0407
:107C940043F0010337491846FFF70AF857E0334A1F
:107CA400334BD31ADB081B0443F001033249184653
:107CB400FEF7FEFF4BE0059B09932C4A2C4BD31A8D
:107CC400DB081B0443F00100099B5B681A46099B0F
:107CD4001B682A49FFF70BF839E0059B0893234AF0
:107CE400234BD31ADB081B0443F00104089B9D6853
:107CF400089B9B68184605F039F803461846089B0C
:107D04005B681946089B1B68069A029201930091CE
:107D140003462A461A492046FFF72BF8134A144B08
:107D2400D31ADB081B0443F0010316491846FEF777
:107D3400BFFF0CE00D4A0E4BD31ADB081B0443F0C3
:107D44000103069A10491846FEF7C0FF00BF0F4B07
:107D54001B6803F00103002B00D000BE059A0699AE
:107D64000798FFF715FF00BF0BB030BDA0C6030096
:107D740058C60300B0C90300D0C90300F4C9030006
:107D840010CA030038CA03004CCA0300F0ED00E037
:107D940010B582B0124801F006F8034619464FF0B8
:107DA4000002104BD3E900345B1844EB0204CDE924
:107DB40000340D4BD3E90034DDE90012A24208BFC0
:107DC400994207D2DDE9003413F1807344F10004D1
:107DD400CDE90034DDE900341846214602B010BD77
:107DE400B8220020002B0020082B002010B489B0FA
:107DF40001900091019B0793009B0693079BD3E995
:107E04000234CDE90434069BD3E90234CDE90234CB
:107E1400DDE90434DDE90212A24208BF99422CBF15
:107E240001230023DBB2184609B05DF8044B704708
:107E340010B584B00190019B5B69002B03D12B49E1
:107E4400A22009F069FE00238DF80F30284B1B781F
:107E5400002B46D0019B002B43D0019B1B7FDBB240
:107E6400002B3ED0FFF794FF0A460146019BD3E95D
:107E74000234A24208BF99422BD3019B1B69002BF9
:107E840002D1019B00221A77019B5B69019A9269D6
:107E940010469847019B1B69002B22D0019B1B7F36
:107EA400DBB2002B1DD0019BD3E90212019B1B699D
:107EB4004FF000045B1844EB0204019AC2E9023457
:107EC400019B19460B4804F0ABFE01238DF80F30DB
:107ED40007E0019B1946074804F0A2FE01238DF830
:107EE4000F309DF80F30184604B010BD70CA03005F
:107EF400FC2A0020D8CA030030B589B00190009153
:107F04000D230793009B00221A70019BD3E90245BD
:107F1400FFF73EFF02460B46A41A65EB0305234612
:107F24002C46CDE90434DDE90434012B74F100035B
:107F34001ADB049BB3F5350F05D300F0A7FA02460C
:107F4400154B134402E0019BD3E9023403934FF42D
:107F54009603039A0021114800F018FE0790079B2E
:107F6400002B05D1012313E000210C4800F0E6FEAC
:107F7400079B0D2B07D10198FFF75AFF03461A46BA
:107F8400009B1A7003E00649F52009F0C5FD0023A3
:107F9400184609B030BD00BFFFFFB400B82200206E
:107FA40070CA030000B583B0044804F073FE019066
:107FB400019B184603B05DF804FB00BFD8CA030058
:107FC40000B583B0044804F087FE0190019B184675
:107FD40003B05DF804FB00BFD8CA030000B583B04A
:107FE400FFF7E0FF0190019B002B02D0019B0022D0
:107FF4001A77019B002BF3D100BF03B05DF804FB9B
:1080040010B4074BD3E9003413F1807344F1000436
:10801400034AC2E9003400BF5DF8044B704700BF57
:10802400002B002010B582B00190124B1B68002B6E
:108034001DD0019800F0B7FE04460021019800F01D
:10804400A3FE03461946204600F014FA0346B3F58E
:10805400960F04D3084940F22B1009F05DFD054B3F
:108064001B681846FFF7E4FE024B00221A6000BFAB
:1080740002B010BDF82A002070CA030010B582B007
:108084000190FFF785FE03460C46034AC2E900341B
:1080940000BF02B010BD00BF082B002010B586B091
:1080A4000190FFF78DFF049000238DF81730049B97
:1080B400002B48D02B4B1B68002B03D101238DF8D8
:1080C400173019E0049BD3E90212264B1B68D3E94D
:1080D4000234A24208BF99420ED201238DF8173010
:1080E400204B1B681B7FDBB2002B05D01D4B1B688C
:1080F40019461D4804F094FD9DF81730002B2AD032
:10810400FFF750FF04900DF10F0319460498FFF791
:10811400F3FE0346002B12D0124B1B68002B02D136
:10812400019800F03FFC0F4A049B13609DF80F3048
:1081340083F00103DBB2002BB3D000BF0EE0094B88
:1081440000221A60ADE7074B1B68002B05D101988C
:1081540000F03EFC01E000BF00E000BF00BF06B03D
:1081640010BD00BFF82A0020D8CA030000B587B0AC
:1081740001902A4A03AB1946104602F0BAFE059054
:1081840044E0059B1B78012B18D0022B2AD0002B2E
:1081940000D02EE0059B5B681B7FDBB283F00103FC
:1081A400DBB2002B24D0059B5B6801221A77059B68
:1081B4005B6819461A4804F033FD19E0059B5A68B8
:1081C400184B1B689A4203D1164B00221A6010E028
:1081D400059B5B681946124804F092FD03468DF82E
:1081E400133006E0FFF7FAFE0F4B01221A7000E08D
:1081F40000BF0A4A03AB1946104602F093FE074A31
:1082040003AB1946104602F074FE0590059B002B43
:10821400B7D100BF07B05DF804FB00BF682B002096
:10822400D8CA0300F82A0020FC2A002000B583B035
:108234000190019800F075FD0346002B01D0FFF773
:10824400DFFE0021019800F08AFD0346002B02D0D6
:108254000198FFF7E7FE0121019800F080FD034635
:10826400002B02D00198FFF709FF0198FFF77EFF6A
:108274000198FFF713FF00BF03B05DF804FB000093
:1082840008B5024800F09CFD00BF08BDB8220020DC
:1082940000B585B0034600918DF80730114A02AB52
:1082A4001946104602F0F8FD0390039B002B13D0EF
:1082B400039B9DF807201A70039B009A5A60094A91
:1082C40002AB1946104602F000FE0346002B01D013
:1082D400FFF7D6FF002300E00423184605B05DF83D
:1082E40004FB00BF682B002000B583B0164B1B684D
:1082F4000093164808235822154902F086FD019080
:10830400019B002B01D0019B19E06B46114A1946D1
:10831400114800F0C9FA0190019B002B01D0019B88
:108324000DE001210C4800F0EBFC01230B4A012174
:10833400094800F063FB0A4B01221A70019B18469E
:1083440003B05DF804FB00BFD4CA0300682B00200F
:10835400102B002031820200B8220020FFFF7F0092
:10836400FC2A002000B587B003900B4601928DF8DB
:108374000B30039B002B04D1134940F22E2009F04B
:10838400CBFB019B002B04D10F4940F22F2009F0B5
:10839400C3FB019B002B01D1072310E0039B1B6847
:1083A4000593059B019A5A619DF80B30012B0CBF74
:1083B40001230023DBB21A46059B1A6100231846E9
:1083C40007B05DF804FB00BF70CA030010B586B0A7
:1083D400039002910192039B002B04D1164940F2B1
:1083E4003E2009F099FB039B0593059B1B7FDBB2A1
:1083F400002B01D000231BE0059B019A9A61FFF733
:10840400C7FC0A460146029B4FF000045B1844EB8C
:108414000204059AC2E90234059B1B69002B02D0B1
:10842400059B029A1A6105990020FFF731FF034664
:10843400184606B010BD00BF70CA030000B585B071
:108444000190019B002B04D109494FF4157009F0E8
:1084540063FB019B0393039B00221A77039901207A
:10846400FFF716FF0346184605B05DF804FB00BF8E
:1084740070CA030082B001900091019A009BD31A44
:1084840023F07F43184602B07047000008B5034844
:1084940000F089FC0346184608BD00BFB82200203E
:1084A40082B0EFF310830093009B019372B6019B9B
:1084B400184602B0704762B600BF704700B585B079
:1084C4000190FFF7EDFF0390164B9B68002B1BD127
:1084D400144B01229A60144BD3F88020134B1340A1
:1084E400104A1360104B114AC3F880200E4BD3F886
:1084F40084300C4A53600C4B4FF0FF32C3F8842095
:10850400019B00221A7002E0019B01221A70039B56
:10851400002B01D1FFF7CFFF0023184605B05DF80B
:1085240004FB00BF7C2B002000E100E0FC06FFBD43
:1085340000B585B003468DF80730104B9B68002BBF
:1085440016D09DF80730002B12D1FFF7A9FF039036
:108554000B4A0A4B1B681360094A084B5B6853605B
:10856400064B00229A60039B002B01D1FFF7A3FF67
:108574000023184605B05DF804FB00BF7C2B0020E7
:1085840000E100E000B583B0019000F02BF8034651
:10859400012B03D00549432009F0BEFA0198FFF7E7
:1085A4008DFF00BF03B05DF804FB00BFE4CA030005
:1085B40000B583B003468DF8073000F013F8034686
:1085C400012B03D00649512009F0A6FA9DF8073083
:1085D4001846FFF7ADFF00BF03B05DF804FB00BF12
:1085E400E4CA030084B0EFF305830193019BC3F352
:1085F40008030393039B002B0DD1EFF31483009323
:10860400009B0293029B03F00103002B0CBF012388
:108614000023DBB200E00123184604B070470000D9
:1086240082B003468DF807309DF90730002B0CDB30
:1086340007499DF907305B099DF8072002F01F02E6
:10864400012000FA02F241F8232000BF02B0704773
:1086540000E100E082B003468DF807309DF9073051
:10866400002B0DDB08499DF907305B099DF80720B5
:1086740002F01F02012000FA02F2403341F82320E5
:1086840000BF02B0704700BF00E100E082B00346C3
:1086940000918DF807309DF90730002B0ADB0D4956
:1086A4009DF90730009AD2B25201D2B20B4483F83A
:1086B40000230BE008499DF8073003F00F03043B47
:1086C400009AD2B25201D2B20B441A7600BF02B061
:1086D400704700BF00E100E000ED00E000B583B0AA
:1086E40003460A468DF8073013468DF806309DF888
:1086F4000630012B03D99DF80630032B0BD99DF8C6
:108704000630042B03D99DF80630072B03D90849FA
:108714006B2009F001FA9DF806209DF907301146F7
:108724001846FFF7B3FF00BF03B05DF804FB00BFBA
:1087340050CB030000B583B003468DF807309DF994
:1087440007301846FFF76CFF00BF03B05DF804FB69
:1087540000B585B00190019B002B0AD0074B43F074
:1087640001030393019B9B010293039B0298984787
:1087740000E000BF05B05DF804FB00BF60CC03005F
:1087840084B0039002910192039B029A02F5A872AD
:10879400019943F8221000BF04B0704782B00190E1
:1087A4000091019B009A02F5A87253F822301846F2
:1087B40002B0704782B001900091019B009AC3F807
:1087C400042300BF02B0704782B001900091019B66
:1087D400009AC3F8082300BF02B0704782B001902A
:1087E4000B46ADF80230BDF80230019A13441B6801
:1087F400184602B0704784B001900B46ADF80230C1
:10880400BDF80230019A134400221A60BDF8023008
:10881400019A13441B680393039B00BF04B0704781
:1088240082B00190019BD3F80435184602B070471A
:1088340000B583B001900091009BB3F5805F04D331
:1088440006494FF4BE7009F067F9019B009AC3F81A
:10885400082500BF03B05DF804FB00BF80CB030014
:1088640082B001900B468DF803309DF80320019BE4
:1088740013441A460123136000BF02B0704782B04C
:1088840001900091019B009AC3F8442300BF02B0F9
:10889400704782B001900091019B009AC3F848236D
:1088A40000BF02B07047000000B587B0039002918A
:1088B4000192039B002B03D13349552009F02CF975
:1088C400029B002B03D13049562009F025F9019B66
:1088D400002B03D12C49572009F01EF9039B5B7927
:1088E40019462A4A019B42F82130039B5B79284AA6
:1088F400DB0013441B79002B0ED008230593254A73
:10890400254BD31ADB081B0443F002032349184602
:10891400FEF7CEF9059B32E0039B1A68029B1B8885
:1089240019461046FFF784FF039B93F90420029B2A
:108934009B7819461046FFF7D1FE039B93F9043048
:108944001846FFF7F7FE039B5B79114ADB001344DB
:1089540001221A71039B5B7919460D4A039B42F865
:108964003130002305930B4A0B4BD31ADB081B044D
:1089740043F003030A491846FEF79AF9059B184683
:1089840007B05DF804FB00BFB0CB0300882B0020C8
:108994008C2B0020B0C6030058C6030014CC03007F
:1089A40038CC030000B583B00190019B002B03D1A8
:1089B4000649872009F0B0F8019B1B68002118467E
:1089C400FFF74EFF00BF03B05DF804FBB0CB03001C
:1089D40000B583B00190019B002B03D106498D2083
:1089E40009F09AF8019B1B6804211846FFF738FF29
:1089F40000BF03B05DF804FBB0CB030000B587B043
:108A04000390029101928DF80330039B002B03D154
:108A14002149962009F080F84FF48032029B02FA33
:108A240003F30593029B9B0003F5A073ADF812308A
:108A3400019B23F07F430193039B1B680599184610
:108A4400FFF7C2FE039B1B6805991846FFF721FF39
:108A5400039B1B68BDF8122011461846FFF7CBFE96
:108A6400039B1B68019A02991846FFF789FE039B32
:108A74001B6805991846FFF702FF9DF80330002B89
:108A840005D0039B1B6805991846FFF793FE00BFAA
:108A940007B05DF804FB00BFB0CB030000B585B0A0
:108AA4000390029113468DF80730039B002B03D1EA
:108AB4000B49A92009F030F8039B1B68029918465A
:108AC400FFF7DDFE9DF80730002B05D0039B1B68E4
:108AD40002991846FFF76EFE00BF05B05DF804FB6F
:108AE400B0CB030000B583B001900091019B002B33
:108AF40003D10A49B32009F00FF8019B1B680099C0
:108B04001846FFF7C6FE019B1B6800991846FFF73D
:108B14005BFE00BF03B05DF804FB00BFB0CB0300F5
:108B240000B583B001900B46ADF80230019B002BD9
:108B340003D10F49BA2008F0EFFF019B1B68BDF871
:108B4400022011461846FFF749FE0346002B09D0C0
:108B5400019B1B68BDF8022011461846FFF74BFE27
:108B6400012300E00023184603B05DF804FB00BFB6
:108B7400B0CB030082B001900091019A009BD31AFC
:108B840023F07F43184602B07047000000B58BB055
:108B94000390029101920093039B002B03D1574948
:108BA400CD2008F0B9FF4FF48032029B02FA03F3A0
:108BB4000993029B9B0003F5A073ADF82230019B3F
:108BC40023F07F43019309990398FFF78BFF039BDD
:108BD4001B681846FFF724FE0790039B1B68029945
:108BE4001846FFF7DBFD0690039B1B68079A029962
:108BF4001846FFF7C5FD039B1B68BDF822201146EC
:108C04001846FFF7F8FD07990698FFF7B3FF0346E8
:108C1400012B0AD11020FFF79BFD039B1B68BDF8B5
:108C2400222011461846FFF7E6FD039B1B681846F1
:108C3400FFF7F6FD079007990198FFF79BFF059052
:108C4400039B1B6809991846FFF719FE059B012B26
:108C540015D1039B1868019B01331A460299FFF74B
:108C64008FFD1020FFF774FD039B1B681846FFF768
:108C7400D7FD0246079B9A4235D00D2339E0039B6A
:108C84001B68019A02991846FFF77AFD039B1B683B
:108C94001846FFF7C5FD0790019B013B079918464D
:108CA400FFF768FF0590009BC3F1FF1303F57F43B3
:108CB400059A934201D20D231BE0059B002B12D190
:108CC400039B1868019B01331A460299FFF758FD6C
:108CD400039B1B681846FFF7A3FD0246079B9A42B5
:108CE40001D00D2305E0012209990398FFF7D6FE70
:108CF400002318460BB05DF804FB00BFB0CB0300A3
:108D040000B583B001900B468DF803309DF8033015
:108D14001A4602210198FFF7C1FE00BF03B05DF8B7
:108D240004FB00B583B001904FF482710198FFF702
:108D3400F7FE0346184603B05DF804FB00B583B0A4
:108D4400019000914FF48032009B02FA03F319461C
:108D54000198FFF7C7FE00BF03B05DF804FB00B540
:108D640085B001900091009B9B0003F5A073ADF8C2
:108D74000E30BDF80E3019460198FFF7D1FE0346B8
:108D8400184605B05DF804FB00B583B0019000916E
:108D9400019B1B6800991846FFF700FD034618461F
:108DA40003B05DF804FB00B583B00190019B1B6820
:108DB4001846FFF735FD0346184603B05DF804FB7B
:108DC40000B583B00190019B93F904301846FFF776
:108DD40041FC00BF03B05DF804FB000008B5044B80
:108DE4001B68044A12681046984700BF08BD00BFBC
:108DF400882B00208C2B002082B00190019B03F073
:108E04000303002B0CBF01230023DBB2184602B07E
:108E14007047000000B585B00190002303930EE075
:108E24000A4A039B52F82330002B05D0074A039BC0
:108E340052F8233001989847039B01330393039B13
:108E4400032BEDD900BF05B05DF804FBA42B002073
:108E540082B001900091019B1B78013B052B61D8E6
:108E640001A252F823F000BF858E02008D8E02000D
:108E7400B38E0200E58E0200058F0200218F0200EE
:108E8400009B00221A704EE0009B01221A70019B85
:108E94001A89009B9A81019B9A88009BDA81019B25
:108EA400DA68009B9A60009B00221A743BE0009BE6
:108EB40002221A70019B1A89009B9A81019B9A884D
:108EC400009BDA81019BDA68009B9A60019B9B7D81
:108ED400062B0CBF01230023DAB2009B1A7422E094
:108EE400009B03221A70019BDA88009B9A81019BE4
:108EF4001A89009BDA81019BDA68009B9A6012E070
:108F0400009B04221A70019BDA88009B9A81009BC3
:108F14000022DA81009B00229A6004E0009B052273
:108F24001A7000E000BF00BF02B0704784B0019027
:108F34000091019B0393039A009B9A4206D2039BE0
:108F44001B68B3F1FF3F01D0012300E0002303F0CD
:108F54000103DBB2184604B0704782B00190019B54
:108F64005B8803339B00019A1344184602B0704790
:108F740000B583B0019000910198FFF7EEFF02461F
:108F8400009B9A4201D9022311E0019B9B884FF672
:108F9400FF72934208D0019B1B88002B04D0019BD5
:108FA4009B68B3F1FF3F01D1012300E00023184681
:108FB40003B05DF804FB000000B583B00190019B91
:108FC400002B13D00D4BDB681A46019B9A420DD837
:108FD4000A4B1B691A46019B9A4207D30198FFF773
:108FE4000BFF0346002B01D0012300E0002303F014
:108FF4000103DBB2184603B05DF804FB60220020D5
:1090040082B00190019B002B04D0019B1B680B4A8A
:10901400934201D003230DE0019B04331B68084AEB
:10902400934204D0074A934203D1012302E0002370
:1090340000E00323184602B0704700BFDEC0ADDE77
:10904400FE011EF1FF011EF184B00190019B1B681B
:10905400B3F1FF3F06D0019B1B680E4A934201D037
:10906400002314E0012303930CE0039B9B00019A6B
:1090740013441B68B3F1FF3F01D0002307E0039BB7
:1090840001330393039BB3F5806FEED3012318469A
:1090940004B07047DEC0ADDE82B003460A46ADF8C8
:1090A40006301346ADF80430BDF8062013491346C4
:1090B4009B0013449B000B4408331A88BDF804300A
:1090C4001344ADF80430BDF806200C4913469B0048
:1090D40013449B000B440A331A88BDF8043013442C
:1090E400ADF80430BDF80430B3F5806F94BF0123AC
:1090F4000023DBB2184602B0704700BF542C002096
:1091040084B00190009148F2096303930023ADF801
:109114000A3027E0BDF80A20164913469B00134481
:109124009B000B4404331A68009B9A4215D2BDF885
:109134000A20104913469B0013449B000B4404333C
:109144001B6803F58052009B9A4206D900230393BF
:10915400019BBDF80A201A8008E0BDF80A300133EB
:10916400ADF80A30BDF80A30012BD3D9039B184659
:1091740004B07047542C002000B589B003900291CC
:109184000192039B03F580530693039B08330393D7
:10919400029B02221A80039B079332E006990798E8
:1091A400FFF7E6FE03468DF817309DF81730002BC5
:1091B4000AD1079B9A68184B1B689A4213D9079BDC
:1091C4009B68154A13600EE0019B002B02D0019BA3
:1091D40001221A709DF81730022B04D1029B4FF420
:1091E40080621A8014E0029B1A88079B5B881344F0
:1091F4009BB203339AB2029B1A800798FFF7ADFE25
:10920400079006990798FFF791FE0346002BC5D1F6
:1092140009B05DF804FB00BFB42B002082B00190BC
:109224000091009B9B7D022B09D9019B1A89009B0D
:10923400DB8813449BB203339AB2019B1A81019BCE
:109244005A89009BDB88D31A9BB2033B9AB2019BD9
:109254005A8100BF02B0704700B583B0074B1B684A
:109264001946002300930823054A064802F09AFD94
:109274000346184603B05DF804FB00BF7C2C0020B5
:10928400C4CC03006022002000B585B0039003998C
:10929400002300930823044A044802F083FD034694
:1092A400184605B05DF804FBCCCC03006022002016
:1092B40000B585B003460091ADF8063000238DF863
:1092C4000F30BDF806300333ADF80A30BDF80A306C
:1092D40040F2FE32934202D948F208634BE0002385
:1092E400ADF80C303BE0BDF80C20254913469B003B
:1092F40013449B000B441B78002B2BD1BDF80A2090
:10930400BDF80C3011461846FFF7C6FE0346002B85
:1093140020D001238DF80F30009BBDF80C201A805B
:10932400BDF80C20BDF80C1015480B469B000B44EF
:109334009B0003440A331988BDF80A300B4498B2E1
:109344000F4913469B0013449B000B440A33024607
:109354001A8008E0BDF80C300133ADF80C30BDF8CC
:109364000C30012BBFD99DF80F30002B01D0002306
:1093740001E048F20663184605B05DF804FB00BF3F
:10938400542C002082B003460A46ADF8063013463A
:10939400ADF80430BDF80420BDF804100C480B46A9
:1093A4009B000B449B0003440A331988BDF8063024
:1093B400CB1A9BB2033B98B2054913469B00134456
:1093C4009B000B440A3302461A8000BF02B0704768
:1093D400542C002008B50121024801F00FFF034678
:1093E400184608BDB42B002000B585B00346009193
:1093F400ADF80630BDF80620234913469B001344FC
:109404009B000B4404331B6803F580530293009BB9
:109414001B680393039B002B04D00398FFF79DFD67
:10942400039024E0BDF80620174913469B0013441B
:109434009B000B4404331B680833039317E0029921
:109444000398FFF795FD0346012B09D0022B0CD09E
:10945400002B00D00BE0009B039A1A6001230EE05E
:109464000398FFF77AFD039001E0002307E00299D7
:109474000398FFF75BFD0346002BE0D10023184659
:1094840005B05DF804FB00BF542C002000B585B086
:1094940001900091019B5B681846FFF78DFD034620
:1094A400002B19D0019B1A89244B1B899A4213D192
:1094B400019B1A68019B5B689B689A420CD1019BD3
:1094C4005B6819460098FFF71BFE0346002B0CBF90
:1094D40001230023DBB22CE0009B00221A8023E04E
:1094E4000023029310E0029B0393039B9A68019B61
:1094F4001B689A4208D1029A019B5A600F4B1A8941
:10950400019B1A81012314E0009B1B8802AA1146C7
:109514001846FFF769FF0346002BE4D1009B1B8824
:1095240001339AB2009B1A80009B1B88012BD7D968
:109534000023184605B05DF804FB00BF842C00200E
:1095440000B587B00390029101920093324B1B78CF
:10955400DBB283F00103DBB2002B02D048F20163DB
:1095640055E0019B002B02D0009B002B49D148F20F
:1095740004634CE0009B9B881946284A0B469B00D9
:109584000B449B0013441B78002B33D124E0009B35
:109594001B680593039B002B06D0059B9A88039BAD
:1095A4001B889A4200D017E0029B002B06D0059B33
:1095B4001A88029B1B889A4200D00DE0059B9A688A
:1095C400019B1A60009B1A68019B5A60144B1A890C
:1095D400019B1A8100231AE0009B9B88009A114684
:1095E4001846FFF701FF0346002BD0D1009B002251
:1095F4001A6000E000BF009B9B8801339AB2009B75
:109604009A80009B9B88012BB4D948F209631846C1
:1096140007B05DF804FB00BF942B0020542C0020FD
:10962400842C002000B587B0029101920093034678
:10963400ADF80E30BDF80E20314913469B0013449B
:109644009B000B4404331B6808330593BDF80E20BC
:109654002B4913469B0013449B000B4404331B68A3
:1096640003F58053049341E004990598FFF780FCC7
:109674000346012B04D0022B22D0002B15D034E05A
:10968400019B1B8801339AB2019B1A80009B1A88A4
:10969400059B5B8813449BB203339AB2009B1A80E8
:1096A4000598FFF75AFC059020E0029B1B880133C4
:1096B4009AB2029B1A800598FFF74FFC059015E0BB
:1096C400019B1B8801339AB2019B1A80009B1A8864
:1096D4000499059BCB1A9B109BB213449AB2009B2E
:1096E4001A80089B01221A7007E000BF04990598AC
:1096F400FFF71CFC0346002BB6D107B05DF804FB52
:10970400542C002000B585B00190084B01991846EF
:1097140001F0C2FB03901C220021039812F032FBDB
:10972400039B184605B05DF804FB00BF442C0020E1
:1097340000B583B00190044B0199184601F0C5FBB4
:1097440000BF03B05DF804FB442C002000B583B0D7
:109754000190054B0199184601F0CBFB03461846CE
:1097640003B05DF804FB00BF442C002000B583B0B7
:109774000190044B0199184601F0D4FB00BF03B0DB
:109784005DF804FB442C002008B50A4B1B68002B31
:1097940004D109494FF4247008F0BEF901210548A9
:1097A40001F044FD0346002B14BF01230023DBB268
:1097B400184608BD9C2B002068CC030000B587B078
:1097C400002305930023ADF812300323ADF81030C5
:1097D40000238DF80F300023ADF80C30F4E0BDF811
:1097E4000C301B031A46814BDB6813440293029826
:1097F400FFF706FC03468DF807309DF80730012B70
:1098040000F09C80032B02D0002B62D0D7E002989A
:10981400FFF71AFC0346002B3BD0754B1B68002B4B
:1098240029D0BDF81220734913469B0013449B00B2
:109834000B4402221A70BDF812206E4913469B0095
:1098440013449B000B440433029A1A60BDF812209F
:10985400684913469B0013449B000B4408330222BF
:109864001A80654ABDF812305380BDF812300133B6
:10987400ADF8123008E05E4A029B13605C4B022292
:109884009A8001238DF80F30059B43F00103059363
:1098940095E0BDF81030013BADF81030BDF8122052
:1098A400544913469B0013449B000B440433029A0F
:1098B4001A60BDF812204F4913469B0013449B00C5
:1098C4000B4403221A70BDF812300133ADF8123084
:1098D40075E0BDF81220474913469B0013449B00D2
:1098E4000B4400221A70BDF81220424913469B0013
:1098F40013449B000B440433029A1A60BDF81220EF
:1099040013469B0013449B0008333A4A9918BDF848
:10991400122013469B0013449B001033354A134412
:109924001A460298FFF728FC059B43F002030593AF
:10993400BDF812300133ADF8123040E09DF80F301D
:10994400002B29D0BDF812202A4913469B0013444A
:109954009B000B4402221A70BDF81220244B196894
:10996400244813469B0013449B00034404331960AA
:10997400BDF812201F4913469B0013449B000B445F
:10998400083302221A801C4ABDF812305380BDF8F5
:1099940012300133ADF81230154A029B13600022D5
:1099A40016490298FFF7E8FB114B9B88022B01D163
:1099B400042300E00823059A1343059300BFBDF870
:1099C4000C300133ADF80C30BDF80C30022B7FF6AF
:1099D40006AFBDF81030012B01D800230593059B79
:1099E400DBB2184607B05DF804FB00BF602200201C
:1099F4007C2C0020542C0020842C0020802C00205F
:109A040000B587B003900291039B02229A750299D4
:109A1400039B1A1D002300930423074802F0C2F994
:109A24000590059B002B01D1002301E048F20D6352
:109A3400184607B05DF804FB6022002000B587B02B
:109A440003900291039B1B69002B01D0032200E0C9
:109A54000122039B9A75029B08331946039B03F169
:109A64000C02002300930423074802F09BF905909D
:109A7400059B002B01D1002301E048F20D63184639
:109A840007B05DF804FB00BF6022002000B587B07A
:109A940003900291039B1B78032B01D1052200E064
:109AA4000622039B9A75029B04331946039B03F118
:109AB4000802002300930423074802F073F9059079
:109AC400059B002B01D1002301E048F20D631846E9
:109AD40007B05DF804FB00BF6022002000B587B02A
:109AE40003900B46ADF80A30039900230093042336
:109AF4000D4A0E4802F056F90590059B002B02D042
:109B040048F20D630BE0BDF80A20094913469B0097
:109B140013449B000B44103301221A70002318468F
:109B240007B05DF804FB00BFD4CC03006022002022
:109B3400542C002000B589B0019002AB00221A60B9
:109B44005A609A60019BDB6802930DF1160202AB26
:109B540011461846FFF79AFC0346002B12D0039BCC
:109B64000693069B9A88019BDA80069B1A88019BC0
:109B74001A81039BBDF8162011461846FFF7AEFF65
:109B8400079002E048F209630793079B184609B05F
:109B94005DF804FB00B587B00190019B981D02AAF3
:109BA4000D4B0021FFF7CCFC0590059B002B08D141
:109BB400039A094B9B8819461046FFF78FFF0590BF
:109BC40004E008220021044812F0DCF8059B184642
:109BD40007B05DF804FB00BF942C002000B587B0EB
:109BE40003900291039B01229A75029B0C33184641
:109BF400039B1A69039BDB889900002300930B469F
:109C04000146074802F0CEF80590059B002B01D1D0
:109C1400002301E048F20D63184607B05DF804FB29
:109C24006022002082B0174B1B8901339AB2154B76
:109C34001A81144B00225A80124B00221A730023FB
:109C4400ADF8063017E0BDF80610BDF806200E4842
:109C540013469B0013449B0003441B78002B0CBF4A
:109C640001230023DAB2074B0B449A72BDF8063085
:109C74000133ADF80630BDF80630012BE3D900BF3F
:109C840002B07047842C0020542C002084B0019032
:109C940000238DF80F300023ADF80C3031E0BDF80F
:109CA4000C301C4A13449B7A002B25D0BDF80C3091
:109CB400184A134400229A72BDF80C201649134620
:109CC4009B0013449B000B440C331B68002B13D1E3
:109CD400BDF80C20104913469B0013449B000B4411
:109CE40010331B78002B07D0019BBDF80C201A8081
:109CF40001238DF80F3008E0BDF80C300133ADF8C6
:109D04000C30BDF80C30012BC9D99DF80F30184622
:109D140004B07047842C0020542C002008B5084B54
:109D240005221A70074B02229A80064B1B681946BB
:109D340000230122044802F017F90346184608BD1F
:109D4400842C00207C2C00206022002000B583B0ED
:109D5400164B5B88ADF80230BDF802201449134657
:109D64009B0013449B000B440C331B68002B14D141
:109D74000E4B04221A70BDF802200D4913469B00B5
:109D840013449B000B4404331B681946002301222F
:109D9400084802F0E9F8019002E0FFF7BFFF0190E4
:109DA400019B184603B05DF804FB00BF842C00201F
:109DB400542C00206022002000B587B0114B5B6852
:109DC4000593114B1A68104B9B889B001344049312
:109DD400059B5B880333ADF80E300A4B03221A70DF
:109DE4000499084B5A68BDF80E309800002300937C
:109DF4000346064801F0D6FF0346184607B05DF84F
:109E040004FB00BF842C00207C2C00206022002056
:109E140000B583B00A4B5B880A491846FFF7E4FA99
:109E24000346002B03D0FFF7C7FF019002E0FFF7C2
:109E34008DFF0190019B184603B05DF804FB00BF41
:109E4400842C0020882C002008B50A4B06221A70A6
:109E5400084B5B881946084A0B469B000B449B0041
:109E6400134404331B681846FFF70EFA03461846DA
:109E740008BD00BF842C0020542C002008B5054BDD
:109E840007221A70034B00225A60FFF7E5F90346D4
:109E9400184608BD842C002008B50D48FFF7F6FECF
:109EA400034683F00103DBB2002B0BD0094B0022E5
:109EB4001A70084B00225A80064B00225A6041F661
:109EC4001D5302E0FFF7A4FF0346184608BD00BF78
:109ED400862C0020842C002082B0094B5B680193FF
:109EE400019B5B880333ADF80230064B9A88BDF8BA
:109EF400023013449AB2034B9A8000BF02B07047F9
:109F0400842C00207C2C002082B01E4B1B68019303
:109F14001D4B5B8819461D4A0B469B000B449B0056
:109F2400134404331B68174A1360174B5B881946A4
:109F3400164A0B469B000B449B0013440433019ABE
:109F44001A60114B5B8819460E4B98880F4A0B46D2
:109F54009B000B449B001344083302461A80094BB0
:109F640002229A80084B5B881946084A0B469B00DC
:109F74000B449B001344103300221A7000BF02B03C
:109F8400704700BF7C2C0020842C0020542C00201F
:109F940008B51A4B1B78072B2CD801A252F823F0D2
:109FA400C59F0200F99F0200F99F0200D19F0200A1
:109FB400DD9F0200E99F0200E99F0200F19F020079
:109FC400FFF730FE0D4B01221A7014E0FFF784FFF7
:109FD4000A4B02221A700EE0FFF796FF074B062287
:109FE4001A7008E0054B07221A7004E0034B0122A3
:109FF4001A7000E000BF00BF08BD00BF842C002021
:10A0040000B587B00190009148F20E630593019B5F
:10A01400002B05D0634B00225A604FF40643BCE08A
:10A02400009B1B79032B00F2AB8001A252F823F0B2
:10A0340045A0020053A00200E1A0020001A1020019
:10A04400009B01221A71FFF707F905909BE000239A
:10A054008DF813300023ADF810302BE0BDF810203C
:10A06400514913469B0013449B000B441B78022B5D
:10A074001BD1BDF810204C4913469B0013449B0090
:10A084000B4400221A7001238DF81330BDF8102000
:10A09400454913469B0013449B000B4404331B683F
:10A0A4001846FFF7F1F8059008E0BDF810300133C9
:10A0B400ADF81030BDF81030012BCFD99DF8133016
:10A0C40083F00103DBB2002B5CD0364B01221A7003
:10A0D400344B00225A6041F61D535EE0009B00227F
:10A0E4001A71324B02229A80304B1B6819460023A6
:10A0F40001222F4801F038FF059044E0009B002224
:10A104001A712A4B1B681846FFF7BEF80590294BB5
:10A114005B88ADF80E30254B1B680293BDF80E200A
:10A12400214913469B0013449B000B4404331B68D2
:10A134001E4A1360BDF80E201B4913469B001344AE
:10A144009B000B440433029A1A60BDF80E20174B8F
:10A154009888154913469B0013449B000B4408330D
:10A1640002461A80114B02229A80BDF80E200E4935
:10A1740013469B0013449B000B4400221A7002E018
:10A1840000BF00E000BF059B002B05D0054B00225B
:10A194005A6048F20D6300E00023184607B05DF8EA
:10A1A40004FB00BF942B0020542C00207C2C0020A6
:10A1B40060220020842C002000B587B0019000911B
:10A1C400009B9B8A1A4613469B0013449B003B4A00
:10A1D40013440493019B002B06D000990498FFF7C5
:10A1E4001DF84FF4064364E0049B5A68049B1B89E2
:10A1F4009B0013440393009B9B7D062B4DD801A227
:10A2040052F823F04DA2020071A2020059A20200EA
:10A2140065A2020025A202007DA2020097A202000C
:10A22400274B00225A60009B9B69254A13602549ED
:10A234002348FFF72BF9034683F00103DBB2002B1D
:10A2440002D048F2096334E003990098FFF7D8FB81
:10A25400059026E003990098FFF7F0FB059020E0B5
:10A2640003990098FFF7BAFC05901AE00399009847
:10A27400FFF70CFC059014E0009B06229A75104B26
:10A284005A68104B1B8819461046FFF727FC0590A7
:10A2940007E041F61D53059303E048F20E6305936E
:10A2A40000BF059B002B03D000990498FEF7B6FF6E
:10A2B400059B184607B05DF804FB00BF542C002032
:10A2C4009C2C0020A82C002000B585B001900091A2
:10A2D400019B002B02D04FF4064326E0009B1B7920
:10A2E400012B0BD0022B16D0002B18D1009B02227D
:10A2F4001A710098FFF71EFC039015E00098FFF711
:10A3040049FC0390039B48F2096293420BD141F646
:10A314001D53039307E041F61D53039304E048F2F1
:10A324000E63039300E000BF039B184605B05DF87D
:10A3340004FB000000B585B00190019B002B02D006
:10A344004FF406433DE0214B1B7B002B03D01F4BF6
:10A3540000221A7301E0FFF71BFE1C4B1B78013B24
:10A36400062B29D801A252F823F000BF8DA30200C6
:10A3740095A302009DA30200A5A30200BDA30200B1
:10A38400ADA30200B5A30200FFF786FD039017E01A
:10A39400FFF73EFD039013E0FFF70EFD03900FE07F
:10A3A400FFF7D4FC03900BE0FFF74EFD039007E0AA
:10A3B400FFF764FD039003E048F20E63039300BFCC
:10A3C400039B184605B05DF804FB00BF842C0020F5
:10A3D40000B589B00190404B1B68002B05D13F4864
:10A3E400FFF7B4F902463C4B1A603B4B1B68002B49
:10A3F40004D13B4940F29E5007F08EFB364B1B685C
:10A404001B78013B052B2CD801A252F823F000BF86
:10A414002DA402003DA402003DA402004DA40200AC
:10A424004DA402005DA402002B4B1B681946019841
:10A43400FFF7E6FD019018E0274B1B6819460198C9
:10A44400FFF7BAFE019010E0234B1B6819460198F0
:10A45400FFF73AFF019008E00198FFF76BFF0190C6
:10A4640003E048F20E63019300BF019B002B2BD045
:10A4740003AB00221A605A609A60DA601A61019B89
:10A4840041F61D52934201D0019B00E00023049346
:10A49400114B1B6803AA11461846FEF7D9FC03ABFF
:10A4A4001846FEF7B7FC0C4B00221A6000230193F8
:10A4B4000A48FFF75BF9FFF767F9034683F00103E6
:10A4C400DBB2002B02D186E700BF00E000BF00BF73
:10A4D40009B05DF804FB00BFAC2C0020B02C0020B8
:10A4E40068CC030008B50121054800F06FFE03465F
:10A4F400002B02D10020FFF76BFF00BF08BD00BF97
:10A504009C2B002000B583B00190019B5B6818462A
:10A51400FFF75EFF00BF03B05DF804FB00B58BB02E
:10A524000390029101928DF803300023ADF824309A
:10A534000023ADF82630534B1B78DBB283F00103C4
:10A54400DBB2002B02D048F2016397E0029B002BA0
:10A5540002D148F2046391E0029B1B884FF6FF721C
:10A56400934203D0029B5B88002B02D148F2036321
:10A5740084E0029B5B681846FEF73EFC034683F0CA
:10A584000103DBB2002B02D048F2026376E0019BA8
:10A59400002B11D1029B9B68ADF826300DF11A02F5
:10A5A400BDF8263011461846FEF782FE0890089B37
:10A5B400002B09D0089B61E0019B1B88ADF81A3081
:10A5C400019B5B88ADF8263005AB1846FFF79AF877
:10A5D4000790079B002B0AD1BDF81A20BDF826303E
:10A5E40011461846FEF7CEFE48F2076346E0079B85
:10A5F4009DF803201A70079B00229A75BDF81A2053
:10A60400079B9A82029B5A68079B1A61FEF7E2FE37
:10A614000246079BDA60029B1A88079B1A81029BF9
:10A624005A88079B9A80079BBDF82620DA809DF8FC
:10A634000330032B06D1079B04229A75039B1A68E7
:10A64400079B9A61079BBDF824205A8105AB1846E5
:10A65400FFF76EF8039B002B0DD0039B00225A607A
:10A66400079BDA68039B1A60039B00229A72064BCD
:10A674001A89039B1A81FFF735FF002318460BB094
:10A684005DF804FB942B0020842C002000B585B0D9
:10A6940001900C4B1B68042B03D148F20B6303930A
:10A6A4000BE0084B1B680849019A41F8232001215B
:10A6B400044800F0A3FD00230393039B184605B050
:10A6C4005DF804FBA02B0020A42B002084B040F6EE
:10A6D400F8731B68B3F1FF3F02D10F4B1B6802E014
:10A6E40040F6F8731B6803934FF080531B69029381
:10A6F4004FF080535B690193039BB3F1FF3F04D197
:10A70400019B029A02FB03F300E0039B0093009B6E
:10A71400184604B0704700BF1410001000B583B091
:10A724004FF440530193FFF7D1FF0246054B1A61E2
:10A73400044B1A69019BD31A024AD36000BF03B0C9
:10A744005DF804FB6022002008B5FFF7E7FF002254
:10A754000349044801F0DEFA0346184608BD00BF69
:10A764000CD003006022002008B504481C238C226E
:10A77400034900F04AFB00BF08BD00BF442C002081
:10A78400B82B002000B58BB002AB00221A605A60CF
:10A794009A60DA601A61414B1B78DBB2002B05D05A
:10A7A40002AB1846FEF736FB002373E03C4800F08A
:10A7B40055FD0346002B01D000236BE0FFF7C4FFD7
:10A7C4000990099B002B01D0099B63E0FFF7CCFFA4
:10A7D400FEF7F4FF03468DF823309DF82330022B57
:10A7E4000DD0062B0ED0002B09D000BF01AB1846AC
:10A7F400FEF788FF0790079B002B12D10EE048F26A
:10A804000A6347E0254B01221A70244B00225A6048
:10A8140002AB1846FEF7FEFA00233BE048F207635A
:10A8240038E0079B01221A709DF82330013B0A2B64
:10A8340028D801A252F823F069A8020089A80200CE
:10A8440069A8020089A8020081A8020089A8020060
:10A8540081A8020089A8020071A8020079A8020058
:10A8640071A80200079B00221A710CE0079B0322C7
:10A874001A7108E0079B02221A7104E0079B012267
:10A884001A7100E000BF01AB1846FEF751FFFFF755
:10A8940029FE002318460BB05DF804FB942B00201E
:10A8A400982B002000B585B001900091019B002BEE
:10A8B40002D0009B002B02D148F204632AE00DF180
:10A8C4000A0319460198FEF7E1FD0346002B1FD049
:10A8D400019B5B680393BDF80A301A4613469B003C
:10A8E40013449B0008330D4A1344043301211846D2
:10A8F40000F084FC009B039A1A60019B5B6803F1DF
:10A904000C02009B5A60019B01229A72002301E011
:10A9140048F20963184605B05DF804FB542C002086
:10A9240000B585B00190019B002B02D148F204636D
:10A934003BE00DF10A0319460198FEF7A7FD034613
:10A94400002B2ED0BDF80A3019461A4A0B469B003C
:10A954000B449B0013440C331B68002B1DD0019B3C
:10A964009B7A002B19D0BDF80A301A4611491346B8
:10A974009B0013449B000B440C331B68591E0D4869
:10A9840013469B0013449B0003440C331960019B42
:10A9940000229A720023039306E048F205630393AE
:10A9A40002E048F209630393039B184605B05DF87F
:10A9B40004FB00BF542C002000B583B0019000912B
:10A9C4000223002200990198FFF7A8FD03461846C8
:10A9D40003B05DF804FB00B583B001900091019BC6
:10A9E400002B02D148F2046306E0032300220099FD
:10A9F4000198FFF793FD0346184603B05DF804FB86
:10AA040000B585B00346ADF806301A4B1B78DBB2AF
:10AA140083F00103DBB2002B02D048F2016324E08F
:10AA2400BDF806304FF6FF72934202D148F2036339
:10AA34001BE002AB1846FEF765FE0390039B002B58
:10AA440002D148F2076310E0039B05221A70039BAE
:10AA540001221A71039BBDF80620DA8002AB184666
:10AA6400FEF766FEFFF73EFD0023184605B05DF8CD
:10AA740004FB00BF942B002000B583B0154B1B785A
:10AA8400DBB283F00103DBB2002B02D048F2016396
:10AA94001BE06B461846FEF735FE0190019B002B28
:10AAA40002D148F2076310E0019B06221A706B463C
:10AAB4001846FEF73DFE084B1B78002B02D0064BD0
:10AAC40001221A73FFF70EFD0023184603B05DF848
:10AAD40004FB00BF942B0020842C002000B585B01B
:10AAE400029201930346ADF80E300B46ADF80C30DC
:10AAF40003A90DF10E00019B029AFEF721FD034606
:10AB0400184605B05DF804FB00B585B00346029114
:10AB14000192ADF80E300DF10E01019B029A002056
:10AB2400FEF70EFD0346184605B05DF804FB00B5BC
:10AB340085B0034602910192ADF80E300DF10E007E
:10AB4400019B029A0021FEF7FBFC0346184605B060
:10AB54005DF804FB82B001900091019B002B02D0B0
:10AB6400009B002B02D148F2046304E0019B1A68A5
:10AB7400009B1A600023184602B0704710B586B0D7
:10AB840003904FF48063ADF814300023ADF8123015
:10AB94004F4B1B78DBB283F00103DBB2002B02D0F6
:10ABA40048F2016391E0039B002B02D148F2046355
:10ABB4008BE012220021039811F0E4F8039B032296
:10ABC4001A800023ADF816307AE0BDF8162041490A
:10ABD40013469B0013449B000B4408331988BDF8AB
:10ABE40016203C4813469B0013449B0003440A333D
:10ABF4001B880B44ADF81030BDF8162035491346B8
:10AC04009B0013449B000B4404331B681846FEF757
:10AC1400F7F90346032B05D1039B1B88013B9AB22A
:10AC2400039B1A80BDF816202A4913469B0013443F
:10AC34009B000B440C331968039B5A888BB2134452
:10AC44009AB2039B5A80039B1989BDF816202148A8
:10AC540013469B0013449B0003440A331B880B4494
:10AC64009AB2039B1A81039B5A89BDF8103013448E
:10AC74009AB2039B5A81BDF81420BDF81030D31A40
:10AC8400ADF81230039B9B89BDF812209A4203D978
:10AC9400039BBDF812209A81039B191D039B9A1DE7
:10ACA400039B03F10E04039B1033BDF816000093BD
:10ACB4002346FEF7B7FCBDF816300133ADF8163065
:10ACC400BDF81630012B80D90023184606B010BDFC
:10ACD400942B0020542C002086B001900091019BFD
:10ACE40053E8011F8AB2D88902449889824228BF56
:10ACF400121A1889824202BFBFF32F8F002307E084
:10AD0400C2EA010243E801200028E9D14FF001031F
:10AD14008DF80F30059002910492029A009B1A60FC
:10AD24009DF80F30DBB2184606B0704784B001902E
:10AD3400019951E8013FC3EA034341E80132002A83
:10AD4400F7D10392029300BF04B0704786B001901C
:10AD54000091019B53E8021F1FFAA1F2D888824296
:10AD640002BFBFF32F8F00230DE0D88902449889D6
:10AD7400824228BF121AC1EA024243E80220002894
:10AD8400E8D14FF001038DF80F3005900291049241
:10AD9400029A009B1A609DF80F30DBB2184606B089
:10ADA400704784B00190019951E8023FC3EA2343FC
:10ADB40041E80232002AF7D10392029300BF04B0A3
:10ADC400704786B00190019B53E8021FDA88B1EB0B
:10ADD400314F4FF0000017BF89B242EA024241EA04
:10ADE400024204E05968B1EB314F08BF012043E847
:10ADF40002210029E8D18DF80F00059104929DF8F5
:10AE04000F30DBB2184606B0704784B0039002914D
:10AE140011461A460B46ADF806301346ADF8043019
:10AE2400029B002B01D10E231FE0BDF80630BDF8B4
:10AE34000420B3FBF2F102FB01F29B1A9BB2002B3C
:10AE440001D0092311E0039B029A1A60039B00229C
:10AE54005A60039B00229A60039BBDF806209A81E6
:10AE6400039BBDF80420DA810023184604B0704720
:10AE740000B585B001900198FFF7A3FF03468DF854
:10AE84000F309DF80F30002B01D0002300E0112378
:10AE9400184605B05DF804FB00B585B0019000913B
:10AEA400009B19460198FFF717FF0346002B07D0B4
:10AEB400019B1B68009A128813440393039B00E0D0
:10AEC4000023184605B05DF804FB00B583B001907B
:10AED4000091009B1A88009B5B889A4204D10198D8
:10AEE400FFF724FF012300E00023184603B05DF8B8
:10AEF40004FB00B585B001900091009B19460198B0
:10AF0400FFF724FF0346002B07D0019B1B68009A20
:10AF1400528813440393039B00E00023184605B0B2
:10AF24005DF804FB00B583B001900091009B1A8882
:10AF3400009B5B889A4204D10198FFF732FF0123FA
:10AF440000E00023184603B05DF804FB00B585B0AB
:10AF540001900091009B5B099B00019AD018009B13
:10AF640003F01F03012202FA03F3194600F0E6F886
:10AF7400039000BF05B05DF804FB00B583B00190F9
:10AF84000091009B5B099B00019AD018009B03F081
:10AF94001F03012202FA03F3194600F0B7F8024630
:10AFA400009B03F01F0322FA03F303F00103002BB9
:10AFB40014BF01230023DBB2184603B05DF804FB81
:10AFC40000B585B001900091009B5B099B00019A3C
:10AFD400D018009B03F01F03012202FA03F3DB43A2
:10AFE400194600F0DBF8039000BF05B05DF804FBE0
:10AFF40082B001900091009B5B099B00019A13446D
:10B004001A68009B03F01F0322FA03F303F0010301
:10B01400002B14BF01230023DBB2184602B0704793
:10B0240000B58DB00190009100230B934BE00B9B76
:10B034009B00019A13441B68DB430793079B93FA15
:10B04400A3F30693069B0893089B002B01D12023AE
:10B0540003E0089BB3FA83F3DBB20A932BE00B9B68
:10B064005A010A9B13440993099A009B9A4226D2D7
:10B0740009990198FFF781FF034683F00103DBB2CE
:10B08400002B01D0099B26E00B9B9B00019A1344E3
:10B094001B68DB430493049B93FAA3F30393039B7E
:10B0A4000593059B002B01D1202303E0059BB3FAF4
:10B0B40083F3DBB20A930A9B1F2BD0D900E000BFB5
:10B0C4000B9B01330B93009B013B5B095A1C0B9BAD
:10B0D4009A42ACD8009B18460DB05DF804FB10B43E
:10B0E40087B001900091019B009A53E8004F1046ED
:10B0F40043E8000191F0000FF7D105940490039107
:10B10400059B184607B05DF8044B704710B487B030
:10B1140001900091019B009A53E8004F44EA020019
:10B1240043E8000191F0000FF6D1059404900391D7
:10B13400059B184607B05DF8044B704710B487B000
:10B1440001900091019B009A53E8004F44EA0200E9
:10B1540043E8000191F0000FF6D1059404900391A7
:10B16400049B184607B05DF8044B704710B487B0D1
:10B1740001900091019B009A53E8004F04EA0200F9
:10B1840043E8000191F0000FF6D105940490039177
:10B19400059B184607B05DF8044B704710B487B0A0
:10B1A40001900091019B009A53E8004F04EA0200C9
:10B1B40043E8000191F0000FF6D105940490039147
:10B1C400049B184607B05DF8044B704710B487B071
:10B1D40001900091019B009A53E8004F04EB020098
:10B1E40043E8000191F0000FF6D105940490039117
:10B1F400059B184607B05DF8044B704710B487B040
:10B2040001900091019B009A53E8004F04EB020067
:10B2140043E8000191F0000FF6D1059404900391E6
:10B22400049B184607B05DF8044B704710B487B010
:10B2340001900091019B009A53E8004FA4EB020097
:10B2440043E8000191F0000FF6D1059404900391B6
:10B25400049B184607B05DF8044B704700B583B0F3
:10B26400019001210198FFF751FF0346184603B0EE
:10B274005DF804FB00B583B0019001210198FFF74C
:10B284005DFF0346184603B05DF804FB00B583B0C8
:10B29400019000210198FFF769FF0346184603B0A7
:10B2A4005DF804FB00B583B001900B468DF80330C4
:10B2B400019B002B03D10849E82006F02DFC019BDB
:10B2C400DA689DF803300199098A01FB03F31344FA
:10B2D400184603B05DF804FBD8CC030000B583B076
:10B2E40001900091019B002B03D10849F52006F041
:10B2F40013FC009B019AD2689B1A019A128AB3FB31
:10B30400F2F3DBB2184603B05DF804FBD8CC0300BB
:10B3140000B585B00190019B002B01D10E234DE0B7
:10B32400019B1B68002B03D12649FF2006F0F4FB88
:10B33400019B5B68002B04D122494FF4807006F016
:10B34400EBFB019B9B68002B04D11E4940F20110CA
:10B3540006F0E2FB019BDB68002B04D119494FF492
:10B36400817006F0D9FB019B1B8A002B04D115497F
:10B3740040F2031006F0D0FB019B9B681A46019B28
:10B384005B68D31A8DF80F30019B1B68019A5268D1
:10B394001A6007E0019B1A681368591C11609DF834
:10B3A4000F201A709DF80F305A1E8DF80F20002BB5
:10B3B400F0D1019B1B6800221A710023184605B0C6
:10B3C4005DF804FBD8CC030000B585B00190019B67
:10B3D400002B04D120494FF4927006F09DFB00230A
:10B3E400039300238DF80A300DF10A031846FDF784
:10B3F400C9F8019B1B681A68019B5B689A4220D9B3
:10B40400019B1B681A68013A1A601B681B7819466D
:10B414000198FFF747FF0390019B9B681A46019B25
:10B424001B681B68D31A8DF80B30019B1B681B79B2
:10B434009DF80B209A4204D9019B1B689DF80B20B0
:10B444001A719DF80A301846FDF7B2F8039B1846A6
:10B4540005B05DF804FB00BFD8CC030010B584B080
:10B4640001900091019B002B04D1154940F2471033
:10B4740006F052FB009B002B04D111494FF4A47039
:10B4840006F04AFB009B039300238DF80B300DF16B
:10B494000B031846FDF776F8019B1B681C68621CB9
:10B4A4001A6003990198FFF719FF034623709DF86A
:10B4B4000B301846FDF77CF800BF04B010BD00BF88
:10B4C400D8CC030000B583B00190019B002B03D1BD
:10B4D4000C49312006F020FB019B9B68002B0CD00B
:10B4E400019B5B69019A1069019A1168019A92683B
:10B4F4009847019B00229A6000E000BF03B05DF80A
:10B5040004FB00BF40CD03000EB400B584B001902D
:10B51400019B002B03D11849422006F0FDFA019B40
:10B524005B69002B03D11449432006F0F5FA019B13
:10B534001B68002B03D11049442006F0EDFA019B4F
:10B544005B68002B03D10C49452006F0E5FA059B06
:10B55400002B0AD00023039306AB039303AB1A46D4
:10B564000599019800F0B8F900E000BF04B05DF857
:10B5740004EB03B0704700BF40CD030000B583B0B7
:10B5840001900B468DF803309DF803300A2B03D14C
:10B594000D210198FFF7F2FF019B1A68019B9B683C
:10B5A400581C0199886013449DF803201A70019B6C
:10B5B4009A68019B5B689A4202D30198FFF782FF65
:10B5C40000BF03B05DF804FB00B587B0039002919F
:10B5D4000192009300230593009B03F00103002BC9
:10B5E40024D00BE0029B01330293059B01330593A6
:10B5F4009DF8133019460398FFF7C0FF029B1B7890
:10B604008DF813309DF81330002BEBD106E0019B2D
:10B61400013B019320210398FFF7B0FF019A059B9A
:10B624009A422ED9019B002BF1D12AE0029B002BD8
:10B634000BD0029810F0FCFB059006E0019B013B47
:10B64400019320210398FFF799FF019A059B9A42E1
:10B654000FD9019B002BF1D10BE0029B0133029324
:10B66400059B013305939DF8133019460398FFF7A2
:10B6740085FF029B1B788DF813309DF81330002B47
:10B68400EBD100BF07B05DF804FB000000B589B042
:10B694000390029101920093029B07930123069366
:10B6A40007E0079A019BB2FBF3F30793069B013370
:10B6B4000693079A019B9A42F3D2009A069B9A42F8
:10B6C40001D9009B06930B9B03F00103002B22D1AD
:10B6D4000A9B002B1FD00B9B03F00203002B06D008
:10B6E400009B002B03D130238DF8173002E0202378
:10B6F4008DF8173008E00A9B013B0A939DF8173038
:10B7040019460398FFF73AFF0A9B002B03D0069AC9
:10B714000A9B9A42EFD301230793009B012B03D981
:10B72400009B013B009309E0029A079BB2FBF3F3F1
:10B734000493049A019B9A4200D205E0079B019A64
:10B7440002FB03F30793E8E7029A079BB2FBF3F3C8
:10B754000493049B079A02FB03F3029AD31A0293FD
:10B76400154A049B13441B7819460398FFF706FFF8
:10B77400079A019BB2FBF3F30793079B002BE3D1DA
:10B784000B9B03F00103002B11D00A9B002B0ED05E
:10B7940006E00A9B013B0A9320210398FFF7EEFE83
:10B7A4000A9B002B03D0069A0A9B9A42F1D300BF4E
:10B7B40009B05DF804FB00BF00CE030000B589B0FA
:10B7C4000590049103920293049B002BB8BF5B4243
:10B7D40006930123079307E0039B069A92FBF3F376
:10B7E4000693079B01330793039B069A9A42F3DA65
:10B7F400029A079B9A4201D9029B07930A9B002B4A
:10B804000AD0049B002B04DB0B9B03F00403002BE6
:10B8140002D00A9B013B0A930B9B03F00203002B0B
:10B8240002D0029B002B16D00B9B03F00103002BCC
:10B8340011D10A9B002B0ED006E00A9B013B0A9310
:10B8440020210598FFF79AFE0A9B002B03D0079A44
:10B854000A9B9A42F1D3049B002B07DA049B5B42B8
:10B8640004932D210598FFF789FE08E00B9B03F054
:10B874000403002B03D02B210598FFF77FFE0B9BBD
:10B8840003F00203002B19D00B9B03F00103002BE0
:10B8940014D1029B002B11D10A9B002B0ED006E081
:10B8A4000A9B013B0A9330210598FFF767FE0A9B28
:10B8B400002B03D0079A0A9B9A42F1D304990B9B5D
:10B8C40001930A9B0093029B039A0598FFF7DEFEFF
:10B8D40000BF09B05DF804FB00B58FB0059004917A
:10B8E4000392059B002B04D1C84940F2522006F074
:10B8F40013F9059B5B69002B04D1C4494FF41570FF
:10B9040006F00AF9059B1B68002B04D1BF4940F2DD
:10B91400552006F001F9059B5B68002B04D1BB4957
:10B9240040F2562006F0F8F8049B002B00F0ED815D
:10B93400049B1B788DF83730049B013304939DF8E6
:10B944003730002B00F0D8819DF83730252B40F09C
:10B95400C78100230A9301230C93049B1B788DF861
:10B9640037309DF837302D2B04D0302B0AD02B2BB9
:10B9740010D017E00A9B43F001030A93049B0133A0
:10B98400049312E00A9B43F002030A93049B0133DD
:10B9940004930AE00A9B43F004030A93049B0133D3
:10B9A400049302E000230C9300BF0C9B002BD4D122
:10B9B400002309939DF837302A2B0CD1039B1B6875
:10B9C400191D039A11601B68099A13440993049B77
:10B9D400013304931AE0049B1B788DF837309DF8EB
:10B9E40037302F2B12D99DF83730392B0ED8049BC2
:10B9F40001330493099A13469B0013445B001A46CF
:10BA04009DF837301344303B0993D3E700230B935D
:10BA1400049B1B788DF837309DF837302E2B1DD1C1
:10BA2400049B01330493049B1B788DF837309DF8F5
:10BA340037302F2B12D99DF83730392B0ED8049B71
:10BA4400013304930B9A13469B0013445B001A467C
:10BA54009DF837301344303B0B93E4E7049B1B7889
:10BA64008DF837309DF837306C2B03D09DF8373084
:10BA7400682B07D1049B01330493049B1B788DF836
:10BA84003730EFE79DF83730253B532B00F2238105
:10BA940001A252F823F000BFD1BC0200DBBC0200BB
:10BAA400DBBC0200DBBC0200DBBC0200DBBC02002E
:10BAB400DBBC0200DBBC0200DBBC0200DBBC02001E
:10BAC400DBBC0200DBBC0200DBBC0200DBBC02000E
